{
  "contractName": "ArraysImpl",
  "abi": [
    {
      "inputs": [
        {
          "name": "_array",
          "type": "uint256[]"
        }
      ],
      "payable": false,
      "stateMutability": "nonpayable",
      "type": "constructor"
    },
    {
      "constant": true,
      "inputs": [
        {
          "name": "_element",
          "type": "uint256"
        }
      ],
      "name": "findUpperBound",
      "outputs": [
        {
          "name": "",
          "type": "uint256"
        }
      ],
      "payable": false,
      "stateMutability": "view",
      "type": "function"
    }
  ],
  "bytecode": "0x608060405234801561001057600080fd5b506040516102a43803806102a4833981018060405281019080805182019291905050508060009080519060200190610049929190610050565b50506100c2565b82805482825590600052602060002090810192821561008c579160200282015b8281111561008b578251825591602001919060010190610070565b5b509050610099919061009d565b5090565b6100bf91905b808211156100bb5760008160009055506001016100a3565b5090565b90565b6101d3806100d16000396000f300608060405260043610610041576000357c0100000000000000000000000000000000000000000000000000000000900463ffffffff16806333e3a58a14610046575b600080fd5b34801561005257600080fd5b5061007160048036038101908080359060200190929190505050610087565b6040518082815260200191505060405180910390f35b600061009d8260006100a490919063ffffffff16565b9050919050565b6000806000806000868054905014156100c05760009350610152565b60009250858054905091505b81831015610114576100de838361015b565b90508486828154811015156100ef57fe5b906000526020600020015411156101085780915061010f565b6001810192505b6100cc565b60008311801561013e575084866001850381548110151561013157fe5b9060005260206000200154145b1561014e57600183039350610152565b8293505b50505092915050565b60006002808381151561016a57fe5b0660028581151561017757fe5b060181151561018257fe5b0460028381151561018f57fe5b0460028581151561019c57fe5b0401019050929150505600a165627a7a72305820089a0f9581bb0309834290bf861123496dd36793f8872c48b119c9f9b6a980990029",
  "source": "pragma solidity ^0.4.24;\r\n\r\nimport \"../utils/Arrays.sol\";\r\n\r\ncontract ArraysImpl {\r\n    using Arrays for uint256[];\r\n\r\n    uint256[] private array;\r\n\r\n    constructor (uint256[] _array) public {\r\n        array = _array;\r\n    }\r\n\r\n    function findUpperBound(uint256 _element) external view returns (uint256) {\r\n        return array.findUpperBound(_element);\r\n    }\r\n}\r\n",
  "sourcePath": "D:\\dev\\tokenmint-github\\contracts\\open-zeppelin-contracts\\mocks\\ArraysImpl.sol",
  "compiler": {
    "name": "solc",
    "version": "0.4.24+commit.e67f0147.Emscripten.clang"
  },
  "schemaVersion": "2.0.1",
  "updatedAt": "2019-02-04T16:11:06.223Z"
}