{
  "contractName": "BogusAnnouncement",
  "abi": [
    {
      "constant": true,
      "inputs": [],
      "name": "announcementHash",
      "outputs": [
        {
          "name": "",
          "type": "uint256"
        }
      ],
      "payable": false,
      "stateMutability": "view",
      "type": "function"
    },
    {
      "constant": true,
      "inputs": [],
      "name": "announcementType",
      "outputs": [
        {
          "name": "",
          "type": "uint256"
        }
      ],
      "payable": false,
      "stateMutability": "view",
      "type": "function"
    },
    {
      "constant": true,
      "inputs": [],
      "name": "announcementName",
      "outputs": [
        {
          "name": "",
          "type": "bytes32"
        }
      ],
      "payable": false,
      "stateMutability": "view",
      "type": "function"
    },
    {
      "constant": true,
      "inputs": [],
      "name": "announcementURI",
      "outputs": [
        {
          "name": "",
          "type": "bytes32"
        }
      ],
      "payable": false,
      "stateMutability": "view",
      "type": "function"
    },
    {
      "inputs": [
        {
          "name": "_announcementName",
          "type": "bytes32"
        },
        {
          "name": "_announcementURI",
          "type": "bytes32"
        },
        {
          "name": "_announcementType",
          "type": "uint256"
        },
        {
          "name": "_announcementHash",
          "type": "uint256"
        }
      ],
      "payable": false,
      "stateMutability": "nonpayable",
      "type": "constructor"
    }
  ],
  "bytecode": "0x608060405234801561001057600080fd5b506040516080806101ef8339810180604052810190808051906020019092919080519060200190929190805190602001909291908051906020019092919050505083600081600019169055508260018160001916905550816002819055508060038190555050505050610167806100886000396000f300608060405260043610610062576000357c0100000000000000000000000000000000000000000000000000000000900463ffffffff1680631274c3f3146100675780635fcce279146100925780639ea0c08c146100bd578063f31294a4146100f0575b600080fd5b34801561007357600080fd5b5061007c610123565b6040518082815260200191505060405180910390f35b34801561009e57600080fd5b506100a7610129565b6040518082815260200191505060405180910390f35b3480156100c957600080fd5b506100d261012f565b60405180826000191660001916815260200191505060405180910390f35b3480156100fc57600080fd5b50610105610135565b60405180826000191660001916815260200191505060405180910390f35b60035481565b60025481565b60005481565b600154815600a165627a7a723058204356fb23acbdd46d4d3c40ca0a6eaa5c008649d63dcc92e5fa7e87814dcd1df30029",
  "source": "pragma solidity ^0.4.18;\r\n\r\ncontract BogusAnnouncement {\r\n  bytes32 public announcementName;\r\n  bytes32 public announcementURI;\r\n  uint256 public announcementType;\r\n  uint256 public announcementHash;\r\n\r\n  function BogusAnnouncement(bytes32 _announcementName, bytes32 _announcementURI, uint256 _announcementType, uint256 _announcementHash) public {\r\n    announcementName = _announcementName;\r\n    announcementURI = _announcementURI;\r\n    announcementType = _announcementType;\r\n    announcementHash = _announcementHash;\r\n  }\r\n}\r\n",
  "sourcePath": "D:\\dev\\tokenmint\\contracts\\tokenmarketnet-contracts\\contracts\\security-token\\tests\\BogusAnnouncement.sol",
  "compiler": {
    "name": "solc",
    "version": "0.4.24+commit.e67f0147.Emscripten.clang"
  },
  "schemaVersion": "2.0.1",
  "updatedAt": "2018-12-17T12:17:37.994Z"
}