{
  "contractName": "CappedCrowdsaleImpl",
  "abi": [
    {
      "constant": true,
      "inputs": [],
      "name": "rate",
      "outputs": [
        {
          "name": "",
          "type": "uint256"
        }
      ],
      "payable": false,
      "stateMutability": "view",
      "type": "function"
    },
    {
      "constant": true,
      "inputs": [],
      "name": "cap",
      "outputs": [
        {
          "name": "",
          "type": "uint256"
        }
      ],
      "payable": false,
      "stateMutability": "view",
      "type": "function"
    },
    {
      "constant": true,
      "inputs": [],
      "name": "weiRaised",
      "outputs": [
        {
          "name": "",
          "type": "uint256"
        }
      ],
      "payable": false,
      "stateMutability": "view",
      "type": "function"
    },
    {
      "constant": true,
      "inputs": [],
      "name": "capReached",
      "outputs": [
        {
          "name": "",
          "type": "bool"
        }
      ],
      "payable": false,
      "stateMutability": "view",
      "type": "function"
    },
    {
      "constant": true,
      "inputs": [],
      "name": "wallet",
      "outputs": [
        {
          "name": "",
          "type": "address"
        }
      ],
      "payable": false,
      "stateMutability": "view",
      "type": "function"
    },
    {
      "constant": false,
      "inputs": [
        {
          "name": "_beneficiary",
          "type": "address"
        }
      ],
      "name": "buyTokens",
      "outputs": [],
      "payable": true,
      "stateMutability": "payable",
      "type": "function"
    },
    {
      "constant": true,
      "inputs": [],
      "name": "token",
      "outputs": [
        {
          "name": "",
          "type": "address"
        }
      ],
      "payable": false,
      "stateMutability": "view",
      "type": "function"
    },
    {
      "inputs": [
        {
          "name": "_rate",
          "type": "uint256"
        },
        {
          "name": "_wallet",
          "type": "address"
        },
        {
          "name": "_token",
          "type": "address"
        },
        {
          "name": "_cap",
          "type": "uint256"
        }
      ],
      "payable": false,
      "stateMutability": "nonpayable",
      "type": "constructor"
    },
    {
      "payable": true,
      "stateMutability": "payable",
      "type": "fallback"
    },
    {
      "anonymous": false,
      "inputs": [
        {
          "indexed": true,
          "name": "purchaser",
          "type": "address"
        },
        {
          "indexed": true,
          "name": "beneficiary",
          "type": "address"
        },
        {
          "indexed": false,
          "name": "value",
          "type": "uint256"
        },
        {
          "indexed": false,
          "name": "amount",
          "type": "uint256"
        }
      ],
      "name": "TokenPurchase",
      "type": "event"
    }
  ],
  "bytecode": "0x608060405234801561001057600080fd5b50604051608080610798833981018060405281019080805190602001909291908051906020019092919080519060200190929190805190602001909291905050508084848460008311151561006457600080fd5b600073ffffffffffffffffffffffffffffffffffffffff168273ffffffffffffffffffffffffffffffffffffffff16141515156100a057600080fd5b600073ffffffffffffffffffffffffffffffffffffffff168173ffffffffffffffffffffffffffffffffffffffff16141515156100dc57600080fd5b8260028190555081600160006101000a81548173ffffffffffffffffffffffffffffffffffffffff021916908373ffffffffffffffffffffffffffffffffffffffff160217905550806000806101000a81548173ffffffffffffffffffffffffffffffffffffffff021916908373ffffffffffffffffffffffffffffffffffffffff16021790555050505060008111151561017657600080fd5b806004819055505050505050610607806101916000396000f300608060405260043610610083576000357c0100000000000000000000000000000000000000000000000000000000900463ffffffff1680632c4e722e1461008e578063355274ea146100b95780634042b66f146100e45780634f9359451461010f578063521eb2731461013e578063ec8ac4d814610195578063fc0c546a146101cb575b61008c33610222565b005b34801561009a57600080fd5b506100a36102f0565b6040518082815260200191505060405180910390f35b3480156100c557600080fd5b506100ce6102f6565b6040518082815260200191505060405180910390f35b3480156100f057600080fd5b506100f96102fc565b6040518082815260200191505060405180910390f35b34801561011b57600080fd5b50610124610302565b604051808215151515815260200191505060405180910390f35b34801561014a57600080fd5b50610153610311565b604051808273ffffffffffffffffffffffffffffffffffffffff1673ffffffffffffffffffffffffffffffffffffffff16815260200191505060405180910390f35b6101c9600480360381019080803573ffffffffffffffffffffffffffffffffffffffff169060200190929190505050610222565b005b3480156101d757600080fd5b506101e0610337565b604051808273ffffffffffffffffffffffffffffffffffffffff1673ffffffffffffffffffffffffffffffffffffffff16815260200191505060405180910390f35b600080349150610232838361035c565b61023b8261038f565b9050610252826003546103ad90919063ffffffff16565b60038190555061026283826103cb565b8273ffffffffffffffffffffffffffffffffffffffff163373ffffffffffffffffffffffffffffffffffffffff167f623b3804fa71d67900d064613da8f94b9617215ee90799290593e1745087ad188484604051808381526020018281526020019250505060405180910390a36102d983836103d9565b6102e16103dd565b6102eb8383610448565b505050565b60025481565b60045481565b60035481565b60006004546003541015905090565b600160009054906101000a900473ffffffffffffffffffffffffffffffffffffffff1681565b6000809054906101000a900473ffffffffffffffffffffffffffffffffffffffff1681565b610366828261044c565b60045461037e826003546103ad90919063ffffffff16565b1115151561038b57600080fd5b5050565b60006103a66002548361049c90919063ffffffff16565b9050919050565b60008082840190508381101515156103c157fe5b8091505092915050565b6103d582826104d7565b5050565b5050565b600160009054906101000a900473ffffffffffffffffffffffffffffffffffffffff1673ffffffffffffffffffffffffffffffffffffffff166108fc349081150290604051600060405180830381858888f19350505050158015610445573d6000803e3d6000fd5b50565b5050565b600073ffffffffffffffffffffffffffffffffffffffff168273ffffffffffffffffffffffffffffffffffffffff161415151561048857600080fd5b6000811415151561049857600080fd5b5050565b60008060008414156104b157600091506104d0565b82840290508284828115156104c257fe5b041415156104cc57fe5b8091505b5092915050565b6000809054906101000a900473ffffffffffffffffffffffffffffffffffffffff1673ffffffffffffffffffffffffffffffffffffffff1663a9059cbb83836040518363ffffffff167c0100000000000000000000000000000000000000000000000000000000028152600401808373ffffffffffffffffffffffffffffffffffffffff1673ffffffffffffffffffffffffffffffffffffffff16815260200182815260200192505050602060405180830381600087803b15801561059b57600080fd5b505af11580156105af573d6000803e3d6000fd5b505050506040513d60208110156105c557600080fd5b81019080805190602001909291905050505050505600a165627a7a723058206efea4db267fe667bc34e991280951051d0bf5e9d0578e6b2a82206756ccb8200029",
  "source": "pragma solidity ^0.4.18;\n\nimport \"../token/ERC20/ERC20.sol\";\nimport \"../crowdsale/validation/CappedCrowdsale.sol\";\n\n\ncontract CappedCrowdsaleImpl is CappedCrowdsale {\n\n  function CappedCrowdsaleImpl (\n    uint256 _rate,\n    address _wallet,\n    ERC20 _token,\n    uint256 _cap\n  ) \n    public\n    Crowdsale(_rate, _wallet, _token)\n    CappedCrowdsale(_cap)\n  {\n  }\n\n}\n",
  "sourcePath": "D:\\dev\\tokenmint\\contracts\\tokenmarketnet-contracts\\contracts\\zeppelin\\contracts\\mocks\\CappedCrowdsaleImpl.sol",
  "compiler": {
    "name": "solc",
    "version": "0.4.24+commit.e67f0147.Emscripten.clang"
  },
  "schemaVersion": "2.0.1",
  "updatedAt": "2018-12-07T11:58:33.993Z"
}