{
  "contractName": "CheckpointToken",
  "abi": [
    {
      "constant": true,
      "inputs": [],
      "name": "name",
      "outputs": [
        {
          "name": "",
          "type": "string"
        }
      ],
      "payable": false,
      "stateMutability": "view",
      "type": "function"
    },
    {
      "constant": true,
      "inputs": [],
      "name": "decimals",
      "outputs": [
        {
          "name": "",
          "type": "uint256"
        }
      ],
      "payable": false,
      "stateMutability": "view",
      "type": "function"
    },
    {
      "constant": false,
      "inputs": [
        {
          "name": "receiver",
          "type": "address"
        },
        {
          "name": "amount",
          "type": "uint256"
        },
        {
          "name": "data",
          "type": "bytes"
        }
      ],
      "name": "transferAndCall",
      "outputs": [
        {
          "name": "success",
          "type": "bool"
        }
      ],
      "payable": false,
      "stateMutability": "nonpayable",
      "type": "function"
    },
    {
      "constant": true,
      "inputs": [
        {
          "name": "",
          "type": "address"
        },
        {
          "name": "",
          "type": "uint256"
        }
      ],
      "name": "tokenBalances",
      "outputs": [
        {
          "name": "blockNumber",
          "type": "uint256"
        },
        {
          "name": "value",
          "type": "uint256"
        }
      ],
      "payable": false,
      "stateMutability": "view",
      "type": "function"
    },
    {
      "constant": true,
      "inputs": [
        {
          "name": "",
          "type": "uint256"
        }
      ],
      "name": "tokensTotal",
      "outputs": [
        {
          "name": "blockNumber",
          "type": "uint256"
        },
        {
          "name": "value",
          "type": "uint256"
        }
      ],
      "payable": false,
      "stateMutability": "view",
      "type": "function"
    },
    {
      "constant": true,
      "inputs": [
        {
          "name": "",
          "type": "address"
        },
        {
          "name": "",
          "type": "address"
        }
      ],
      "name": "allowed",
      "outputs": [
        {
          "name": "",
          "type": "uint256"
        }
      ],
      "payable": false,
      "stateMutability": "view",
      "type": "function"
    },
    {
      "constant": true,
      "inputs": [],
      "name": "transferVerifier",
      "outputs": [
        {
          "name": "",
          "type": "address"
        }
      ],
      "payable": false,
      "stateMutability": "view",
      "type": "function"
    },
    {
      "constant": true,
      "inputs": [],
      "name": "symbol",
      "outputs": [
        {
          "name": "",
          "type": "string"
        }
      ],
      "payable": false,
      "stateMutability": "view",
      "type": "function"
    },
    {
      "inputs": [
        {
          "name": "_name",
          "type": "string"
        },
        {
          "name": "_symbol",
          "type": "string"
        },
        {
          "name": "_decimals",
          "type": "uint256"
        }
      ],
      "payable": false,
      "stateMutability": "nonpayable",
      "type": "constructor"
    },
    {
      "anonymous": false,
      "inputs": [
        {
          "indexed": false,
          "name": "from",
          "type": "address"
        },
        {
          "indexed": false,
          "name": "receiver",
          "type": "address"
        },
        {
          "indexed": false,
          "name": "amount",
          "type": "uint256"
        },
        {
          "indexed": false,
          "name": "data",
          "type": "bytes"
        }
      ],
      "name": "Transfer",
      "type": "event"
    },
    {
      "anonymous": false,
      "inputs": [
        {
          "indexed": true,
          "name": "owner",
          "type": "address"
        },
        {
          "indexed": true,
          "name": "spender",
          "type": "address"
        },
        {
          "indexed": false,
          "name": "value",
          "type": "uint256"
        }
      ],
      "name": "Approval",
      "type": "event"
    },
    {
      "anonymous": false,
      "inputs": [
        {
          "indexed": true,
          "name": "from",
          "type": "address"
        },
        {
          "indexed": true,
          "name": "to",
          "type": "address"
        },
        {
          "indexed": false,
          "name": "value",
          "type": "uint256"
        }
      ],
      "name": "Transfer",
      "type": "event"
    },
    {
      "constant": true,
      "inputs": [
        {
          "name": "owner",
          "type": "address"
        },
        {
          "name": "spender",
          "type": "address"
        }
      ],
      "name": "allowance",
      "outputs": [
        {
          "name": "",
          "type": "uint256"
        }
      ],
      "payable": false,
      "stateMutability": "view",
      "type": "function"
    },
    {
      "constant": false,
      "inputs": [
        {
          "name": "spender",
          "type": "address"
        },
        {
          "name": "value",
          "type": "uint256"
        }
      ],
      "name": "approve",
      "outputs": [
        {
          "name": "",
          "type": "bool"
        }
      ],
      "payable": false,
      "stateMutability": "nonpayable",
      "type": "function"
    },
    {
      "constant": false,
      "inputs": [
        {
          "name": "from",
          "type": "address"
        },
        {
          "name": "to",
          "type": "address"
        },
        {
          "name": "value",
          "type": "uint256"
        }
      ],
      "name": "transferFrom",
      "outputs": [
        {
          "name": "",
          "type": "bool"
        }
      ],
      "payable": false,
      "stateMutability": "nonpayable",
      "type": "function"
    },
    {
      "constant": false,
      "inputs": [
        {
          "name": "to",
          "type": "address"
        },
        {
          "name": "value",
          "type": "uint256"
        }
      ],
      "name": "transfer",
      "outputs": [
        {
          "name": "",
          "type": "bool"
        }
      ],
      "payable": false,
      "stateMutability": "nonpayable",
      "type": "function"
    },
    {
      "constant": true,
      "inputs": [],
      "name": "totalSupply",
      "outputs": [
        {
          "name": "tokenCount",
          "type": "uint256"
        }
      ],
      "payable": false,
      "stateMutability": "view",
      "type": "function"
    },
    {
      "constant": true,
      "inputs": [
        {
          "name": "blockNumber",
          "type": "uint256"
        }
      ],
      "name": "totalSupplyAt",
      "outputs": [
        {
          "name": "tokenCount",
          "type": "uint256"
        }
      ],
      "payable": false,
      "stateMutability": "view",
      "type": "function"
    },
    {
      "constant": true,
      "inputs": [
        {
          "name": "owner",
          "type": "address"
        }
      ],
      "name": "balanceOf",
      "outputs": [
        {
          "name": "balance",
          "type": "uint256"
        }
      ],
      "payable": false,
      "stateMutability": "view",
      "type": "function"
    },
    {
      "constant": true,
      "inputs": [
        {
          "name": "owner",
          "type": "address"
        },
        {
          "name": "blockNumber",
          "type": "uint256"
        }
      ],
      "name": "balanceAt",
      "outputs": [
        {
          "name": "balance",
          "type": "uint256"
        }
      ],
      "payable": false,
      "stateMutability": "view",
      "type": "function"
    },
    {
      "constant": false,
      "inputs": [
        {
          "name": "spender",
          "type": "address"
        },
        {
          "name": "addedValue",
          "type": "uint256"
        },
        {
          "name": "data",
          "type": "bytes"
        }
      ],
      "name": "increaseApproval",
      "outputs": [
        {
          "name": "",
          "type": "bool"
        }
      ],
      "payable": false,
      "stateMutability": "nonpayable",
      "type": "function"
    },
    {
      "constant": false,
      "inputs": [
        {
          "name": "spender",
          "type": "address"
        },
        {
          "name": "addedValue",
          "type": "uint256"
        }
      ],
      "name": "increaseApproval",
      "outputs": [
        {
          "name": "",
          "type": "bool"
        }
      ],
      "payable": false,
      "stateMutability": "nonpayable",
      "type": "function"
    },
    {
      "constant": false,
      "inputs": [
        {
          "name": "spender",
          "type": "address"
        },
        {
          "name": "subtractedValue",
          "type": "uint256"
        }
      ],
      "name": "decreaseApproval",
      "outputs": [
        {
          "name": "",
          "type": "bool"
        }
      ],
      "payable": false,
      "stateMutability": "nonpayable",
      "type": "function"
    },
    {
      "constant": false,
      "inputs": [
        {
          "name": "spender",
          "type": "address"
        },
        {
          "name": "subtractedValue",
          "type": "uint256"
        },
        {
          "name": "data",
          "type": "bytes"
        }
      ],
      "name": "decreaseApproval",
      "outputs": [
        {
          "name": "",
          "type": "bool"
        }
      ],
      "payable": false,
      "stateMutability": "nonpayable",
      "type": "function"
    }
  ],
  "bytecode": "0x60806040523480156200001157600080fd5b5060405162001fad38038062001fad8339810180604052810190808051820192919060200180518201929190602001805190602001909291905050508260009080519060200190620000659291906200008f565b5081600190805190602001906200007e9291906200008f565b50806002819055505050506200013e565b828054600181600116156101000203166002900490600052602060002090601f016020900481019282601f10620000d257805160ff191683800117855562000103565b8280016001018555821562000103579182015b8281111562000102578251825591602001919060010190620000e5565b5b50905062000112919062000116565b5090565b6200013b91905b80821115620001375760008160009055506001016200011d565b5090565b90565b611e5f806200014e6000396000f300608060405260043610610112576000357c0100000000000000000000000000000000000000000000000000000000900463ffffffff16806306fdde0314610117578063095ea7b3146101a757806316ca3b631461020c57806318160ddd146102b757806323b872dd146102e2578063313ce567146103675780633b8e6f2e146103925780634000aea0146103f357806348ff56651461049e5780634f0092ab146105065780635c6581651461054e57806366188463146105c557806370a082311461062a5780637272ad49146106815780638daed5281461072c57806395d89b4114610783578063981b24d014610813578063a9059cbb14610854578063d73dd623146108b9578063dd62ed3e1461091e575b600080fd5b34801561012357600080fd5b5061012c610995565b6040518080602001828103825283818151815260200191508051906020019080838360005b8381101561016c578082015181840152602081019050610151565b50505050905090810190601f1680156101995780820380516001836020036101000a031916815260200191505b509250505060405180910390f35b3480156101b357600080fd5b506101f2600480360381019080803573ffffffffffffffffffffffffffffffffffffffff16906020019092919080359060200190929190505050610a33565b604051808215151515815260200191505060405180910390f35b34801561021857600080fd5b5061029d600480360381019080803573ffffffffffffffffffffffffffffffffffffffff16906020019092919080359060200190929190803590602001908201803590602001908080601f0160208091040260200160405190810160405280939291908181526020018383808284378201915050505050509192919290505050610b25565b604051808215151515815260200191505060405180910390f35b3480156102c357600080fd5b506102cc610c0a565b6040518082815260200191505060405180910390f35b3480156102ee57600080fd5b5061034d600480360381019080803573ffffffffffffffffffffffffffffffffffffffff169060200190929190803573ffffffffffffffffffffffffffffffffffffffff16906020019092919080359060200190929190505050610c1c565b604051808215151515815260200191505060405180910390f35b34801561037357600080fd5b5061037c610d24565b6040518082815260200191505060405180910390f35b34801561039e57600080fd5b506103dd600480360381019080803573ffffffffffffffffffffffffffffffffffffffff16906020019092919080359060200190929190505050610d2a565b6040518082815260200191505060405180910390f35b3480156103ff57600080fd5b50610484600480360381019080803573ffffffffffffffffffffffffffffffffffffffff16906020019092919080359060200190929190803590602001908201803590602001908080601f0160208091040260200160405190810160405280939291908181526020018383808284378201915050505050509192919290505050610d7c565b604051808215151515815260200191505060405180910390f35b3480156104aa57600080fd5b506104e9600480360381019080803573ffffffffffffffffffffffffffffffffffffffff16906020019092919080359060200190929190505050610ffc565b604051808381526020018281526020019250505060405180910390f35b34801561051257600080fd5b506105316004803603810190808035906020019092919050505061103c565b604051808381526020018281526020019250505060405180910390f35b34801561055a57600080fd5b506105af600480360381019080803573ffffffffffffffffffffffffffffffffffffffff169060200190929190803573ffffffffffffffffffffffffffffffffffffffff16906020019092919050505061106f565b6040518082815260200191505060405180910390f35b3480156105d157600080fd5b50610610600480360381019080803573ffffffffffffffffffffffffffffffffffffffff16906020019092919080359060200190929190505050611094565b604051808215151515815260200191505060405180910390f35b34801561063657600080fd5b5061066b600480360381019080803573ffffffffffffffffffffffffffffffffffffffff169060200190929190505050611325565b6040518082815260200191505060405180910390f35b34801561068d57600080fd5b50610712600480360381019080803573ffffffffffffffffffffffffffffffffffffffff16906020019092919080359060200190929190803590602001908201803590602001908080601f0160208091040260200160405190810160405280939291908181526020018383808284378201915050505050509192919290505050611376565b604051808215151515815260200191505060405180910390f35b34801561073857600080fd5b5061074161145b565b604051808273ffffffffffffffffffffffffffffffffffffffff1673ffffffffffffffffffffffffffffffffffffffff16815260200191505060405180910390f35b34801561078f57600080fd5b50610798611481565b6040518080602001828103825283818151815260200191508051906020019080838360005b838110156107d85780820151818401526020810190506107bd565b50505050905090810190601f1680156108055780820380516001836020036101000a031916815260200191505b509250505060405180910390f35b34801561081f57600080fd5b5061083e6004803603810190808035906020019092919050505061151f565b6040518082815260200191505060405180910390f35b34801561086057600080fd5b5061089f600480360381019080803573ffffffffffffffffffffffffffffffffffffffff16906020019092919080359060200190929190505050611533565b604051808215151515815260200191505060405180910390f35b3480156108c557600080fd5b50610904600480360381019080803573ffffffffffffffffffffffffffffffffffffffff169060200190929190803590602001909291905050506115af565b604051808215151515815260200191505060405180910390f35b34801561092a57600080fd5b5061097f600480360381019080803573ffffffffffffffffffffffffffffffffffffffff169060200190929190803573ffffffffffffffffffffffffffffffffffffffff1690602001909291905050506117ab565b6040518082815260200191505060405180910390f35b60008054600181600116156101000203166002900480601f016020809104026020016040519081016040528092919081815260200182805460018160011615610100020316600290048015610a2b5780601f10610a0057610100808354040283529160200191610a2b565b820191906000526020600020905b815481529060010190602001808311610a0e57829003601f168201915b505050505081565b600081600660003373ffffffffffffffffffffffffffffffffffffffff1673ffffffffffffffffffffffffffffffffffffffff16815260200190815260200160002060008573ffffffffffffffffffffffffffffffffffffffff1673ffffffffffffffffffffffffffffffffffffffff168152602001908152602001600020819055508273ffffffffffffffffffffffffffffffffffffffff163373ffffffffffffffffffffffffffffffffffffffff167f8c5be1e5ebec7d5bd14f71427d1e84f3dd0314c0f7b2291e5b200ac8c7c3b925846040518082815260200191505060405180910390a36001905092915050565b60003073ffffffffffffffffffffffffffffffffffffffff168473ffffffffffffffffffffffffffffffffffffffff1614151515610b6257600080fd5b610b6c84846115af565b508373ffffffffffffffffffffffffffffffffffffffff168260405180828051906020019080838360005b83811015610bb2578082015181840152602081019050610b97565b50505050905090810190601f168015610bdf5780820380516001836020036101000a031916815260200191505b509150506000604051808303816000865af19150501515610bff57600080fd5b600190509392505050565b6000610c17600543611832565b905090565b6000600660008573ffffffffffffffffffffffffffffffffffffffff1673ffffffffffffffffffffffffffffffffffffffff16815260200190815260200160002060003373ffffffffffffffffffffffffffffffffffffffff1673ffffffffffffffffffffffffffffffffffffffff168152602001908152602001600020548211151515610ca957600080fd5b610cb484848461184e565b8273ffffffffffffffffffffffffffffffffffffffff168473ffffffffffffffffffffffffffffffffffffffff167fddf252ad1be2c89b69c2b068fc378daa952ba7f163c4a11628f55a4df523b3ef846040518082815260200191505060405180910390a3600190509392505050565b60025481565b6000610d74600460008573ffffffffffffffffffffffffffffffffffffffff1673ffffffffffffffffffffffffffffffffffffffff16815260200190815260200160002083611832565b905092915050565b6000610d888484611533565b1515610d9357600080fd5b7fe19260aff97b920c7df27010903aeb9c8d2be5d310a2c67824cf3f15396e4c1633858585604051808573ffffffffffffffffffffffffffffffffffffffff1673ffffffffffffffffffffffffffffffffffffffff1681526020018473ffffffffffffffffffffffffffffffffffffffff1673ffffffffffffffffffffffffffffffffffffffff16815260200183815260200180602001828103825283818151815260200191508051906020019080838360005b83811015610e62578082015181840152602081019050610e47565b50505050905090810190601f168015610e8f5780820380516001836020036101000a031916815260200191505b509550505050505060405180910390a18373ffffffffffffffffffffffffffffffffffffffff1663c0ee0b8a3385856040518463ffffffff167c0100000000000000000000000000000000000000000000000000000000028152600401808473ffffffffffffffffffffffffffffffffffffffff1673ffffffffffffffffffffffffffffffffffffffff16815260200183815260200180602001828103825283818151815260200191508051906020019080838360005b83811015610f61578082015181840152602081019050610f46565b50505050905090810190601f168015610f8e5780820380516001836020036101000a031916815260200191505b50945050505050602060405180830381600087803b158015610faf57600080fd5b505af1158015610fc3573d6000803e3d6000fd5b505050506040513d6020811015610fd957600080fd5b81019080805190602001909291905050501515610ff557600080fd5b9392505050565b60046020528160005260406000208181548110151561101757fe5b9060005260206000209060020201600091509150508060000154908060010154905082565b60058181548110151561104b57fe5b90600052602060002090600202016000915090508060000154908060010154905082565b6006602052816000526040600020602052806000526040600020600091509150505481565b600080600660003373ffffffffffffffffffffffffffffffffffffffff1673ffffffffffffffffffffffffffffffffffffffff16815260200190815260200160002060008573ffffffffffffffffffffffffffffffffffffffff1673ffffffffffffffffffffffffffffffffffffffff168152602001908152602001600020549050808311156111a5576000600660003373ffffffffffffffffffffffffffffffffffffffff1673ffffffffffffffffffffffffffffffffffffffff16815260200190815260200160002060008673ffffffffffffffffffffffffffffffffffffffff1673ffffffffffffffffffffffffffffffffffffffff16815260200190815260200160002081905550611239565b6111b88382611ac090919063ffffffff16565b600660003373ffffffffffffffffffffffffffffffffffffffff1673ffffffffffffffffffffffffffffffffffffffff16815260200190815260200160002060008673ffffffffffffffffffffffffffffffffffffffff1673ffffffffffffffffffffffffffffffffffffffff168152602001908152602001600020819055505b8373ffffffffffffffffffffffffffffffffffffffff163373ffffffffffffffffffffffffffffffffffffffff167f8c5be1e5ebec7d5bd14f71427d1e84f3dd0314c0f7b2291e5b200ac8c7c3b925600660003373ffffffffffffffffffffffffffffffffffffffff1673ffffffffffffffffffffffffffffffffffffffff16815260200190815260200160002060008873ffffffffffffffffffffffffffffffffffffffff1673ffffffffffffffffffffffffffffffffffffffff168152602001908152602001600020546040518082815260200191505060405180910390a3600191505092915050565b600061136f600460008473ffffffffffffffffffffffffffffffffffffffff1673ffffffffffffffffffffffffffffffffffffffff16815260200190815260200160002043611832565b9050919050565b60003073ffffffffffffffffffffffffffffffffffffffff168473ffffffffffffffffffffffffffffffffffffffff16141515156113b357600080fd5b6113bd8484611094565b508373ffffffffffffffffffffffffffffffffffffffff168260405180828051906020019080838360005b838110156114035780820151818401526020810190506113e8565b50505050905090810190601f1680156114305780820380516001836020036101000a031916815260200191505b509150506000604051808303816000865af1915050151561145057600080fd5b600190509392505050565b600360009054906101000a900473ffffffffffffffffffffffffffffffffffffffff1681565b60018054600181600116156101000203166002900480601f0160208091040260200160405190810160405280929190818152602001828054600181600116156101000203166002900480156115175780601f106114ec57610100808354040283529160200191611517565b820191906000526020600020905b8154815290600101906020018083116114fa57829003601f168201915b505050505081565b600061152c600583611832565b9050919050565b600061154033848461184e565b8273ffffffffffffffffffffffffffffffffffffffff163373ffffffffffffffffffffffffffffffffffffffff167fddf252ad1be2c89b69c2b068fc378daa952ba7f163c4a11628f55a4df523b3ef846040518082815260200191505060405180910390a36001905092915050565b600061164082600660003373ffffffffffffffffffffffffffffffffffffffff1673ffffffffffffffffffffffffffffffffffffffff16815260200190815260200160002060008673ffffffffffffffffffffffffffffffffffffffff1673ffffffffffffffffffffffffffffffffffffffff16815260200190815260200160002054611ad990919063ffffffff16565b600660003373ffffffffffffffffffffffffffffffffffffffff1673ffffffffffffffffffffffffffffffffffffffff16815260200190815260200160002060008573ffffffffffffffffffffffffffffffffffffffff1673ffffffffffffffffffffffffffffffffffffffff168152602001908152602001600020819055508273ffffffffffffffffffffffffffffffffffffffff163373ffffffffffffffffffffffffffffffffffffffff167f8c5be1e5ebec7d5bd14f71427d1e84f3dd0314c0f7b2291e5b200ac8c7c3b925600660003373ffffffffffffffffffffffffffffffffffffffff1673ffffffffffffffffffffffffffffffffffffffff16815260200190815260200160002060008773ffffffffffffffffffffffffffffffffffffffff1673ffffffffffffffffffffffffffffffffffffffff168152602001908152602001600020546040518082815260200191505060405180910390a36001905092915050565b6000600660008473ffffffffffffffffffffffffffffffffffffffff1673ffffffffffffffffffffffffffffffffffffffff16815260200190815260200160002060008373ffffffffffffffffffffffffffffffffffffffff1673ffffffffffffffffffffffffffffffffffffffff16815260200190815260200160002054905092915050565b60008061183f8484611af7565b80935081925050505092915050565b600080600073ffffffffffffffffffffffffffffffffffffffff16600360009054906101000a900473ffffffffffffffffffffffffffffffffffffffff1673ffffffffffffffffffffffffffffffffffffffff161415156119ef57600360009054906101000a900473ffffffffffffffffffffffffffffffffffffffff1673ffffffffffffffffffffffffffffffffffffffff1663ad0769948686866040518463ffffffff167c0100000000000000000000000000000000000000000000000000000000028152600401808473ffffffffffffffffffffffffffffffffffffffff1673ffffffffffffffffffffffffffffffffffffffff1681526020018373ffffffffffffffffffffffffffffffffffffffff1673ffffffffffffffffffffffffffffffffffffffff1681526020018281526020019350505050602060405180830381600087803b1580156119a257600080fd5b505af11580156119b6573d6000803e3d6000fd5b505050506040513d60208110156119cc57600080fd5b810190808051906020019092919050505092506000831115156119ee57600080fd5b5b6119f885611325565b9150611a0384611325565b9050611a5f600460008773ffffffffffffffffffffffffffffffffffffffff1673ffffffffffffffffffffffffffffffffffffffff168152602001908152602001600020611a5a8585611ac090919063ffffffff16565b611d0a565b611ab9600460008673ffffffffffffffffffffffffffffffffffffffff1673ffffffffffffffffffffffffffffffffffffffff168152602001908152602001600020611ab48584611ad990919063ffffffff16565b611d0a565b5050505050565b6000828211151515611ace57fe5b818303905092915050565b6000808284019050838110151515611aed57fe5b8091505092915050565b60008060008060008087805490501415611b1d5760008081915080905094509450611d00565b86611b3660018980549050611ac090919063ffffffff16565b815481101515611b4257fe5b90600052602060002090600202016000015486101515611bd35786611b7560018980549050611ac090919063ffffffff16565b815481101515611b8157fe5b90600052602060002090600202016000015487611bac60018a80549050611ac090919063ffffffff16565b815481101515611bb857fe5b90600052602060002090600202016001015494509450611d00565b866000815481101515611be257fe5b906000526020600020906002020160000154861015611c0d5760008081915080905094509450611d00565b60009250611c2960018880549050611ac090919063ffffffff16565b91505b82821115611cbb57611c6d6002611c5f611c50600187611ad990919063ffffffff16565b85611ad990919063ffffffff16565b611e1890919063ffffffff16565b9050858782815481101515611c7e57fe5b906000526020600020906002020160000154111515611c9f57809250611cb6565b611cb3600182611ac090919063ffffffff16565b91505b611c2c565b8683815481101515611cc957fe5b9060005260206000209060020201600001548784815481101515611ce957fe5b906000526020600020906002020160010154945094505b5050509250929050565b600082805490501480611d5257504382611d3260018580549050611ac090919063ffffffff16565b815481101515611d3e57fe5b906000526020600020906002020160000154105b15611db45781604080519081016040528043815260200183815250908060018154018082558091505090600182039060005260206000209060020201600090919290919091506000820151816000015560208201518160010155505050611e14565b60408051908101604052804381526020018281525082611de260018580549050611ac090919063ffffffff16565b815481101515611dee57fe5b906000526020600020906002020160008201518160000155602082015181600101559050505b5050565b6000808284811515611e2657fe5b04905080915050929150505600a165627a7a72305820b139689d452dfdcb4564cb7d20debb77afa5a3bbd2d5dee83244af63b20e46270029",
  "source": "/**\n * This smart contract code is Copyright 2018 TokenMarket Ltd. For more information see https://tokenmarket.net\n * Licensed under the Apache License, version 2.0: https://github.com/TokenMarketNet/ico/blob/master/LICENSE.txt\n * NatSpec is used intentionally to cover also other than public functions\n * Solidity 0.4.18 is intentionally used: it's stable, and our framework is\n * based on that.\n */\n\npragma solidity ^0.4.18;\n\nimport \"../CrowdsaleToken.sol\";\nimport \"./SecurityTransferAgent.sol\";\nimport \"../zeppelin/contracts/math/SafeMath.sol\";\nimport \"../zeppelin/contracts/ownership/Whitelist.sol\";\nimport \"../zeppelin/contracts/token/ERC20/ERC20.sol\";\nimport \"./ERC677Token.sol\";\n\n/**\n * @author TokenMarket /  Ville Sundell <ville at tokenmarket.net>\n */\ncontract CheckpointToken is ERC677Token {\n  using SafeMath for uint256; // We use only uint256 for safety reasons (no boxing)\n\n  string public name;\n  string public symbol;\n  uint256 public decimals;\n  SecurityTransferAgent public transferVerifier;\n\n  struct Checkpoint {\n    uint256 blockNumber;\n    uint256 value;\n  }\n\n  mapping (address => Checkpoint[]) public tokenBalances;\n  Checkpoint[] public tokensTotal;\n\n  mapping (address => mapping (address => uint256)) public allowed;\n\n  /**\n   * @dev Constructor for CheckpointToken, initializing the token\n   *\n   * Here we define initial values for name, symbol and decimals.\n   *\n   * @param _name Initial name of the token\n   * @param _symbol Initial symbol of the token\n   * @param _decimals Number of decimals for the token, industry standard is 18\n   */\n  function CheckpointToken(string _name, string _symbol, uint256 _decimals) public {\n    name = _name;\n    symbol = _symbol;\n    decimals = _decimals;\n  }\n\n  /** PUBLIC FUNCTIONS\n   ****************************************/\n\n  /**\n   * @dev Function to check the amount of tokens that an owner allowed to a spender.\n   * @param owner address The address which owns the funds.\n   * @param spender address The address which will spend the funds.\n   * @return A uint256 specifying the amount of tokens still available for the spender.\n   */\n  function allowance(address owner, address spender) public view returns (uint256) {\n    return allowed[owner][spender];\n  }\n\n  /**\n   * @dev Approve the passed address to spend the specified amount of tokens on behalf of msg.sender.\n   *\n   * Beware that changing an allowance with this method brings the risk that someone may use both the old\n   * and the new allowance by unfortunate transaction ordering. One possible solution to mitigate this\n   * race condition is to first reduce the spender's allowance to 0 and set the desired value afterwards:\n   * https://github.com/ethereum/EIPs/issues/20#issuecomment-263524729\n   * @param spender The address which will spend the funds.\n   * @param value The amount of tokens to be spent.\n   * @return true if the call function was executed successfully\n   */\n  function approve(address spender, uint256 value) public returns (bool) {\n    allowed[msg.sender][spender] = value;\n    Approval(msg.sender, spender, value);\n    return true;\n  }\n\n  /**\n   * @dev Transfer tokens from one address to another\n   * @param from address The address which you want to send tokens from\n   * @param to address The address which you want to transfer to\n   * @param value uint256 the amount of tokens to be transferred\n   * @return true if the call function was executed successfully\n   */\n  function transferFrom(address from, address to, uint256 value) public returns (bool) {\n    require(value <= allowed[from][msg.sender]);\n\n    transferInternal(from, to, value);\n    Transfer(from, to, value);\n    return true;\n  }\n\n  /**\n   * @dev transfer token for a specified address\n   * @param to The address to transfer to.\n   * @param value The amount to be transferred.\n   * @return true if the call function was executed successfully\n   */\n  function transfer(address to, uint256 value) public returns (bool) {\n    transferInternal(msg.sender, to, value);\n    Transfer(msg.sender, to, value);\n    return true;\n  }\n\n  /**\n   * @dev total number of tokens in existence\n   * @return A uint256 specifying the total number of tokens in existence\n   */\n  function totalSupply() public view returns (uint256 tokenCount) {\n    tokenCount = balanceAtBlock(tokensTotal, block.number);\n  }\n\n  /**\n   * @dev total number of tokens in existence at the given block\n   * @param blockNumber The block number we want to query for the total supply\n   * @return A uint256 specifying the total number of tokens at a given block\n   */\n  function totalSupplyAt(uint256 blockNumber) public view returns (uint256 tokenCount) {\n    tokenCount = balanceAtBlock(tokensTotal, blockNumber);\n  }\n\n  /**\n   * @dev Gets the balance of the specified address.\n   * @param owner The address to query the the balance of.\n   * @return An uint256 representing the amount owned by the passed address.\n   */\n  function balanceOf(address owner) public view returns (uint256 balance) {\n    balance = balanceAtBlock(tokenBalances[owner], block.number);\n  }\n\n  /**\n   * @dev Gets the balance of the specified address.\n   * @param owner The address to query the the balance of.\n   * @param blockNumber The block number we want to query for the balance.\n   * @return An uint256 representing the amount owned by the passed address.\n   */\n  function balanceAt(address owner, uint256 blockNumber) public view returns (uint256 balance) {\n    balance = balanceAtBlock(tokenBalances[owner], blockNumber);\n  }\n\n  /**\n   * @dev Increase the amount of tokens that an owner allowed to a spender.\n   *\n   * approve should be called when allowed[spender] == 0. To increment\n   * allowed value is better to use this function to avoid 2 calls (and wait until\n   * the first transaction is mined)\n   * From MonolithDAO Token.sol\n   * @param spender The address which will spend the funds.\n   * @param addedValue The amount of tokens to increase the allowance by.\n   */\n  function increaseApproval(address spender, uint addedValue) public returns (bool) {\n    allowed[msg.sender][spender] = allowed[msg.sender][spender].add(addedValue);\n    Approval(msg.sender, spender, allowed[msg.sender][spender]);\n    return true;\n  }\n\n  /**\n   * @dev Decrease the amount of tokens that an owner allowed to a spender.\n   *\n   * approve should be called when allowed[spender] == 0. To decrement\n   * allowed value is better to use this function to avoid 2 calls (and wait until\n   * the first transaction is mined)\n   * From MonolithDAO Token.sol\n   * @param spender The address which will spend the funds.\n   * @param subtractedValue The amount of tokens to decrease the allowance by.\n   */\n  function decreaseApproval(address spender, uint subtractedValue) public returns (bool) {\n    uint oldValue = allowed[msg.sender][spender];\n    if (subtractedValue > oldValue) {\n      allowed[msg.sender][spender] = 0;\n    } else {\n      allowed[msg.sender][spender] = oldValue.sub(subtractedValue);\n    }\n    Approval(msg.sender, spender, allowed[msg.sender][spender]);\n    return true;\n  }\n\n  /**\n   * @dev Addition to StandardToken methods. Increase the amount of tokens that\n   * an owner allowed to a spender and execute a call with the sent data.\n   *\n   * This is originally from OpenZeppelin.\n   *\n   * approve should be called when allowed[spender] == 0. To increment\n   * allowed value is better to use this function to avoid 2 calls (and wait until\n   * the first transaction is mined)\n   * From MonolithDAO Token.sol\n   * @param spender The address which will spend the funds.\n   * @param addedValue The amount of tokens to increase the allowance by.\n   * @param data ABI-encoded contract call to call `spender` address.\n   */\n  function increaseApproval(address spender, uint addedValue, bytes data) public returns (bool) {\n    require(spender != address(this));\n\n    increaseApproval(spender, addedValue);\n\n    require(spender.call(data));\n\n    return true;\n  }\n\n  /**\n   * @dev Addition to StandardToken methods. Decrease the amount of tokens that\n   * an owner allowed to a spender and execute a call with the sent data.\n   *\n   * This is originally from OpenZeppelin.\n   *\n   * approve should be called when allowed[spender] == 0. To decrement\n   * allowed value is better to use this function to avoid 2 calls (and wait until\n   * the first transaction is mined)\n   * From MonolithDAO Token.sol\n   * @param spender The address which will spend the funds.\n   * @param subtractedValue The amount of tokens to decrease the allowance by.\n   * @param data ABI-encoded contract call to call `spender` address.\n   */\n  function decreaseApproval(address spender, uint subtractedValue, bytes data) public returns (bool) {\n    require(spender != address(this));\n\n    decreaseApproval(spender, subtractedValue);\n\n    require(spender.call(data));\n\n    return true;\n  }\n\n  /** INTERNALS\n   ****************************************/\n\n  function balanceAtBlock(Checkpoint[] storage checkpoints, uint256 blockNumber) internal returns (uint256 balance) {\n    uint256 currentBlockNumber;\n    (currentBlockNumber, balance) = getCheckpoint(checkpoints, blockNumber);\n  }\n\n  function transferInternal(address from, address to, uint256 value) internal {\n    if (address(transferVerifier) != address(0)) {\n      value = transferVerifier.verify(from, to, value);\n      require(value > 0);\n    }\n\n    uint256 fromBalance;\n    uint256 toBalance;\n\n    fromBalance = balanceOf(from);\n    toBalance = balanceOf(to);\n\n    setCheckpoint(tokenBalances[from], fromBalance.sub(value));\n    setCheckpoint(tokenBalances[to], toBalance.add(value));\n  }\n\n\n  /** CORE\n   ** The Magic happens below:\n   ***************************************/\n\n  function setCheckpoint(Checkpoint[] storage checkpoints, uint256 newValue) internal {\n    if ((checkpoints.length == 0) || (checkpoints[checkpoints.length.sub(1)].blockNumber < block.number)) {\n      checkpoints.push(Checkpoint(block.number, newValue));\n    } else {\n       checkpoints[checkpoints.length.sub(1)] = Checkpoint(block.number, newValue);\n    }\n  }\n\n  function getCheckpoint(Checkpoint[] storage checkpoints, uint256 blockNumber) internal returns (uint256 blockNumber_, uint256 value) {\n    if (checkpoints.length == 0) {\n      return (0, 0);\n    }\n\n    // Shortcut for the actual value\n    if (blockNumber >= checkpoints[checkpoints.length.sub(1)].blockNumber) {\n      return (checkpoints[checkpoints.length.sub(1)].blockNumber, checkpoints[checkpoints.length.sub(1)].value);\n    }\n\n    if (blockNumber < checkpoints[0].blockNumber) {\n      return (0, 0);\n    }\n\n    // Binary search of the value in the array\n    uint256 min = 0;\n    uint256 max = checkpoints.length.sub(1);\n    while (max > min) {\n      uint256 mid = (max.add(min.add(1))).div(2);\n      if (checkpoints[mid].blockNumber <= blockNumber) {\n        min = mid;\n      } else {\n        max = mid.sub(1);\n      }\n    }\n\n    return (checkpoints[min].blockNumber, checkpoints[min].value);\n  }\n}\n",
  "sourcePath": "D:\\dev\\tokenmint\\contracts\\tokenmarketnet-contracts\\contracts\\security-token\\CheckpointToken.sol",
  "compiler": {
    "name": "solc",
    "version": "0.4.24+commit.e67f0147.Emscripten.clang"
  },
  "schemaVersion": "2.0.1",
  "updatedAt": "2018-12-17T12:17:38.005Z"
}