{
  "contractName": "CrowdsaleToken",
  "abi": [
    {
      "constant": false,
      "inputs": [
        {
          "name": "addr",
          "type": "address"
        },
        {
          "name": "state",
          "type": "bool"
        }
      ],
      "name": "setTransferAgent",
      "outputs": [],
      "payable": false,
      "stateMutability": "nonpayable",
      "type": "function"
    },
    {
      "constant": true,
      "inputs": [],
      "name": "mintingFinished",
      "outputs": [
        {
          "name": "",
          "type": "bool"
        }
      ],
      "payable": false,
      "stateMutability": "view",
      "type": "function"
    },
    {
      "constant": true,
      "inputs": [],
      "name": "name",
      "outputs": [
        {
          "name": "",
          "type": "string"
        }
      ],
      "payable": false,
      "stateMutability": "view",
      "type": "function"
    },
    {
      "constant": false,
      "inputs": [
        {
          "name": "_spender",
          "type": "address"
        },
        {
          "name": "_value",
          "type": "uint256"
        }
      ],
      "name": "approve",
      "outputs": [
        {
          "name": "",
          "type": "bool"
        }
      ],
      "payable": false,
      "stateMutability": "nonpayable",
      "type": "function"
    },
    {
      "constant": false,
      "inputs": [
        {
          "name": "token",
          "type": "address"
        }
      ],
      "name": "recoverTokens",
      "outputs": [],
      "payable": false,
      "stateMutability": "nonpayable",
      "type": "function"
    },
    {
      "constant": true,
      "inputs": [],
      "name": "totalSupply",
      "outputs": [
        {
          "name": "",
          "type": "uint256"
        }
      ],
      "payable": false,
      "stateMutability": "view",
      "type": "function"
    },
    {
      "constant": false,
      "inputs": [
        {
          "name": "_from",
          "type": "address"
        },
        {
          "name": "_to",
          "type": "address"
        },
        {
          "name": "_value",
          "type": "uint256"
        }
      ],
      "name": "transferFrom",
      "outputs": [
        {
          "name": "success",
          "type": "bool"
        }
      ],
      "payable": false,
      "stateMutability": "nonpayable",
      "type": "function"
    },
    {
      "constant": false,
      "inputs": [
        {
          "name": "addr",
          "type": "address"
        }
      ],
      "name": "setReleaseAgent",
      "outputs": [],
      "payable": false,
      "stateMutability": "nonpayable",
      "type": "function"
    },
    {
      "constant": true,
      "inputs": [],
      "name": "decimals",
      "outputs": [
        {
          "name": "",
          "type": "uint256"
        }
      ],
      "payable": false,
      "stateMutability": "view",
      "type": "function"
    },
    {
      "constant": false,
      "inputs": [
        {
          "name": "receiver",
          "type": "address"
        },
        {
          "name": "amount",
          "type": "uint256"
        }
      ],
      "name": "mint",
      "outputs": [],
      "payable": false,
      "stateMutability": "nonpayable",
      "type": "function"
    },
    {
      "constant": true,
      "inputs": [
        {
          "name": "",
          "type": "address"
        }
      ],
      "name": "mintAgents",
      "outputs": [
        {
          "name": "",
          "type": "bool"
        }
      ],
      "payable": false,
      "stateMutability": "view",
      "type": "function"
    },
    {
      "constant": false,
      "inputs": [
        {
          "name": "addr",
          "type": "address"
        },
        {
          "name": "state",
          "type": "bool"
        }
      ],
      "name": "setMintAgent",
      "outputs": [],
      "payable": false,
      "stateMutability": "nonpayable",
      "type": "function"
    },
    {
      "constant": false,
      "inputs": [
        {
          "name": "value",
          "type": "uint256"
        }
      ],
      "name": "upgrade",
      "outputs": [],
      "payable": false,
      "stateMutability": "nonpayable",
      "type": "function"
    },
    {
      "constant": true,
      "inputs": [],
      "name": "upgradeAgent",
      "outputs": [
        {
          "name": "",
          "type": "address"
        }
      ],
      "payable": false,
      "stateMutability": "view",
      "type": "function"
    },
    {
      "constant": true,
      "inputs": [],
      "name": "upgradeMaster",
      "outputs": [
        {
          "name": "",
          "type": "address"
        }
      ],
      "payable": false,
      "stateMutability": "view",
      "type": "function"
    },
    {
      "constant": false,
      "inputs": [
        {
          "name": "_spender",
          "type": "address"
        },
        {
          "name": "_subtractedValue",
          "type": "uint256"
        }
      ],
      "name": "decreaseApproval",
      "outputs": [
        {
          "name": "",
          "type": "bool"
        }
      ],
      "payable": false,
      "stateMutability": "nonpayable",
      "type": "function"
    },
    {
      "constant": true,
      "inputs": [
        {
          "name": "_owner",
          "type": "address"
        }
      ],
      "name": "balanceOf",
      "outputs": [
        {
          "name": "balance",
          "type": "uint256"
        }
      ],
      "payable": false,
      "stateMutability": "view",
      "type": "function"
    },
    {
      "constant": true,
      "inputs": [],
      "name": "getUpgradeState",
      "outputs": [
        {
          "name": "",
          "type": "uint8"
        }
      ],
      "payable": false,
      "stateMutability": "view",
      "type": "function"
    },
    {
      "constant": true,
      "inputs": [
        {
          "name": "",
          "type": "address"
        }
      ],
      "name": "transferAgents",
      "outputs": [
        {
          "name": "",
          "type": "bool"
        }
      ],
      "payable": false,
      "stateMutability": "view",
      "type": "function"
    },
    {
      "constant": true,
      "inputs": [],
      "name": "owner",
      "outputs": [
        {
          "name": "",
          "type": "address"
        }
      ],
      "payable": false,
      "stateMutability": "view",
      "type": "function"
    },
    {
      "constant": true,
      "inputs": [],
      "name": "symbol",
      "outputs": [
        {
          "name": "",
          "type": "string"
        }
      ],
      "payable": false,
      "stateMutability": "view",
      "type": "function"
    },
    {
      "constant": true,
      "inputs": [],
      "name": "released",
      "outputs": [
        {
          "name": "",
          "type": "bool"
        }
      ],
      "payable": false,
      "stateMutability": "view",
      "type": "function"
    },
    {
      "constant": false,
      "inputs": [
        {
          "name": "_to",
          "type": "address"
        },
        {
          "name": "_value",
          "type": "uint256"
        }
      ],
      "name": "transfer",
      "outputs": [
        {
          "name": "success",
          "type": "bool"
        }
      ],
      "payable": false,
      "stateMutability": "nonpayable",
      "type": "function"
    },
    {
      "constant": false,
      "inputs": [
        {
          "name": "token",
          "type": "address"
        }
      ],
      "name": "tokensToBeReturned",
      "outputs": [
        {
          "name": "",
          "type": "uint256"
        }
      ],
      "payable": false,
      "stateMutability": "nonpayable",
      "type": "function"
    },
    {
      "constant": true,
      "inputs": [],
      "name": "totalUpgraded",
      "outputs": [
        {
          "name": "",
          "type": "uint256"
        }
      ],
      "payable": false,
      "stateMutability": "view",
      "type": "function"
    },
    {
      "constant": true,
      "inputs": [],
      "name": "releaseAgent",
      "outputs": [
        {
          "name": "",
          "type": "address"
        }
      ],
      "payable": false,
      "stateMutability": "view",
      "type": "function"
    },
    {
      "constant": false,
      "inputs": [
        {
          "name": "_spender",
          "type": "address"
        },
        {
          "name": "_addedValue",
          "type": "uint256"
        }
      ],
      "name": "increaseApproval",
      "outputs": [
        {
          "name": "",
          "type": "bool"
        }
      ],
      "payable": false,
      "stateMutability": "nonpayable",
      "type": "function"
    },
    {
      "constant": false,
      "inputs": [
        {
          "name": "agent",
          "type": "address"
        }
      ],
      "name": "setUpgradeAgent",
      "outputs": [],
      "payable": false,
      "stateMutability": "nonpayable",
      "type": "function"
    },
    {
      "constant": true,
      "inputs": [
        {
          "name": "_owner",
          "type": "address"
        },
        {
          "name": "_spender",
          "type": "address"
        }
      ],
      "name": "allowance",
      "outputs": [
        {
          "name": "",
          "type": "uint256"
        }
      ],
      "payable": false,
      "stateMutability": "view",
      "type": "function"
    },
    {
      "constant": true,
      "inputs": [],
      "name": "isToken",
      "outputs": [
        {
          "name": "weAre",
          "type": "bool"
        }
      ],
      "payable": false,
      "stateMutability": "view",
      "type": "function"
    },
    {
      "constant": false,
      "inputs": [
        {
          "name": "newOwner",
          "type": "address"
        }
      ],
      "name": "transferOwnership",
      "outputs": [],
      "payable": false,
      "stateMutability": "nonpayable",
      "type": "function"
    },
    {
      "constant": false,
      "inputs": [
        {
          "name": "master",
          "type": "address"
        }
      ],
      "name": "setUpgradeMaster",
      "outputs": [],
      "payable": false,
      "stateMutability": "nonpayable",
      "type": "function"
    },
    {
      "inputs": [
        {
          "name": "_name",
          "type": "string"
        },
        {
          "name": "_symbol",
          "type": "string"
        },
        {
          "name": "_initialSupply",
          "type": "uint256"
        },
        {
          "name": "_decimals",
          "type": "uint256"
        },
        {
          "name": "_mintable",
          "type": "bool"
        }
      ],
      "payable": false,
      "stateMutability": "nonpayable",
      "type": "constructor"
    },
    {
      "anonymous": false,
      "inputs": [
        {
          "indexed": false,
          "name": "newName",
          "type": "string"
        },
        {
          "indexed": false,
          "name": "newSymbol",
          "type": "string"
        }
      ],
      "name": "UpdatedTokenInformation",
      "type": "event"
    },
    {
      "anonymous": false,
      "inputs": [
        {
          "indexed": true,
          "name": "_from",
          "type": "address"
        },
        {
          "indexed": true,
          "name": "_to",
          "type": "address"
        },
        {
          "indexed": false,
          "name": "_value",
          "type": "uint256"
        }
      ],
      "name": "Upgrade",
      "type": "event"
    },
    {
      "anonymous": false,
      "inputs": [
        {
          "indexed": false,
          "name": "agent",
          "type": "address"
        }
      ],
      "name": "UpgradeAgentSet",
      "type": "event"
    },
    {
      "anonymous": false,
      "inputs": [
        {
          "indexed": false,
          "name": "addr",
          "type": "address"
        },
        {
          "indexed": false,
          "name": "state",
          "type": "bool"
        }
      ],
      "name": "MintingAgentChanged",
      "type": "event"
    },
    {
      "anonymous": false,
      "inputs": [
        {
          "indexed": false,
          "name": "receiver",
          "type": "address"
        },
        {
          "indexed": false,
          "name": "amount",
          "type": "uint256"
        }
      ],
      "name": "Minted",
      "type": "event"
    },
    {
      "anonymous": false,
      "inputs": [
        {
          "indexed": true,
          "name": "previousOwner",
          "type": "address"
        },
        {
          "indexed": true,
          "name": "newOwner",
          "type": "address"
        }
      ],
      "name": "OwnershipTransferred",
      "type": "event"
    },
    {
      "anonymous": false,
      "inputs": [
        {
          "indexed": true,
          "name": "owner",
          "type": "address"
        },
        {
          "indexed": true,
          "name": "spender",
          "type": "address"
        },
        {
          "indexed": false,
          "name": "value",
          "type": "uint256"
        }
      ],
      "name": "Approval",
      "type": "event"
    },
    {
      "anonymous": false,
      "inputs": [
        {
          "indexed": true,
          "name": "from",
          "type": "address"
        },
        {
          "indexed": true,
          "name": "to",
          "type": "address"
        },
        {
          "indexed": false,
          "name": "value",
          "type": "uint256"
        }
      ],
      "name": "Transfer",
      "type": "event"
    },
    {
      "constant": false,
      "inputs": [],
      "name": "releaseTokenTransfer",
      "outputs": [],
      "payable": false,
      "stateMutability": "nonpayable",
      "type": "function"
    },
    {
      "constant": true,
      "inputs": [],
      "name": "canUpgrade",
      "outputs": [
        {
          "name": "",
          "type": "bool"
        }
      ],
      "payable": false,
      "stateMutability": "view",
      "type": "function"
    },
    {
      "constant": false,
      "inputs": [
        {
          "name": "_name",
          "type": "string"
        },
        {
          "name": "_symbol",
          "type": "string"
        }
      ],
      "name": "setTokenInformation",
      "outputs": [],
      "payable": false,
      "stateMutability": "nonpayable",
      "type": "function"
    }
  ],
  "bytecode": "0x60806040526000600460146101000a81548160ff0219169083151502179055506000600660006101000a81548160ff0219169083151502179055503480156200004757600080fd5b50604051620033033803806200330383398101806040528101908080518201929190602001805182019291906020018051906020019092919080519060200190929190805190602001909291905050503333600360006101000a81548173ffffffffffffffffffffffffffffffffffffffff021916908373ffffffffffffffffffffffffffffffffffffffff16021790555080600860006101000a81548173ffffffffffffffffffffffffffffffffffffffff021916908373ffffffffffffffffffffffffffffffffffffffff1602179055505033600360006101000a81548173ffffffffffffffffffffffffffffffffffffffff021916908373ffffffffffffffffffffffffffffffffffffffff16021790555084600b908051906020019062000174929190620002df565b5083600c90805190602001906200018d929190620002df565b508260018190555081600d81905550600154600080600360009054906101000a900473ffffffffffffffffffffffffffffffffffffffff1673ffffffffffffffffffffffffffffffffffffffff1673ffffffffffffffffffffffffffffffffffffffff16815260200190815260200160002081905550600060015411156200029f577f30385c845b448a36257a6a1716e6ad2e1bc2cbe333cde1e69fe849ad6511adfe600360009054906101000a900473ffffffffffffffffffffffffffffffffffffffff16600154604051808373ffffffffffffffffffffffffffffffffffffffff1673ffffffffffffffffffffffffffffffffffffffff1681526020018281526020019250505060405180910390a15b801515620002d4576001600660006101000a81548160ff02191690831515021790555060006001541415620002d357600080fd5b5b50505050506200038e565b828054600181600116156101000203166002900490600052602060002090601f016020900481019282601f106200032257805160ff191683800117855562000353565b8280016001018555821562000353579182015b828111156200035257825182559160200191906001019062000335565b5b50905062000362919062000366565b5090565b6200038b91905b80821115620003875760008160009055506001016200036d565b5090565b90565b612f65806200039e6000396000f3006080604052600436106101b7576000357c0100000000000000000000000000000000000000000000000000000000900463ffffffff16806302f652a3146101bc57806305d2035b1461020b57806306fdde031461023a578063095ea7b3146102ca57806316114acd1461032f57806318160ddd1461037257806323b872dd1461039d57806329ff4f5314610422578063313ce5671461046557806340c10f191461049057806342c1867b146104dd578063432146751461053857806345977d03146105875780634eee966f146105b45780635de4ccb0146106635780635f412d4f146106ba578063600440cb146106d1578063661884631461072857806370a082311461078d5780638444b391146107e4578063867c28571461081d5780638da5cb5b1461087857806395d89b41146108cf578063961325211461095f5780639738968c1461098e578063a9059cbb146109bd578063c45d19db14610a22578063c752ff6214610a79578063d1f276d314610aa4578063d73dd62314610afb578063d7e7088a14610b60578063dd62ed3e14610ba3578063eefa597b14610c1a578063f2fde38b14610c49578063ffeb7d7514610c8c575b600080fd5b3480156101c857600080fd5b50610209600480360381019080803573ffffffffffffffffffffffffffffffffffffffff169060200190929190803515159060200190929190505050610ccf565b005b34801561021757600080fd5b50610220610daa565b604051808215151515815260200191505060405180910390f35b34801561024657600080fd5b5061024f610dbd565b6040518080602001828103825283818151815260200191508051906020019080838360005b8381101561028f578082015181840152602081019050610274565b50505050905090810190601f1680156102bc5780820380516001836020036101000a031916815260200191505b509250505060405180910390f35b3480156102d657600080fd5b50610315600480360381019080803573ffffffffffffffffffffffffffffffffffffffff16906020019092919080359060200190929190505050610e5b565b604051808215151515815260200191505060405180910390f35b34801561033b57600080fd5b50610370600480360381019080803573ffffffffffffffffffffffffffffffffffffffff169060200190929190505050610f4d565b005b34801561037e57600080fd5b506103876110b5565b6040518082815260200191505060405180910390f35b3480156103a957600080fd5b50610408600480360381019080803573ffffffffffffffffffffffffffffffffffffffff169060200190929190803573ffffffffffffffffffffffffffffffffffffffff169060200190929190803590602001909291905050506110bf565b604051808215151515815260200191505060405180910390f35b34801561042e57600080fd5b50610463600480360381019080803573ffffffffffffffffffffffffffffffffffffffff169060200190929190505050611146565b005b34801561047157600080fd5b5061047a61120a565b6040518082815260200191505060405180910390f35b34801561049c57600080fd5b506104db600480360381019080803573ffffffffffffffffffffffffffffffffffffffff16906020019092919080359060200190929190505050611210565b005b3480156104e957600080fd5b5061051e600480360381019080803573ffffffffffffffffffffffffffffffffffffffff169060200190929190505050611384565b604051808215151515815260200191505060405180910390f35b34801561054457600080fd5b50610585600480360381019080803573ffffffffffffffffffffffffffffffffffffffff1690602001909291908035151590602001909291905050506113a4565b005b34801561059357600080fd5b506105b2600480360381019080803590602001909291905050506114e4565b005b3480156105c057600080fd5b50610661600480360381019080803590602001908201803590602001908080601f0160208091040260200160405190810160405280939291908181526020018383808284378201915050505050509192919290803590602001908201803590602001908080601f0160208091040260200160405190810160405280939291908181526020018383808284378201915050505050509192919290505050611774565b005b34801561066f57600080fd5b50610678611947565b604051808273ffffffffffffffffffffffffffffffffffffffff1673ffffffffffffffffffffffffffffffffffffffff16815260200191505060405180910390f35b3480156106c657600080fd5b506106cf61196d565b005b3480156106dd57600080fd5b506106e66119ee565b604051808273ffffffffffffffffffffffffffffffffffffffff1673ffffffffffffffffffffffffffffffffffffffff16815260200191505060405180910390f35b34801561073457600080fd5b50610773600480360381019080803573ffffffffffffffffffffffffffffffffffffffff16906020019092919080359060200190929190505050611a14565b604051808215151515815260200191505060405180910390f35b34801561079957600080fd5b506107ce600480360381019080803573ffffffffffffffffffffffffffffffffffffffff169060200190929190505050611ca5565b6040518082815260200191505060405180910390f35b3480156107f057600080fd5b506107f9611ced565b6040518082600481111561080957fe5b60ff16815260200191505060405180910390f35b34801561082957600080fd5b5061085e600480360381019080803573ffffffffffffffffffffffffffffffffffffffff169060200190929190505050611d6c565b604051808215151515815260200191505060405180910390f35b34801561088457600080fd5b5061088d611d8c565b604051808273ffffffffffffffffffffffffffffffffffffffff1673ffffffffffffffffffffffffffffffffffffffff16815260200191505060405180910390f35b3480156108db57600080fd5b506108e4611db2565b6040518080602001828103825283818151815260200191508051906020019080838360005b83811015610924578082015181840152602081019050610909565b50505050905090810190601f1680156109515780820380516001836020036101000a031916815260200191505b509250505060405180910390f35b34801561096b57600080fd5b50610974611e50565b604051808215151515815260200191505060405180910390f35b34801561099a57600080fd5b506109a3611e63565b604051808215151515815260200191505060405180910390f35b3480156109c957600080fd5b50610a08600480360381019080803573ffffffffffffffffffffffffffffffffffffffff16906020019092919080359060200190929190505050611e8a565b604051808215151515815260200191505060405180910390f35b348015610a2e57600080fd5b50610a63600480360381019080803573ffffffffffffffffffffffffffffffffffffffff169060200190929190505050611f0f565b6040518082815260200191505060405180910390f35b348015610a8557600080fd5b50610a8e611fee565b6040518082815260200191505060405180910390f35b348015610ab057600080fd5b50610ab9611ff4565b604051808273ffffffffffffffffffffffffffffffffffffffff1673ffffffffffffffffffffffffffffffffffffffff16815260200191505060405180910390f35b348015610b0757600080fd5b50610b46600480360381019080803573ffffffffffffffffffffffffffffffffffffffff1690602001909291908035906020019092919050505061201a565b604051808215151515815260200191505060405180910390f35b348015610b6c57600080fd5b50610ba1600480360381019080803573ffffffffffffffffffffffffffffffffffffffff169060200190929190505050612216565b005b348015610baf57600080fd5b50610c04600480360381019080803573ffffffffffffffffffffffffffffffffffffffff169060200190929190803573ffffffffffffffffffffffffffffffffffffffff169060200190929190505050612538565b6040518082815260200191505060405180910390f35b348015610c2657600080fd5b50610c2f6125bf565b604051808215151515815260200191505060405180910390f35b348015610c5557600080fd5b50610c8a600480360381019080803573ffffffffffffffffffffffffffffffffffffffff1690602001909291905050506125c8565b005b348015610c9857600080fd5b50610ccd600480360381019080803573ffffffffffffffffffffffffffffffffffffffff169060200190929190505050612720565b005b600360009054906101000a900473ffffffffffffffffffffffffffffffffffffffff1673ffffffffffffffffffffffffffffffffffffffff163373ffffffffffffffffffffffffffffffffffffffff16141515610d2b57600080fd5b6000600460149054906101000a900460ff161515811515141515610d4e57600080fd5b81600560008573ffffffffffffffffffffffffffffffffffffffff1673ffffffffffffffffffffffffffffffffffffffff16815260200190815260200160002060006101000a81548160ff021916908315150217905550505050565b600660009054906101000a900460ff1681565b600b8054600181600116156101000203166002900480601f016020809104026020016040519081016040528092919081815260200182805460018160011615610100020316600290048015610e535780601f10610e2857610100808354040283529160200191610e53565b820191906000526020600020905b815481529060010190602001808311610e3657829003601f168201915b505050505081565b600081600260003373ffffffffffffffffffffffffffffffffffffffff1673ffffffffffffffffffffffffffffffffffffffff16815260200190815260200160002060008573ffffffffffffffffffffffffffffffffffffffff1673ffffffffffffffffffffffffffffffffffffffff168152602001908152602001600020819055508273ffffffffffffffffffffffffffffffffffffffff163373ffffffffffffffffffffffffffffffffffffffff167f8c5be1e5ebec7d5bd14f71427d1e84f3dd0314c0f7b2291e5b200ac8c7c3b925846040518082815260200191505060405180910390a36001905092915050565b600360009054906101000a900473ffffffffffffffffffffffffffffffffffffffff1673ffffffffffffffffffffffffffffffffffffffff163373ffffffffffffffffffffffffffffffffffffffff16141515610fa957600080fd5b8073ffffffffffffffffffffffffffffffffffffffff1663a9059cbb600360009054906101000a900473ffffffffffffffffffffffffffffffffffffffff16610ff184611f0f565b6040518363ffffffff167c0100000000000000000000000000000000000000000000000000000000028152600401808373ffffffffffffffffffffffffffffffffffffffff1673ffffffffffffffffffffffffffffffffffffffff16815260200182815260200192505050602060405180830381600087803b15801561107657600080fd5b505af115801561108a573d6000803e3d6000fd5b505050506040513d60208110156110a057600080fd5b81019080805190602001909291905050505050565b6000600154905090565b600083600460149054906101000a900460ff16151561113157600560008273ffffffffffffffffffffffffffffffffffffffff1673ffffffffffffffffffffffffffffffffffffffff16815260200190815260200160002060009054906101000a900460ff16151561113057600080fd5b5b61113c8585856127e4565b9150509392505050565b600360009054906101000a900473ffffffffffffffffffffffffffffffffffffffff1673ffffffffffffffffffffffffffffffffffffffff163373ffffffffffffffffffffffffffffffffffffffff161415156111a257600080fd5b6000600460149054906101000a900460ff1615158115151415156111c557600080fd5b81600460006101000a81548173ffffffffffffffffffffffffffffffffffffffff021916908373ffffffffffffffffffffffffffffffffffffffff1602179055505050565b600d5481565b600760003373ffffffffffffffffffffffffffffffffffffffff1673ffffffffffffffffffffffffffffffffffffffff16815260200190815260200160002060009054906101000a900460ff16151561126857600080fd5b600660009054906101000a900460ff161561128257600080fd5b61129781600154612b9e90919063ffffffff16565b6001819055506112ee816000808573ffffffffffffffffffffffffffffffffffffffff1673ffffffffffffffffffffffffffffffffffffffff16815260200190815260200160002054612b9e90919063ffffffff16565b6000808473ffffffffffffffffffffffffffffffffffffffff1673ffffffffffffffffffffffffffffffffffffffff168152602001908152602001600020819055508173ffffffffffffffffffffffffffffffffffffffff1660007fddf252ad1be2c89b69c2b068fc378daa952ba7f163c4a11628f55a4df523b3ef836040518082815260200191505060405180910390a35050565b60076020528060005260406000206000915054906101000a900460ff1681565b600360009054906101000a900473ffffffffffffffffffffffffffffffffffffffff1673ffffffffffffffffffffffffffffffffffffffff163373ffffffffffffffffffffffffffffffffffffffff1614151561140057600080fd5b600660009054906101000a900460ff161561141a57600080fd5b80600760008473ffffffffffffffffffffffffffffffffffffffff1673ffffffffffffffffffffffffffffffffffffffff16815260200190815260200160002060006101000a81548160ff0219169083151502179055507f4b0adf6c802794c7dde28a08a4e07131abcff3bf9603cd71f14f90bec7865efa8282604051808373ffffffffffffffffffffffffffffffffffffffff1673ffffffffffffffffffffffffffffffffffffffff168152602001821515151581526020019250505060405180910390a15050565b60006114ee611ced565b9050600360048111156114fd57fe5b81600481111561150957fe5b148061152a575060048081111561151c57fe5b81600481111561152857fe5b145b151561153557600080fd5b600082141561154357600080fd5b611594826000803373ffffffffffffffffffffffffffffffffffffffff1673ffffffffffffffffffffffffffffffffffffffff16815260200190815260200160002054612bbc90919063ffffffff16565b6000803373ffffffffffffffffffffffffffffffffffffffff1673ffffffffffffffffffffffffffffffffffffffff168152602001908152602001600020819055506115eb82600154612bbc90919063ffffffff16565b60018190555061160682600a54612bd590919063ffffffff16565b600a81905550600960009054906101000a900473ffffffffffffffffffffffffffffffffffffffff1673ffffffffffffffffffffffffffffffffffffffff1663753e88e533846040518363ffffffff167c0100000000000000000000000000000000000000000000000000000000028152600401808373ffffffffffffffffffffffffffffffffffffffff1673ffffffffffffffffffffffffffffffffffffffff16815260200182815260200192505050600060405180830381600087803b1580156116d157600080fd5b505af11580156116e5573d6000803e3d6000fd5b50505050600960009054906101000a900473ffffffffffffffffffffffffffffffffffffffff1673ffffffffffffffffffffffffffffffffffffffff163373ffffffffffffffffffffffffffffffffffffffff167f7e5c344a8141a805725cb476f76c6953b842222b967edd1f78ddb6e8b3f397ac846040518082815260200191505060405180910390a35050565b600360009054906101000a900473ffffffffffffffffffffffffffffffffffffffff1673ffffffffffffffffffffffffffffffffffffffff163373ffffffffffffffffffffffffffffffffffffffff161415156117d057600080fd5b81600b90805190602001906117e6929190612e94565b5080600c90805190602001906117fd929190612e94565b507fd131ab1e6f279deea74e13a18477e13e2107deb6dc8ae955648948be5841fb46600b600c6040518080602001806020018381038352858181546001816001161561010002031660029004815260200191508054600181600116156101000203166002900480156118b05780601f10611885576101008083540402835291602001916118b0565b820191906000526020600020905b81548152906001019060200180831161189357829003601f168201915b50508381038252848181546001816001161561010002031660029004815260200191508054600181600116156101000203166002900480156119335780601f1061190857610100808354040283529160200191611933565b820191906000526020600020905b81548152906001019060200180831161191657829003601f168201915b505094505050505060405180910390a15050565b600960009054906101000a900473ffffffffffffffffffffffffffffffffffffffff1681565b600460009054906101000a900473ffffffffffffffffffffffffffffffffffffffff1673ffffffffffffffffffffffffffffffffffffffff163373ffffffffffffffffffffffffffffffffffffffff161415156119c957600080fd5b6001600660006101000a81548160ff0219169083151502179055506119ec612bf3565b565b600860009054906101000a900473ffffffffffffffffffffffffffffffffffffffff1681565b600080600260003373ffffffffffffffffffffffffffffffffffffffff1673ffffffffffffffffffffffffffffffffffffffff16815260200190815260200160002060008573ffffffffffffffffffffffffffffffffffffffff1673ffffffffffffffffffffffffffffffffffffffff16815260200190815260200160002054905080831115611b25576000600260003373ffffffffffffffffffffffffffffffffffffffff1673ffffffffffffffffffffffffffffffffffffffff16815260200190815260200160002060008673ffffffffffffffffffffffffffffffffffffffff1673ffffffffffffffffffffffffffffffffffffffff16815260200190815260200160002081905550611bb9565b611b388382612bbc90919063ffffffff16565b600260003373ffffffffffffffffffffffffffffffffffffffff1673ffffffffffffffffffffffffffffffffffffffff16815260200190815260200160002060008673ffffffffffffffffffffffffffffffffffffffff1673ffffffffffffffffffffffffffffffffffffffff168152602001908152602001600020819055505b8373ffffffffffffffffffffffffffffffffffffffff163373ffffffffffffffffffffffffffffffffffffffff167f8c5be1e5ebec7d5bd14f71427d1e84f3dd0314c0f7b2291e5b200ac8c7c3b925600260003373ffffffffffffffffffffffffffffffffffffffff1673ffffffffffffffffffffffffffffffffffffffff16815260200190815260200160002060008873ffffffffffffffffffffffffffffffffffffffff1673ffffffffffffffffffffffffffffffffffffffff168152602001908152602001600020546040518082815260200191505060405180910390a3600191505092915050565b60008060008373ffffffffffffffffffffffffffffffffffffffff1673ffffffffffffffffffffffffffffffffffffffff168152602001908152602001600020549050919050565b6000611cf7611e63565b1515611d065760019050611d69565b6000600960009054906101000a900473ffffffffffffffffffffffffffffffffffffffff1673ffffffffffffffffffffffffffffffffffffffff161415611d505760029050611d69565b6000600a541415611d645760039050611d69565b600490505b90565b60056020528060005260406000206000915054906101000a900460ff1681565b600360009054906101000a900473ffffffffffffffffffffffffffffffffffffffff1681565b600c8054600181600116156101000203166002900480601f016020809104026020016040519081016040528092919081815260200182805460018160011615610100020316600290048015611e485780601f10611e1d57610100808354040283529160200191611e48565b820191906000526020600020905b815481529060010190602001808311611e2b57829003601f168201915b505050505081565b600460149054906101000a900460ff1681565b6000600460149054906101000a900460ff168015611e855750611e84612c6c565b5b905090565b600033600460149054906101000a900460ff161515611efc57600560008273ffffffffffffffffffffffffffffffffffffffff1673ffffffffffffffffffffffffffffffffffffffff16815260200190815260200160002060009054906101000a900460ff161515611efb57600080fd5b5b611f068484612c75565b91505092915050565b60008173ffffffffffffffffffffffffffffffffffffffff166370a08231306040518263ffffffff167c0100000000000000000000000000000000000000000000000000000000028152600401808273ffffffffffffffffffffffffffffffffffffffff1673ffffffffffffffffffffffffffffffffffffffff168152602001915050602060405180830381600087803b158015611fac57600080fd5b505af1158015611fc0573d6000803e3d6000fd5b505050506040513d6020811015611fd657600080fd5b81019080805190602001909291905050509050919050565b600a5481565b600460009054906101000a900473ffffffffffffffffffffffffffffffffffffffff1681565b60006120ab82600260003373ffffffffffffffffffffffffffffffffffffffff1673ffffffffffffffffffffffffffffffffffffffff16815260200190815260200160002060008673ffffffffffffffffffffffffffffffffffffffff1673ffffffffffffffffffffffffffffffffffffffff16815260200190815260200160002054612bd590919063ffffffff16565b600260003373ffffffffffffffffffffffffffffffffffffffff1673ffffffffffffffffffffffffffffffffffffffff16815260200190815260200160002060008573ffffffffffffffffffffffffffffffffffffffff1673ffffffffffffffffffffffffffffffffffffffff168152602001908152602001600020819055508273ffffffffffffffffffffffffffffffffffffffff163373ffffffffffffffffffffffffffffffffffffffff167f8c5be1e5ebec7d5bd14f71427d1e84f3dd0314c0f7b2291e5b200ac8c7c3b925600260003373ffffffffffffffffffffffffffffffffffffffff1673ffffffffffffffffffffffffffffffffffffffff16815260200190815260200160002060008773ffffffffffffffffffffffffffffffffffffffff1673ffffffffffffffffffffffffffffffffffffffff168152602001908152602001600020546040518082815260200191505060405180910390a36001905092915050565b61221e611e63565b151561222957600080fd5b60008173ffffffffffffffffffffffffffffffffffffffff16141561224d57600080fd5b600860009054906101000a900473ffffffffffffffffffffffffffffffffffffffff1673ffffffffffffffffffffffffffffffffffffffff163373ffffffffffffffffffffffffffffffffffffffff161415156122a957600080fd5b6004808111156122b557fe5b6122bd611ced565b60048111156122c857fe5b14156122d357600080fd5b80600960006101000a81548173ffffffffffffffffffffffffffffffffffffffff021916908373ffffffffffffffffffffffffffffffffffffffff160217905550600960009054906101000a900473ffffffffffffffffffffffffffffffffffffffff1673ffffffffffffffffffffffffffffffffffffffff166361d3d7a66040518163ffffffff167c0100000000000000000000000000000000000000000000000000000000028152600401602060405180830381600087803b15801561239a57600080fd5b505af11580156123ae573d6000803e3d6000fd5b505050506040513d60208110156123c457600080fd5b810190808051906020019092919050505015156123e057600080fd5b600154600960009054906101000a900473ffffffffffffffffffffffffffffffffffffffff1673ffffffffffffffffffffffffffffffffffffffff16634b2ba0dd6040518163ffffffff167c0100000000000000000000000000000000000000000000000000000000028152600401602060405180830381600087803b15801561246957600080fd5b505af115801561247d573d6000803e3d6000fd5b505050506040513d602081101561249357600080fd5b81019080805190602001909291905050501415156124b057600080fd5b7f7845d5aa74cc410e35571258d954f23b82276e160fe8c188fa80566580f279cc600960009054906101000a900473ffffffffffffffffffffffffffffffffffffffff16604051808273ffffffffffffffffffffffffffffffffffffffff1673ffffffffffffffffffffffffffffffffffffffff16815260200191505060405180910390a150565b6000600260008473ffffffffffffffffffffffffffffffffffffffff1673ffffffffffffffffffffffffffffffffffffffff16815260200190815260200160002060008373ffffffffffffffffffffffffffffffffffffffff1673ffffffffffffffffffffffffffffffffffffffff16815260200190815260200160002054905092915050565b60006001905090565b600360009054906101000a900473ffffffffffffffffffffffffffffffffffffffff1673ffffffffffffffffffffffffffffffffffffffff163373ffffffffffffffffffffffffffffffffffffffff1614151561262457600080fd5b600073ffffffffffffffffffffffffffffffffffffffff168173ffffffffffffffffffffffffffffffffffffffff161415151561266057600080fd5b8073ffffffffffffffffffffffffffffffffffffffff16600360009054906101000a900473ffffffffffffffffffffffffffffffffffffffff1673ffffffffffffffffffffffffffffffffffffffff167f8be0079c531659141344cd1fd0a4f28419497f9722a3daafe3b4186f6b6457e060405160405180910390a380600360006101000a81548173ffffffffffffffffffffffffffffffffffffffff021916908373ffffffffffffffffffffffffffffffffffffffff16021790555050565b60008173ffffffffffffffffffffffffffffffffffffffff16141561274457600080fd5b600860009054906101000a900473ffffffffffffffffffffffffffffffffffffffff1673ffffffffffffffffffffffffffffffffffffffff163373ffffffffffffffffffffffffffffffffffffffff161415156127a057600080fd5b80600860006101000a81548173ffffffffffffffffffffffffffffffffffffffff021916908373ffffffffffffffffffffffffffffffffffffffff16021790555050565b60008073ffffffffffffffffffffffffffffffffffffffff168373ffffffffffffffffffffffffffffffffffffffff161415151561282157600080fd5b6000808573ffffffffffffffffffffffffffffffffffffffff1673ffffffffffffffffffffffffffffffffffffffff16815260200190815260200160002054821115151561286e57600080fd5b600260008573ffffffffffffffffffffffffffffffffffffffff1673ffffffffffffffffffffffffffffffffffffffff16815260200190815260200160002060003373ffffffffffffffffffffffffffffffffffffffff1673ffffffffffffffffffffffffffffffffffffffff1681526020019081526020016000205482111515156128f957600080fd5b61294a826000808773ffffffffffffffffffffffffffffffffffffffff1673ffffffffffffffffffffffffffffffffffffffff16815260200190815260200160002054612bbc90919063ffffffff16565b6000808673ffffffffffffffffffffffffffffffffffffffff1673ffffffffffffffffffffffffffffffffffffffff168152602001908152602001600020819055506129dd826000808673ffffffffffffffffffffffffffffffffffffffff1673ffffffffffffffffffffffffffffffffffffffff16815260200190815260200160002054612bd590919063ffffffff16565b6000808573ffffffffffffffffffffffffffffffffffffffff1673ffffffffffffffffffffffffffffffffffffffff16815260200190815260200160002081905550612aae82600260008773ffffffffffffffffffffffffffffffffffffffff1673ffffffffffffffffffffffffffffffffffffffff16815260200190815260200160002060003373ffffffffffffffffffffffffffffffffffffffff1673ffffffffffffffffffffffffffffffffffffffff16815260200190815260200160002054612bbc90919063ffffffff16565b600260008673ffffffffffffffffffffffffffffffffffffffff1673ffffffffffffffffffffffffffffffffffffffff16815260200190815260200160002060003373ffffffffffffffffffffffffffffffffffffffff1673ffffffffffffffffffffffffffffffffffffffff168152602001908152602001600020819055508273ffffffffffffffffffffffffffffffffffffffff168473ffffffffffffffffffffffffffffffffffffffff167fddf252ad1be2c89b69c2b068fc378daa952ba7f163c4a11628f55a4df523b3ef846040518082815260200191505060405180910390a3600190509392505050565b6000808284019050838110151515612bb257fe5b8091505092915050565b6000828211151515612bca57fe5b818303905092915050565b6000808284019050838110151515612be957fe5b8091505092915050565b600460009054906101000a900473ffffffffffffffffffffffffffffffffffffffff1673ffffffffffffffffffffffffffffffffffffffff163373ffffffffffffffffffffffffffffffffffffffff16141515612c4f57600080fd5b6001600460146101000a81548160ff021916908315150217905550565b60006001905090565b60008073ffffffffffffffffffffffffffffffffffffffff168373ffffffffffffffffffffffffffffffffffffffff1614151515612cb257600080fd5b6000803373ffffffffffffffffffffffffffffffffffffffff1673ffffffffffffffffffffffffffffffffffffffff168152602001908152602001600020548211151515612cff57600080fd5b612d50826000803373ffffffffffffffffffffffffffffffffffffffff1673ffffffffffffffffffffffffffffffffffffffff16815260200190815260200160002054612bbc90919063ffffffff16565b6000803373ffffffffffffffffffffffffffffffffffffffff1673ffffffffffffffffffffffffffffffffffffffff16815260200190815260200160002081905550612de3826000808673ffffffffffffffffffffffffffffffffffffffff1673ffffffffffffffffffffffffffffffffffffffff16815260200190815260200160002054612bd590919063ffffffff16565b6000808573ffffffffffffffffffffffffffffffffffffffff1673ffffffffffffffffffffffffffffffffffffffff168152602001908152602001600020819055508273ffffffffffffffffffffffffffffffffffffffff163373ffffffffffffffffffffffffffffffffffffffff167fddf252ad1be2c89b69c2b068fc378daa952ba7f163c4a11628f55a4df523b3ef846040518082815260200191505060405180910390a36001905092915050565b828054600181600116156101000203166002900490600052602060002090601f016020900481019282601f10612ed557805160ff1916838001178555612f03565b82800160010185558215612f03579182015b82811115612f02578251825591602001919060010190612ee7565b5b509050612f109190612f14565b5090565b612f3691905b80821115612f32576000816000905550600101612f1a565b5090565b905600a165627a7a723058204e449eadb10c08c180db1afee0e503fddbbc3c93a38e96139741eb81796430f60029",
  "source": "/**\n * This smart contract code is Copyright 2017 TokenMarket Ltd. For more information see https://tokenmarket.net\n *\n * Licensed under the Apache License, version 2.0: https://github.com/TokenMarketNet/ico/blob/master/LICENSE.txt\n */\n\npragma solidity ^0.4.8;\n\nimport \"./UpgradeableToken.sol\";\nimport \"./ReleasableToken.sol\";\nimport \"./MintableToken.sol\";\n\n\n/**\n * A crowdsaled token.\n *\n * An ERC-20 token designed specifically for crowdsales with investor protection and further development path.\n *\n * - The token transfer() is disabled until the crowdsale is over\n * - The token contract gives an opt-in upgrade path to a new contract\n * - The same token can be part of several crowdsales through approve() mechanism\n * - The token can be capped (supply set in the constructor) or uncapped (crowdsale contract can mint new tokens)\n *\n */\ncontract CrowdsaleToken is ReleasableToken, MintableToken, UpgradeableToken {\n\n  /** Name and symbol were updated. */\n  event UpdatedTokenInformation(string newName, string newSymbol);\n\n  string public name;\n\n  string public symbol;\n\n  uint public decimals;\n\n  /**\n   * Construct the token.\n   *\n   * This token must be created through a team multisig wallet, so that it is owned by that wallet.\n   *\n   * @param _name Token name\n   * @param _symbol Token symbol - should be all caps\n   * @param _initialSupply How many tokens we start with\n   * @param _decimals Number of decimal places\n   * @param _mintable Are new tokens created over the crowdsale or do we distribute only the initial supply? Note that when the token becomes transferable the minting always ends.\n   */\n  constructor(string _name, string _symbol, uint _initialSupply, uint _decimals, bool _mintable)\n    UpgradeableToken(msg.sender) {\n\n    // Create any address, can be transferred\n    // to team multisig via changeOwner(),\n    // also remember to call setUpgradeMaster()\n    owner = msg.sender;\n\n    name = _name;\n    symbol = _symbol;\n\n    totalSupply_ = _initialSupply;\n\n    decimals = _decimals;\n\n    // Create initially all balance on the team multisig\n    balances[owner] = totalSupply_;\n\n    if(totalSupply_ > 0) {\n      Minted(owner, totalSupply_);\n    }\n\n    // No more new supply allowed after the token creation\n    if(!_mintable) {\n      mintingFinished = true;\n      if(totalSupply_ == 0) {\n        throw; // Cannot create a token without supply and no minting\n      }\n    }\n  }\n\n  /**\n   * When token is released to be transferable, enforce no new tokens can be created.\n   */\n  function releaseTokenTransfer() public onlyReleaseAgent {\n    mintingFinished = true;\n    super.releaseTokenTransfer();\n  }\n\n  /**\n   * Allow upgrade agent functionality kick in only if the crowdsale was success.\n   */\n  function canUpgrade() public constant returns(bool) {\n    return released && super.canUpgrade();\n  }\n\n  /**\n   * Owner can update token information here.\n   *\n   * It is often useful to conceal the actual token association, until\n   * the token operations, like central issuance or reissuance have been completed.\n   *\n   * This function allows the token owner to rename the token after the operations\n   * have been completed and then point the audience to use the token contract.\n   */\n  function setTokenInformation(string _name, string _symbol) onlyOwner {\n    name = _name;\n    symbol = _symbol;\n\n    UpdatedTokenInformation(name, symbol);\n  }\n\n}\n",
  "sourcePath": "D:\\dev\\tokenmint\\contracts\\tokenmarketnet-contracts\\contracts\\CrowdsaleToken.sol",
  "compiler": {
    "name": "solc",
    "version": "0.4.24+commit.e67f0147.Emscripten.clang"
  },
  "schemaVersion": "2.0.1",
  "updatedAt": "2018-12-26T13:17:48.172Z"
}