{
  "contractName": "ERC165CheckerMock",
  "abi": [
    {
      "constant": true,
      "inputs": [
        {
          "name": "account",
          "type": "address"
        }
      ],
      "name": "supportsERC165",
      "outputs": [
        {
          "name": "",
          "type": "bool"
        }
      ],
      "payable": false,
      "stateMutability": "view",
      "type": "function"
    },
    {
      "constant": true,
      "inputs": [
        {
          "name": "account",
          "type": "address"
        },
        {
          "name": "interfaceId",
          "type": "bytes4"
        }
      ],
      "name": "supportsInterface",
      "outputs": [
        {
          "name": "",
          "type": "bool"
        }
      ],
      "payable": false,
      "stateMutability": "view",
      "type": "function"
    },
    {
      "constant": true,
      "inputs": [
        {
          "name": "account",
          "type": "address"
        },
        {
          "name": "interfaceIds",
          "type": "bytes4[]"
        }
      ],
      "name": "supportsAllInterfaces",
      "outputs": [
        {
          "name": "",
          "type": "bool"
        }
      ],
      "payable": false,
      "stateMutability": "view",
      "type": "function"
    }
  ],
  "bytecode": "0x608060405234801561001057600080fd5b506104bc806100206000396000f300608060405260043610610057576000357c0100000000000000000000000000000000000000000000000000000000900463ffffffff1680634b9dd9041461005c578063c398a925146100fa578063d905700714610155575b600080fd5b34801561006857600080fd5b506100e0600480360381019080803573ffffffffffffffffffffffffffffffffffffffff169060200190929190803590602001908201803590602001908080602002602001604051908101604052809392919081815260200183836020028082843782019150505050505091929192905050506101d9565b604051808215151515815260200191505060405180910390f35b34801561010657600080fd5b5061013b600480360381019080803573ffffffffffffffffffffffffffffffffffffffff16906020019092919050505061020c565b604051808215151515815260200191505060405180910390f35b34801561016157600080fd5b506101bf600480360381019080803573ffffffffffffffffffffffffffffffffffffffff16906020019092919080357bffffffffffffffffffffffffffffffffffffffffffffffffffffffff19169060200190929190505050610234565b604051808215151515815260200191505060405180910390f35b6000610204828473ffffffffffffffffffffffffffffffffffffffff1661026790919063ffffffff16565b905092915050565b600061022d8273ffffffffffffffffffffffffffffffffffffffff166102d9565b9050919050565b600061025f828473ffffffffffffffffffffffffffffffffffffffff1661034590919063ffffffff16565b905092915050565b600080610273846102d9565b151561028257600091506102d2565b600090505b82518110156102cd576102b18484838151811015156102a257fe5b9060200190602002015161036a565b15156102c057600091506102d2565b8080600101915050610287565b600191505b5092915050565b6000610308826301ffc9a77c01000000000000000000000000000000000000000000000000000000000261036a565b801561033e575061033c8263ffffffff7c01000000000000000000000000000000000000000000000000000000000261036a565b155b9050919050565b6000610350836102d9565b80156103625750610361838361036a565b5b905092915050565b60008060006103798585610391565b915091508180156103875750805b9250505092915050565b60008060606301ffc9a77c0100000000000000000000000000000000000000000000000000000000028460405160240180827bffffffffffffffffffffffffffffffffffffffffffffffffffffffff19167bffffffffffffffffffffffffffffffffffffffffffffffffffffffff19168152602001915050604051602081830303815290604052907bffffffffffffffffffffffffffffffffffffffffffffffffffffffff19166020820180517bffffffffffffffffffffffffffffffffffffffffffffffffffffffff838183161783525050505090508060200181516040516000815260208183858b617530fa9550805194505050505092509290505600a165627a7a72305820d8f2735ede5edfb0652d12b4ebfb7aacbbcee773ec7a89b4ad627b6d1721c0c10029",
  "source": "pragma solidity ^0.4.24;\r\n\r\nimport \"../introspection/ERC165Checker.sol\";\r\n\r\ncontract ERC165CheckerMock {\r\n    using ERC165Checker for address;\r\n\r\n    function supportsERC165(address account) public view returns (bool) {\r\n        return account._supportsERC165();\r\n    }\r\n\r\n    function supportsInterface(address account, bytes4 interfaceId) public view returns (bool) {\r\n        return account._supportsInterface(interfaceId);\r\n    }\r\n\r\n    function supportsAllInterfaces(address account, bytes4[] interfaceIds) public view returns (bool) {\r\n        return account._supportsAllInterfaces(interfaceIds);\r\n    }\r\n}\r\n",
  "sourcePath": "D:\\dev\\tokenmint\\contracts\\open-zeppelin-contracts\\mocks\\ERC165CheckerMock.sol",
  "compiler": {
    "name": "solc",
    "version": "0.4.24+commit.e67f0147.Emscripten.clang"
  },
  "schemaVersion": "2.0.1",
  "updatedAt": "2019-01-09T16:58:53.758Z"
}