{
  "contractName": "ERC20FailingMock",
  "abi": [
    {
      "constant": false,
      "inputs": [
        {
          "name": "",
          "type": "address"
        },
        {
          "name": "",
          "type": "uint256"
        }
      ],
      "name": "transfer",
      "outputs": [
        {
          "name": "",
          "type": "bool"
        }
      ],
      "payable": false,
      "stateMutability": "nonpayable",
      "type": "function"
    },
    {
      "constant": false,
      "inputs": [
        {
          "name": "",
          "type": "address"
        },
        {
          "name": "",
          "type": "address"
        },
        {
          "name": "",
          "type": "uint256"
        }
      ],
      "name": "transferFrom",
      "outputs": [
        {
          "name": "",
          "type": "bool"
        }
      ],
      "payable": false,
      "stateMutability": "nonpayable",
      "type": "function"
    },
    {
      "constant": false,
      "inputs": [
        {
          "name": "",
          "type": "address"
        },
        {
          "name": "",
          "type": "uint256"
        }
      ],
      "name": "approve",
      "outputs": [
        {
          "name": "",
          "type": "bool"
        }
      ],
      "payable": false,
      "stateMutability": "nonpayable",
      "type": "function"
    },
    {
      "constant": true,
      "inputs": [
        {
          "name": "",
          "type": "address"
        },
        {
          "name": "",
          "type": "address"
        }
      ],
      "name": "allowance",
      "outputs": [
        {
          "name": "",
          "type": "uint256"
        }
      ],
      "payable": false,
      "stateMutability": "view",
      "type": "function"
    }
  ],
  "bytecode": "0x608060405234801561001057600080fd5b50610286806100206000396000f300608060405260043610610062576000357c0100000000000000000000000000000000000000000000000000000000900463ffffffff168063095ea7b31461006757806323b872dd146100cc578063a9059cbb14610151578063dd62ed3e146101b6575b600080fd5b34801561007357600080fd5b506100b2600480360381019080803573ffffffffffffffffffffffffffffffffffffffff1690602001909291908035906020019092919050505061022d565b604051808215151515815260200191505060405180910390f35b3480156100d857600080fd5b50610137600480360381019080803573ffffffffffffffffffffffffffffffffffffffff169060200190929190803573ffffffffffffffffffffffffffffffffffffffff16906020019092919080359060200190929190505050610238565b604051808215151515815260200191505060405180910390f35b34801561015d57600080fd5b5061019c600480360381019080803573ffffffffffffffffffffffffffffffffffffffff16906020019092919080359060200190929190505050610244565b604051808215151515815260200191505060405180910390f35b3480156101c257600080fd5b50610217600480360381019080803573ffffffffffffffffffffffffffffffffffffffff169060200190929190803573ffffffffffffffffffffffffffffffffffffffff16906020019092919050505061024f565b6040518082815260200191505060405180910390f35b600080905092915050565b60008090509392505050565b600080905092915050565b6000809050929150505600a165627a7a72305820c1012cc09f284420e31ab182a4ec01bd462642dfbf83035e30b9e2157c439dd10029",
  "source": "pragma solidity ^0.4.24;\r\n\r\nimport \"../token/ERC20/IERC20.sol\";\r\nimport \"../token/ERC20/SafeERC20.sol\";\r\n\r\ncontract ERC20FailingMock {\r\n    uint256 private _allowance;\r\n\r\n    function transfer(address, uint256) public returns (bool) {\r\n        return false;\r\n    }\r\n\r\n    function transferFrom(address, address, uint256) public returns (bool) {\r\n        return false;\r\n    }\r\n\r\n    function approve(address, uint256) public returns (bool) {\r\n        return false;\r\n    }\r\n\r\n    function allowance(address, address) public view returns (uint256) {\r\n        return 0;\r\n    }\r\n}\r\n\r\ncontract ERC20SucceedingMock {\r\n    uint256 private _allowance;\r\n\r\n    function transfer(address, uint256) public returns (bool) {\r\n        return true;\r\n    }\r\n\r\n    function transferFrom(address, address, uint256) public returns (bool) {\r\n        return true;\r\n    }\r\n\r\n    function approve(address, uint256) public returns (bool) {\r\n        return true;\r\n    }\r\n\r\n    function setAllowance(uint256 allowance_) public {\r\n        _allowance = allowance_;\r\n    }\r\n\r\n    function allowance(address, address) public view returns (uint256) {\r\n        return _allowance;\r\n    }\r\n}\r\n\r\ncontract SafeERC20Helper {\r\n    using SafeERC20 for IERC20;\r\n\r\n    IERC20 private _failing;\r\n    IERC20 private _succeeding;\r\n\r\n    constructor () public {\r\n        _failing = IERC20(new ERC20FailingMock());\r\n        _succeeding = IERC20(new ERC20SucceedingMock());\r\n    }\r\n\r\n    // Using _failing\r\n\r\n    function doFailingTransfer() public {\r\n        _failing.safeTransfer(address(0), 0);\r\n    }\r\n\r\n    function doFailingTransferFrom() public {\r\n        _failing.safeTransferFrom(address(0), address(0), 0);\r\n    }\r\n\r\n    function doFailingApprove() public {\r\n        _failing.safeApprove(address(0), 0);\r\n    }\r\n\r\n    function doFailingIncreaseAllowance() public {\r\n        _failing.safeIncreaseAllowance(address(0), 0);\r\n    }\r\n\r\n    function doFailingDecreaseAllowance() public {\r\n        _failing.safeDecreaseAllowance(address(0), 0);\r\n    }\r\n\r\n    // Using _succeeding\r\n\r\n    function doSucceedingTransfer() public {\r\n        _succeeding.safeTransfer(address(0), 0);\r\n    }\r\n\r\n    function doSucceedingTransferFrom() public {\r\n        _succeeding.safeTransferFrom(address(0), address(0), 0);\r\n    }\r\n\r\n    function doSucceedingApprove(uint256 amount) public {\r\n        _succeeding.safeApprove(address(0), amount);\r\n    }\r\n\r\n    function doSucceedingIncreaseAllowance(uint256 amount) public {\r\n        _succeeding.safeIncreaseAllowance(address(0), amount);\r\n    }\r\n\r\n    function doSucceedingDecreaseAllowance(uint256 amount) public {\r\n        _succeeding.safeDecreaseAllowance(address(0), amount);\r\n    }\r\n\r\n    function setAllowance(uint256 allowance_) public {\r\n        ERC20SucceedingMock(_succeeding).setAllowance(allowance_);\r\n    }\r\n\r\n    function allowance() public view returns (uint256) {\r\n        return _succeeding.allowance(address(0), address(0));\r\n    }\r\n}\r\n",
  "sourcePath": "D:\\dev\\tokenmint\\contracts\\open-zeppelin-contracts\\mocks\\SafeERC20Helper.sol",
  "compiler": {
    "name": "solc",
    "version": "0.4.24+commit.e67f0147.Emscripten.clang"
  },
  "schemaVersion": "2.0.1",
  "updatedAt": "2019-01-02T15:51:01.706Z"
}