{
  "contractName": "ERC721TokenMock",
  "abi": [
    {
      "constant": false,
      "inputs": [
        {
          "name": "_to",
          "type": "address"
        },
        {
          "name": "_tokenId",
          "type": "uint256"
        }
      ],
      "name": "approve",
      "outputs": [],
      "payable": false,
      "stateMutability": "nonpayable",
      "type": "function"
    },
    {
      "constant": true,
      "inputs": [],
      "name": "totalSupply",
      "outputs": [
        {
          "name": "",
          "type": "uint256"
        }
      ],
      "payable": false,
      "stateMutability": "view",
      "type": "function"
    },
    {
      "constant": true,
      "inputs": [
        {
          "name": "_tokenId",
          "type": "uint256"
        }
      ],
      "name": "approvedFor",
      "outputs": [
        {
          "name": "",
          "type": "address"
        }
      ],
      "payable": false,
      "stateMutability": "view",
      "type": "function"
    },
    {
      "constant": true,
      "inputs": [
        {
          "name": "_owner",
          "type": "address"
        }
      ],
      "name": "tokensOf",
      "outputs": [
        {
          "name": "",
          "type": "uint256[]"
        }
      ],
      "payable": false,
      "stateMutability": "view",
      "type": "function"
    },
    {
      "constant": true,
      "inputs": [
        {
          "name": "_tokenId",
          "type": "uint256"
        }
      ],
      "name": "ownerOf",
      "outputs": [
        {
          "name": "",
          "type": "address"
        }
      ],
      "payable": false,
      "stateMutability": "view",
      "type": "function"
    },
    {
      "constant": true,
      "inputs": [
        {
          "name": "_owner",
          "type": "address"
        }
      ],
      "name": "balanceOf",
      "outputs": [
        {
          "name": "",
          "type": "uint256"
        }
      ],
      "payable": false,
      "stateMutability": "view",
      "type": "function"
    },
    {
      "constant": false,
      "inputs": [
        {
          "name": "_to",
          "type": "address"
        },
        {
          "name": "_tokenId",
          "type": "uint256"
        }
      ],
      "name": "transfer",
      "outputs": [],
      "payable": false,
      "stateMutability": "nonpayable",
      "type": "function"
    },
    {
      "constant": false,
      "inputs": [
        {
          "name": "_tokenId",
          "type": "uint256"
        }
      ],
      "name": "takeOwnership",
      "outputs": [],
      "payable": false,
      "stateMutability": "nonpayable",
      "type": "function"
    },
    {
      "inputs": [],
      "payable": false,
      "stateMutability": "nonpayable",
      "type": "constructor"
    },
    {
      "anonymous": false,
      "inputs": [
        {
          "indexed": true,
          "name": "_from",
          "type": "address"
        },
        {
          "indexed": true,
          "name": "_to",
          "type": "address"
        },
        {
          "indexed": false,
          "name": "_tokenId",
          "type": "uint256"
        }
      ],
      "name": "Transfer",
      "type": "event"
    },
    {
      "anonymous": false,
      "inputs": [
        {
          "indexed": true,
          "name": "_owner",
          "type": "address"
        },
        {
          "indexed": true,
          "name": "_approved",
          "type": "address"
        },
        {
          "indexed": false,
          "name": "_tokenId",
          "type": "uint256"
        }
      ],
      "name": "Approval",
      "type": "event"
    },
    {
      "constant": false,
      "inputs": [
        {
          "name": "_to",
          "type": "address"
        },
        {
          "name": "_tokenId",
          "type": "uint256"
        }
      ],
      "name": "mint",
      "outputs": [],
      "payable": false,
      "stateMutability": "nonpayable",
      "type": "function"
    },
    {
      "constant": false,
      "inputs": [
        {
          "name": "_tokenId",
          "type": "uint256"
        }
      ],
      "name": "burn",
      "outputs": [],
      "payable": false,
      "stateMutability": "nonpayable",
      "type": "function"
    }
  ],
  "bytecode": "0x608060405234801561001057600080fd5b50611038806100206000396000f3006080604052600436106100a4576000357c0100000000000000000000000000000000000000000000000000000000900463ffffffff168063095ea7b3146100a957806318160ddd146100f65780632a6dd48f1461012157806340c10f191461018e57806342966c68146101db5780635a3f2672146102085780636352211e146102a057806370a082311461030d578063a9059cbb14610364578063b2e6ceeb146103b1575b600080fd5b3480156100b557600080fd5b506100f4600480360381019080803573ffffffffffffffffffffffffffffffffffffffff169060200190929190803590602001909291905050506103de565b005b34801561010257600080fd5b5061010b610571565b6040518082815260200191505060405180910390f35b34801561012d57600080fd5b5061014c6004803603810190808035906020019092919050505061057a565b604051808273ffffffffffffffffffffffffffffffffffffffff1673ffffffffffffffffffffffffffffffffffffffff16815260200191505060405180910390f35b34801561019a57600080fd5b506101d9600480360381019080803573ffffffffffffffffffffffffffffffffffffffff169060200190929190803590602001909291905050506105b7565b005b3480156101e757600080fd5b50610206600480360381019080803590602001909291905050506105c5565b005b34801561021457600080fd5b50610249600480360381019080803573ffffffffffffffffffffffffffffffffffffffff1690602001909291905050506105d1565b6040518080602001828103825283818151815260200191508051906020019060200280838360005b8381101561028c578082015181840152602081019050610271565b505050509050019250505060405180910390f35b3480156102ac57600080fd5b506102cb60048036038101908080359060200190929190505050610668565b604051808273ffffffffffffffffffffffffffffffffffffffff1673ffffffffffffffffffffffffffffffffffffffff16815260200191505060405180910390f35b34801561031957600080fd5b5061034e600480360381019080803573ffffffffffffffffffffffffffffffffffffffff1690602001909291905050506106e6565b6040518082815260200191505060405180910390f35b34801561037057600080fd5b506103af600480360381019080803573ffffffffffffffffffffffffffffffffffffffff16906020019092919080359060200190929190505050610732565b005b3480156103bd57600080fd5b506103dc60048036038101908080359060200190929190505050610785565b005b6000813373ffffffffffffffffffffffffffffffffffffffff1661040182610668565b73ffffffffffffffffffffffffffffffffffffffff1614151561042357600080fd5b61042c83610668565b91508173ffffffffffffffffffffffffffffffffffffffff168473ffffffffffffffffffffffffffffffffffffffff161415151561046957600080fd5b60006104748461057a565b73ffffffffffffffffffffffffffffffffffffffff161415806104ae575060008473ffffffffffffffffffffffffffffffffffffffff1614155b1561056b57836002600085815260200190815260200160002060006101000a81548173ffffffffffffffffffffffffffffffffffffffff021916908373ffffffffffffffffffffffffffffffffffffffff1602179055508373ffffffffffffffffffffffffffffffffffffffff168273ffffffffffffffffffffffffffffffffffffffff167f8c5be1e5ebec7d5bd14f71427d1e84f3dd0314c0f7b2291e5b200ac8c7c3b925856040518082815260200191505060405180910390a35b50505050565b60008054905090565b60006002600083815260200190815260200160002060009054906101000a900473ffffffffffffffffffffffffffffffffffffffff169050919050565b6105c182826107b0565b5050565b6105ce8161084a565b50565b6060600360008373ffffffffffffffffffffffffffffffffffffffff1673ffffffffffffffffffffffffffffffffffffffff16815260200190815260200160002080548060200260200160405190810160405280929190818152602001828054801561065c57602002820191906000526020600020905b815481526020019060010190808311610648575b50505050509050919050565b6000806001600084815260200190815260200160002060009054906101000a900473ffffffffffffffffffffffffffffffffffffffff169050600073ffffffffffffffffffffffffffffffffffffffff168173ffffffffffffffffffffffffffffffffffffffff16141515156106dd57600080fd5b80915050919050565b6000600360008373ffffffffffffffffffffffffffffffffffffffff1673ffffffffffffffffffffffffffffffffffffffff168152602001908152602001600020805490509050919050565b803373ffffffffffffffffffffffffffffffffffffffff1661075382610668565b73ffffffffffffffffffffffffffffffffffffffff1614151561077557600080fd5b61078033848461091e565b505050565b61078f3382610a67565b151561079a57600080fd5b6107ad6107a682610668565b338361091e565b50565b600073ffffffffffffffffffffffffffffffffffffffff168273ffffffffffffffffffffffffffffffffffffffff16141515156107ec57600080fd5b6107f68282610aa8565b8173ffffffffffffffffffffffffffffffffffffffff1660007fddf252ad1be2c89b69c2b068fc378daa952ba7f163c4a11628f55a4df523b3ef836040518082815260200191505060405180910390a35050565b803373ffffffffffffffffffffffffffffffffffffffff1661086b82610668565b73ffffffffffffffffffffffffffffffffffffffff1614151561088d57600080fd5b60006108988361057a565b73ffffffffffffffffffffffffffffffffffffffff161415156108c0576108bf3383610c16565b5b6108ca3383610cff565b60003373ffffffffffffffffffffffffffffffffffffffff167fddf252ad1be2c89b69c2b068fc378daa952ba7f163c4a11628f55a4df523b3ef846040518082815260200191505060405180910390a35050565b600073ffffffffffffffffffffffffffffffffffffffff168273ffffffffffffffffffffffffffffffffffffffff161415151561095a57600080fd5b61096381610668565b73ffffffffffffffffffffffffffffffffffffffff168273ffffffffffffffffffffffffffffffffffffffff161415151561099d57600080fd5b8273ffffffffffffffffffffffffffffffffffffffff166109bd82610668565b73ffffffffffffffffffffffffffffffffffffffff161415156109df57600080fd5b6109e98382610c16565b6109f38382610cff565b6109fd8282610aa8565b8173ffffffffffffffffffffffffffffffffffffffff168373ffffffffffffffffffffffffffffffffffffffff167fddf252ad1be2c89b69c2b068fc378daa952ba7f163c4a11628f55a4df523b3ef836040518082815260200191505060405180910390a3505050565b60008273ffffffffffffffffffffffffffffffffffffffff16610a898361057a565b73ffffffffffffffffffffffffffffffffffffffff1614905092915050565b60008073ffffffffffffffffffffffffffffffffffffffff166001600084815260200190815260200160002060009054906101000a900473ffffffffffffffffffffffffffffffffffffffff1673ffffffffffffffffffffffffffffffffffffffff16141515610b1757600080fd5b826001600084815260200190815260200160002060006101000a81548173ffffffffffffffffffffffffffffffffffffffff021916908373ffffffffffffffffffffffffffffffffffffffff160217905550610b72836106e6565b9050600360008473ffffffffffffffffffffffffffffffffffffffff1673ffffffffffffffffffffffffffffffffffffffff168152602001908152602001600020829080600181540180825580915050906001820390600052602060002001600090919290919091505550806004600084815260200190815260200160002081905550610c0b6001600054610f8490919063ffffffff16565b600081905550505050565b8173ffffffffffffffffffffffffffffffffffffffff16610c3682610668565b73ffffffffffffffffffffffffffffffffffffffff16141515610c5857600080fd5b60006002600083815260200190815260200160002060006101000a81548173ffffffffffffffffffffffffffffffffffffffff021916908373ffffffffffffffffffffffffffffffffffffffff16021790555060008273ffffffffffffffffffffffffffffffffffffffff167f8c5be1e5ebec7d5bd14f71427d1e84f3dd0314c0f7b2291e5b200ac8c7c3b925836040518082815260200191505060405180910390a35050565b60008060008473ffffffffffffffffffffffffffffffffffffffff16610d2485610668565b73ffffffffffffffffffffffffffffffffffffffff16141515610d4657600080fd5b60046000858152602001908152602001600020549250610d786001610d6a876106e6565b610fa290919063ffffffff16565b9150600360008673ffffffffffffffffffffffffffffffffffffffff1673ffffffffffffffffffffffffffffffffffffffff16815260200190815260200160002082815481101515610dc657fe5b9060005260206000200154905060006001600086815260200190815260200160002060006101000a81548173ffffffffffffffffffffffffffffffffffffffff021916908373ffffffffffffffffffffffffffffffffffffffff16021790555080600360008773ffffffffffffffffffffffffffffffffffffffff1673ffffffffffffffffffffffffffffffffffffffff16815260200190815260200160002084815481101515610e7357fe5b90600052602060002001819055506000600360008773ffffffffffffffffffffffffffffffffffffffff1673ffffffffffffffffffffffffffffffffffffffff16815260200190815260200160002083815481101515610ecf57fe5b9060005260206000200181905550600360008673ffffffffffffffffffffffffffffffffffffffff1673ffffffffffffffffffffffffffffffffffffffff168152602001908152602001600020805480919060019003610f2f9190610fbb565b5060006004600086815260200190815260200160002081905550826004600083815260200190815260200160002081905550610f776001600054610fa290919063ffffffff16565b6000819055505050505050565b6000808284019050838110151515610f9857fe5b8091505092915050565b6000828211151515610fb057fe5b818303905092915050565b815481835581811115610fe257818360005260206000209182019101610fe19190610fe7565b5b505050565b61100991905b80821115611005576000816000905550600101610fed565b5090565b905600a165627a7a72305820d805bf2f1f879d892133a8db9961f1e3c381ce7d509011da43bb31c98cbc6a440029",
  "source": "pragma solidity ^0.4.18;\r\n\r\nimport \"../token/ERC721/ERC721Token.sol\";\r\n\r\n/**\r\n * @title ERC721TokenMock\r\n * This mock just provides a public mint and burn functions for testing purposes.\r\n */\r\ncontract ERC721TokenMock is ERC721Token {\r\n  function ERC721TokenMock() ERC721Token() public { }\r\n\r\n  function mint(address _to, uint256 _tokenId) public {\r\n    super._mint(_to, _tokenId);\r\n  }\r\n\r\n  function burn(uint256 _tokenId) public {\r\n    super._burn(_tokenId);\r\n  }\r\n}\r\n",
  "sourcePath": "D:\\trees\\tokenmint\\contracts\\tokenmarketnet-contracts\\contracts\\zeppelin\\contracts\\mocks\\ERC721TokenMock.sol",
  "compiler": {
    "name": "solc",
    "version": "0.4.24+commit.e67f0147.Emscripten.clang"
  },
  "schemaVersion": "2.0.1",
  "updatedAt": "2018-12-10T14:03:30.316Z"
}