{
  "contractName": "EthTranchePricing",
  "abi": [
    {
      "constant": true,
      "inputs": [],
      "name": "isPricingStrategy",
      "outputs": [
        {
          "name": "",
          "type": "bool"
        }
      ],
      "payable": false,
      "stateMutability": "view",
      "type": "function"
    },
    {
      "constant": true,
      "inputs": [
        {
          "name": "",
          "type": "uint256"
        }
      ],
      "name": "tranches",
      "outputs": [
        {
          "name": "amount",
          "type": "uint256"
        },
        {
          "name": "price",
          "type": "uint256"
        }
      ],
      "payable": false,
      "stateMutability": "view",
      "type": "function"
    },
    {
      "constant": true,
      "inputs": [],
      "name": "trancheCount",
      "outputs": [
        {
          "name": "",
          "type": "uint256"
        }
      ],
      "payable": false,
      "stateMutability": "view",
      "type": "function"
    },
    {
      "constant": true,
      "inputs": [],
      "name": "MAX_TRANCHES",
      "outputs": [
        {
          "name": "",
          "type": "uint256"
        }
      ],
      "payable": false,
      "stateMutability": "view",
      "type": "function"
    },
    {
      "constant": true,
      "inputs": [],
      "name": "owner",
      "outputs": [
        {
          "name": "",
          "type": "address"
        }
      ],
      "payable": false,
      "stateMutability": "view",
      "type": "function"
    },
    {
      "constant": true,
      "inputs": [
        {
          "name": "",
          "type": "address"
        }
      ],
      "name": "preicoAddresses",
      "outputs": [
        {
          "name": "",
          "type": "uint256"
        }
      ],
      "payable": false,
      "stateMutability": "view",
      "type": "function"
    },
    {
      "constant": false,
      "inputs": [
        {
          "name": "newOwner",
          "type": "address"
        }
      ],
      "name": "transferOwnership",
      "outputs": [],
      "payable": false,
      "stateMutability": "nonpayable",
      "type": "function"
    },
    {
      "inputs": [
        {
          "name": "_tranches",
          "type": "uint256[]"
        }
      ],
      "payable": false,
      "stateMutability": "nonpayable",
      "type": "constructor"
    },
    {
      "payable": true,
      "stateMutability": "payable",
      "type": "fallback"
    },
    {
      "anonymous": false,
      "inputs": [
        {
          "indexed": true,
          "name": "previousOwner",
          "type": "address"
        },
        {
          "indexed": true,
          "name": "newOwner",
          "type": "address"
        }
      ],
      "name": "OwnershipTransferred",
      "type": "event"
    },
    {
      "constant": false,
      "inputs": [
        {
          "name": "preicoAddress",
          "type": "address"
        },
        {
          "name": "pricePerToken",
          "type": "uint256"
        }
      ],
      "name": "setPreicoAddress",
      "outputs": [],
      "payable": false,
      "stateMutability": "nonpayable",
      "type": "function"
    },
    {
      "constant": true,
      "inputs": [
        {
          "name": "n",
          "type": "uint256"
        }
      ],
      "name": "getTranche",
      "outputs": [
        {
          "name": "",
          "type": "uint256"
        },
        {
          "name": "",
          "type": "uint256"
        }
      ],
      "payable": false,
      "stateMutability": "view",
      "type": "function"
    },
    {
      "constant": true,
      "inputs": [],
      "name": "getPricingStartsAt",
      "outputs": [
        {
          "name": "",
          "type": "uint256"
        }
      ],
      "payable": false,
      "stateMutability": "view",
      "type": "function"
    },
    {
      "constant": true,
      "inputs": [],
      "name": "getPricingEndsAt",
      "outputs": [
        {
          "name": "",
          "type": "uint256"
        }
      ],
      "payable": false,
      "stateMutability": "view",
      "type": "function"
    },
    {
      "constant": true,
      "inputs": [
        {
          "name": "_crowdsale",
          "type": "address"
        }
      ],
      "name": "isSane",
      "outputs": [
        {
          "name": "",
          "type": "bool"
        }
      ],
      "payable": false,
      "stateMutability": "view",
      "type": "function"
    },
    {
      "constant": true,
      "inputs": [
        {
          "name": "weiRaised",
          "type": "uint256"
        }
      ],
      "name": "getCurrentPrice",
      "outputs": [
        {
          "name": "result",
          "type": "uint256"
        }
      ],
      "payable": false,
      "stateMutability": "view",
      "type": "function"
    },
    {
      "constant": true,
      "inputs": [
        {
          "name": "purchaser",
          "type": "address"
        }
      ],
      "name": "isPresalePurchase",
      "outputs": [
        {
          "name": "",
          "type": "bool"
        }
      ],
      "payable": false,
      "stateMutability": "view",
      "type": "function"
    },
    {
      "constant": true,
      "inputs": [
        {
          "name": "value",
          "type": "uint256"
        },
        {
          "name": "weiRaised",
          "type": "uint256"
        },
        {
          "name": "tokensSold",
          "type": "uint256"
        },
        {
          "name": "msgSender",
          "type": "address"
        },
        {
          "name": "decimals",
          "type": "uint256"
        }
      ],
      "name": "calculatePrice",
      "outputs": [
        {
          "name": "",
          "type": "uint256"
        }
      ],
      "payable": false,
      "stateMutability": "view",
      "type": "function"
    }
  ],
  "bytecode": "0x608060405234801561001057600080fd5b50604051610cb7380380610cb783398101806040528101908080518201929190505050600080336000806101000a81548173ffffffffffffffffffffffffffffffffffffffff021916908373ffffffffffffffffffffffffffffffffffffffff16021790555060016002845181151561008557fe5b06148061009757506002600a02835110155b156100a157600080fd5b600283518115156100ae57fe5b0460168190555060009150600090505b600283518115156100cb57fe5b048110156101975782600282028151811015156100e457fe5b90602001906020020151600282600a811015156100fd57fe5b6002020160000181905550826001600283020181518110151561011c57fe5b90602001906020020151600282600a8110151561013557fe5b600202016001018190555060008214158015610167575081600282600a8110151561015c57fe5b600202016000015411155b1561017157600080fd5b600281600a8110151561018057fe5b6002020160000154915080806001019150506100be565b600060026000600a811015156101a957fe5b60020201600001541415156101bd57600080fd5b60006002600160165403600a811015156101d357fe5b60020201600101541415156101e757600080fd5b505050610abe806101f96000396000f3006080604052600436106100db576000357c0100000000000000000000000000000000000000000000000000000000900463ffffffff16806304bbc255146100e057806318a4155e1461010f57806326c259621461018e5780632c9a0a95146101d657806359eb8224146102015780636f079f901461022c57806389506a44146102575780638da5cb5b146102825780638e768288146102d9578063c55d0f5614610334578063d972e8ad14610375578063e474f97a146103bd578063f14ae17d1461040a578063f1ef9a0814610465578063f2fde38b146104bc575b600080fd5b3480156100ec57600080fd5b506100f56104ff565b604051808215151515815260200191505060405180910390f35b34801561011b57600080fd5b50610178600480360381019080803590602001909291908035906020019092919080359060200190929190803573ffffffffffffffffffffffffffffffffffffffff16906020019092919080359060200190929190505050610508565b6040518082815260200191505060405180910390f35b34801561019a57600080fd5b506101b9600480360381019080803590602001909291905050506105f6565b604051808381526020018281526020019250505060405180910390f35b3480156101e257600080fd5b506101eb61061f565b6040518082815260200191505060405180910390f35b34801561020d57600080fd5b50610216610632565b6040518082815260200191505060405180910390f35b34801561023857600080fd5b50610241610638565b6040518082815260200191505060405180910390f35b34801561026357600080fd5b5061026c61064b565b6040518082815260200191505060405180910390f35b34801561028e57600080fd5b50610297610650565b604051808273ffffffffffffffffffffffffffffffffffffffff1673ffffffffffffffffffffffffffffffffffffffff16815260200191505060405180910390f35b3480156102e557600080fd5b5061031a600480360381019080803573ffffffffffffffffffffffffffffffffffffffff169060200190929190505050610675565b604051808215151515815260200191505060405180910390f35b34801561034057600080fd5b5061035f60048036038101908080359060200190929190505050610680565b6040518082815260200191505060405180910390f35b34801561038157600080fd5b506103a060048036038101908080359060200190929190505050610696565b604051808381526020018281526020019250505060405180910390f35b3480156103c957600080fd5b50610408600480360381019080803573ffffffffffffffffffffffffffffffffffffffff169060200190929190803590602001909291905050506106d0565b005b34801561041657600080fd5b5061044b600480360381019080803573ffffffffffffffffffffffffffffffffffffffff169060200190929190505050610773565b604051808215151515815260200191505060405180910390f35b34801561047157600080fd5b506104a6600480360381019080803573ffffffffffffffffffffffffffffffffffffffff1690602001909291905050506107cf565b6040518082815260200191505060405180910390f35b3480156104c857600080fd5b506104fd600480360381019080803573ffffffffffffffffffffffffffffffffffffffff1690602001909291905050506107e7565b005b60006001905090565b600080600083600a0a91506000600160008773ffffffffffffffffffffffffffffffffffffffff1673ffffffffffffffffffffffffffffffffffffffff1681526020019081526020016000205411156105bf57600160008673ffffffffffffffffffffffffffffffffffffffff1673ffffffffffffffffffffffffffffffffffffffff168152602001908152602001600020546105ae838a61093c90919063ffffffff16565b8115156105b757fe5b0492506105eb565b6105c887610680565b9050806105de838a61093c90919063ffffffff16565b8115156105e757fe5b0492505b505095945050505050565b600281600a8110151561060557fe5b600202016000915090508060000154908060010154905082565b600061062961096f565b60000151905090565b60165481565b60006106426109af565b60000151905090565b600a81565b6000809054906101000a900473ffffffffffffffffffffffffffffffffffffffff1681565b600060019050919050565b600061068b826109f3565b602001519050919050565b600080600283600a811015156106a857fe5b6002020160000154600284600a811015156106bf57fe5b600202016001015491509150915091565b6000809054906101000a900473ffffffffffffffffffffffffffffffffffffffff1673ffffffffffffffffffffffffffffffffffffffff163373ffffffffffffffffffffffffffffffffffffffff1614151561072b57600080fd5b80600160008473ffffffffffffffffffffffffffffffffffffffff1673ffffffffffffffffffffffffffffffffffffffff168152602001908152602001600020819055505050565b600080600160008473ffffffffffffffffffffffffffffffffffffffff1673ffffffffffffffffffffffffffffffffffffffff1681526020019081526020016000205411156107c557600190506107ca565b600090505b919050565b60016020528060005260406000206000915090505481565b6000809054906101000a900473ffffffffffffffffffffffffffffffffffffffff1673ffffffffffffffffffffffffffffffffffffffff163373ffffffffffffffffffffffffffffffffffffffff1614151561084257600080fd5b600073ffffffffffffffffffffffffffffffffffffffff168173ffffffffffffffffffffffffffffffffffffffff161415151561087e57600080fd5b8073ffffffffffffffffffffffffffffffffffffffff166000809054906101000a900473ffffffffffffffffffffffffffffffffffffffff1673ffffffffffffffffffffffffffffffffffffffff167f8be0079c531659141344cd1fd0a4f28419497f9722a3daafe3b4186f6b6457e060405160405180910390a3806000806101000a81548173ffffffffffffffffffffffffffffffffffffffff021916908373ffffffffffffffffffffffffffffffffffffffff16021790555050565b6000808284029050600084148061095d575082848281151561095a57fe5b04145b151561096557fe5b8091505092915050565b610977610a78565b60026000600a8110151561098757fe5b6002020160408051908101604052908160008201548152602001600182015481525050905090565b6109b7610a78565b6002600160165403600a811015156109cb57fe5b6002020160408051908101604052908160008201548152602001600182015481525050905090565b6109fb610a78565b60008090505b600a811015610a7157600281600a81101515610a1957fe5b6002020160000154831015610a6457600260018203600a81101515610a3a57fe5b60020201604080519081016040529081600082015481526020016001820154815250509150610a72565b8080600101915050610a01565b5b50919050565b6040805190810160405280600081526020016000815250905600a165627a7a7230582090ffc729f783b87dfbe30f2cf88c06dfec473bd337c1681998fb57a2d45eb84d0029",
  "source": "/**\n * This smart contract code is Copyright 2017 TokenMarket Ltd. For more information see https://tokenmarket.net\n *\n * Licensed under the Apache License, version 2.0: https://github.com/TokenMarketNet/ico/blob/master/LICENSE.txt\n */\n\npragma solidity ^0.4.6;\n\nimport \"./PricingStrategy.sol\";\nimport \"./Crowdsale.sol\";\nimport \"./SafeMathLib.sol\";\nimport \"./zeppelin/contracts/ownership/Ownable.sol\";\n\n/// @dev Tranche based pricing with special support for pre-ico deals.\n///      Implementing \"first price\" tranches, meaning, that if byers order is\n///      covering more than one tranche, the price of the lowest tranche will apply\n///      to the whole order.\ncontract EthTranchePricing is PricingStrategy, Ownable {\n\n  using SafeMathLib for uint;\n\n  uint public constant MAX_TRANCHES = 10;\n\n  // This contains all pre-ICO addresses, and their prices (weis per token)\n  mapping (address => uint) public preicoAddresses;\n\n  /**\n  * Define pricing schedule using tranches.\n  */\n  struct Tranche {\n\n      // Amount in weis when this tranche becomes active\n      uint amount;\n\n      // How many tokens per satoshi you will get while this tranche is active\n      uint price;\n  }\n\n  // Store tranches in a fixed array, so that it can be seen in a blockchain explorer\n  // Tranche 0 is always (0, 0)\n  // (TODO: change this when we confirm dynamic arrays are explorable)\n  Tranche[10] public tranches;\n\n  // How many active tranches we have\n  uint public trancheCount;\n\n  /// @dev Contruction, creating a list of tranches\n  /// @param _tranches uint[] tranches Pairs of (start amount, price)\n  constructor(uint[] _tranches) {\n    // Need to have tuples, length check\n    if(_tranches.length % 2 == 1 || _tranches.length >= MAX_TRANCHES*2) {\n      throw;\n    }\n\n    trancheCount = _tranches.length / 2;\n\n    uint highestAmount = 0;\n\n    for(uint i=0; i<_tranches.length/2; i++) {\n      tranches[i].amount = _tranches[i*2];\n      tranches[i].price = _tranches[i*2+1];\n\n      // No invalid steps\n      if((highestAmount != 0) && (tranches[i].amount <= highestAmount)) {\n        throw;\n      }\n\n      highestAmount = tranches[i].amount;\n    }\n\n    // We need to start from zero, otherwise we blow up our deployment\n    if(tranches[0].amount != 0) {\n      throw;\n    }\n\n    // Last tranche price must be zero, terminating the crowdale\n    if(tranches[trancheCount-1].price != 0) {\n      throw;\n    }\n  }\n\n  /// @dev This is invoked once for every pre-ICO address, set pricePerToken\n  ///      to 0 to disable\n  /// @param preicoAddress PresaleFundCollector address\n  /// @param pricePerToken How many weis one token cost for pre-ico investors\n  function setPreicoAddress(address preicoAddress, uint pricePerToken)\n    public\n    onlyOwner\n  {\n    preicoAddresses[preicoAddress] = pricePerToken;\n  }\n\n  /// @dev Iterate through tranches. You reach end of tranches when price = 0\n  /// @return tuple (time, price)\n  function getTranche(uint n) public constant returns (uint, uint) {\n    return (tranches[n].amount, tranches[n].price);\n  }\n\n  function getFirstTranche() private constant returns (Tranche) {\n    return tranches[0];\n  }\n\n  function getLastTranche() private constant returns (Tranche) {\n    return tranches[trancheCount-1];\n  }\n\n  function getPricingStartsAt() public constant returns (uint) {\n    return getFirstTranche().amount;\n  }\n\n  function getPricingEndsAt() public constant returns (uint) {\n    return getLastTranche().amount;\n  }\n\n  function isSane(address _crowdsale) public constant returns(bool) {\n    // Our tranches are not bound by time, so we can't really check are we sane\n    // so we presume we are ;)\n    // In the future we could save and track raised tokens, and compare it to\n    // the Crowdsale contract.\n    return true;\n  }\n\n  /// @dev Get the current tranche or bail out if we are not in the tranche periods.\n  /// @param weiRaised total amount of weis raised, for calculating the current tranche\n  /// @return {[type]} [description]\n  function getCurrentTranche(uint weiRaised) private constant returns (Tranche) {\n    uint i;\n\n    for(i=0; i < tranches.length; i++) {\n      if(weiRaised < tranches[i].amount) {\n        return tranches[i-1];\n      }\n    }\n  }\n\n  /// @dev Get the current price.\n  /// @param weiRaised total amount of weis raised, for calculating the current tranche\n  /// @return The current price or 0 if we are outside trache ranges\n  function getCurrentPrice(uint weiRaised) public constant returns (uint result) {\n    return getCurrentTranche(weiRaised).price;\n  }\n\n  function isPresalePurchase(address purchaser) public constant returns (bool) {\n    if(preicoAddresses[purchaser] > 0)\n      return true;\n    else\n      return false;\n  }\n\n  /// @dev Calculate the current price for buy in amount.\n  function calculatePrice(uint value, uint weiRaised, uint tokensSold, address msgSender, uint decimals) public constant returns (uint) {\n\n    uint multiplier = 10 ** decimals;\n\n    // This investor is coming through pre-ico\n    if(preicoAddresses[msgSender] > 0) {\n      return value.times(multiplier) / preicoAddresses[msgSender];\n    }\n\n    uint price = getCurrentPrice(weiRaised);\n    return value.times(multiplier) / price;\n  }\n\n  function() payable {\n    throw; // No money on this contract\n  }\n\n}\n",
  "sourcePath": "D:\\dev\\tokenmint\\contracts\\tokenmarketnet-contracts\\contracts\\EthTranchePricing.sol",
  "compiler": {
    "name": "solc",
    "version": "0.4.24+commit.e67f0147.Emscripten.clang"
  },
  "schemaVersion": "2.0.1",
  "updatedAt": "2018-12-26T13:17:48.177Z"
}