{
  "contractName": "ExtraFinalizeAgent",
  "abi": [
    {
      "constant": true,
      "inputs": [],
      "name": "isFinalizeAgent",
      "outputs": [
        {
          "name": "",
          "type": "bool"
        }
      ],
      "payable": false,
      "stateMutability": "view",
      "type": "function"
    },
    {
      "constant": true,
      "inputs": [],
      "name": "allocatedBonus",
      "outputs": [
        {
          "name": "",
          "type": "uint256"
        }
      ],
      "payable": false,
      "stateMutability": "view",
      "type": "function"
    },
    {
      "constant": true,
      "inputs": [],
      "name": "bonusBasePoints",
      "outputs": [
        {
          "name": "",
          "type": "uint256"
        }
      ],
      "payable": false,
      "stateMutability": "view",
      "type": "function"
    },
    {
      "constant": true,
      "inputs": [],
      "name": "crowdsale",
      "outputs": [
        {
          "name": "",
          "type": "address"
        }
      ],
      "payable": false,
      "stateMutability": "view",
      "type": "function"
    },
    {
      "constant": true,
      "inputs": [],
      "name": "accountedTokenSales",
      "outputs": [
        {
          "name": "",
          "type": "uint256"
        }
      ],
      "payable": false,
      "stateMutability": "view",
      "type": "function"
    },
    {
      "constant": true,
      "inputs": [],
      "name": "teamMultisig",
      "outputs": [
        {
          "name": "",
          "type": "address"
        }
      ],
      "payable": false,
      "stateMutability": "view",
      "type": "function"
    },
    {
      "constant": true,
      "inputs": [],
      "name": "token",
      "outputs": [
        {
          "name": "",
          "type": "address"
        }
      ],
      "payable": false,
      "stateMutability": "view",
      "type": "function"
    },
    {
      "inputs": [
        {
          "name": "_token",
          "type": "address"
        },
        {
          "name": "_crowdsale",
          "type": "address"
        },
        {
          "name": "_bonusBasePoints",
          "type": "uint256"
        },
        {
          "name": "_teamMultisig",
          "type": "address"
        },
        {
          "name": "_accountedTokenSales",
          "type": "uint256"
        }
      ],
      "payable": false,
      "stateMutability": "nonpayable",
      "type": "constructor"
    },
    {
      "constant": true,
      "inputs": [],
      "name": "isSane",
      "outputs": [
        {
          "name": "",
          "type": "bool"
        }
      ],
      "payable": false,
      "stateMutability": "view",
      "type": "function"
    },
    {
      "constant": false,
      "inputs": [],
      "name": "finalizeCrowdsale",
      "outputs": [],
      "payable": false,
      "stateMutability": "nonpayable",
      "type": "function"
    }
  ],
  "bytecode": "0x608060405234801561001057600080fd5b5060405160a0806108c68339810180604052810190808051906020019092919080519060200190929190805190602001909291908051906020019092919080519060200190929190505050846000806101000a81548173ffffffffffffffffffffffffffffffffffffffff021916908373ffffffffffffffffffffffffffffffffffffffff16021790555083600160006101000a81548173ffffffffffffffffffffffffffffffffffffffff021916908373ffffffffffffffffffffffffffffffffffffffff1602179055506000600160009054906101000a900473ffffffffffffffffffffffffffffffffffffffff1673ffffffffffffffffffffffffffffffffffffffff16141561012257600080fd5b81600360006101000a81548173ffffffffffffffffffffffffffffffffffffffff021916908373ffffffffffffffffffffffffffffffffffffffff1602179055506000600360009054906101000a900473ffffffffffffffffffffffffffffffffffffffff1673ffffffffffffffffffffffffffffffffffffffff1614156101a957600080fd5b806005819055505050505050610702806101c46000396000f300608060405260043610610099576000357c0100000000000000000000000000000000000000000000000000000000900463ffffffff1680630bf318a31461009e578063614cb904146100b55780636a457ee9146100e45780637424bebc1461010f57806382771c8e1461013a5780639c1e03a014610169578063bc129a98146101c0578063dbc0c085146101eb578063fc0c546a14610242575b600080fd5b3480156100aa57600080fd5b506100b3610299565b005b3480156100c157600080fd5b506100ca6104f9565b604051808215151515815260200191505060405180910390f35b3480156100f057600080fd5b506100f9610502565b6040518082815260200191505060405180910390f35b34801561011b57600080fd5b50610124610508565b6040518082815260200191505060405180910390f35b34801561014657600080fd5b5061014f61050e565b604051808215151515815260200191505060405180910390f35b34801561017557600080fd5b5061017e610613565b604051808273ffffffffffffffffffffffffffffffffffffffff1673ffffffffffffffffffffffffffffffffffffffff16815260200191505060405180910390f35b3480156101cc57600080fd5b506101d5610639565b6040518082815260200191505060405180910390f35b3480156101f757600080fd5b5061020061063f565b604051808273ffffffffffffffffffffffffffffffffffffffff1673ffffffffffffffffffffffffffffffffffffffff16815260200191505060405180910390f35b34801561024e57600080fd5b50610257610665565b604051808273ffffffffffffffffffffffffffffffffffffffff1673ffffffffffffffffffffffffffffffffffffffff16815260200191505060405180910390f35b6000600160009054906101000a900473ffffffffffffffffffffffffffffffffffffffff1673ffffffffffffffffffffffffffffffffffffffff163373ffffffffffffffffffffffffffffffffffffffff161415156102f757600080fd5b6103cc600554600160009054906101000a900473ffffffffffffffffffffffffffffffffffffffff1673ffffffffffffffffffffffffffffffffffffffff1663518ab2a86040518163ffffffff167c0100000000000000000000000000000000000000000000000000000000028152600401602060405180830381600087803b15801561038357600080fd5b505af1158015610397573d6000803e3d6000fd5b505050506040513d60208110156103ad57600080fd5b810190808051906020019092919050505061068a90919063ffffffff16565b90506127106103e6600254836106a390919063ffffffff16565b8115156103ef57fe5b046004819055506000809054906101000a900473ffffffffffffffffffffffffffffffffffffffff1673ffffffffffffffffffffffffffffffffffffffff166340c10f19600360009054906101000a900473ffffffffffffffffffffffffffffffffffffffff166004546040518363ffffffff167c0100000000000000000000000000000000000000000000000000000000028152600401808373ffffffffffffffffffffffffffffffffffffffff1673ffffffffffffffffffffffffffffffffffffffff16815260200182815260200192505050600060405180830381600087803b1580156104de57600080fd5b505af11580156104f2573d6000803e3d6000fd5b5050505050565b60006001905090565b60045481565b60025481565b6000600115156000809054906101000a900473ffffffffffffffffffffffffffffffffffffffff1673ffffffffffffffffffffffffffffffffffffffff166342c1867b306040518263ffffffff167c0100000000000000000000000000000000000000000000000000000000028152600401808273ffffffffffffffffffffffffffffffffffffffff1673ffffffffffffffffffffffffffffffffffffffff168152602001915050602060405180830381600087803b1580156105d057600080fd5b505af11580156105e4573d6000803e3d6000fd5b505050506040513d60208110156105fa57600080fd5b8101908080519060200190929190505050151514905090565b600160009054906101000a900473ffffffffffffffffffffffffffffffffffffffff1681565b60055481565b600360009054906101000a900473ffffffffffffffffffffffffffffffffffffffff1681565b6000809054906101000a900473ffffffffffffffffffffffffffffffffffffffff1681565b600082821115151561069857fe5b818303905092915050565b600080828402905060008414806106c457508284828115156106c157fe5b04145b15156106cc57fe5b80915050929150505600a165627a7a723058200fee1cb051989eb9293464372f9d15c747fd4f22c8193630d4d1a0a4d33d635f0029",
  "source": "/**\n * This smart contract code is Copyright 2017 TokenMarket Ltd. For more information see https://tokenmarket.net\n *\n * Licensed under the Apache License, version 2.0: https://github.com/TokenMarketNet/ico/blob/master/LICENSE.txt\n */\n\npragma solidity ^0.4.6;\n\nimport \"./Crowdsale.sol\";\nimport \"./CrowdsaleToken.sol\";\nimport \"./SafeMathLib.sol\";\n\n/**\n * At the end of the successful crowdsale allocate % bonus of tokens to the team.\n *\n * Do not unlock the tokens.\n *\n * BonusAllocationFinal must be set as the minting agent for the MintableToken.\n *\n */\ncontract ExtraFinalizeAgent is FinalizeAgent {\n\n  using SafeMathLib for uint;\n\n  CrowdsaleToken public token;\n  Crowdsale public crowdsale;\n\n  /** Total percent of tokens minted to the team at the end of the sale as base points (0.0001) */\n  uint public bonusBasePoints;\n\n  /** Where we move the tokens at the end of the sale. */\n  address public teamMultisig;\n\n  /* How much bonus tokens we allocated */\n  uint public allocatedBonus;\n\n  /* How many tokens other finalizers will allocate and we do not count these in */\n  uint public accountedTokenSales;\n\n  constructor(CrowdsaleToken _token, Crowdsale _crowdsale, uint _bonusBasePoints, address _teamMultisig, uint _accountedTokenSales) {\n    token = _token;\n    crowdsale = _crowdsale;\n\n    if(address(crowdsale) == 0) {\n      throw;\n    }\n\n    teamMultisig = _teamMultisig;\n    if(address(teamMultisig) == 0) {\n      throw;\n    }\n\n    accountedTokenSales = _accountedTokenSales;\n  }\n\n  /* Can we run finalize properly */\n  function isSane() public constant returns (bool) {\n    return (token.mintAgents(address(this)) == true);\n  }\n\n  /** Called once by crowdsale finalize() if the sale was success. */\n  function finalizeCrowdsale() {\n    if(msg.sender != address(crowdsale)) {\n      throw;\n    }\n\n    // How many % of tokens the founders and others get\n    uint tokensSold = crowdsale.tokensSold().minus(accountedTokenSales);\n    allocatedBonus = tokensSold.times(bonusBasePoints) / 10000;\n\n    // move tokens to the team multisig wallet\n    token.mint(teamMultisig, allocatedBonus);\n\n  }\n\n}\n",
  "sourcePath": "D:\\dev\\tokenmint\\contracts\\tokenmarketnet-contracts\\contracts\\ExtraFinalizeAgent.sol",
  "compiler": {
    "name": "solc",
    "version": "0.4.24+commit.e67f0147.Emscripten.clang"
  },
  "schemaVersion": "2.0.1",
  "updatedAt": "2018-12-26T13:17:48.175Z"
}