{
  "contractName": "Failer",
  "abi": [
    {
      "constant": true,
      "inputs": [],
      "name": "dontFail",
      "outputs": [],
      "payable": false,
      "stateMutability": "pure",
      "type": "function"
    },
    {
      "constant": true,
      "inputs": [],
      "name": "failWithRevert",
      "outputs": [],
      "payable": false,
      "stateMutability": "pure",
      "type": "function"
    },
    {
      "constant": true,
      "inputs": [],
      "name": "failWithThrow",
      "outputs": [],
      "payable": false,
      "stateMutability": "pure",
      "type": "function"
    },
    {
      "constant": false,
      "inputs": [],
      "name": "failWithOutOfGas",
      "outputs": [],
      "payable": false,
      "stateMutability": "nonpayable",
      "type": "function"
    }
  ],
  "bytecode": "0x608060405234801561001057600080fd5b50610164806100206000396000f300608060405260043610610062576000357c0100000000000000000000000000000000000000000000000000000000900463ffffffff168063679f63a1146100675780639ad8f1c41461007e578063e7c46bb714610095578063f050e4a5146100ac575b600080fd5b34801561007357600080fd5b5061007c6100c3565b005b34801561008a57600080fd5b506100936100c5565b005b3480156100a157600080fd5b506100aa6100d1565b005b3480156100b857600080fd5b506100c1610133565b005b565b600015156100cf57fe5b565b60008090505b7901000000000000000000000000000000000000000000000000008110156101305760008190806001815401808255809150509060018203906000526020600020016000909192909190915055508060010190506100d7565b50565b600080fd00a165627a7a72305820333afcd33d5c0c9d5d9af1d0bc7f536affdbb70bbacf6de9f535425ef8d309160029",
  "source": "pragma solidity ^0.4.24;\r\n\r\ncontract Failer {\r\n    uint256[] private array;\r\n\r\n    function dontFail() public pure {\r\n    }\r\n\r\n    function failWithRevert() public pure {\r\n        revert();\r\n    }\r\n\r\n    function failWithThrow() public pure {\r\n        assert(false);\r\n    }\r\n\r\n    function failWithOutOfGas() public {\r\n        for (uint256 i = 0; i < 2**200; ++i) {\r\n            array.push(i);\r\n        }\r\n    }\r\n}\r\n",
  "sourcePath": "D:\\dev\\tokenmint\\contracts\\open-zeppelin-contracts\\mocks\\Failer.sol",
  "compiler": {
    "name": "solc",
    "version": "0.4.24+commit.e67f0147.Emscripten.clang"
  },
  "schemaVersion": "2.0.1",
  "updatedAt": "2019-01-09T16:58:53.773Z"
}