{
  "contractName": "FinalizableCrowdsaleImpl",
  "abi": [
    {
      "constant": true,
      "inputs": [],
      "name": "hasClosed",
      "outputs": [
        {
          "name": "",
          "type": "bool"
        }
      ],
      "payable": false,
      "stateMutability": "view",
      "type": "function"
    },
    {
      "constant": true,
      "inputs": [],
      "name": "rate",
      "outputs": [
        {
          "name": "",
          "type": "uint256"
        }
      ],
      "payable": false,
      "stateMutability": "view",
      "type": "function"
    },
    {
      "constant": true,
      "inputs": [],
      "name": "weiRaised",
      "outputs": [
        {
          "name": "",
          "type": "uint256"
        }
      ],
      "payable": false,
      "stateMutability": "view",
      "type": "function"
    },
    {
      "constant": true,
      "inputs": [],
      "name": "isOpen",
      "outputs": [
        {
          "name": "",
          "type": "bool"
        }
      ],
      "payable": false,
      "stateMutability": "view",
      "type": "function"
    },
    {
      "constant": true,
      "inputs": [],
      "name": "closingTime",
      "outputs": [
        {
          "name": "",
          "type": "uint256"
        }
      ],
      "payable": false,
      "stateMutability": "view",
      "type": "function"
    },
    {
      "constant": false,
      "inputs": [],
      "name": "finalize",
      "outputs": [],
      "payable": false,
      "stateMutability": "nonpayable",
      "type": "function"
    },
    {
      "constant": true,
      "inputs": [],
      "name": "wallet",
      "outputs": [
        {
          "name": "",
          "type": "address"
        }
      ],
      "payable": false,
      "stateMutability": "view",
      "type": "function"
    },
    {
      "constant": true,
      "inputs": [],
      "name": "finalized",
      "outputs": [
        {
          "name": "",
          "type": "bool"
        }
      ],
      "payable": false,
      "stateMutability": "view",
      "type": "function"
    },
    {
      "constant": true,
      "inputs": [],
      "name": "openingTime",
      "outputs": [
        {
          "name": "",
          "type": "uint256"
        }
      ],
      "payable": false,
      "stateMutability": "view",
      "type": "function"
    },
    {
      "constant": false,
      "inputs": [
        {
          "name": "beneficiary",
          "type": "address"
        }
      ],
      "name": "buyTokens",
      "outputs": [],
      "payable": true,
      "stateMutability": "payable",
      "type": "function"
    },
    {
      "constant": true,
      "inputs": [],
      "name": "token",
      "outputs": [
        {
          "name": "",
          "type": "address"
        }
      ],
      "payable": false,
      "stateMutability": "view",
      "type": "function"
    },
    {
      "inputs": [
        {
          "name": "openingTime",
          "type": "uint256"
        },
        {
          "name": "closingTime",
          "type": "uint256"
        },
        {
          "name": "rate",
          "type": "uint256"
        },
        {
          "name": "wallet",
          "type": "address"
        },
        {
          "name": "token",
          "type": "address"
        }
      ],
      "payable": false,
      "stateMutability": "nonpayable",
      "type": "constructor"
    },
    {
      "payable": true,
      "stateMutability": "payable",
      "type": "fallback"
    },
    {
      "anonymous": false,
      "inputs": [],
      "name": "CrowdsaleFinalized",
      "type": "event"
    },
    {
      "anonymous": false,
      "inputs": [
        {
          "indexed": true,
          "name": "purchaser",
          "type": "address"
        },
        {
          "indexed": true,
          "name": "beneficiary",
          "type": "address"
        },
        {
          "indexed": false,
          "name": "value",
          "type": "uint256"
        },
        {
          "indexed": false,
          "name": "amount",
          "type": "uint256"
        }
      ],
      "name": "TokensPurchased",
      "type": "event"
    }
  ],
  "bytecode": "0x608060405234801561001057600080fd5b5060405160a0806109d183398101806040528101908080519060200190929190805190602001909291908051906020019092919080519060200190929190805190602001909291905050508484848484600160008190555060008311151561007757600080fd5b600073ffffffffffffffffffffffffffffffffffffffff168273ffffffffffffffffffffffffffffffffffffffff16141515156100b357600080fd5b600073ffffffffffffffffffffffffffffffffffffffff168173ffffffffffffffffffffffffffffffffffffffff16141515156100ef57600080fd5b8260038190555081600260006101000a81548173ffffffffffffffffffffffffffffffffffffffff021916908373ffffffffffffffffffffffffffffffffffffffff16021790555080600160006101000a81548173ffffffffffffffffffffffffffffffffffffffff021916908373ffffffffffffffffffffffffffffffffffffffff16021790555050505042821015151561018a57600080fd5b818111151561019857600080fd5b816005819055508060068190555050506000600760006101000a81548160ff02191690831515021790555050505050506107fa806101d76000396000f3006080604052600436106100af576000357c0100000000000000000000000000000000000000000000000000000000900463ffffffff1680631515bc2b146100ba5780632c4e722e146100e95780634042b66f1461011457806347535d7b1461013f5780634b6753bc1461016e5780634bb278f314610199578063521eb273146101b0578063b3f05b9714610207578063b7a8807c14610236578063ec8ac4d814610261578063fc0c546a14610297575b6100b8336102ee565b005b3480156100c657600080fd5b506100cf6103e4565b604051808215151515815260200191505060405180910390f35b3480156100f557600080fd5b506100fe6103f0565b6040518082815260200191505060405180910390f35b34801561012057600080fd5b506101296103fa565b6040518082815260200191505060405180910390f35b34801561014b57600080fd5b50610154610404565b604051808215151515815260200191505060405180910390f35b34801561017a57600080fd5b5061018361041f565b6040518082815260200191505060405180910390f35b3480156101a557600080fd5b506101ae610429565b005b3480156101bc57600080fd5b506101c56104a9565b604051808273ffffffffffffffffffffffffffffffffffffffff1673ffffffffffffffffffffffffffffffffffffffff16815260200191505060405180910390f35b34801561021357600080fd5b5061021c6104d3565b604051808215151515815260200191505060405180910390f35b34801561024257600080fd5b5061024b6104ea565b6040518082815260200191505060405180910390f35b610295600480360381019080803573ffffffffffffffffffffffffffffffffffffffff1690602001909291905050506102ee565b005b3480156102a357600080fd5b506102ac6104f4565b604051808273ffffffffffffffffffffffffffffffffffffffff1673ffffffffffffffffffffffffffffffffffffffff16815260200191505060405180910390f35b6000806000600160008082825401925050819055506000549050349250610315848461051e565b61031e8361053f565b91506103358360045461055d90919063ffffffff16565b600481905550610345848361057e565b8373ffffffffffffffffffffffffffffffffffffffff163373ffffffffffffffffffffffffffffffffffffffff167f6faf93231a456e552dbc9961f58d9713ee4f2e69d15f1975b050ef0911053a7b8585604051808381526020018281526020019250505060405180910390a36103bc848461058c565b6103c4610590565b6103ce84846105fb565b600054811415156103de57600080fd5b50505050565b60006006544211905090565b6000600354905090565b6000600454905090565b6000600554421015801561041a57506006544211155b905090565b6000600654905090565b600760009054906101000a900460ff1615151561044557600080fd5b61044d6103e4565b151561045857600080fd5b6001600760006101000a81548160ff02191690831515021790555061047b6105ff565b7f9270cc390c096600a1c17c44345a1ba689fafd99d97487b10cfccf86cf73183660405160405180910390a1565b6000600260009054906101000a900473ffffffffffffffffffffffffffffffffffffffff16905090565b6000600760009054906101000a900460ff16905090565b6000600554905090565b6000600160009054906101000a900473ffffffffffffffffffffffffffffffffffffffff16905090565b610526610404565b151561053157600080fd5b61053b8282610601565b5050565b60006105566003548361065190919063ffffffff16565b9050919050565b600080828401905083811015151561057457600080fd5b8091505092915050565b610588828261068f565b5050565b5050565b600260009054906101000a900473ffffffffffffffffffffffffffffffffffffffff1673ffffffffffffffffffffffffffffffffffffffff166108fc349081150290604051600060405180830381858888f193505050501580156105f8573d6000803e3d6000fd5b50565b5050565b565b600073ffffffffffffffffffffffffffffffffffffffff168273ffffffffffffffffffffffffffffffffffffffff161415151561063d57600080fd5b6000811415151561064d57600080fd5b5050565b60008060008414156106665760009150610688565b828402905082848281151561067757fe5b0414151561068457600080fd5b8091505b5092915050565b6106dc8282600160009054906101000a900473ffffffffffffffffffffffffffffffffffffffff1673ffffffffffffffffffffffffffffffffffffffff166106e09092919063ffffffff16565b5050565b8273ffffffffffffffffffffffffffffffffffffffff1663a9059cbb83836040518363ffffffff167c0100000000000000000000000000000000000000000000000000000000028152600401808373ffffffffffffffffffffffffffffffffffffffff1673ffffffffffffffffffffffffffffffffffffffff16815260200182815260200192505050602060405180830381600087803b15801561078357600080fd5b505af1158015610797573d6000803e3d6000fd5b505050506040513d60208110156107ad57600080fd5b810190808051906020019092919050505015156107c957600080fd5b5050505600a165627a7a72305820c384e23450c6c5437e5012d65c6846ef9f9dcae0748a77748193ed3932f699430029",
  "source": "pragma solidity ^0.4.24;\r\n\r\nimport \"../token/ERC20/IERC20.sol\";\r\nimport \"../crowdsale/distribution/FinalizableCrowdsale.sol\";\r\n\r\ncontract FinalizableCrowdsaleImpl is FinalizableCrowdsale {\r\n\r\n    constructor (uint256 openingTime, uint256 closingTime, uint256 rate, address wallet, IERC20 token)\r\n        public\r\n        Crowdsale(rate, wallet, token)\r\n        TimedCrowdsale(openingTime, closingTime)\r\n    {}\r\n}\r\n",
  "sourcePath": "D:\\dev\\tokenmint\\contracts\\open-zeppelin-contracts\\mocks\\FinalizableCrowdsaleImpl.sol",
  "compiler": {
    "name": "solc",
    "version": "0.4.24+commit.e67f0147.Emscripten.clang"
  },
  "schemaVersion": "2.0.1",
  "updatedAt": "2019-01-10T15:11:56.821Z"
}