{
  "contractName": "ForceEther",
  "abi": [
    {
      "inputs": [],
      "payable": true,
      "stateMutability": "payable",
      "type": "constructor"
    },
    {
      "constant": false,
      "inputs": [
        {
          "name": "_recipient",
          "type": "address"
        }
      ],
      "name": "destroyAndSend",
      "outputs": [],
      "payable": false,
      "stateMutability": "nonpayable",
      "type": "function"
    }
  ],
  "bytecode": "0x608060405260c9806100126000396000f300608060405260043610603f576000357c0100000000000000000000000000000000000000000000000000000000900463ffffffff168063f5074f41146044575b600080fd5b348015604f57600080fd5b506082600480360381019080803573ffffffffffffffffffffffffffffffffffffffff1690602001909291905050506084565b005b8073ffffffffffffffffffffffffffffffffffffffff16ff00a165627a7a72305820acf163d50e3b90fbe9f0c1a648c4452352bc9c68a6b82f9dcc776a4a6c71b3890029",
  "source": "pragma solidity ^0.4.18;\r\n\r\n\r\n// @title Force Ether into a contract.\r\n// @notice  even\r\n// if the contract is not payable.\r\n// @notice To use, construct the contract with the target as argument.\r\n// @author Remco Bloemen <remco@neufund.org>\r\ncontract ForceEther {\r\n\r\n  function ForceEther() public payable { }\r\n\r\n  function destroyAndSend(address _recipient) public {\r\n    selfdestruct(_recipient);\r\n  }\r\n}\r\n",
  "sourcePath": "D:\\trees\\tokenmint\\contracts\\tokenmarketnet-contracts\\contracts\\zeppelin\\contracts\\mocks\\ForceEther.sol",
  "compiler": {
    "name": "solc",
    "version": "0.4.24+commit.e67f0147.Emscripten.clang"
  },
  "schemaVersion": "2.0.1",
  "updatedAt": "2018-12-10T14:03:30.317Z"
}