{
  "contractName": "Heritable",
  "abi": [
    {
      "constant": true,
      "inputs": [],
      "name": "owner",
      "outputs": [
        {
          "name": "",
          "type": "address"
        }
      ],
      "payable": false,
      "stateMutability": "view",
      "type": "function"
    },
    {
      "constant": false,
      "inputs": [
        {
          "name": "newOwner",
          "type": "address"
        }
      ],
      "name": "transferOwnership",
      "outputs": [],
      "payable": false,
      "stateMutability": "nonpayable",
      "type": "function"
    },
    {
      "inputs": [
        {
          "name": "_heartbeatTimeout",
          "type": "uint256"
        }
      ],
      "payable": false,
      "stateMutability": "nonpayable",
      "type": "constructor"
    },
    {
      "anonymous": false,
      "inputs": [
        {
          "indexed": true,
          "name": "owner",
          "type": "address"
        },
        {
          "indexed": true,
          "name": "newHeir",
          "type": "address"
        }
      ],
      "name": "HeirChanged",
      "type": "event"
    },
    {
      "anonymous": false,
      "inputs": [
        {
          "indexed": true,
          "name": "owner",
          "type": "address"
        }
      ],
      "name": "OwnerHeartbeated",
      "type": "event"
    },
    {
      "anonymous": false,
      "inputs": [
        {
          "indexed": true,
          "name": "owner",
          "type": "address"
        },
        {
          "indexed": true,
          "name": "heir",
          "type": "address"
        },
        {
          "indexed": false,
          "name": "timeOfDeath",
          "type": "uint256"
        }
      ],
      "name": "OwnerProclaimedDead",
      "type": "event"
    },
    {
      "anonymous": false,
      "inputs": [
        {
          "indexed": true,
          "name": "previousOwner",
          "type": "address"
        },
        {
          "indexed": true,
          "name": "newOwner",
          "type": "address"
        }
      ],
      "name": "HeirOwnershipClaimed",
      "type": "event"
    },
    {
      "anonymous": false,
      "inputs": [
        {
          "indexed": true,
          "name": "previousOwner",
          "type": "address"
        },
        {
          "indexed": true,
          "name": "newOwner",
          "type": "address"
        }
      ],
      "name": "OwnershipTransferred",
      "type": "event"
    },
    {
      "constant": false,
      "inputs": [
        {
          "name": "newHeir",
          "type": "address"
        }
      ],
      "name": "setHeir",
      "outputs": [],
      "payable": false,
      "stateMutability": "nonpayable",
      "type": "function"
    },
    {
      "constant": true,
      "inputs": [],
      "name": "heir",
      "outputs": [
        {
          "name": "",
          "type": "address"
        }
      ],
      "payable": false,
      "stateMutability": "view",
      "type": "function"
    },
    {
      "constant": true,
      "inputs": [],
      "name": "heartbeatTimeout",
      "outputs": [
        {
          "name": "",
          "type": "uint256"
        }
      ],
      "payable": false,
      "stateMutability": "view",
      "type": "function"
    },
    {
      "constant": true,
      "inputs": [],
      "name": "timeOfDeath",
      "outputs": [
        {
          "name": "",
          "type": "uint256"
        }
      ],
      "payable": false,
      "stateMutability": "view",
      "type": "function"
    },
    {
      "constant": false,
      "inputs": [],
      "name": "removeHeir",
      "outputs": [],
      "payable": false,
      "stateMutability": "nonpayable",
      "type": "function"
    },
    {
      "constant": false,
      "inputs": [],
      "name": "proclaimDeath",
      "outputs": [],
      "payable": false,
      "stateMutability": "nonpayable",
      "type": "function"
    },
    {
      "constant": false,
      "inputs": [],
      "name": "heartbeat",
      "outputs": [],
      "payable": false,
      "stateMutability": "nonpayable",
      "type": "function"
    },
    {
      "constant": false,
      "inputs": [],
      "name": "claimHeirOwnership",
      "outputs": [],
      "payable": false,
      "stateMutability": "nonpayable",
      "type": "function"
    }
  ],
  "bytecode": "0x608060405234801561001057600080fd5b50604051602080610bed83398101806040528101908080519060200190929190505050336000806101000a81548173ffffffffffffffffffffffffffffffffffffffff021916908373ffffffffffffffffffffffffffffffffffffffff16021790555061008b81610091640100000000026401000000009004565b50610124565b6000809054906101000a900473ffffffffffffffffffffffffffffffffffffffff1673ffffffffffffffffffffffffffffffffffffffff163373ffffffffffffffffffffffffffffffffffffffff161415156100ec57600080fd5b610103610118640100000000026401000000009004565b151561010e57600080fd5b8060028190555050565b60008060035414905090565b610aba806101336000396000f3006080604052600436106100a4576000357c0100000000000000000000000000000000000000000000000000000000900463ffffffff1680631c921e16146100a957806323defc77146100c057806324845131146101035780633defb9621461011a5780637bca38be146101315780638da5cb5b1461015c57806391f2ebb8146101b3578063b4a8f3e61461020a578063ebf88de414610235578063f2fde38b1461024c575b600080fd5b3480156100b557600080fd5b506100be61028f565b005b3480156100cc57600080fd5b50610101600480360381019080803573ffffffffffffffffffffffffffffffffffffffff1690602001909291905050506104ba565b005b34801561010f57600080fd5b50610118610638565b005b34801561012657600080fd5b5061012f61075a565b005b34801561013d57600080fd5b50610146610823565b6040518082815260200191505060405180910390f35b34801561016857600080fd5b5061017161082d565b604051808273ffffffffffffffffffffffffffffffffffffffff1673ffffffffffffffffffffffffffffffffffffffff16815260200191505060405180910390f35b3480156101bf57600080fd5b506101c8610852565b604051808273ffffffffffffffffffffffffffffffffffffffff1673ffffffffffffffffffffffffffffffffffffffff16815260200191505060405180910390f35b34801561021657600080fd5b5061021f61087c565b6040518082815260200191505060405180910390f35b34801561024157600080fd5b5061024a610886565b005b34801561025857600080fd5b5061028d600480360381019080803573ffffffffffffffffffffffffffffffffffffffff16906020019092919050505061092d565b005b600160009054906101000a900473ffffffffffffffffffffffffffffffffffffffff1673ffffffffffffffffffffffffffffffffffffffff163373ffffffffffffffffffffffffffffffffffffffff161415156102eb57600080fd5b6102f3610a82565b1515156102ff57600080fd5b60025460035401421015151561031457600080fd5b600160009054906101000a900473ffffffffffffffffffffffffffffffffffffffff1673ffffffffffffffffffffffffffffffffffffffff166000809054906101000a900473ffffffffffffffffffffffffffffffffffffffff1673ffffffffffffffffffffffffffffffffffffffff167f8be0079c531659141344cd1fd0a4f28419497f9722a3daafe3b4186f6b6457e060405160405180910390a3600160009054906101000a900473ffffffffffffffffffffffffffffffffffffffff1673ffffffffffffffffffffffffffffffffffffffff166000809054906101000a900473ffffffffffffffffffffffffffffffffffffffff1673ffffffffffffffffffffffffffffffffffffffff167f1017a357e19071e4408dbd385f24e591aa5bcee52b444dc0c8abddbe6ad29de660405160405180910390a3600160009054906101000a900473ffffffffffffffffffffffffffffffffffffffff166000806101000a81548173ffffffffffffffffffffffffffffffffffffffff021916908373ffffffffffffffffffffffffffffffffffffffff1602179055506000600381905550565b6000809054906101000a900473ffffffffffffffffffffffffffffffffffffffff1673ffffffffffffffffffffffffffffffffffffffff163373ffffffffffffffffffffffffffffffffffffffff1614151561051557600080fd5b6000809054906101000a900473ffffffffffffffffffffffffffffffffffffffff1673ffffffffffffffffffffffffffffffffffffffff168173ffffffffffffffffffffffffffffffffffffffff161415151561057157600080fd5b61057961075a565b8073ffffffffffffffffffffffffffffffffffffffff166000809054906101000a900473ffffffffffffffffffffffffffffffffffffffff1673ffffffffffffffffffffffffffffffffffffffff167f4e6093f85fa64484abd692810d8a44d508792ff7b7a021d9fbd69fa1c6ff18a060405160405180910390a380600160006101000a81548173ffffffffffffffffffffffffffffffffffffffff021916908373ffffffffffffffffffffffffffffffffffffffff16021790555050565b600160009054906101000a900473ffffffffffffffffffffffffffffffffffffffff1673ffffffffffffffffffffffffffffffffffffffff163373ffffffffffffffffffffffffffffffffffffffff1614151561069457600080fd5b61069c610a82565b15156106a757600080fd5b600160009054906101000a900473ffffffffffffffffffffffffffffffffffffffff1673ffffffffffffffffffffffffffffffffffffffff166000809054906101000a900473ffffffffffffffffffffffffffffffffffffffff1673ffffffffffffffffffffffffffffffffffffffff167f66389f1f3251c39e71cb18351daefea45bda23e98df0767266b8aed4ff9382776003546040518082815260200191505060405180910390a342600381905550565b6000809054906101000a900473ffffffffffffffffffffffffffffffffffffffff1673ffffffffffffffffffffffffffffffffffffffff163373ffffffffffffffffffffffffffffffffffffffff161415156107b557600080fd5b6000809054906101000a900473ffffffffffffffffffffffffffffffffffffffff1673ffffffffffffffffffffffffffffffffffffffff167fd40b9d9a7572411aff4bbb95ba7bd9a9d4e9b70747ec46f8fe7913c309b6845260405160405180910390a26000600381905550565b6000600254905090565b6000809054906101000a900473ffffffffffffffffffffffffffffffffffffffff1681565b6000600160009054906101000a900473ffffffffffffffffffffffffffffffffffffffff16905090565b6000600354905090565b6000809054906101000a900473ffffffffffffffffffffffffffffffffffffffff1673ffffffffffffffffffffffffffffffffffffffff163373ffffffffffffffffffffffffffffffffffffffff161415156108e157600080fd5b6108e961075a565b6000600160006101000a81548173ffffffffffffffffffffffffffffffffffffffff021916908373ffffffffffffffffffffffffffffffffffffffff160217905550565b6000809054906101000a900473ffffffffffffffffffffffffffffffffffffffff1673ffffffffffffffffffffffffffffffffffffffff163373ffffffffffffffffffffffffffffffffffffffff1614151561098857600080fd5b600073ffffffffffffffffffffffffffffffffffffffff168173ffffffffffffffffffffffffffffffffffffffff16141515156109c457600080fd5b8073ffffffffffffffffffffffffffffffffffffffff166000809054906101000a900473ffffffffffffffffffffffffffffffffffffffff1673ffffffffffffffffffffffffffffffffffffffff167f8be0079c531659141344cd1fd0a4f28419497f9722a3daafe3b4186f6b6457e060405160405180910390a3806000806101000a81548173ffffffffffffffffffffffffffffffffffffffff021916908373ffffffffffffffffffffffffffffffffffffffff16021790555050565b600080600354149050905600a165627a7a7230582064753b7f1060241adc33dee776b11bfaba5e75a83a84019f3b2657eaa502ae3c0029",
  "source": "pragma solidity ^0.4.11;\r\n\r\n\r\nimport \"./Ownable.sol\";\r\n\r\n\r\n/**\r\n * @title Heritable\r\n * @dev The Heritable contract provides ownership transfer capabilities, in the\r\n * case that the current owner stops \"heartbeating\". Only the heir can pronounce the\r\n * owner's death.\r\n */\r\ncontract Heritable is Ownable {\r\n  address private heir_;\r\n\r\n  // Time window the owner has to notify they are alive.\r\n  uint256 private heartbeatTimeout_;\r\n\r\n  // Timestamp of the owner's death, as pronounced by the heir.\r\n  uint256 private timeOfDeath_;\r\n\r\n  event HeirChanged(address indexed owner, address indexed newHeir);\r\n  event OwnerHeartbeated(address indexed owner);\r\n  event OwnerProclaimedDead(address indexed owner, address indexed heir, uint256 timeOfDeath);\r\n  event HeirOwnershipClaimed(address indexed previousOwner, address indexed newOwner);\r\n\r\n\r\n  /**\r\n   * @dev Throw an exception if called by any account other than the heir's.\r\n   */\r\n  modifier onlyHeir() {\r\n    require(msg.sender == heir_);\r\n    _;\r\n  }\r\n\r\n\r\n  /**\r\n   * @notice Create a new Heritable Contract with heir address 0x0.\r\n   * @param _heartbeatTimeout time available for the owner to notify they are alive,\r\n   * before the heir can take ownership.\r\n   */\r\n  function Heritable(uint256 _heartbeatTimeout) public {\r\n    setHeartbeatTimeout(_heartbeatTimeout);\r\n  }\r\n\r\n  function setHeir(address newHeir) public onlyOwner {\r\n    require(newHeir != owner);\r\n    heartbeat();\r\n    HeirChanged(owner, newHeir);\r\n    heir_ = newHeir;\r\n  }\r\n\r\n  /**\r\n   * @dev Use these getter functions to access the internal variables in\r\n   * an inherited contract.\r\n   */\r\n  function heir() public view returns(address) {\r\n    return heir_;\r\n  }\r\n\r\n  function heartbeatTimeout() public view returns(uint256) {\r\n    return heartbeatTimeout_;\r\n  }\r\n  \r\n  function timeOfDeath() public view returns(uint256) {\r\n    return timeOfDeath_;\r\n  }\r\n\r\n  /**\r\n   * @dev set heir = 0x0\r\n   */\r\n  function removeHeir() public onlyOwner {\r\n    heartbeat();\r\n    heir_ = 0;\r\n  }\r\n\r\n  /**\r\n   * @dev Heir can pronounce the owners death. To claim the ownership, they will\r\n   * have to wait for `heartbeatTimeout` seconds.\r\n   */\r\n  function proclaimDeath() public onlyHeir {\r\n    require(ownerLives());\r\n    OwnerProclaimedDead(owner, heir_, timeOfDeath_);\r\n    timeOfDeath_ = block.timestamp;\r\n  }\r\n\r\n  /**\r\n   * @dev Owner can send a heartbeat if they were mistakenly pronounced dead.\r\n   */\r\n  function heartbeat() public onlyOwner {\r\n    OwnerHeartbeated(owner);\r\n    timeOfDeath_ = 0;\r\n  }\r\n\r\n  /**\r\n   * @dev Allows heir to transfer ownership only if heartbeat has timed out.\r\n   */\r\n  function claimHeirOwnership() public onlyHeir {\r\n    require(!ownerLives());\r\n    require(block.timestamp >= timeOfDeath_ + heartbeatTimeout_);\r\n    OwnershipTransferred(owner, heir_);\r\n    HeirOwnershipClaimed(owner, heir_);\r\n    owner = heir_;\r\n    timeOfDeath_ = 0;\r\n  }\r\n\r\n  function setHeartbeatTimeout(uint256 newHeartbeatTimeout) internal onlyOwner {\r\n    require(ownerLives());\r\n    heartbeatTimeout_ = newHeartbeatTimeout;\r\n  }\r\n\r\n  function ownerLives() internal view returns (bool) {\r\n    return timeOfDeath_ == 0;\r\n  }\r\n}\r\n",
  "sourcePath": "D:\\trees\\tokenmint\\contracts\\tokenmarketnet-contracts\\contracts\\zeppelin\\contracts\\ownership\\Heritable.sol",
  "compiler": {
    "name": "solc",
    "version": "0.4.24+commit.e67f0147.Emscripten.clang"
  },
  "schemaVersion": "2.0.1",
  "updatedAt": "2018-12-10T14:03:30.325Z"
}