{
  "contractName": "IncreasingPriceCrowdsaleImpl",
  "abi": [
    {
      "constant": true,
      "inputs": [],
      "name": "hasClosed",
      "outputs": [
        {
          "name": "",
          "type": "bool"
        }
      ],
      "payable": false,
      "stateMutability": "view",
      "type": "function"
    },
    {
      "constant": true,
      "inputs": [],
      "name": "finalRate",
      "outputs": [
        {
          "name": "",
          "type": "uint256"
        }
      ],
      "payable": false,
      "stateMutability": "view",
      "type": "function"
    },
    {
      "constant": true,
      "inputs": [],
      "name": "rate",
      "outputs": [
        {
          "name": "",
          "type": "uint256"
        }
      ],
      "payable": false,
      "stateMutability": "view",
      "type": "function"
    },
    {
      "constant": true,
      "inputs": [],
      "name": "weiRaised",
      "outputs": [
        {
          "name": "",
          "type": "uint256"
        }
      ],
      "payable": false,
      "stateMutability": "view",
      "type": "function"
    },
    {
      "constant": true,
      "inputs": [],
      "name": "isOpen",
      "outputs": [
        {
          "name": "",
          "type": "bool"
        }
      ],
      "payable": false,
      "stateMutability": "view",
      "type": "function"
    },
    {
      "constant": true,
      "inputs": [],
      "name": "closingTime",
      "outputs": [
        {
          "name": "",
          "type": "uint256"
        }
      ],
      "payable": false,
      "stateMutability": "view",
      "type": "function"
    },
    {
      "constant": true,
      "inputs": [],
      "name": "wallet",
      "outputs": [
        {
          "name": "",
          "type": "address"
        }
      ],
      "payable": false,
      "stateMutability": "view",
      "type": "function"
    },
    {
      "constant": true,
      "inputs": [],
      "name": "initialRate",
      "outputs": [
        {
          "name": "",
          "type": "uint256"
        }
      ],
      "payable": false,
      "stateMutability": "view",
      "type": "function"
    },
    {
      "constant": true,
      "inputs": [],
      "name": "openingTime",
      "outputs": [
        {
          "name": "",
          "type": "uint256"
        }
      ],
      "payable": false,
      "stateMutability": "view",
      "type": "function"
    },
    {
      "constant": false,
      "inputs": [
        {
          "name": "beneficiary",
          "type": "address"
        }
      ],
      "name": "buyTokens",
      "outputs": [],
      "payable": true,
      "stateMutability": "payable",
      "type": "function"
    },
    {
      "constant": true,
      "inputs": [],
      "name": "getCurrentRate",
      "outputs": [
        {
          "name": "",
          "type": "uint256"
        }
      ],
      "payable": false,
      "stateMutability": "view",
      "type": "function"
    },
    {
      "constant": true,
      "inputs": [],
      "name": "token",
      "outputs": [
        {
          "name": "",
          "type": "address"
        }
      ],
      "payable": false,
      "stateMutability": "view",
      "type": "function"
    },
    {
      "inputs": [
        {
          "name": "openingTime",
          "type": "uint256"
        },
        {
          "name": "closingTime",
          "type": "uint256"
        },
        {
          "name": "wallet",
          "type": "address"
        },
        {
          "name": "token",
          "type": "address"
        },
        {
          "name": "initialRate",
          "type": "uint256"
        },
        {
          "name": "finalRate",
          "type": "uint256"
        }
      ],
      "payable": false,
      "stateMutability": "nonpayable",
      "type": "constructor"
    },
    {
      "payable": true,
      "stateMutability": "payable",
      "type": "fallback"
    },
    {
      "anonymous": false,
      "inputs": [
        {
          "indexed": true,
          "name": "purchaser",
          "type": "address"
        },
        {
          "indexed": true,
          "name": "beneficiary",
          "type": "address"
        },
        {
          "indexed": false,
          "name": "value",
          "type": "uint256"
        },
        {
          "indexed": false,
          "name": "amount",
          "type": "uint256"
        }
      ],
      "name": "TokensPurchased",
      "type": "event"
    }
  ],
  "bytecode": "0x608060405234801561001057600080fd5b5060405160c080610aba83398101806040528101908080519060200190929190805190602001909291908051906020019092919080519060200190929190805190602001909291908051906020019092919050505081818787858888600160008190555060008311151561008357600080fd5b600073ffffffffffffffffffffffffffffffffffffffff168273ffffffffffffffffffffffffffffffffffffffff16141515156100bf57600080fd5b600073ffffffffffffffffffffffffffffffffffffffff168173ffffffffffffffffffffffffffffffffffffffff16141515156100fb57600080fd5b8260038190555081600260006101000a81548173ffffffffffffffffffffffffffffffffffffffff021916908373ffffffffffffffffffffffffffffffffffffffff16021790555080600160006101000a81548173ffffffffffffffffffffffffffffffffffffffff021916908373ffffffffffffffffffffffffffffffffffffffff16021790555050505042821015151561019657600080fd5b81811115156101a457600080fd5b816005819055508060068190555050506000811115156101c357600080fd5b80821115156101d157600080fd5b816007819055508060088190555050505050505050506108c4806101f66000396000f3006080604052600436106100ba576000357c0100000000000000000000000000000000000000000000000000000000900463ffffffff1680631515bc2b146100c557806321106109146100f45780632c4e722e1461011f5780634042b66f1461014a57806347535d7b146101755780634b6753bc146101a4578063521eb273146101cf5780639e51051f14610226578063b7a8807c14610251578063ec8ac4d81461027c578063f7fb07b0146102b2578063fc0c546a146102dd575b6100c333610334565b005b3480156100d157600080fd5b506100da61042a565b604051808215151515815260200191505060405180910390f35b34801561010057600080fd5b50610109610436565b6040518082815260200191505060405180910390f35b34801561012b57600080fd5b50610134610440565b6040518082815260200191505060405180910390f35b34801561015657600080fd5b5061015f610447565b6040518082815260200191505060405180910390f35b34801561018157600080fd5b5061018a610451565b604051808215151515815260200191505060405180910390f35b3480156101b057600080fd5b506101b961046c565b6040518082815260200191505060405180910390f35b3480156101db57600080fd5b506101e4610476565b604051808273ffffffffffffffffffffffffffffffffffffffff1673ffffffffffffffffffffffffffffffffffffffff16815260200191505060405180910390f35b34801561023257600080fd5b5061023b6104a0565b6040518082815260200191505060405180910390f35b34801561025d57600080fd5b506102666104aa565b6040518082815260200191505060405180910390f35b6102b0600480360381019080803573ffffffffffffffffffffffffffffffffffffffff169060200190929190505050610334565b005b3480156102be57600080fd5b506102c76104b4565b6040518082815260200191505060405180910390f35b3480156102e957600080fd5b506102f261056b565b604051808273ffffffffffffffffffffffffffffffffffffffff1673ffffffffffffffffffffffffffffffffffffffff16815260200191505060405180910390f35b600080600060016000808282540192505081905550600054905034925061035b8484610595565b610364836105b6565b915061037b836004546105de90919063ffffffff16565b60048190555061038b84836105ff565b8373ffffffffffffffffffffffffffffffffffffffff163373ffffffffffffffffffffffffffffffffffffffff167f6faf93231a456e552dbc9961f58d9713ee4f2e69d15f1975b050ef0911053a7b8585604051808381526020018281526020019250505060405180910390a3610402848461060d565b61040a610611565b610414848461067c565b6000548114151561042457600080fd5b50505050565b60006006544211905090565b6000600854905090565b6000806000fd5b6000600454905090565b6000600554421015801561046757506006544211155b905090565b6000600654905090565b6000600260009054906101000a900473ffffffffffffffffffffffffffffffffffffffff16905090565b6000600754905090565b6000600554905090565b6000806000806104c2610451565b15156104d15760009350610565565b6104eb6104dc6104aa565b4261068090919063ffffffff16565b925061050e6104f86104aa565b61050061046c565b61068090919063ffffffff16565b915061052760085460075461068090919063ffffffff16565b90506105626105518361054384876106a190919063ffffffff16565b6106df90919063ffffffff16565b60075461068090919063ffffffff16565b93505b50505090565b6000600160009054906101000a900473ffffffffffffffffffffffffffffffffffffffff16905090565b61059d610451565b15156105a857600080fd5b6105b28282610709565b5050565b6000806105c16104b4565b90506105d683826106a190919063ffffffff16565b915050919050565b60008082840190508381101515156105f557600080fd5b8091505092915050565b6106098282610759565b5050565b5050565b600260009054906101000a900473ffffffffffffffffffffffffffffffffffffffff1673ffffffffffffffffffffffffffffffffffffffff166108fc349081150290604051600060405180830381858888f19350505050158015610679573d6000803e3d6000fd5b50565b5050565b60008083831115151561069257600080fd5b82840390508091505092915050565b60008060008414156106b657600091506106d8565b82840290508284828115156106c757fe5b041415156106d457600080fd5b8091505b5092915050565b6000806000831115156106f157600080fd5b82848115156106fc57fe5b0490508091505092915050565b600073ffffffffffffffffffffffffffffffffffffffff168273ffffffffffffffffffffffffffffffffffffffff161415151561074557600080fd5b6000811415151561075557600080fd5b5050565b6107a68282600160009054906101000a900473ffffffffffffffffffffffffffffffffffffffff1673ffffffffffffffffffffffffffffffffffffffff166107aa9092919063ffffffff16565b5050565b8273ffffffffffffffffffffffffffffffffffffffff1663a9059cbb83836040518363ffffffff167c0100000000000000000000000000000000000000000000000000000000028152600401808373ffffffffffffffffffffffffffffffffffffffff1673ffffffffffffffffffffffffffffffffffffffff16815260200182815260200192505050602060405180830381600087803b15801561084d57600080fd5b505af1158015610861573d6000803e3d6000fd5b505050506040513d602081101561087757600080fd5b8101908080519060200190929190505050151561089357600080fd5b5050505600a165627a7a72305820c450ad60ce26adbdfbaf3a9cea8221a79686c610d3a0fb595e1276bf44cf84bd0029",
  "source": "pragma solidity ^0.4.24;\r\n\r\nimport \"../crowdsale/price/IncreasingPriceCrowdsale.sol\";\r\nimport \"../math/SafeMath.sol\";\r\n\r\ncontract IncreasingPriceCrowdsaleImpl is IncreasingPriceCrowdsale {\r\n    constructor (\r\n        uint256 openingTime,\r\n        uint256 closingTime,\r\n        address wallet,\r\n        IERC20 token,\r\n        uint256 initialRate,\r\n        uint256 finalRate\r\n    )\r\n        public\r\n        Crowdsale(initialRate, wallet, token)\r\n        TimedCrowdsale(openingTime, closingTime)\r\n        IncreasingPriceCrowdsale(initialRate, finalRate)\r\n    {}\r\n}\r\n",
  "sourcePath": "D:\\dev\\tokenmint\\contracts\\open-zeppelin-contracts\\mocks\\IncreasingPriceCrowdsaleImpl.sol",
  "compiler": {
    "name": "solc",
    "version": "0.4.24+commit.e67f0147.Emscripten.clang"
  },
  "schemaVersion": "2.0.1",
  "updatedAt": "2019-01-09T16:58:53.773Z"
}