{
  "contractName": "IncreasingPriceCrowdsaleImpl",
  "abi": [
    {
      "constant": true,
      "inputs": [],
      "name": "hasClosed",
      "outputs": [
        {
          "name": "",
          "type": "bool"
        }
      ],
      "payable": false,
      "stateMutability": "view",
      "type": "function"
    },
    {
      "constant": true,
      "inputs": [],
      "name": "finalRate",
      "outputs": [
        {
          "name": "",
          "type": "uint256"
        }
      ],
      "payable": false,
      "stateMutability": "view",
      "type": "function"
    },
    {
      "constant": true,
      "inputs": [],
      "name": "rate",
      "outputs": [
        {
          "name": "",
          "type": "uint256"
        }
      ],
      "payable": false,
      "stateMutability": "view",
      "type": "function"
    },
    {
      "constant": true,
      "inputs": [],
      "name": "weiRaised",
      "outputs": [
        {
          "name": "",
          "type": "uint256"
        }
      ],
      "payable": false,
      "stateMutability": "view",
      "type": "function"
    },
    {
      "constant": true,
      "inputs": [],
      "name": "closingTime",
      "outputs": [
        {
          "name": "",
          "type": "uint256"
        }
      ],
      "payable": false,
      "stateMutability": "view",
      "type": "function"
    },
    {
      "constant": true,
      "inputs": [],
      "name": "wallet",
      "outputs": [
        {
          "name": "",
          "type": "address"
        }
      ],
      "payable": false,
      "stateMutability": "view",
      "type": "function"
    },
    {
      "constant": true,
      "inputs": [],
      "name": "initialRate",
      "outputs": [
        {
          "name": "",
          "type": "uint256"
        }
      ],
      "payable": false,
      "stateMutability": "view",
      "type": "function"
    },
    {
      "constant": true,
      "inputs": [],
      "name": "openingTime",
      "outputs": [
        {
          "name": "",
          "type": "uint256"
        }
      ],
      "payable": false,
      "stateMutability": "view",
      "type": "function"
    },
    {
      "constant": false,
      "inputs": [
        {
          "name": "_beneficiary",
          "type": "address"
        }
      ],
      "name": "buyTokens",
      "outputs": [],
      "payable": true,
      "stateMutability": "payable",
      "type": "function"
    },
    {
      "constant": true,
      "inputs": [],
      "name": "getCurrentRate",
      "outputs": [
        {
          "name": "",
          "type": "uint256"
        }
      ],
      "payable": false,
      "stateMutability": "view",
      "type": "function"
    },
    {
      "constant": true,
      "inputs": [],
      "name": "token",
      "outputs": [
        {
          "name": "",
          "type": "address"
        }
      ],
      "payable": false,
      "stateMutability": "view",
      "type": "function"
    },
    {
      "inputs": [
        {
          "name": "_openingTime",
          "type": "uint256"
        },
        {
          "name": "_closingTime",
          "type": "uint256"
        },
        {
          "name": "_wallet",
          "type": "address"
        },
        {
          "name": "_token",
          "type": "address"
        },
        {
          "name": "_initialRate",
          "type": "uint256"
        },
        {
          "name": "_finalRate",
          "type": "uint256"
        }
      ],
      "payable": false,
      "stateMutability": "nonpayable",
      "type": "constructor"
    },
    {
      "payable": true,
      "stateMutability": "payable",
      "type": "fallback"
    },
    {
      "anonymous": false,
      "inputs": [
        {
          "indexed": true,
          "name": "purchaser",
          "type": "address"
        },
        {
          "indexed": true,
          "name": "beneficiary",
          "type": "address"
        },
        {
          "indexed": false,
          "name": "value",
          "type": "uint256"
        },
        {
          "indexed": false,
          "name": "amount",
          "type": "uint256"
        }
      ],
      "name": "TokenPurchase",
      "type": "event"
    }
  ],
  "bytecode": "0x608060405234801561001057600080fd5b5060405160c0806109a58339810180604052810190808051906020019092919080519060200190929190805190602001909291908051906020019092919080519060200190929190805190602001909291905050508181878785888860008311151561007b57600080fd5b600073ffffffffffffffffffffffffffffffffffffffff168273ffffffffffffffffffffffffffffffffffffffff16141515156100b757600080fd5b600073ffffffffffffffffffffffffffffffffffffffff168173ffffffffffffffffffffffffffffffffffffffff16141515156100f357600080fd5b8260028190555081600160006101000a81548173ffffffffffffffffffffffffffffffffffffffff021916908373ffffffffffffffffffffffffffffffffffffffff160217905550806000806101000a81548173ffffffffffffffffffffffffffffffffffffffff021916908373ffffffffffffffffffffffffffffffffffffffff16021790555050505042821015151561018d57600080fd5b81811015151561019c57600080fd5b816004819055508060058190555050508082101515156101bb57600080fd5b6000811115156101ca57600080fd5b816006819055508060078190555050505050505050506107b6806101ef6000396000f3006080604052600436106100af576000357c0100000000000000000000000000000000000000000000000000000000900463ffffffff1680631515bc2b146100ba57806321106109146100e95780632c4e722e146101145780634042b66f1461013f5780634b6753bc1461016a578063521eb273146101955780639e51051f146101ec578063b7a8807c14610217578063ec8ac4d814610242578063f7fb07b014610278578063fc0c546a146102a3575b6100b8336102fa565b005b3480156100c657600080fd5b506100cf6103c8565b604051808215151515815260200191505060405180910390f35b3480156100f557600080fd5b506100fe6103d4565b6040518082815260200191505060405180910390f35b34801561012057600080fd5b506101296103da565b6040518082815260200191505060405180910390f35b34801561014b57600080fd5b506101546103e0565b6040518082815260200191505060405180910390f35b34801561017657600080fd5b5061017f6103e6565b6040518082815260200191505060405180910390f35b3480156101a157600080fd5b506101aa6103ec565b604051808273ffffffffffffffffffffffffffffffffffffffff1673ffffffffffffffffffffffffffffffffffffffff16815260200191505060405180910390f35b3480156101f857600080fd5b50610201610412565b6040518082815260200191505060405180910390f35b34801561022357600080fd5b5061022c610418565b6040518082815260200191505060405180910390f35b610276600480360381019080803573ffffffffffffffffffffffffffffffffffffffff1690602001909291905050506102fa565b005b34801561028457600080fd5b5061028d61041e565b6040518082815260200191505060405180910390f35b3480156102af57600080fd5b506102b86104ae565b604051808273ffffffffffffffffffffffffffffffffffffffff1673ffffffffffffffffffffffffffffffffffffffff16815260200191505060405180910390f35b60008034915061030a83836104d3565b61031382610500565b905061032a8260035461052890919063ffffffff16565b60038190555061033a8382610546565b8273ffffffffffffffffffffffffffffffffffffffff163373ffffffffffffffffffffffffffffffffffffffff167f623b3804fa71d67900d064613da8f94b9617215ee90799290593e1745087ad188484604051808381526020018281526020019250505060405180910390a36103b18383610554565b6103b9610558565b6103c383836105c3565b505050565b60006005544211905090565b60075481565b60025481565b60035481565b60055481565b600160009054906101000a900473ffffffffffffffffffffffffffffffffffffffff1681565b60065481565b60045481565b600080600080610439600454426105c790919063ffffffff16565b92506104526004546005546105c790919063ffffffff16565b915061046b6007546006546105c790919063ffffffff16565b90506104a66104958361048784876105e090919063ffffffff16565b61061b90919063ffffffff16565b6006546105c790919063ffffffff16565b935050505090565b6000809054906101000a900473ffffffffffffffffffffffffffffffffffffffff1681565b60045442101580156104e757506005544211155b15156104f257600080fd5b6104fc8282610636565b5050565b60008061050b61041e565b905061052083826105e090919063ffffffff16565b915050919050565b600080828401905083811015151561053c57fe5b8091505092915050565b6105508282610686565b5050565b5050565b600160009054906101000a900473ffffffffffffffffffffffffffffffffffffffff1673ffffffffffffffffffffffffffffffffffffffff166108fc349081150290604051600060405180830381858888f193505050501580156105c0573d6000803e3d6000fd5b50565b5050565b60008282111515156105d557fe5b818303905092915050565b60008060008414156105f55760009150610614565b828402905082848281151561060657fe5b0414151561061057fe5b8091505b5092915050565b600080828481151561062957fe5b0490508091505092915050565b600073ffffffffffffffffffffffffffffffffffffffff168273ffffffffffffffffffffffffffffffffffffffff161415151561067257600080fd5b6000811415151561068257600080fd5b5050565b6000809054906101000a900473ffffffffffffffffffffffffffffffffffffffff1673ffffffffffffffffffffffffffffffffffffffff1663a9059cbb83836040518363ffffffff167c0100000000000000000000000000000000000000000000000000000000028152600401808373ffffffffffffffffffffffffffffffffffffffff1673ffffffffffffffffffffffffffffffffffffffff16815260200182815260200192505050602060405180830381600087803b15801561074a57600080fd5b505af115801561075e573d6000803e3d6000fd5b505050506040513d602081101561077457600080fd5b81019080805190602001909291905050505050505600a165627a7a72305820734d78509829f79af67aaab25366dcabe3cbc3db5370eef64d640ae997f613cd0029",
  "source": "pragma solidity ^0.4.18;\n\nimport \"../crowdsale/price/IncreasingPriceCrowdsale.sol\";\nimport \"../math/SafeMath.sol\";\n\n\ncontract IncreasingPriceCrowdsaleImpl is IncreasingPriceCrowdsale {\n\n  function IncreasingPriceCrowdsaleImpl (\n    uint256 _openingTime,\n    uint256 _closingTime,\n    address _wallet,\n    ERC20 _token,\n    uint256 _initialRate,\n    uint256 _finalRate\n  ) \n    public\n    Crowdsale(_initialRate, _wallet, _token)\n    TimedCrowdsale(_openingTime, _closingTime)\n    IncreasingPriceCrowdsale(_initialRate, _finalRate)\n  {\n  }\n\n}\n",
  "sourcePath": "D:\\dev\\tokenmint\\contracts\\tokenmarketnet-contracts\\contracts\\zeppelin\\contracts\\mocks\\IncreasingPriceCrowdsaleImpl.sol",
  "compiler": {
    "name": "solc",
    "version": "0.4.24+commit.e67f0147.Emscripten.clang"
  },
  "schemaVersion": "2.0.1",
  "updatedAt": "2018-12-07T16:17:18.026Z"
}