{
  "contractName": "InsecureTargetMock",
  "abi": [
    {
      "constant": false,
      "inputs": [],
      "name": "checkInvariant",
      "outputs": [
        {
          "name": "",
          "type": "bool"
        }
      ],
      "payable": false,
      "stateMutability": "nonpayable",
      "type": "function"
    }
  ],
  "bytecode": "0x6080604052348015600f57600080fd5b5060a48061001e6000396000f300608060405260043610603f576000357c0100000000000000000000000000000000000000000000000000000000900463ffffffff168063e79487da146044575b600080fd5b348015604f57600080fd5b5060566070565b604051808215151515815260200191505060405180910390f35b6000809050905600a165627a7a72305820df07604a0e708dd2da6ec0e86b74499a38a7cc7e2f15bc4c71ebbf6d3b353ff80029",
  "source": "pragma solidity ^0.4.18;\r\n\r\nimport {Bounty, Target} from \"../../contracts/Bounty.sol\";\r\n\r\n\r\ncontract InsecureTargetMock is Target {\r\n  function checkInvariant() public returns(bool) {\r\n    return false;\r\n  }\r\n}\r\n\r\n\r\ncontract InsecureTargetBounty is Bounty {\r\n  function deployContract() internal returns (address) {\r\n    return new InsecureTargetMock();\r\n  }\r\n}\r\n",
  "sourcePath": "D:\\trees\\tokenmint\\contracts\\tokenmarketnet-contracts\\contracts\\zeppelin\\contracts\\mocks\\InsecureTargetBounty.sol",
  "compiler": {
    "name": "solc",
    "version": "0.4.24+commit.e67f0147.Emscripten.clang"
  },
  "schemaVersion": "2.0.1",
  "updatedAt": "2018-12-10T14:03:30.317Z"
}