{
  "contractName": "InsecureTargetMock",
  "abi": [
    {
      "constant": false,
      "inputs": [],
      "name": "checkInvariant",
      "outputs": [
        {
          "name": "",
          "type": "bool"
        }
      ],
      "payable": false,
      "stateMutability": "nonpayable",
      "type": "function"
    }
  ],
  "bytecode": "0x6080604052348015600f57600080fd5b5060a48061001e6000396000f300608060405260043610603f576000357c0100000000000000000000000000000000000000000000000000000000900463ffffffff168063e79487da146044575b600080fd5b348015604f57600080fd5b5060566070565b604051808215151515815260200191505060405180910390f35b6000809050905600a165627a7a72305820ddf96cf7ec095a1ec860a1b201fb5f9123431283ea9087784a5605e48a428fa80029",
  "source": "pragma solidity ^0.4.18;\n\nimport {Bounty, Target} from \"../../contracts/Bounty.sol\";\n\n\ncontract InsecureTargetMock is Target {\n  function checkInvariant() public returns(bool) {\n    return false;\n  }\n}\n\n\ncontract InsecureTargetBounty is Bounty {\n  function deployContract() internal returns (address) {\n    return new InsecureTargetMock();\n  }\n}\n",
  "sourcePath": "D:\\dev\\tokenmint\\contracts\\tokenmarketnet-contracts\\contracts\\zeppelin\\contracts\\mocks\\InsecureTargetBounty.sol",
  "compiler": {
    "name": "solc",
    "version": "0.4.24+commit.e67f0147.Emscripten.clang"
  },
  "schemaVersion": "2.0.1",
  "updatedAt": "2018-12-07T11:58:33.997Z"
}