{
  "contractName": "KYCCrowdsale",
  "abi": [
    {
      "constant": true,
      "inputs": [],
      "name": "ownerTestValue",
      "outputs": [
        {
          "name": "",
          "type": "uint256"
        }
      ],
      "payable": false,
      "stateMutability": "view",
      "type": "function"
    },
    {
      "constant": true,
      "inputs": [],
      "name": "isPricingSane",
      "outputs": [
        {
          "name": "sane",
          "type": "bool"
        }
      ],
      "payable": false,
      "stateMutability": "view",
      "type": "function"
    },
    {
      "constant": true,
      "inputs": [],
      "name": "endsAt",
      "outputs": [
        {
          "name": "",
          "type": "uint256"
        }
      ],
      "payable": false,
      "stateMutability": "view",
      "type": "function"
    },
    {
      "constant": true,
      "inputs": [],
      "name": "minimumFundingGoal",
      "outputs": [
        {
          "name": "",
          "type": "uint256"
        }
      ],
      "payable": false,
      "stateMutability": "view",
      "type": "function"
    },
    {
      "constant": true,
      "inputs": [],
      "name": "getState",
      "outputs": [
        {
          "name": "",
          "type": "uint8"
        }
      ],
      "payable": false,
      "stateMutability": "view",
      "type": "function"
    },
    {
      "constant": false,
      "inputs": [
        {
          "name": "addr",
          "type": "address"
        }
      ],
      "name": "setFinalizeAgent",
      "outputs": [],
      "payable": false,
      "stateMutability": "nonpayable",
      "type": "function"
    },
    {
      "constant": true,
      "inputs": [
        {
          "name": "",
          "type": "address"
        }
      ],
      "name": "investedAmountOf",
      "outputs": [
        {
          "name": "",
          "type": "uint256"
        }
      ],
      "payable": false,
      "stateMutability": "view",
      "type": "function"
    },
    {
      "constant": true,
      "inputs": [],
      "name": "finalizeAgent",
      "outputs": [
        {
          "name": "",
          "type": "address"
        }
      ],
      "payable": false,
      "stateMutability": "view",
      "type": "function"
    },
    {
      "constant": true,
      "inputs": [],
      "name": "beneficiary",
      "outputs": [
        {
          "name": "",
          "type": "address"
        }
      ],
      "payable": false,
      "stateMutability": "view",
      "type": "function"
    },
    {
      "constant": true,
      "inputs": [],
      "name": "weiRaised",
      "outputs": [
        {
          "name": "",
          "type": "uint256"
        }
      ],
      "payable": false,
      "stateMutability": "view",
      "type": "function"
    },
    {
      "constant": true,
      "inputs": [],
      "name": "isCrowdsale",
      "outputs": [
        {
          "name": "",
          "type": "bool"
        }
      ],
      "payable": false,
      "stateMutability": "view",
      "type": "function"
    },
    {
      "constant": false,
      "inputs": [],
      "name": "finalize",
      "outputs": [],
      "payable": false,
      "stateMutability": "nonpayable",
      "type": "function"
    },
    {
      "constant": false,
      "inputs": [
        {
          "name": "_pricingStrategy",
          "type": "address"
        }
      ],
      "name": "setPricingStrategy",
      "outputs": [],
      "payable": false,
      "stateMutability": "nonpayable",
      "type": "function"
    },
    {
      "constant": true,
      "inputs": [],
      "name": "tokensSold",
      "outputs": [
        {
          "name": "",
          "type": "uint256"
        }
      ],
      "payable": false,
      "stateMutability": "view",
      "type": "function"
    },
    {
      "constant": false,
      "inputs": [],
      "name": "refund",
      "outputs": [],
      "payable": false,
      "stateMutability": "nonpayable",
      "type": "function"
    },
    {
      "constant": true,
      "inputs": [],
      "name": "signerAddress",
      "outputs": [
        {
          "name": "",
          "type": "address"
        }
      ],
      "payable": false,
      "stateMutability": "view",
      "type": "function"
    },
    {
      "constant": true,
      "inputs": [],
      "name": "weiRefunded",
      "outputs": [
        {
          "name": "",
          "type": "uint256"
        }
      ],
      "payable": false,
      "stateMutability": "view",
      "type": "function"
    },
    {
      "constant": false,
      "inputs": [],
      "name": "halt",
      "outputs": [],
      "payable": false,
      "stateMutability": "nonpayable",
      "type": "function"
    },
    {
      "constant": true,
      "inputs": [],
      "name": "MAX_INVESTMENTS_BEFORE_MULTISIG_CHANGE",
      "outputs": [
        {
          "name": "",
          "type": "uint256"
        }
      ],
      "payable": false,
      "stateMutability": "view",
      "type": "function"
    },
    {
      "constant": false,
      "inputs": [
        {
          "name": "time",
          "type": "uint256"
        }
      ],
      "name": "setEndsAt",
      "outputs": [],
      "payable": false,
      "stateMutability": "nonpayable",
      "type": "function"
    },
    {
      "constant": true,
      "inputs": [
        {
          "name": "dataframe",
          "type": "bytes"
        }
      ],
      "name": "getKYCPayload",
      "outputs": [
        {
          "name": "whitelistedAddress",
          "type": "address"
        },
        {
          "name": "customerId",
          "type": "uint128"
        },
        {
          "name": "minEth",
          "type": "uint32"
        },
        {
          "name": "maxEth",
          "type": "uint32"
        },
        {
          "name": "pricingInfo",
          "type": "uint256"
        }
      ],
      "payable": false,
      "stateMutability": "view",
      "type": "function"
    },
    {
      "constant": true,
      "inputs": [],
      "name": "pricingStrategy",
      "outputs": [
        {
          "name": "",
          "type": "address"
        }
      ],
      "payable": false,
      "stateMutability": "view",
      "type": "function"
    },
    {
      "constant": true,
      "inputs": [],
      "name": "loadedRefund",
      "outputs": [
        {
          "name": "",
          "type": "uint256"
        }
      ],
      "payable": false,
      "stateMutability": "view",
      "type": "function"
    },
    {
      "constant": true,
      "inputs": [],
      "name": "isMinimumGoalReached",
      "outputs": [
        {
          "name": "reached",
          "type": "bool"
        }
      ],
      "payable": false,
      "stateMutability": "view",
      "type": "function"
    },
    {
      "constant": false,
      "inputs": [],
      "name": "loadRefund",
      "outputs": [],
      "payable": true,
      "stateMutability": "payable",
      "type": "function"
    },
    {
      "constant": false,
      "inputs": [
        {
          "name": "val",
          "type": "uint256"
        }
      ],
      "name": "setOwnerTestValue",
      "outputs": [],
      "payable": false,
      "stateMutability": "nonpayable",
      "type": "function"
    },
    {
      "constant": true,
      "inputs": [],
      "name": "owner",
      "outputs": [
        {
          "name": "",
          "type": "address"
        }
      ],
      "payable": false,
      "stateMutability": "view",
      "type": "function"
    },
    {
      "constant": true,
      "inputs": [
        {
          "name": "weisTotal",
          "type": "uint256"
        },
        {
          "name": "pricePerToken",
          "type": "uint256"
        }
      ],
      "name": "calculateTokens",
      "outputs": [
        {
          "name": "tokensTotal",
          "type": "uint256"
        }
      ],
      "payable": false,
      "stateMutability": "view",
      "type": "function"
    },
    {
      "constant": true,
      "inputs": [],
      "name": "multisigWallet",
      "outputs": [
        {
          "name": "",
          "type": "address"
        }
      ],
      "payable": false,
      "stateMutability": "view",
      "type": "function"
    },
    {
      "constant": true,
      "inputs": [
        {
          "name": "",
          "type": "address"
        }
      ],
      "name": "tokenAmountOf",
      "outputs": [
        {
          "name": "",
          "type": "uint256"
        }
      ],
      "payable": false,
      "stateMutability": "view",
      "type": "function"
    },
    {
      "constant": true,
      "inputs": [
        {
          "name": "weiAmount",
          "type": "uint256"
        },
        {
          "name": "tokenAmount",
          "type": "uint256"
        },
        {
          "name": "weiRaisedTotal",
          "type": "uint256"
        },
        {
          "name": "tokensSoldTotal",
          "type": "uint256"
        }
      ],
      "name": "isBreakingCap",
      "outputs": [
        {
          "name": "limitBroken",
          "type": "bool"
        }
      ],
      "payable": false,
      "stateMutability": "view",
      "type": "function"
    },
    {
      "constant": true,
      "inputs": [],
      "name": "isFinalizerSane",
      "outputs": [
        {
          "name": "sane",
          "type": "bool"
        }
      ],
      "payable": false,
      "stateMutability": "view",
      "type": "function"
    },
    {
      "constant": true,
      "inputs": [],
      "name": "startsAt",
      "outputs": [
        {
          "name": "",
          "type": "uint256"
        }
      ],
      "payable": false,
      "stateMutability": "view",
      "type": "function"
    },
    {
      "constant": true,
      "inputs": [],
      "name": "finalized",
      "outputs": [
        {
          "name": "",
          "type": "bool"
        }
      ],
      "payable": false,
      "stateMutability": "view",
      "type": "function"
    },
    {
      "constant": true,
      "inputs": [],
      "name": "halted",
      "outputs": [
        {
          "name": "",
          "type": "bool"
        }
      ],
      "payable": false,
      "stateMutability": "view",
      "type": "function"
    },
    {
      "constant": true,
      "inputs": [
        {
          "name": "",
          "type": "address"
        }
      ],
      "name": "earlyParticipantWhitelist",
      "outputs": [
        {
          "name": "",
          "type": "bool"
        }
      ],
      "payable": false,
      "stateMutability": "view",
      "type": "function"
    },
    {
      "constant": false,
      "inputs": [],
      "name": "unhalt",
      "outputs": [],
      "payable": false,
      "stateMutability": "nonpayable",
      "type": "function"
    },
    {
      "constant": true,
      "inputs": [],
      "name": "isCrowdsaleFull",
      "outputs": [
        {
          "name": "",
          "type": "bool"
        }
      ],
      "payable": false,
      "stateMutability": "view",
      "type": "function"
    },
    {
      "constant": true,
      "inputs": [],
      "name": "investorCount",
      "outputs": [
        {
          "name": "",
          "type": "uint256"
        }
      ],
      "payable": false,
      "stateMutability": "view",
      "type": "function"
    },
    {
      "constant": true,
      "inputs": [],
      "name": "getTokensLeft",
      "outputs": [
        {
          "name": "",
          "type": "uint256"
        }
      ],
      "payable": false,
      "stateMutability": "view",
      "type": "function"
    },
    {
      "constant": false,
      "inputs": [
        {
          "name": "addr",
          "type": "address"
        },
        {
          "name": "status",
          "type": "bool"
        }
      ],
      "name": "setEarlyParicipantWhitelist",
      "outputs": [],
      "payable": false,
      "stateMutability": "nonpayable",
      "type": "function"
    },
    {
      "constant": false,
      "inputs": [
        {
          "name": "newOwner",
          "type": "address"
        }
      ],
      "name": "transferOwnership",
      "outputs": [],
      "payable": false,
      "stateMutability": "nonpayable",
      "type": "function"
    },
    {
      "constant": false,
      "inputs": [
        {
          "name": "addr",
          "type": "address"
        }
      ],
      "name": "setMultisig",
      "outputs": [],
      "payable": false,
      "stateMutability": "nonpayable",
      "type": "function"
    },
    {
      "constant": true,
      "inputs": [],
      "name": "presaleWeiRaised",
      "outputs": [
        {
          "name": "",
          "type": "uint256"
        }
      ],
      "payable": false,
      "stateMutability": "view",
      "type": "function"
    },
    {
      "constant": true,
      "inputs": [],
      "name": "token",
      "outputs": [
        {
          "name": "",
          "type": "address"
        }
      ],
      "payable": false,
      "stateMutability": "view",
      "type": "function"
    },
    {
      "inputs": [
        {
          "name": "_token",
          "type": "address"
        },
        {
          "name": "_pricingStrategy",
          "type": "address"
        },
        {
          "name": "_multisigWallet",
          "type": "address"
        },
        {
          "name": "_start",
          "type": "uint256"
        },
        {
          "name": "_end",
          "type": "uint256"
        },
        {
          "name": "_minimumFundingGoal",
          "type": "uint256"
        },
        {
          "name": "_beneficiary",
          "type": "address"
        }
      ],
      "payable": false,
      "stateMutability": "nonpayable",
      "type": "constructor"
    },
    {
      "payable": true,
      "stateMutability": "payable",
      "type": "fallback"
    },
    {
      "anonymous": false,
      "inputs": [
        {
          "indexed": false,
          "name": "signer",
          "type": "address"
        }
      ],
      "name": "SignerChanged",
      "type": "event"
    },
    {
      "anonymous": false,
      "inputs": [
        {
          "indexed": false,
          "name": "investor",
          "type": "address"
        },
        {
          "indexed": false,
          "name": "weiAmount",
          "type": "uint256"
        },
        {
          "indexed": false,
          "name": "tokenAmount",
          "type": "uint256"
        },
        {
          "indexed": false,
          "name": "customerId",
          "type": "uint128"
        }
      ],
      "name": "Invested",
      "type": "event"
    },
    {
      "anonymous": false,
      "inputs": [
        {
          "indexed": false,
          "name": "investor",
          "type": "address"
        },
        {
          "indexed": false,
          "name": "weiAmount",
          "type": "uint256"
        }
      ],
      "name": "Refund",
      "type": "event"
    },
    {
      "anonymous": false,
      "inputs": [
        {
          "indexed": false,
          "name": "newRequireCustomerId",
          "type": "bool"
        },
        {
          "indexed": false,
          "name": "newRequiredSignedAddress",
          "type": "bool"
        },
        {
          "indexed": false,
          "name": "newSignerAddress",
          "type": "address"
        }
      ],
      "name": "InvestmentPolicyChanged",
      "type": "event"
    },
    {
      "anonymous": false,
      "inputs": [
        {
          "indexed": false,
          "name": "addr",
          "type": "address"
        },
        {
          "indexed": false,
          "name": "status",
          "type": "bool"
        }
      ],
      "name": "Whitelisted",
      "type": "event"
    },
    {
      "anonymous": false,
      "inputs": [
        {
          "indexed": false,
          "name": "newEndsAt",
          "type": "uint256"
        }
      ],
      "name": "EndsAtChanged",
      "type": "event"
    },
    {
      "anonymous": false,
      "inputs": [
        {
          "indexed": true,
          "name": "previousOwner",
          "type": "address"
        },
        {
          "indexed": true,
          "name": "newOwner",
          "type": "address"
        }
      ],
      "name": "OwnershipTransferred",
      "type": "event"
    },
    {
      "constant": false,
      "inputs": [
        {
          "name": "dataframe",
          "type": "bytes"
        },
        {
          "name": "v",
          "type": "uint8"
        },
        {
          "name": "r",
          "type": "bytes32"
        },
        {
          "name": "s",
          "type": "bytes32"
        }
      ],
      "name": "buyWithKYCData",
      "outputs": [
        {
          "name": "tokenAmount",
          "type": "uint256"
        }
      ],
      "payable": true,
      "stateMutability": "payable",
      "type": "function"
    },
    {
      "constant": false,
      "inputs": [
        {
          "name": "_signerAddress",
          "type": "address"
        }
      ],
      "name": "setSignerAddress",
      "outputs": [],
      "payable": false,
      "stateMutability": "nonpayable",
      "type": "function"
    }
  ],
  "bytecode": "0x6080604052600560015560006009556000600a556000600b556000600c556000600d556000600e553480156200003457600080fd5b5060405160e08062003ec68339810180604052810190808051906020019092919080519060200190929190805190602001909291908051906020019092919080519060200190929190805190602001909291908051906020019092919050505080878787878787336000806101000a81548173ffffffffffffffffffffffffffffffffffffffff021916908373ffffffffffffffffffffffffffffffffffffffff160217905550336000806101000a81548173ffffffffffffffffffffffffffffffffffffffff021916908373ffffffffffffffffffffffffffffffffffffffff16021790555085600260006101000a81548173ffffffffffffffffffffffffffffffffffffffff021916908373ffffffffffffffffffffffffffffffffffffffff160217905550620001768562000299640100000000026401000000009004565b83600560006101000a81548173ffffffffffffffffffffffffffffffffffffffff021916908373ffffffffffffffffffffffffffffffffffffffff1602179055506000600560009054906101000a900473ffffffffffffffffffffffffffffffffffffffff1673ffffffffffffffffffffffffffffffffffffffff161415620001fe57600080fd5b60008314156200020d57600080fd5b8260078190555060008214156200022357600080fd5b816008819055506008546007541015156200023d57600080fd5b8060068190555050505050505080601460006101000a81548173ffffffffffffffffffffffffffffffffffffffff021916908373ffffffffffffffffffffffffffffffffffffffff160217905550505050505050505062000409565b6000809054906101000a900473ffffffffffffffffffffffffffffffffffffffff1673ffffffffffffffffffffffffffffffffffffffff163373ffffffffffffffffffffffffffffffffffffffff16141515620002f557600080fd5b80600360006101000a81548173ffffffffffffffffffffffffffffffffffffffff021916908373ffffffffffffffffffffffffffffffffffffffff160217905550600360009054906101000a900473ffffffffffffffffffffffffffffffffffffffff1673ffffffffffffffffffffffffffffffffffffffff166304bbc2556040518163ffffffff167c0100000000000000000000000000000000000000000000000000000000028152600401602060405180830381600087803b158015620003bd57600080fd5b505af1158015620003d2573d6000803e3d6000fd5b505050506040513d6020811015620003e957600080fd5b810190808051906020019092919050505015156200040657600080fd5b50565b613aad80620004196000396000f30060806040526004361061023b576000357c0100000000000000000000000000000000000000000000000000000000900463ffffffff1680630226401d14610240578063046dc1661461026b578063062b01ce146102ae5780630a09284a146102dd57806313f4e977146103085780631865c57d1461033357806319b667da1461036c5780631aae3460146103af57806321d5c0f61461040657806338af3eed1461045d5780634042b66f146104b45780634551dd59146104df5780634bb278f31461050e57806350c6773414610525578063518ab2a814610568578063590e1ae3146105935780635b7633d0146105aa5780635da89ac0146106015780635ed7ca5b1461062c5780636203f09f146106435780636e50eb3f1461066e57806373752db41461069b57806378b99c241461079c578063797d9437146107f35780637c2e08a31461081e578063876121021461084d5780638d51faec146108575780638da5cb5b14610884578063903cc583146108db5780639075becf1461092657806397b150ca1461097d5780639d3c663f146109d4578063a7ba44c314610a37578063af46868214610a66578063b3f05b9714610a91578063b9b8af0b14610ac0578063cb16e6d014610aef578063cb3e64fd14610b4a578063d5d0902114610b61578063d7c7159c14610b90578063d7e64c0014610c29578063de5f986614610c54578063eac2493214610c7f578063f2fde38b14610cce578063f3283fba14610d11578063f7c00e2f14610d54578063fc0c546a14610d7f575b600080fd5b34801561024c57600080fd5b50610255610dd6565b6040518082815260200191505060405180910390f35b34801561027757600080fd5b506102ac600480360381019080803573ffffffffffffffffffffffffffffffffffffffff169060200190929190505050610ddc565b005b3480156102ba57600080fd5b506102c3610f00565b604051808215151515815260200191505060405180910390f35b3480156102e957600080fd5b506102f2610fff565b6040518082815260200191505060405180910390f35b34801561031457600080fd5b5061031d611005565b6040518082815260200191505060405180910390f35b34801561033f57600080fd5b5061034861100b565b6040518082600781111561035857fe5b60ff16815260200191505060405180910390f35b34801561037857600080fd5b506103ad600480360381019080803573ffffffffffffffffffffffffffffffffffffffff1690602001909291905050506112d7565b005b3480156103bb57600080fd5b506103f0600480360381019080803573ffffffffffffffffffffffffffffffffffffffff169060200190929190505050611442565b6040518082815260200191505060405180910390f35b34801561041257600080fd5b5061041b61145a565b604051808273ffffffffffffffffffffffffffffffffffffffff1673ffffffffffffffffffffffffffffffffffffffff16815260200191505060405180910390f35b34801561046957600080fd5b50610472611480565b604051808273ffffffffffffffffffffffffffffffffffffffff1673ffffffffffffffffffffffffffffffffffffffff16815260200191505060405180910390f35b3480156104c057600080fd5b506104c96114a6565b6040518082815260200191505060405180910390f35b3480156104eb57600080fd5b506104f46114ac565b604051808215151515815260200191505060405180910390f35b34801561051a57600080fd5b506105236114b5565b005b34801561053157600080fd5b50610566600480360381019080803573ffffffffffffffffffffffffffffffffffffffff169060200190929190505050611670565b005b34801561057457600080fd5b5061057d6117db565b6040518082815260200191505060405180910390f35b34801561059f57600080fd5b506105a86117e1565b005b3480156105b657600080fd5b506105bf611a0c565b604051808273ffffffffffffffffffffffffffffffffffffffff1673ffffffffffffffffffffffffffffffffffffffff16815260200191505060405180910390f35b34801561060d57600080fd5b50610616611a32565b6040518082815260200191505060405180910390f35b34801561063857600080fd5b50610641611a38565b005b34801561064f57600080fd5b50610658611ab0565b6040518082815260200191505060405180910390f35b34801561067a57600080fd5b5061069960048036038101908080359060200190929190505050611ab6565b005b3480156106a757600080fd5b50610702600480360381019080803590602001908201803590602001908080601f0160208091040260200160405190810160405280939291908181526020018383808284378201915050505050509192919290505050611b70565b604051808673ffffffffffffffffffffffffffffffffffffffff1673ffffffffffffffffffffffffffffffffffffffff168152602001856fffffffffffffffffffffffffffffffff166fffffffffffffffffffffffffffffffff1681526020018463ffffffff1663ffffffff1681526020018363ffffffff1663ffffffff1681526020018281526020019550505050505060405180910390f35b3480156107a857600080fd5b506107b161216c565b604051808273ffffffffffffffffffffffffffffffffffffffff1673ffffffffffffffffffffffffffffffffffffffff16815260200191505060405180910390f35b3480156107ff57600080fd5b50610808612192565b6040518082815260200191505060405180910390f35b34801561082a57600080fd5b50610833612198565b604051808215151515815260200191505060405180910390f35b6108556121a7565b005b34801561086357600080fd5b506108826004803603810190808035906020019092919050505061229d565b005b34801561089057600080fd5b50610899612302565b604051808273ffffffffffffffffffffffffffffffffffffffff1673ffffffffffffffffffffffffffffffffffffffff16815260200191505060405180910390f35b3480156108e757600080fd5b506109106004803603810190808035906020019092919080359060200190929190505050612327565b6040518082815260200191505060405180910390f35b34801561093257600080fd5b5061093b6124b4565b604051808273ffffffffffffffffffffffffffffffffffffffff1673ffffffffffffffffffffffffffffffffffffffff16815260200191505060405180910390f35b34801561098957600080fd5b506109be600480360381019080803573ffffffffffffffffffffffffffffffffffffffff1690602001909291905050506124da565b6040518082815260200191505060405180910390f35b3480156109e057600080fd5b50610a1d600480360381019080803590602001909291908035906020019092919080359060200190929190803590602001909291905050506124f2565b604051808215151515815260200191505060405180910390f35b348015610a4357600080fd5b50610a4c612519565b604051808215151515815260200191505060405180910390f35b348015610a7257600080fd5b50610a7b6125e1565b6040518082815260200191505060405180910390f35b348015610a9d57600080fd5b50610aa66125e7565b604051808215151515815260200191505060405180910390f35b348015610acc57600080fd5b50610ad56125fa565b604051808215151515815260200191505060405180910390f35b348015610afb57600080fd5b50610b30600480360381019080803573ffffffffffffffffffffffffffffffffffffffff16906020019092919050505061260d565b604051808215151515815260200191505060405180910390f35b348015610b5657600080fd5b50610b5f61262d565b005b348015610b6d57600080fd5b50610b766126bf565b604051808215151515815260200191505060405180910390f35b610c13600480360381019080803590602001908201803590602001908080601f0160208091040260200160405190810160405280939291908181526020018383808284378201915050505050509192919290803560ff169060200190929190803560001916906020019092919080356000191690602001909291905050506126d0565b6040518082815260200191505060405180910390f35b348015610c3557600080fd5b50610c3e612a64565b6040518082815260200191505060405180910390f35b348015610c6057600080fd5b50610c69612a6a565b6040518082815260200191505060405180910390f35b348015610c8b57600080fd5b50610ccc600480360381019080803573ffffffffffffffffffffffffffffffffffffffff169060200190929190803515159060200190929190505050612bbe565b005b348015610cda57600080fd5b50610d0f600480360381019080803573ffffffffffffffffffffffffffffffffffffffff169060200190929190505050612ce3565b005b348015610d1d57600080fd5b50610d52600480360381019080803573ffffffffffffffffffffffffffffffffffffffff169060200190929190505050612e38565b005b348015610d6057600080fd5b50610d69612ee8565b6040518082815260200191505060405180910390f35b348015610d8b57600080fd5b50610d94612eee565b604051808273ffffffffffffffffffffffffffffffffffffffff1673ffffffffffffffffffffffffffffffffffffffff16815260200191505060405180910390f35b60135481565b6000809054906101000a900473ffffffffffffffffffffffffffffffffffffffff1673ffffffffffffffffffffffffffffffffffffffff163373ffffffffffffffffffffffffffffffffffffffff16141515610e3757600080fd5b80601560006101000a81548173ffffffffffffffffffffffffffffffffffffffff021916908373ffffffffffffffffffffffffffffffffffffffff1602179055507f5719a5656c5cfdaafa148ecf366fd3b0a7fae06449ce2a46225977fb7417e29d601560009054906101000a900473ffffffffffffffffffffffffffffffffffffffff16604051808273ffffffffffffffffffffffffffffffffffffffff1673ffffffffffffffffffffffffffffffffffffffff16815260200191505060405180910390a150565b6000600360009054906101000a900473ffffffffffffffffffffffffffffffffffffffff1673ffffffffffffffffffffffffffffffffffffffff16638e768288306040518263ffffffff167c0100000000000000000000000000000000000000000000000000000000028152600401808273ffffffffffffffffffffffffffffffffffffffff1673ffffffffffffffffffffffffffffffffffffffff168152602001915050602060405180830381600087803b158015610fbf57600080fd5b505af1158015610fd3573d6000803e3d6000fd5b505050506040513d6020811015610fe957600080fd5b8101908080519060200190929190505050905090565b60085481565b60065481565b6000600f60009054906101000a900460ff161561102b57600690506112d4565b6000600460009054906101000a900473ffffffffffffffffffffffffffffffffffffffff1673ffffffffffffffffffffffffffffffffffffffff16141561107557600190506112d4565b600460009054906101000a900473ffffffffffffffffffffffffffffffffffffffff1673ffffffffffffffffffffffffffffffffffffffff166382771c8e6040518163ffffffff167c0100000000000000000000000000000000000000000000000000000000028152600401602060405180830381600087803b1580156110fb57600080fd5b505af115801561110f573d6000803e3d6000fd5b505050506040513d602081101561112557600080fd5b8101908080519060200190929190505050151561114557600190506112d4565b600360009054906101000a900473ffffffffffffffffffffffffffffffffffffffff1673ffffffffffffffffffffffffffffffffffffffff16638e768288306040518263ffffffff167c0100000000000000000000000000000000000000000000000000000000028152600401808273ffffffffffffffffffffffffffffffffffffffff1673ffffffffffffffffffffffffffffffffffffffff168152602001915050602060405180830381600087803b15801561120257600080fd5b505af1158015611216573d6000803e3d6000fd5b505050506040513d602081101561122c57600080fd5b8101908080519060200190929190505050151561124c57600190506112d4565b60075442101561125f57600290506112d4565b600854421115801561127657506112746126bf565b155b1561128457600390506112d4565b61128c612198565b1561129a57600490506112d4565b6112a2612198565b1580156112b157506000600a54115b80156112c15750600a54600d5410155b156112cf57600790506112d4565b600590505b90565b6000809054906101000a900473ffffffffffffffffffffffffffffffffffffffff1673ffffffffffffffffffffffffffffffffffffffff163373ffffffffffffffffffffffffffffffffffffffff1614151561133257600080fd5b80600460006101000a81548173ffffffffffffffffffffffffffffffffffffffff021916908373ffffffffffffffffffffffffffffffffffffffff160217905550600460009054906101000a900473ffffffffffffffffffffffffffffffffffffffff1673ffffffffffffffffffffffffffffffffffffffff1663614cb9046040518163ffffffff167c0100000000000000000000000000000000000000000000000000000000028152600401602060405180830381600087803b1580156113f957600080fd5b505af115801561140d573d6000803e3d6000fd5b505050506040513d602081101561142357600080fd5b8101908080519060200190929190505050151561143f57600080fd5b50565b60106020528060005260406000206000915090505481565b600460009054906101000a900473ffffffffffffffffffffffffffffffffffffffff1681565b601460009054906101000a900473ffffffffffffffffffffffffffffffffffffffff1681565b600a5481565b60006001905090565b60048060078111156114c357fe5b6114cb61100b565b60078111156114d657fe5b1415156114e257600080fd5b6000809054906101000a900473ffffffffffffffffffffffffffffffffffffffff1673ffffffffffffffffffffffffffffffffffffffff163373ffffffffffffffffffffffffffffffffffffffff1614151561153d57600080fd5b600060149054906101000a900460ff161561155757600080fd5b600f60009054906101000a900460ff161561157157600080fd5b6000600460009054906101000a900473ffffffffffffffffffffffffffffffffffffffff1673ffffffffffffffffffffffffffffffffffffffff1614151561165257600460009054906101000a900473ffffffffffffffffffffffffffffffffffffffff1673ffffffffffffffffffffffffffffffffffffffff16630bf318a36040518163ffffffff167c0100000000000000000000000000000000000000000000000000000000028152600401600060405180830381600087803b15801561163957600080fd5b505af115801561164d573d6000803e3d6000fd5b505050505b6001600f60006101000a81548160ff02191690831515021790555050565b6000809054906101000a900473ffffffffffffffffffffffffffffffffffffffff1673ffffffffffffffffffffffffffffffffffffffff163373ffffffffffffffffffffffffffffffffffffffff161415156116cb57600080fd5b80600360006101000a81548173ffffffffffffffffffffffffffffffffffffffff021916908373ffffffffffffffffffffffffffffffffffffffff160217905550600360009054906101000a900473ffffffffffffffffffffffffffffffffffffffff1673ffffffffffffffffffffffffffffffffffffffff166304bbc2556040518163ffffffff167c0100000000000000000000000000000000000000000000000000000000028152600401602060405180830381600087803b15801561179257600080fd5b505af11580156117a6573d6000803e3d6000fd5b505050506040513d60208110156117bc57600080fd5b810190808051906020019092919050505015156117d857600080fd5b50565b60095481565b600060078060078111156117f157fe5b6117f961100b565b600781111561180457fe5b14151561181057600080fd5b601060003373ffffffffffffffffffffffffffffffffffffffff1673ffffffffffffffffffffffffffffffffffffffff168152602001908152602001600020549150600082141561186057600080fd5b6000601060003373ffffffffffffffffffffffffffffffffffffffff1673ffffffffffffffffffffffffffffffffffffffff16815260200190815260200160002081905550600e5473__SafeMathLib___________________________6366098d4f9091846040518363ffffffff167c0100000000000000000000000000000000000000000000000000000000028152600401808381526020018281526020019250505060206040518083038186803b15801561191c57600080fd5b505af4158015611930573d6000803e3d6000fd5b505050506040513d602081101561194657600080fd5b8101908080519060200190929190505050600e819055507fbb28353e4598c3b9199101a66e0989549b659a59a54d2c27fbb183f1932c8e6d3383604051808373ffffffffffffffffffffffffffffffffffffffff1673ffffffffffffffffffffffffffffffffffffffff1681526020018281526020019250505060405180910390a13373ffffffffffffffffffffffffffffffffffffffff166108fc839081150290604051600060405180830381858888f193505050501515611a0857600080fd5b5050565b601560009054906101000a900473ffffffffffffffffffffffffffffffffffffffff1681565b600e5481565b6000809054906101000a900473ffffffffffffffffffffffffffffffffffffffff1673ffffffffffffffffffffffffffffffffffffffff163373ffffffffffffffffffffffffffffffffffffffff16141515611a9357600080fd5b6001600060146101000a81548160ff021916908315150217905550565b60015481565b6000809054906101000a900473ffffffffffffffffffffffffffffffffffffffff1673ffffffffffffffffffffffffffffffffffffffff163373ffffffffffffffffffffffffffffffffffffffff16141515611b1157600080fd5b80421115611b1e57600080fd5b806007541115611b2d57600080fd5b806008819055507fd34bb772c4ae9baa99db852f622773b31c7827e8ee818449fef20d30980bd3106008546040518082815260200191505060405180910390a150565b6000806000806000806000806000808a73__BytesDeserializer_____________________63b655e138909160006040518363ffffffff167c01000000000000000000000000000000000000000000000000000000000281526004018080602001838152602001828103825284818151815260200191508051906020019080838360005b83811015611c0f578082015181840152602081019050611bf4565b50505050905090810190601f168015611c3c5780820380516001836020036101000a031916815260200191505b50935050505060206040518083038186803b158015611c5a57600080fd5b505af4158015611c6e573d6000803e3d6000fd5b505050506040513d6020811015611c8457600080fd5b810190808051906020019092919050505094508a73__BytesDeserializer_____________________6316419aa7909160146040518363ffffffff167c01000000000000000000000000000000000000000000000000000000000281526004018080602001838152602001828103825284818151815260200191508051906020019080838360005b83811015611d27578082015181840152602081019050611d0c565b50505050905090810190601f168015611d545780820380516001836020036101000a031916815260200191505b50935050505060206040518083038186803b158015611d7257600080fd5b505af4158015611d86573d6000803e3d6000fd5b505050506040513d6020811015611d9c57600080fd5b8101908080519060200190929190505050700100000000000000000000000000000000900493508a73__BytesDeserializer_____________________63d54dd8f9909160246040518363ffffffff167c01000000000000000000000000000000000000000000000000000000000281526004018080602001838152602001828103825284818151815260200191508051906020019080838360005b83811015611e53578082015181840152602081019050611e38565b50505050905090810190601f168015611e805780820380516001836020036101000a031916815260200191505b50935050505060206040518083038186803b158015611e9e57600080fd5b505af4158015611eb2573d6000803e3d6000fd5b505050506040513d6020811015611ec857600080fd5b81019080805190602001909291905050507c0100000000000000000000000000000000000000000000000000000000900492508a73__BytesDeserializer_____________________63d54dd8f9909160286040518363ffffffff167c01000000000000000000000000000000000000000000000000000000000281526004018080602001838152602001828103825284818151815260200191508051906020019080838360005b83811015611f8b578082015181840152602081019050611f70565b50505050905090810190601f168015611fb85780820380516001836020036101000a031916815260200191505b50935050505060206040518083038186803b158015611fd657600080fd5b505af4158015611fea573d6000803e3d6000fd5b505050506040513d602081101561200057600080fd5b81019080805190602001909291905050507c0100000000000000000000000000000000000000000000000000000000900491508a73__BytesDeserializer_____________________632e1eb7fe9091602c6040518363ffffffff167c01000000000000000000000000000000000000000000000000000000000281526004018080602001838152602001828103825284818151815260200191508051906020019080838360005b838110156120c35780820151818401526020810190506120a8565b50505050905090810190601f1680156120f05780820380516001836020036101000a031916815260200191505b50935050505060206040518083038186803b15801561210e57600080fd5b505af4158015612122573d6000803e3d6000fd5b505050506040513d602081101561213857600080fd5b8101908080519060200190929190505050600190049050848484848499509950995099509950505050505091939590929450565b600360009054906101000a900473ffffffffffffffffffffffffffffffffffffffff1681565b600d5481565b6000600654600a541015905090565b60058060078111156121b557fe5b6121bd61100b565b60078111156121c857fe5b1415156121d457600080fd5b60003414156121e257600080fd5b600d5473__SafeMathLib___________________________6366098d4f9091346040518363ffffffff167c0100000000000000000000000000000000000000000000000000000000028152600401808381526020018281526020019250505060206040518083038186803b15801561225957600080fd5b505af415801561226d573d6000803e3d6000fd5b505050506040513d602081101561228357600080fd5b8101908080519060200190929190505050600d8190555050565b6000809054906101000a900473ffffffffffffffffffffffffffffffffffffffff1673ffffffffffffffffffffffffffffffffffffffff163373ffffffffffffffffffffffffffffffffffffffff161415156122f857600080fd5b8060138190555050565b6000809054906101000a900473ffffffffffffffffffffffffffffffffffffffff1681565b600080600260009054906101000a900473ffffffffffffffffffffffffffffffffffffffff1673ffffffffffffffffffffffffffffffffffffffff1663313ce5676040518163ffffffff167c0100000000000000000000000000000000000000000000000000000000028152600401602060405180830381600087803b1580156123b057600080fd5b505af11580156123c4573d6000803e3d6000fd5b505050506040513d60208110156123da57600080fd5b8101908080519060200190929190505050600a0a9050828473__SafeMathLib___________________________631d3b9edf9091846040518363ffffffff167c0100000000000000000000000000000000000000000000000000000000028152600401808381526020018281526020019250505060206040518083038186803b15801561246657600080fd5b505af415801561247a573d6000803e3d6000fd5b505050506040513d602081101561249057600080fd5b81019080805190602001909291905050508115156124aa57fe5b0491505092915050565b600560009054906101000a900473ffffffffffffffffffffffffffffffffffffffff1681565b60116020528060005260406000206000915090505481565b60006124fc612a6a565b84111561250c5760019050612511565b600090505b949350505050565b6000600460009054906101000a900473ffffffffffffffffffffffffffffffffffffffff1673ffffffffffffffffffffffffffffffffffffffff166382771c8e6040518163ffffffff167c0100000000000000000000000000000000000000000000000000000000028152600401602060405180830381600087803b1580156125a157600080fd5b505af11580156125b5573d6000803e3d6000fd5b505050506040513d60208110156125cb57600080fd5b8101908080519060200190929190505050905090565b60075481565b600f60009054906101000a900460ff1681565b600060149054906101000a900460ff1681565b60126020528060005260406000206000915054906101000a900460ff1681565b6000809054906101000a900473ffffffffffffffffffffffffffffffffffffffff1673ffffffffffffffffffffffffffffffffffffffff163373ffffffffffffffffffffffffffffffffffffffff1614151561268857600080fd5b600060149054906101000a900460ff1615156126a357600080fd5b60008060146101000a81548160ff021916908315150217905550565b6000806126ca612a6a565b14905090565b600080600080600080600080600080670de0b6b3a76400009750601260003373ffffffffffffffffffffffffffffffffffffffff1673ffffffffffffffffffffffffffffffffffffffff16815260200190815260200160002060009054906101000a900460ff161561274f5761274833611000612f14565b9850612936565b60028e6040518082805190602001908083835b6020831015156127875780518252602082019150602081019050602083039250612762565b6001836020036101000a0380198251168184511680821785525050505050509050019150506020604051808303816000865af11580156127cb573d6000803e3d6000fd5b5050506040513d60208110156127e057600080fd5b810190808051906020019092919050505096506127fc8e611b70565b95509550955095509550601560009054906101000a900473ffffffffffffffffffffffffffffffffffffffff1673ffffffffffffffffffffffffffffffffffffffff166001888f8f8f604051600081526020016040526040518085600019166000191681526020018460ff1660ff1681526020018360001916600019168152602001826000191660001916815260200194505050505060206040516020810390808403906000865af11580156128b6573d6000803e3d6000fd5b5050506020604051035173ffffffffffffffffffffffffffffffffffffffff161415156128e257600080fd5b3373ffffffffffffffffffffffffffffffffffffffff168673ffffffffffffffffffffffffffffffffffffffff1614151561291c57600080fd5b6129263483612327565b9050612933338683613121565b98505b601260003373ffffffffffffffffffffffffffffffffffffffff1673ffffffffffffffffffffffffffffffffffffffff16815260200190815260200160002060009054906101000a900460ff161515612a5057612710888563ffffffff160281151561299e57fe5b04601060003373ffffffffffffffffffffffffffffffffffffffff1673ffffffffffffffffffffffffffffffffffffffff16815260200190815260200160002054101515156129ec57600080fd5b612710888463ffffffff1602811515612a0157fe5b04601060003373ffffffffffffffffffffffffffffffffffffffff1673ffffffffffffffffffffffffffffffffffffffff1681526020019081526020016000205411151515612a4f57600080fd5b5b889950505050505050505050949350505050565b600c5481565b6000600260009054906101000a900473ffffffffffffffffffffffffffffffffffffffff1673ffffffffffffffffffffffffffffffffffffffff1663dd62ed3e6000809054906101000a900473ffffffffffffffffffffffffffffffffffffffff16306040518363ffffffff167c0100000000000000000000000000000000000000000000000000000000028152600401808373ffffffffffffffffffffffffffffffffffffffff1673ffffffffffffffffffffffffffffffffffffffff1681526020018273ffffffffffffffffffffffffffffffffffffffff1673ffffffffffffffffffffffffffffffffffffffff16815260200192505050602060405180830381600087803b158015612b7e57600080fd5b505af1158015612b92573d6000803e3d6000fd5b505050506040513d6020811015612ba857600080fd5b8101908080519060200190929190505050905090565b6000809054906101000a900473ffffffffffffffffffffffffffffffffffffffff1673ffffffffffffffffffffffffffffffffffffffff163373ffffffffffffffffffffffffffffffffffffffff16141515612c1957600080fd5b80601260008473ffffffffffffffffffffffffffffffffffffffff1673ffffffffffffffffffffffffffffffffffffffff16815260200190815260200160002060006101000a81548160ff0219169083151502179055507fa54714518c5d275fdcd3d2a461e4858e4e8cb04fb93cd0bca9d6d34115f264408282604051808373ffffffffffffffffffffffffffffffffffffffff1673ffffffffffffffffffffffffffffffffffffffff168152602001821515151581526020019250505060405180910390a15050565b6000809054906101000a900473ffffffffffffffffffffffffffffffffffffffff1673ffffffffffffffffffffffffffffffffffffffff163373ffffffffffffffffffffffffffffffffffffffff16141515612d3e57600080fd5b600073ffffffffffffffffffffffffffffffffffffffff168173ffffffffffffffffffffffffffffffffffffffff1614151515612d7a57600080fd5b8073ffffffffffffffffffffffffffffffffffffffff166000809054906101000a900473ffffffffffffffffffffffffffffffffffffffff1673ffffffffffffffffffffffffffffffffffffffff167f8be0079c531659141344cd1fd0a4f28419497f9722a3daafe3b4186f6b6457e060405160405180910390a3806000806101000a81548173ffffffffffffffffffffffffffffffffffffffff021916908373ffffffffffffffffffffffffffffffffffffffff16021790555050565b6000809054906101000a900473ffffffffffffffffffffffffffffffffffffffff1673ffffffffffffffffffffffffffffffffffffffff163373ffffffffffffffffffffffffffffffffffffffff16141515612e9357600080fd5b600154600c541115612ea457600080fd5b80600560006101000a81548173ffffffffffffffffffffffffffffffffffffffff021916908373ffffffffffffffffffffffffffffffffffffffff16021790555050565b600b5481565b600260009054906101000a900473ffffffffffffffffffffffffffffffffffffffff1681565b60008060149054906101000a900460ff1615612f2f57600080fd5b6131198383600360009054906101000a900473ffffffffffffffffffffffffffffffffffffffff1673ffffffffffffffffffffffffffffffffffffffff166318a4155e34600b54600a540360095433600260009054906101000a900473ffffffffffffffffffffffffffffffffffffffff1673ffffffffffffffffffffffffffffffffffffffff1663313ce5676040518163ffffffff167c0100000000000000000000000000000000000000000000000000000000028152600401602060405180830381600087803b15801561300457600080fd5b505af1158015613018573d6000803e3d6000fd5b505050506040513d602081101561302e57600080fd5b81019080805190602001909291905050506040518663ffffffff167c0100000000000000000000000000000000000000000000000000000000028152600401808681526020018581526020018481526020018373ffffffffffffffffffffffffffffffffffffffff1673ffffffffffffffffffffffffffffffffffffffff16815260200182815260200195505050505050602060405180830381600087803b1580156130d957600080fd5b505af11580156130ed573d6000803e3d6000fd5b505050506040513d602081101561310357600080fd5b8101908080519060200190929190505050613121565b905092915050565b600080600060149054906101000a900460ff161561313e57600080fd5b6002600781111561314b57fe5b61315361100b565b600781111561315e57fe5b14156131c157601260008673ffffffffffffffffffffffffffffffffffffffff1673ffffffffffffffffffffffffffffffffffffffff16815260200190815260200160002060009054906101000a900460ff1615156131bc57600080fd5b6131f2565b600360078111156131ce57fe5b6131d661100b565b60078111156131e157fe5b14156131ec576131f1565b600080fd5b5b3490506000831415151561320557600080fd5b6000601060008773ffffffffffffffffffffffffffffffffffffffff1673ffffffffffffffffffffffffffffffffffffffff16815260200190815260200160002054141561326057600c600081548092919060010191905055505b601060008673ffffffffffffffffffffffffffffffffffffffff1673ffffffffffffffffffffffffffffffffffffffff1681526020019081526020016000205473__SafeMathLib___________________________6366098d4f9091836040518363ffffffff167c0100000000000000000000000000000000000000000000000000000000028152600401808381526020018281526020019250505060206040518083038186803b15801561331457600080fd5b505af4158015613328573d6000803e3d6000fd5b505050506040513d602081101561333e57600080fd5b8101908080519060200190929190505050601060008773ffffffffffffffffffffffffffffffffffffffff1673ffffffffffffffffffffffffffffffffffffffff16815260200190815260200160002081905550601160008673ffffffffffffffffffffffffffffffffffffffff1673ffffffffffffffffffffffffffffffffffffffff1681526020019081526020016000205473__SafeMathLib___________________________6366098d4f9091856040518363ffffffff167c0100000000000000000000000000000000000000000000000000000000028152600401808381526020018281526020019250505060206040518083038186803b15801561344657600080fd5b505af415801561345a573d6000803e3d6000fd5b505050506040513d602081101561347057600080fd5b8101908080519060200190929190505050601160008773ffffffffffffffffffffffffffffffffffffffff1673ffffffffffffffffffffffffffffffffffffffff16815260200190815260200160002081905550600a5473__SafeMathLib___________________________6366098d4f9091836040518363ffffffff167c0100000000000000000000000000000000000000000000000000000000028152600401808381526020018281526020019250505060206040518083038186803b15801561353b57600080fd5b505af415801561354f573d6000803e3d6000fd5b505050506040513d602081101561356557600080fd5b8101908080519060200190929190505050600a8190555060095473__SafeMathLib___________________________6366098d4f9091856040518363ffffffff167c0100000000000000000000000000000000000000000000000000000000028152600401808381526020018281526020019250505060206040518083038186803b1580156135f357600080fd5b505af4158015613607573d6000803e3d6000fd5b505050506040513d602081101561361d57600080fd5b8101908080519060200190929190505050600981905550600360009054906101000a900473ffffffffffffffffffffffffffffffffffffffff1673ffffffffffffffffffffffffffffffffffffffff1663f14ae17d866040518263ffffffff167c0100000000000000000000000000000000000000000000000000000000028152600401808273ffffffffffffffffffffffffffffffffffffffff1673ffffffffffffffffffffffffffffffffffffffff168152602001915050602060405180830381600087803b1580156136f157600080fd5b505af1158015613705573d6000803e3d6000fd5b505050506040513d602081101561371b57600080fd5b8101908080519060200190929190505050156137ea57600b5473__SafeMathLib___________________________6366098d4f9091836040518363ffffffff167c0100000000000000000000000000000000000000000000000000000000028152600401808381526020018281526020019250505060206040518083038186803b1580156137a857600080fd5b505af41580156137bc573d6000803e3d6000fd5b505050506040513d60208110156137d257600080fd5b8101908080519060200190929190505050600b819055505b6137fa8184600a546009546124f2565b15151561380657600080fd5b613810858461391c565b600560009054906101000a900473ffffffffffffffffffffffffffffffffffffffff1673ffffffffffffffffffffffffffffffffffffffff166108fc829081150290604051600060405180830381858888f19350505050151561387257600080fd5b7f0396f60aaad038749091d273dc13aaabc63db6e2271c7bad442d5cf25cc4335085828587604051808573ffffffffffffffffffffffffffffffffffffffff1673ffffffffffffffffffffffffffffffffffffffff168152602001848152602001838152602001826fffffffffffffffffffffffffffffffff166fffffffffffffffffffffffffffffffff16815260200194505050505060405180910390a1829150509392505050565b600260009054906101000a900473ffffffffffffffffffffffffffffffffffffffff1673ffffffffffffffffffffffffffffffffffffffff166323b872dd601460009054906101000a900473ffffffffffffffffffffffffffffffffffffffff1684846040518463ffffffff167c0100000000000000000000000000000000000000000000000000000000028152600401808473ffffffffffffffffffffffffffffffffffffffff1673ffffffffffffffffffffffffffffffffffffffff1681526020018373ffffffffffffffffffffffffffffffffffffffff1673ffffffffffffffffffffffffffffffffffffffff1681526020018281526020019350505050602060405180830381600087803b158015613a3757600080fd5b505af1158015613a4b573d6000803e3d6000fd5b505050506040513d6020811015613a6157600080fd5b81019080805190602001909291905050501515613a7d57600080fd5b50505600a165627a7a72305820c84bbd836688214b03bc221dd141bd0c43b2f7b02e629f0f9f36ee41bf2beeb60029",
  "source": "import \"./CrowdsaleBase.sol\";\r\nimport \"./AllocatedCrowdsaleMixin.sol\";\r\nimport \"./KYCPayloadDeserializer.sol\";\r\n\r\n/**\r\n * A crowdsale that allows buys only from signed payload with server-side specified limits and price.\r\n *\r\n * The token distribution happens as in the allocated crowdsale.\r\n *\r\n */\r\ncontract KYCCrowdsale is AllocatedCrowdsaleMixin, KYCPayloadDeserializer {\r\n\r\n  /* Server holds the private key to this address to sign incoming buy payloads to signal we have KYC records in the books for these users. */\r\n  address public signerAddress;\r\n\r\n  /* A new server-side signer key was set to be effective */\r\n  event SignerChanged(address signer);\r\n\r\n  /**\r\n   * Constructor.\r\n   */\r\n  function KYCCrowdsale(address _token, PricingStrategy _pricingStrategy, address _multisigWallet, uint _start, uint _end, uint _minimumFundingGoal, address _beneficiary) CrowdsaleBase(_token, _pricingStrategy, _multisigWallet, _start, _end, _minimumFundingGoal) AllocatedCrowdsaleMixin(_beneficiary) {\r\n\r\n  }\r\n\r\n  /**\r\n   * A token purchase with anti-money laundering\r\n   *\r\n   * return tokenAmount How many tokens where bought\r\n   */\r\n  function buyWithKYCData(bytes dataframe, uint8 v, bytes32 r, bytes32 s) public payable returns(uint tokenAmount) {\r\n\r\n    uint _tokenAmount;\r\n    uint multiplier = 10 ** 18;\r\n\r\n    // Perform signature check for normal addresses\r\n    // (not deployment accounts, etc.)\r\n    if(earlyParticipantWhitelist[msg.sender]) {\r\n      // Deployment provided early participant list is for deployment and diagnostics\r\n      // For test purchases use this faux customer id 0x1000\r\n      _tokenAmount = investInternal(msg.sender, 0x1000);\r\n\r\n    } else {\r\n      // User comes through the server, check that the signature to ensure ther server\r\n      // side KYC has passed for this customer id and whitelisted Ethereum address\r\n\r\n      bytes32 hash = sha256(dataframe);\r\n\r\n      var (whitelistedAddress, customerId, minETH, maxETH, pricingInfo) = getKYCPayload(dataframe);\r\n\r\n      // Check that the KYC data is signed by our server\r\n      require(ecrecover(hash, v, r, s) == signerAddress);\r\n\r\n      // Only whitelisted address can participate the transaction\r\n      require(whitelistedAddress == msg.sender);\r\n\r\n      // Server gives us information what is the buy price for this user\r\n      uint256 tokensTotal = calculateTokens(msg.value, pricingInfo);\r\n\r\n      _tokenAmount = buyTokens(msg.sender, customerId, tokensTotal);\r\n    }\r\n\r\n    if(!earlyParticipantWhitelist[msg.sender]) {\r\n      // We assume there is no serious min and max fluctuations for the customer, unless\r\n      // especially set in the server side per customer manual override.\r\n      // Otherwise the customer can reuse old data payload with different min or max value\r\n      // to work around the per customer cap.\r\n      require(investedAmountOf[msg.sender] >= minETH * multiplier / 10000);\r\n      require(investedAmountOf[msg.sender] <= maxETH * multiplier / 10000);\r\n    }\r\n\r\n    return _tokenAmount;\r\n  }\r\n\r\n  /// @dev This function can set the server side address\r\n  /// @param _signerAddress The address derived from server's private key\r\n  function setSignerAddress(address _signerAddress) onlyOwner {\r\n    signerAddress = _signerAddress;\r\n    SignerChanged(signerAddress);\r\n  }\r\n\r\n}\r\n",
  "sourcePath": "D:\\dev\\tokenmint\\contracts\\tokenmarketnet-contracts\\contracts\\KYCCrowdsale.sol",
  "compiler": {
    "name": "solc",
    "version": "0.4.24+commit.e67f0147.Emscripten.clang"
  },
  "schemaVersion": "2.0.1",
  "updatedAt": "2018-12-07T15:55:47.408Z"
}