{
  "contractName": "KYCPresale",
  "abi": [
    {
      "constant": true,
      "inputs": [],
      "name": "ownerTestValue",
      "outputs": [
        {
          "name": "",
          "type": "uint256"
        }
      ],
      "payable": false,
      "stateMutability": "view",
      "type": "function"
    },
    {
      "constant": true,
      "inputs": [],
      "name": "isPricingSane",
      "outputs": [
        {
          "name": "sane",
          "type": "bool"
        }
      ],
      "payable": false,
      "stateMutability": "view",
      "type": "function"
    },
    {
      "constant": true,
      "inputs": [],
      "name": "endsAt",
      "outputs": [
        {
          "name": "",
          "type": "uint256"
        }
      ],
      "payable": false,
      "stateMutability": "view",
      "type": "function"
    },
    {
      "constant": true,
      "inputs": [],
      "name": "minimumFundingGoal",
      "outputs": [
        {
          "name": "",
          "type": "uint256"
        }
      ],
      "payable": false,
      "stateMutability": "view",
      "type": "function"
    },
    {
      "constant": false,
      "inputs": [
        {
          "name": "addr",
          "type": "address"
        }
      ],
      "name": "setFinalizeAgent",
      "outputs": [],
      "payable": false,
      "stateMutability": "nonpayable",
      "type": "function"
    },
    {
      "constant": true,
      "inputs": [
        {
          "name": "",
          "type": "address"
        }
      ],
      "name": "investedAmountOf",
      "outputs": [
        {
          "name": "",
          "type": "uint256"
        }
      ],
      "payable": false,
      "stateMutability": "view",
      "type": "function"
    },
    {
      "constant": true,
      "inputs": [],
      "name": "finalizeAgent",
      "outputs": [
        {
          "name": "",
          "type": "address"
        }
      ],
      "payable": false,
      "stateMutability": "view",
      "type": "function"
    },
    {
      "constant": true,
      "inputs": [],
      "name": "weiRaised",
      "outputs": [
        {
          "name": "",
          "type": "uint256"
        }
      ],
      "payable": false,
      "stateMutability": "view",
      "type": "function"
    },
    {
      "constant": true,
      "inputs": [],
      "name": "isCrowdsale",
      "outputs": [
        {
          "name": "",
          "type": "bool"
        }
      ],
      "payable": false,
      "stateMutability": "view",
      "type": "function"
    },
    {
      "constant": false,
      "inputs": [],
      "name": "finalize",
      "outputs": [],
      "payable": false,
      "stateMutability": "nonpayable",
      "type": "function"
    },
    {
      "constant": true,
      "inputs": [],
      "name": "tokensSold",
      "outputs": [
        {
          "name": "",
          "type": "uint256"
        }
      ],
      "payable": false,
      "stateMutability": "view",
      "type": "function"
    },
    {
      "constant": false,
      "inputs": [],
      "name": "refund",
      "outputs": [],
      "payable": false,
      "stateMutability": "nonpayable",
      "type": "function"
    },
    {
      "constant": true,
      "inputs": [],
      "name": "signerAddress",
      "outputs": [
        {
          "name": "",
          "type": "address"
        }
      ],
      "payable": false,
      "stateMutability": "view",
      "type": "function"
    },
    {
      "constant": true,
      "inputs": [],
      "name": "weiRefunded",
      "outputs": [
        {
          "name": "",
          "type": "uint256"
        }
      ],
      "payable": false,
      "stateMutability": "view",
      "type": "function"
    },
    {
      "constant": false,
      "inputs": [],
      "name": "halt",
      "outputs": [],
      "payable": false,
      "stateMutability": "nonpayable",
      "type": "function"
    },
    {
      "constant": true,
      "inputs": [],
      "name": "MAX_INVESTMENTS_BEFORE_MULTISIG_CHANGE",
      "outputs": [
        {
          "name": "",
          "type": "uint256"
        }
      ],
      "payable": false,
      "stateMutability": "view",
      "type": "function"
    },
    {
      "constant": false,
      "inputs": [
        {
          "name": "time",
          "type": "uint256"
        }
      ],
      "name": "setEndsAt",
      "outputs": [],
      "payable": false,
      "stateMutability": "nonpayable",
      "type": "function"
    },
    {
      "constant": true,
      "inputs": [
        {
          "name": "dataframe",
          "type": "bytes"
        }
      ],
      "name": "getKYCPayload",
      "outputs": [
        {
          "name": "whitelistedAddress",
          "type": "address"
        },
        {
          "name": "customerId",
          "type": "uint128"
        },
        {
          "name": "minEth",
          "type": "uint32"
        },
        {
          "name": "maxEth",
          "type": "uint32"
        },
        {
          "name": "pricingInfo",
          "type": "uint256"
        }
      ],
      "payable": false,
      "stateMutability": "view",
      "type": "function"
    },
    {
      "constant": true,
      "inputs": [],
      "name": "pricingStrategy",
      "outputs": [
        {
          "name": "",
          "type": "address"
        }
      ],
      "payable": false,
      "stateMutability": "view",
      "type": "function"
    },
    {
      "constant": true,
      "inputs": [],
      "name": "loadedRefund",
      "outputs": [
        {
          "name": "",
          "type": "uint256"
        }
      ],
      "payable": false,
      "stateMutability": "view",
      "type": "function"
    },
    {
      "constant": true,
      "inputs": [],
      "name": "isMinimumGoalReached",
      "outputs": [
        {
          "name": "reached",
          "type": "bool"
        }
      ],
      "payable": false,
      "stateMutability": "view",
      "type": "function"
    },
    {
      "constant": false,
      "inputs": [],
      "name": "loadRefund",
      "outputs": [],
      "payable": true,
      "stateMutability": "payable",
      "type": "function"
    },
    {
      "constant": false,
      "inputs": [
        {
          "name": "val",
          "type": "uint256"
        }
      ],
      "name": "setOwnerTestValue",
      "outputs": [],
      "payable": false,
      "stateMutability": "nonpayable",
      "type": "function"
    },
    {
      "constant": true,
      "inputs": [],
      "name": "owner",
      "outputs": [
        {
          "name": "",
          "type": "address"
        }
      ],
      "payable": false,
      "stateMutability": "view",
      "type": "function"
    },
    {
      "constant": true,
      "inputs": [
        {
          "name": "weisTotal",
          "type": "uint256"
        },
        {
          "name": "pricePerToken",
          "type": "uint256"
        }
      ],
      "name": "calculateTokens",
      "outputs": [
        {
          "name": "tokensTotal",
          "type": "uint256"
        }
      ],
      "payable": false,
      "stateMutability": "view",
      "type": "function"
    },
    {
      "constant": true,
      "inputs": [],
      "name": "multisigWallet",
      "outputs": [
        {
          "name": "",
          "type": "address"
        }
      ],
      "payable": false,
      "stateMutability": "view",
      "type": "function"
    },
    {
      "constant": true,
      "inputs": [
        {
          "name": "",
          "type": "address"
        }
      ],
      "name": "tokenAmountOf",
      "outputs": [
        {
          "name": "",
          "type": "uint256"
        }
      ],
      "payable": false,
      "stateMutability": "view",
      "type": "function"
    },
    {
      "constant": true,
      "inputs": [],
      "name": "isFinalizerSane",
      "outputs": [
        {
          "name": "sane",
          "type": "bool"
        }
      ],
      "payable": false,
      "stateMutability": "view",
      "type": "function"
    },
    {
      "constant": true,
      "inputs": [],
      "name": "startsAt",
      "outputs": [
        {
          "name": "",
          "type": "uint256"
        }
      ],
      "payable": false,
      "stateMutability": "view",
      "type": "function"
    },
    {
      "constant": true,
      "inputs": [],
      "name": "finalized",
      "outputs": [
        {
          "name": "",
          "type": "bool"
        }
      ],
      "payable": false,
      "stateMutability": "view",
      "type": "function"
    },
    {
      "constant": true,
      "inputs": [],
      "name": "halted",
      "outputs": [
        {
          "name": "",
          "type": "bool"
        }
      ],
      "payable": false,
      "stateMutability": "view",
      "type": "function"
    },
    {
      "constant": true,
      "inputs": [],
      "name": "saleWeiCap",
      "outputs": [
        {
          "name": "",
          "type": "uint256"
        }
      ],
      "payable": false,
      "stateMutability": "view",
      "type": "function"
    },
    {
      "constant": true,
      "inputs": [
        {
          "name": "",
          "type": "address"
        }
      ],
      "name": "earlyParticipantWhitelist",
      "outputs": [
        {
          "name": "",
          "type": "bool"
        }
      ],
      "payable": false,
      "stateMutability": "view",
      "type": "function"
    },
    {
      "constant": false,
      "inputs": [],
      "name": "unhalt",
      "outputs": [],
      "payable": false,
      "stateMutability": "nonpayable",
      "type": "function"
    },
    {
      "constant": true,
      "inputs": [],
      "name": "investorCount",
      "outputs": [
        {
          "name": "",
          "type": "uint256"
        }
      ],
      "payable": false,
      "stateMutability": "view",
      "type": "function"
    },
    {
      "constant": false,
      "inputs": [
        {
          "name": "addr",
          "type": "address"
        },
        {
          "name": "status",
          "type": "bool"
        }
      ],
      "name": "setEarlyParicipantWhitelist",
      "outputs": [],
      "payable": false,
      "stateMutability": "nonpayable",
      "type": "function"
    },
    {
      "constant": false,
      "inputs": [
        {
          "name": "newOwner",
          "type": "address"
        }
      ],
      "name": "transferOwnership",
      "outputs": [],
      "payable": false,
      "stateMutability": "nonpayable",
      "type": "function"
    },
    {
      "constant": false,
      "inputs": [
        {
          "name": "addr",
          "type": "address"
        }
      ],
      "name": "setMultisig",
      "outputs": [],
      "payable": false,
      "stateMutability": "nonpayable",
      "type": "function"
    },
    {
      "constant": true,
      "inputs": [],
      "name": "presaleWeiRaised",
      "outputs": [
        {
          "name": "",
          "type": "uint256"
        }
      ],
      "payable": false,
      "stateMutability": "view",
      "type": "function"
    },
    {
      "constant": true,
      "inputs": [],
      "name": "token",
      "outputs": [
        {
          "name": "",
          "type": "address"
        }
      ],
      "payable": false,
      "stateMutability": "view",
      "type": "function"
    },
    {
      "inputs": [
        {
          "name": "_multisigWallet",
          "type": "address"
        },
        {
          "name": "_start",
          "type": "uint256"
        },
        {
          "name": "_end",
          "type": "uint256"
        },
        {
          "name": "_saleWeiCap",
          "type": "uint256"
        }
      ],
      "payable": false,
      "stateMutability": "nonpayable",
      "type": "constructor"
    },
    {
      "payable": true,
      "stateMutability": "payable",
      "type": "fallback"
    },
    {
      "anonymous": false,
      "inputs": [
        {
          "indexed": false,
          "name": "signer",
          "type": "address"
        }
      ],
      "name": "SignerChanged",
      "type": "event"
    },
    {
      "anonymous": false,
      "inputs": [
        {
          "indexed": false,
          "name": "investor",
          "type": "address"
        },
        {
          "indexed": false,
          "name": "weiAmount",
          "type": "uint256"
        },
        {
          "indexed": false,
          "name": "tokenAmount",
          "type": "uint256"
        },
        {
          "indexed": false,
          "name": "customerId",
          "type": "uint128"
        },
        {
          "indexed": false,
          "name": "pricingInfo",
          "type": "uint256"
        }
      ],
      "name": "Prepurchased",
      "type": "event"
    },
    {
      "anonymous": false,
      "inputs": [
        {
          "indexed": false,
          "name": "newCap",
          "type": "uint256"
        }
      ],
      "name": "CapUpdated",
      "type": "event"
    },
    {
      "anonymous": false,
      "inputs": [
        {
          "indexed": false,
          "name": "investor",
          "type": "address"
        },
        {
          "indexed": false,
          "name": "weiAmount",
          "type": "uint256"
        },
        {
          "indexed": false,
          "name": "tokenAmount",
          "type": "uint256"
        },
        {
          "indexed": false,
          "name": "customerId",
          "type": "uint128"
        }
      ],
      "name": "Invested",
      "type": "event"
    },
    {
      "anonymous": false,
      "inputs": [
        {
          "indexed": false,
          "name": "investor",
          "type": "address"
        },
        {
          "indexed": false,
          "name": "weiAmount",
          "type": "uint256"
        }
      ],
      "name": "Refund",
      "type": "event"
    },
    {
      "anonymous": false,
      "inputs": [
        {
          "indexed": false,
          "name": "newRequireCustomerId",
          "type": "bool"
        },
        {
          "indexed": false,
          "name": "newRequiredSignedAddress",
          "type": "bool"
        },
        {
          "indexed": false,
          "name": "newSignerAddress",
          "type": "address"
        }
      ],
      "name": "InvestmentPolicyChanged",
      "type": "event"
    },
    {
      "anonymous": false,
      "inputs": [
        {
          "indexed": false,
          "name": "addr",
          "type": "address"
        },
        {
          "indexed": false,
          "name": "status",
          "type": "bool"
        }
      ],
      "name": "Whitelisted",
      "type": "event"
    },
    {
      "anonymous": false,
      "inputs": [
        {
          "indexed": false,
          "name": "newEndsAt",
          "type": "uint256"
        }
      ],
      "name": "EndsAtChanged",
      "type": "event"
    },
    {
      "anonymous": false,
      "inputs": [
        {
          "indexed": true,
          "name": "previousOwner",
          "type": "address"
        },
        {
          "indexed": true,
          "name": "newOwner",
          "type": "address"
        }
      ],
      "name": "OwnershipTransferred",
      "type": "event"
    },
    {
      "constant": false,
      "inputs": [
        {
          "name": "dataframe",
          "type": "bytes"
        },
        {
          "name": "v",
          "type": "uint8"
        },
        {
          "name": "r",
          "type": "bytes32"
        },
        {
          "name": "s",
          "type": "bytes32"
        }
      ],
      "name": "buyWithKYCData",
      "outputs": [
        {
          "name": "tokenAmount",
          "type": "uint256"
        }
      ],
      "payable": true,
      "stateMutability": "payable",
      "type": "function"
    },
    {
      "constant": false,
      "inputs": [
        {
          "name": "_signerAddress",
          "type": "address"
        }
      ],
      "name": "setSignerAddress",
      "outputs": [],
      "payable": false,
      "stateMutability": "nonpayable",
      "type": "function"
    },
    {
      "constant": true,
      "inputs": [
        {
          "name": "weiAmount",
          "type": "uint256"
        },
        {
          "name": "tokenAmount",
          "type": "uint256"
        },
        {
          "name": "weiRaisedTotal",
          "type": "uint256"
        },
        {
          "name": "tokensSoldTotal",
          "type": "uint256"
        }
      ],
      "name": "isBreakingCap",
      "outputs": [
        {
          "name": "limitBroken",
          "type": "bool"
        }
      ],
      "payable": false,
      "stateMutability": "view",
      "type": "function"
    },
    {
      "constant": true,
      "inputs": [],
      "name": "isCrowdsaleFull",
      "outputs": [
        {
          "name": "",
          "type": "bool"
        }
      ],
      "payable": false,
      "stateMutability": "view",
      "type": "function"
    },
    {
      "constant": false,
      "inputs": [
        {
          "name": "newCap",
          "type": "uint256"
        }
      ],
      "name": "setWeiCap",
      "outputs": [],
      "payable": false,
      "stateMutability": "nonpayable",
      "type": "function"
    },
    {
      "constant": false,
      "inputs": [
        {
          "name": "_pricingStrategy",
          "type": "address"
        }
      ],
      "name": "setPricingStrategy",
      "outputs": [],
      "payable": false,
      "stateMutability": "nonpayable",
      "type": "function"
    },
    {
      "constant": true,
      "inputs": [],
      "name": "getState",
      "outputs": [
        {
          "name": "",
          "type": "uint8"
        }
      ],
      "payable": false,
      "stateMutability": "view",
      "type": "function"
    }
  ],
  "bytecode": "0x6080604052600560015560006009556000600a556000600b556000600c556000600d556000600e553480156200003457600080fd5b5060405160808062002d9d83398101806040528101908080519060200190929190805190602001909291908051906020019092919080519060200190929190505050600160008585856000336000806101000a81548173ffffffffffffffffffffffffffffffffffffffff021916908373ffffffffffffffffffffffffffffffffffffffff160217905550336000806101000a81548173ffffffffffffffffffffffffffffffffffffffff021916908373ffffffffffffffffffffffffffffffffffffffff16021790555085600260006101000a81548173ffffffffffffffffffffffffffffffffffffffff021916908373ffffffffffffffffffffffffffffffffffffffff1602179055506200015a856200023f640100000000026401000000009004565b83600560006101000a81548173ffffffffffffffffffffffffffffffffffffffff021916908373ffffffffffffffffffffffffffffffffffffffff1602179055506000600560009054906101000a900473ffffffffffffffffffffffffffffffffffffffff1673ffffffffffffffffffffffffffffffffffffffff161415620001e257600080fd5b6000831415620001f157600080fd5b8260078190555060008214156200020757600080fd5b816008819055506008546007541015156200022157600080fd5b8060068190555050505050505080601481905550505050506200029e565b6000809054906101000a900473ffffffffffffffffffffffffffffffffffffffff1673ffffffffffffffffffffffffffffffffffffffff163373ffffffffffffffffffffffffffffffffffffffff161415156200029b57600080fd5b50565b612aef80620002ae6000396000f30060806040526004361061023b576000357c0100000000000000000000000000000000000000000000000000000000900463ffffffff168063015fa6c1146102405780630226401d1461026d578063046dc16614610298578063062b01ce146102db5780630a09284a1461030a57806313f4e977146103355780631865c57d1461036057806319b667da146103995780631aae3460146103dc57806321d5c0f6146104335780634042b66f1461048a5780634551dd59146104b55780634bb278f3146104e457806350c67734146104fb578063518ab2a81461053e578063590e1ae3146105695780635b7633d0146105805780635da89ac0146105d75780635ed7ca5b146106025780636203f09f146106195780636e50eb3f1461064457806373752db41461067157806378b99c2414610772578063797d9437146107c95780637c2e08a3146107f457806387612102146108235780638d51faec1461082d5780638da5cb5b1461085a578063903cc583146108b15780639075becf146108fc57806397b150ca146109535780639d3c663f146109aa578063a7ba44c314610a0d578063af46868214610a3c578063b3f05b9714610a67578063b9b8af0b14610a96578063c80d369414610ac5578063cb16e6d014610af0578063cb3e64fd14610b4b578063d5d0902114610b62578063d7c7159c14610b91578063d7e64c0014610c2a578063eac2493214610c55578063f2fde38b14610ca4578063f3283fba14610ce7578063f7c00e2f14610d2a578063fc0c546a14610d55575b600080fd5b34801561024c57600080fd5b5061026b60048036038101908080359060200190929190505050610dac565b005b34801561027957600080fd5b50610282610e48565b6040518082815260200191505060405180910390f35b3480156102a457600080fd5b506102d9600480360381019080803573ffffffffffffffffffffffffffffffffffffffff169060200190929190505050610e4e565b005b3480156102e757600080fd5b506102f0610f72565b604051808215151515815260200191505060405180910390f35b34801561031657600080fd5b5061031f611071565b6040518082815260200191505060405180910390f35b34801561034157600080fd5b5061034a611077565b6040518082815260200191505060405180910390f35b34801561036c57600080fd5b5061037561107d565b6040518082600781111561038557fe5b60ff16815260200191505060405180910390f35b3480156103a557600080fd5b506103da600480360381019080803573ffffffffffffffffffffffffffffffffffffffff16906020019092919050505061109a565b005b3480156103e857600080fd5b5061041d600480360381019080803573ffffffffffffffffffffffffffffffffffffffff169060200190929190505050611205565b6040518082815260200191505060405180910390f35b34801561043f57600080fd5b5061044861121d565b604051808273ffffffffffffffffffffffffffffffffffffffff1673ffffffffffffffffffffffffffffffffffffffff16815260200191505060405180910390f35b34801561049657600080fd5b5061049f611243565b6040518082815260200191505060405180910390f35b3480156104c157600080fd5b506104ca611249565b604051808215151515815260200191505060405180910390f35b3480156104f057600080fd5b506104f9611252565b005b34801561050757600080fd5b5061053c600480360381019080803573ffffffffffffffffffffffffffffffffffffffff16906020019092919050505061140d565b005b34801561054a57600080fd5b5061055361146b565b6040518082815260200191505060405180910390f35b34801561057557600080fd5b5061057e611471565b005b34801561058c57600080fd5b506105956115ff565b604051808273ffffffffffffffffffffffffffffffffffffffff1673ffffffffffffffffffffffffffffffffffffffff16815260200191505060405180910390f35b3480156105e357600080fd5b506105ec611625565b6040518082815260200191505060405180910390f35b34801561060e57600080fd5b5061061761162b565b005b34801561062557600080fd5b5061062e6116a3565b6040518082815260200191505060405180910390f35b34801561065057600080fd5b5061066f600480360381019080803590602001909291905050506116a9565b005b34801561067d57600080fd5b506106d8600480360381019080803590602001908201803590602001908080601f0160208091040260200160405190810160405280939291908181526020018383808284378201915050505050509192919290505050611763565b604051808673ffffffffffffffffffffffffffffffffffffffff1673ffffffffffffffffffffffffffffffffffffffff168152602001856fffffffffffffffffffffffffffffffff166fffffffffffffffffffffffffffffffff1681526020018463ffffffff1663ffffffff1681526020018363ffffffff1663ffffffff1681526020018281526020019550505050505060405180910390f35b34801561077e57600080fd5b50610787611d5f565b604051808273ffffffffffffffffffffffffffffffffffffffff1673ffffffffffffffffffffffffffffffffffffffff16815260200191505060405180910390f35b3480156107d557600080fd5b506107de611d85565b6040518082815260200191505060405180910390f35b34801561080057600080fd5b50610809611d8b565b604051808215151515815260200191505060405180910390f35b61082b611d9a565b005b34801561083957600080fd5b5061085860048036038101908080359060200190929190505050611df3565b005b34801561086657600080fd5b5061086f611e58565b604051808273ffffffffffffffffffffffffffffffffffffffff1673ffffffffffffffffffffffffffffffffffffffff16815260200191505060405180910390f35b3480156108bd57600080fd5b506108e66004803603810190808035906020019092919080359060200190929190505050611e7d565b6040518082815260200191505060405180910390f35b34801561090857600080fd5b50610911611f6d565b604051808273ffffffffffffffffffffffffffffffffffffffff1673ffffffffffffffffffffffffffffffffffffffff16815260200191505060405180910390f35b34801561095f57600080fd5b50610994600480360381019080803573ffffffffffffffffffffffffffffffffffffffff169060200190929190505050611f93565b6040518082815260200191505060405180910390f35b3480156109b657600080fd5b506109f360048036038101908080359060200190929190803590602001909291908035906020019092919080359060200190929190505050611fab565b604051808215151515815260200191505060405180910390f35b348015610a1957600080fd5b50610a22611fcd565b604051808215151515815260200191505060405180910390f35b348015610a4857600080fd5b50610a51612095565b6040518082815260200191505060405180910390f35b348015610a7357600080fd5b50610a7c61209b565b604051808215151515815260200191505060405180910390f35b348015610aa257600080fd5b50610aab6120ae565b604051808215151515815260200191505060405180910390f35b348015610ad157600080fd5b50610ada6120c1565b6040518082815260200191505060405180910390f35b348015610afc57600080fd5b50610b31600480360381019080803573ffffffffffffffffffffffffffffffffffffffff1690602001909291905050506120c7565b604051808215151515815260200191505060405180910390f35b348015610b5757600080fd5b50610b606120e7565b005b348015610b6e57600080fd5b50610b77612179565b604051808215151515815260200191505060405180910390f35b610c14600480360381019080803590602001908201803590602001908080601f0160208091040260200160405190810160405280939291908181526020018383808284378201915050505050509192919290803560ff16906020019092919080356000191690602001909291908035600019169060200190929190505050612188565b6040518082815260200191505060405180910390f35b348015610c3657600080fd5b50610c3f612716565b6040518082815260200191505060405180910390f35b348015610c6157600080fd5b50610ca2600480360381019080803573ffffffffffffffffffffffffffffffffffffffff16906020019092919080351515906020019092919050505061271c565b005b348015610cb057600080fd5b50610ce5600480360381019080803573ffffffffffffffffffffffffffffffffffffffff169060200190929190505050612841565b005b348015610cf357600080fd5b50610d28600480360381019080803573ffffffffffffffffffffffffffffffffffffffff169060200190929190505050612996565b005b348015610d3657600080fd5b50610d3f612a46565b6040518082815260200191505060405180910390f35b348015610d6157600080fd5b50610d6a612a4c565b604051808273ffffffffffffffffffffffffffffffffffffffff1673ffffffffffffffffffffffffffffffffffffffff16815260200191505060405180910390f35b6000809054906101000a900473ffffffffffffffffffffffffffffffffffffffff1673ffffffffffffffffffffffffffffffffffffffff163373ffffffffffffffffffffffffffffffffffffffff16141515610e0757600080fd5b806014819055507f3c8eb7c49d332f4c1e4d92a27cda93c31cc9452f7a408e0c6109fcddbc9946ea816040518082815260200191505060405180910390a150565b60135481565b6000809054906101000a900473ffffffffffffffffffffffffffffffffffffffff1673ffffffffffffffffffffffffffffffffffffffff163373ffffffffffffffffffffffffffffffffffffffff16141515610ea957600080fd5b80601560006101000a81548173ffffffffffffffffffffffffffffffffffffffff021916908373ffffffffffffffffffffffffffffffffffffffff1602179055507f5719a5656c5cfdaafa148ecf366fd3b0a7fae06449ce2a46225977fb7417e29d601560009054906101000a900473ffffffffffffffffffffffffffffffffffffffff16604051808273ffffffffffffffffffffffffffffffffffffffff1673ffffffffffffffffffffffffffffffffffffffff16815260200191505060405180910390a150565b6000600360009054906101000a900473ffffffffffffffffffffffffffffffffffffffff1673ffffffffffffffffffffffffffffffffffffffff16638e768288306040518263ffffffff167c0100000000000000000000000000000000000000000000000000000000028152600401808273ffffffffffffffffffffffffffffffffffffffff1673ffffffffffffffffffffffffffffffffffffffff168152602001915050602060405180830381600087803b15801561103157600080fd5b505af1158015611045573d6000803e3d6000fd5b505050506040513d602081101561105b57600080fd5b8101908080519060200190929190505050905090565b60085481565b60065481565b60006007544210156110925760029050611097565b600390505b90565b6000809054906101000a900473ffffffffffffffffffffffffffffffffffffffff1673ffffffffffffffffffffffffffffffffffffffff163373ffffffffffffffffffffffffffffffffffffffff161415156110f557600080fd5b80600460006101000a81548173ffffffffffffffffffffffffffffffffffffffff021916908373ffffffffffffffffffffffffffffffffffffffff160217905550600460009054906101000a900473ffffffffffffffffffffffffffffffffffffffff1673ffffffffffffffffffffffffffffffffffffffff1663614cb9046040518163ffffffff167c0100000000000000000000000000000000000000000000000000000000028152600401602060405180830381600087803b1580156111bc57600080fd5b505af11580156111d0573d6000803e3d6000fd5b505050506040513d60208110156111e657600080fd5b8101908080519060200190929190505050151561120257600080fd5b50565b60106020528060005260406000206000915090505481565b600460009054906101000a900473ffffffffffffffffffffffffffffffffffffffff1681565b600a5481565b60006001905090565b600480600781111561126057fe5b61126861107d565b600781111561127357fe5b14151561127f57600080fd5b6000809054906101000a900473ffffffffffffffffffffffffffffffffffffffff1673ffffffffffffffffffffffffffffffffffffffff163373ffffffffffffffffffffffffffffffffffffffff161415156112da57600080fd5b600060149054906101000a900460ff16156112f457600080fd5b600f60009054906101000a900460ff161561130e57600080fd5b6000600460009054906101000a900473ffffffffffffffffffffffffffffffffffffffff1673ffffffffffffffffffffffffffffffffffffffff161415156113ef57600460009054906101000a900473ffffffffffffffffffffffffffffffffffffffff1673ffffffffffffffffffffffffffffffffffffffff16630bf318a36040518163ffffffff167c0100000000000000000000000000000000000000000000000000000000028152600401600060405180830381600087803b1580156113d657600080fd5b505af11580156113ea573d6000803e3d6000fd5b505050505b6001600f60006101000a81548160ff02191690831515021790555050565b6000809054906101000a900473ffffffffffffffffffffffffffffffffffffffff1673ffffffffffffffffffffffffffffffffffffffff163373ffffffffffffffffffffffffffffffffffffffff1614151561146857600080fd5b50565b60095481565b6000600780600781111561148157fe5b61148961107d565b600781111561149457fe5b1415156114a057600080fd5b601060003373ffffffffffffffffffffffffffffffffffffffff1673ffffffffffffffffffffffffffffffffffffffff16815260200190815260200160002054915060008214156114f057600080fd5b6000601060003373ffffffffffffffffffffffffffffffffffffffff1673ffffffffffffffffffffffffffffffffffffffff1681526020019081526020016000208190555061154a82600e54612a7290919063ffffffff16565b600e819055507fbb28353e4598c3b9199101a66e0989549b659a59a54d2c27fbb183f1932c8e6d3383604051808373ffffffffffffffffffffffffffffffffffffffff1673ffffffffffffffffffffffffffffffffffffffff1681526020018281526020019250505060405180910390a13373ffffffffffffffffffffffffffffffffffffffff166108fc839081150290604051600060405180830381858888f1935050505015156115fb57600080fd5b5050565b601560009054906101000a900473ffffffffffffffffffffffffffffffffffffffff1681565b600e5481565b6000809054906101000a900473ffffffffffffffffffffffffffffffffffffffff1673ffffffffffffffffffffffffffffffffffffffff163373ffffffffffffffffffffffffffffffffffffffff1614151561168657600080fd5b6001600060146101000a81548160ff021916908315150217905550565b60015481565b6000809054906101000a900473ffffffffffffffffffffffffffffffffffffffff1673ffffffffffffffffffffffffffffffffffffffff163373ffffffffffffffffffffffffffffffffffffffff1614151561170457600080fd5b8042111561171157600080fd5b80600754111561172057600080fd5b806008819055507fd34bb772c4ae9baa99db852f622773b31c7827e8ee818449fef20d30980bd3106008546040518082815260200191505060405180910390a150565b6000806000806000806000806000808a73__BytesDeserializer_____________________63b655e138909160006040518363ffffffff167c01000000000000000000000000000000000000000000000000000000000281526004018080602001838152602001828103825284818151815260200191508051906020019080838360005b838110156118025780820151818401526020810190506117e7565b50505050905090810190601f16801561182f5780820380516001836020036101000a031916815260200191505b50935050505060206040518083038186803b15801561184d57600080fd5b505af4158015611861573d6000803e3d6000fd5b505050506040513d602081101561187757600080fd5b810190808051906020019092919050505094508a73__BytesDeserializer_____________________6316419aa7909160146040518363ffffffff167c01000000000000000000000000000000000000000000000000000000000281526004018080602001838152602001828103825284818151815260200191508051906020019080838360005b8381101561191a5780820151818401526020810190506118ff565b50505050905090810190601f1680156119475780820380516001836020036101000a031916815260200191505b50935050505060206040518083038186803b15801561196557600080fd5b505af4158015611979573d6000803e3d6000fd5b505050506040513d602081101561198f57600080fd5b8101908080519060200190929190505050700100000000000000000000000000000000900493508a73__BytesDeserializer_____________________63d54dd8f9909160246040518363ffffffff167c01000000000000000000000000000000000000000000000000000000000281526004018080602001838152602001828103825284818151815260200191508051906020019080838360005b83811015611a46578082015181840152602081019050611a2b565b50505050905090810190601f168015611a735780820380516001836020036101000a031916815260200191505b50935050505060206040518083038186803b158015611a9157600080fd5b505af4158015611aa5573d6000803e3d6000fd5b505050506040513d6020811015611abb57600080fd5b81019080805190602001909291905050507c0100000000000000000000000000000000000000000000000000000000900492508a73__BytesDeserializer_____________________63d54dd8f9909160286040518363ffffffff167c01000000000000000000000000000000000000000000000000000000000281526004018080602001838152602001828103825284818151815260200191508051906020019080838360005b83811015611b7e578082015181840152602081019050611b63565b50505050905090810190601f168015611bab5780820380516001836020036101000a031916815260200191505b50935050505060206040518083038186803b158015611bc957600080fd5b505af4158015611bdd573d6000803e3d6000fd5b505050506040513d6020811015611bf357600080fd5b81019080805190602001909291905050507c0100000000000000000000000000000000000000000000000000000000900491508a73__BytesDeserializer_____________________632e1eb7fe9091602c6040518363ffffffff167c01000000000000000000000000000000000000000000000000000000000281526004018080602001838152602001828103825284818151815260200191508051906020019080838360005b83811015611cb6578082015181840152602081019050611c9b565b50505050905090810190601f168015611ce35780820380516001836020036101000a031916815260200191505b50935050505060206040518083038186803b158015611d0157600080fd5b505af4158015611d15573d6000803e3d6000fd5b505050506040513d6020811015611d2b57600080fd5b8101908080519060200190929190505050600190049050848484848499509950995099509950505050505091939590929450565b600360009054906101000a900473ffffffffffffffffffffffffffffffffffffffff1681565b600d5481565b6000600654600a541015905090565b6005806007811115611da857fe5b611db061107d565b6007811115611dbb57fe5b141515611dc757600080fd5b6000341415611dd557600080fd5b611dea34600d54612a7290919063ffffffff16565b600d8190555050565b6000809054906101000a900473ffffffffffffffffffffffffffffffffffffffff1673ffffffffffffffffffffffffffffffffffffffff163373ffffffffffffffffffffffffffffffffffffffff16141515611e4e57600080fd5b8060138190555050565b6000809054906101000a900473ffffffffffffffffffffffffffffffffffffffff1681565b600080600260009054906101000a900473ffffffffffffffffffffffffffffffffffffffff1673ffffffffffffffffffffffffffffffffffffffff1663313ce5676040518163ffffffff167c0100000000000000000000000000000000000000000000000000000000028152600401602060405180830381600087803b158015611f0657600080fd5b505af1158015611f1a573d6000803e3d6000fd5b505050506040513d6020811015611f3057600080fd5b8101908080519060200190929190505050600a0a905082611f5a8286612a9090919063ffffffff16565b811515611f6357fe5b0491505092915050565b600560009054906101000a900473ffffffffffffffffffffffffffffffffffffffff1681565b60116020528060005260406000206000915090505481565b6000601454831115611fc05760019050611fc5565b600090505b949350505050565b6000600460009054906101000a900473ffffffffffffffffffffffffffffffffffffffff1673ffffffffffffffffffffffffffffffffffffffff166382771c8e6040518163ffffffff167c0100000000000000000000000000000000000000000000000000000000028152600401602060405180830381600087803b15801561205557600080fd5b505af1158015612069573d6000803e3d6000fd5b505050506040513d602081101561207f57600080fd5b8101908080519060200190929190505050905090565b60075481565b600f60009054906101000a900460ff1681565b600060149054906101000a900460ff1681565b60145481565b60126020528060005260406000206000915054906101000a900460ff1681565b6000809054906101000a900473ffffffffffffffffffffffffffffffffffffffff1673ffffffffffffffffffffffffffffffffffffffff163373ffffffffffffffffffffffffffffffffffffffff1614151561214257600080fd5b600060149054906101000a900460ff16151561215d57600080fd5b60008060146101000a81548160ff021916908315150217905550565b6000601454600a541015905090565b600080600080600080600080600080600060149054906101000a900460ff161515156121b357600080fd5b60028e6040518082805190602001908083835b6020831015156121eb57805182526020820191506020810190506020830392506121c6565b6001836020036101000a0380198251168184511680821785525050505050509050019150506020604051808303816000865af115801561222f573d6000803e3d6000fd5b5050506040513d602081101561224457600080fd5b810190808051906020019092919050505098506122608e611763565b97509750975097509750670de0b6b3a76400009250339150349050601560009054906101000a900473ffffffffffffffffffffffffffffffffffffffff1673ffffffffffffffffffffffffffffffffffffffff1660018a8f8f8f604051600081526020016040526040518085600019166000191681526020018460ff1660ff1681526020018360001916600019168152602001826000191660001916815260200194505050505060206040516020810390808403906000865af115801561232b573d6000803e3d6000fd5b5050506020604051035173ffffffffffffffffffffffffffffffffffffffff1614151561235757600080fd5b6002600781111561236457fe5b61236c61107d565b600781111561237757fe5b14156123da57601260008373ffffffffffffffffffffffffffffffffffffffff1673ffffffffffffffffffffffffffffffffffffffff16815260200190815260200160002060009054906101000a900460ff1615156123d557600080fd5b61240b565b600360078111156123e757fe5b6123ef61107d565b60078111156123fa57fe5b14156124055761240a565b600080fd5b5b6000601060008473ffffffffffffffffffffffffffffffffffffffff1673ffffffffffffffffffffffffffffffffffffffff16815260200190815260200160002054141561246657600c600081548092919060010191905055505b6124b881601060008573ffffffffffffffffffffffffffffffffffffffff1673ffffffffffffffffffffffffffffffffffffffff16815260200190815260200160002054612a7290919063ffffffff16565b601060008473ffffffffffffffffffffffffffffffffffffffff1673ffffffffffffffffffffffffffffffffffffffff1681526020019081526020016000208190555061251081600a54612a7290919063ffffffff16565b600a81905550612526818b600a54600954611fab565b15151561253257600080fd5b612710838763ffffffff160281151561254757fe5b04601060003373ffffffffffffffffffffffffffffffffffffffff1673ffffffffffffffffffffffffffffffffffffffff168152602001908152602001600020541015151561259557600080fd5b612710838663ffffffff16028115156125aa57fe5b04601060003373ffffffffffffffffffffffffffffffffffffffff1673ffffffffffffffffffffffffffffffffffffffff16815260200190815260200160002054111515156125f857600080fd5b600560009054906101000a900473ffffffffffffffffffffffffffffffffffffffff1673ffffffffffffffffffffffffffffffffffffffff166108fc829081150290604051600060405180830381858888f19350505050151561265a57600080fd5b7fb926bd06586c265869c2a70eaf4affb7b7b778b25883b85a123262d056f79c0182828c8a88604051808673ffffffffffffffffffffffffffffffffffffffff1673ffffffffffffffffffffffffffffffffffffffff168152602001858152602001848152602001836fffffffffffffffffffffffffffffffff166fffffffffffffffffffffffffffffffff1681526020018281526020019550505050505060405180910390a160009950505050505050505050949350505050565b600c5481565b6000809054906101000a900473ffffffffffffffffffffffffffffffffffffffff1673ffffffffffffffffffffffffffffffffffffffff163373ffffffffffffffffffffffffffffffffffffffff1614151561277757600080fd5b80601260008473ffffffffffffffffffffffffffffffffffffffff1673ffffffffffffffffffffffffffffffffffffffff16815260200190815260200160002060006101000a81548160ff0219169083151502179055507fa54714518c5d275fdcd3d2a461e4858e4e8cb04fb93cd0bca9d6d34115f264408282604051808373ffffffffffffffffffffffffffffffffffffffff1673ffffffffffffffffffffffffffffffffffffffff168152602001821515151581526020019250505060405180910390a15050565b6000809054906101000a900473ffffffffffffffffffffffffffffffffffffffff1673ffffffffffffffffffffffffffffffffffffffff163373ffffffffffffffffffffffffffffffffffffffff1614151561289c57600080fd5b600073ffffffffffffffffffffffffffffffffffffffff168173ffffffffffffffffffffffffffffffffffffffff16141515156128d857600080fd5b8073ffffffffffffffffffffffffffffffffffffffff166000809054906101000a900473ffffffffffffffffffffffffffffffffffffffff1673ffffffffffffffffffffffffffffffffffffffff167f8be0079c531659141344cd1fd0a4f28419497f9722a3daafe3b4186f6b6457e060405160405180910390a3806000806101000a81548173ffffffffffffffffffffffffffffffffffffffff021916908373ffffffffffffffffffffffffffffffffffffffff16021790555050565b6000809054906101000a900473ffffffffffffffffffffffffffffffffffffffff1673ffffffffffffffffffffffffffffffffffffffff163373ffffffffffffffffffffffffffffffffffffffff161415156129f157600080fd5b600154600c541115612a0257600080fd5b80600560006101000a81548173ffffffffffffffffffffffffffffffffffffffff021916908373ffffffffffffffffffffffffffffffffffffffff16021790555050565b600b5481565b600260009054906101000a900473ffffffffffffffffffffffffffffffffffffffff1681565b6000808284019050838110151515612a8657fe5b8091505092915050565b60008082840290506000841480612ab15750828482811515612aae57fe5b04145b1515612ab957fe5b80915050929150505600a165627a7a723058206b5336813119fecafe1dc98390bccb119303f4c149fea08b6bc325b8670f57890029",
  "source": "import \"./CrowdsaleBase.sol\";\nimport \"./KYCPayloadDeserializer.sol\";\n\n/**\n * A presale smart contract that collects money from SAFT/SAFTE agreed buyers.\n *\n * Presale contract where we collect money for the token that does not exist yet.\n * The same KYC rules apply as in KYCCrowdsale. No tokens are issued in this point,\n * but they are delivered to the buyers after the token sale is over.\n *\n */\ncontract KYCPresale is CrowdsaleBase, KYCPayloadDeserializer {\n\n  /** The cap of this presale contract in wei */\n  uint256 public saleWeiCap;\n\n  /** Server holds the private key to this address to decide if the AML payload is valid or not. */\n  address public signerAddress;\n\n  /** A new server-side signer key was set to be effective */\n  event SignerChanged(address signer);\n\n  /** An user made a prepurchase through KYC'ed interface. The money has been moved to the token sale multisig wallet. The buyer will receive their tokens in an airdrop after the token sale is over. */\n  event Prepurchased(address investor, uint weiAmount, uint tokenAmount, uint128 customerId, uint256 pricingInfo);\n\n  /** The owner changes the presale ETH cap during the sale */\n  event CapUpdated(uint256 newCap);\n\n  /**\n   * Constructor.\n   *\n   * Presale does not know about token or pricing strategy, as they will be only available during the future airdrop.\n   *\n   * @dev The parent contract has some unnecessary variables for our use case. For this round of development, we chose to use null value for token and pricing strategy. In the future versions have a parent sale contract that does not assume an existing token.\n   */\n  constructor(address _multisigWallet, uint _start, uint _end, uint _saleWeiCap) CrowdsaleBase(CrowdsaleToken(address(1)), PricingStrategy(address(0)), _multisigWallet, _start, _end, 0) {\n    saleWeiCap = _saleWeiCap;\n  }\n\n  /**\n   * A token purchase with anti-money laundering\n   *\n   * return tokenAmount How many tokens where bought\n   */\n  function buyWithKYCData(bytes dataframe, uint8 v, bytes32 r, bytes32 s) public payable returns(uint tokenAmount) {\n\n    // Presale ended / emergency abort\n    require(!halted);\n\n    bytes32 hash = sha256(dataframe);\n    var (whitelistedAddress, customerId, minETH, maxETH, pricingInfo) = getKYCPayload(dataframe);\n    uint multiplier = 10 ** 18;\n    address receiver = msg.sender;\n    uint weiAmount = msg.value;\n\n    // The payload was created by token sale server\n    require(ecrecover(hash, v, r, s) == signerAddress);\n\n    // Determine if it's a good time to accept investment from this participant\n    if(getState() == State.PreFunding) {\n      // Are we whitelisted for early deposit\n      require(earlyParticipantWhitelist[receiver]);\n    } else if(getState() == State.Funding) {\n      // Retail participants can only come in when the crowdsale is running\n      // pass\n    } else {\n      // Unwanted state\n      revert();\n    }\n\n    if(investedAmountOf[receiver] == 0) {\n       // A new investor\n       investorCount++;\n    }\n\n    // Update per investor amount\n    investedAmountOf[receiver] = investedAmountOf[receiver].plus(weiAmount);\n\n    // Update totals\n    weiRaised = weiRaised.plus(weiAmount);\n\n    // Check that we did not bust the cap\n    require(!isBreakingCap(weiAmount, tokenAmount, weiRaised, tokensSold));\n\n    require(investedAmountOf[msg.sender] >= minETH * multiplier / 10000);\n    require(investedAmountOf[msg.sender] <= maxETH * multiplier / 10000);\n\n    // Pocket the money, or fail the crowdsale if we for some reason cannot send the money to our multisig\n    require(multisigWallet.send(weiAmount));\n\n    // Tell us invest was success\n    Prepurchased(receiver, weiAmount, tokenAmount, customerId, pricingInfo);\n\n    return 0; // In presale we do not issue actual tokens tyet\n  }\n\n  /// @dev This function can set the server side address\n  /// @param _signerAddress The address derived from server's private key\n  function setSignerAddress(address _signerAddress) onlyOwner {\n    signerAddress = _signerAddress;\n    SignerChanged(signerAddress);\n  }\n\n  /**\n   * Called from invest() to confirm if the curret investment does not break our cap rule.\n   */\n  function isBreakingCap(uint weiAmount, uint tokenAmount, uint weiRaisedTotal, uint tokensSoldTotal) constant returns (bool limitBroken) {\n    if(weiRaisedTotal > saleWeiCap) {\n      return true;\n    } else {\n      return false;\n    }\n  }\n\n  /**\n   * We are sold out when our approve pool becomes empty.\n   */\n  function isCrowdsaleFull() public constant returns (bool) {\n    return weiRaised >= saleWeiCap;\n  }\n\n  /**\n   * Allow owner to adjust the cap during the presale.\n   *\n   * This allows e.g. US dollar pegged caps.\n   */\n  function setWeiCap(uint newCap) public onlyOwner {\n    saleWeiCap = newCap;\n    CapUpdated(newCap);\n  }\n\n  /**\n   * Because this is a presale, we do not issue any tokens yet.\n   *\n   * @dev Have this taken away from the parent contract?\n   */\n  function assignTokens(address receiver, uint tokenAmount) internal {\n    revert();\n  }\n\n  /**\n   * Allow to (re)set pricing strategy.\n   *\n   * @dev Because we do not have token price set in presale, we do nothing. This will be removed in the future versions.\n   */\n  function setPricingStrategy(PricingStrategy _pricingStrategy) onlyOwner {\n  }\n\n  /**\n   * Presale state machine management.\n   *\n   * Presale cannot fail; it is running until manually ended.\n   *\n   */\n  function getState() public constant returns (State) {\n    if (block.timestamp < startsAt) {\n      return State.PreFunding;\n    } else {\n      return State.Funding;\n    }\n  }\n\n}\n",
  "sourcePath": "D:\\dev\\tokenmint\\contracts\\tokenmarketnet-contracts\\contracts\\KYCPresale.sol",
  "compiler": {
    "name": "solc",
    "version": "0.4.24+commit.e67f0147.Emscripten.clang"
  },
  "schemaVersion": "2.0.1",
  "updatedAt": "2018-12-26T13:16:52.730Z"
}