{
  "contractName": "LimitBalanceMock",
  "abi": [
    {
      "constant": true,
      "inputs": [],
      "name": "limit",
      "outputs": [
        {
          "name": "",
          "type": "uint256"
        }
      ],
      "payable": false,
      "stateMutability": "view",
      "type": "function"
    },
    {
      "constant": false,
      "inputs": [],
      "name": "limitedDeposit",
      "outputs": [],
      "payable": true,
      "stateMutability": "payable",
      "type": "function"
    }
  ],
  "bytecode": "0x60806040526103e8806000819055505060d98061001d6000396000f3006080604052600436106049576000357c0100000000000000000000000000000000000000000000000000000000900463ffffffff16806386f3d0cd14604e578063a4d66daf146056575b600080fd5b6054607e565b005b348015606157600080fd5b50606860a7565b6040518082815260200191505060405180910390f35b6000543073ffffffffffffffffffffffffffffffffffffffff16311115151560a557600080fd5b565b600054815600a165627a7a723058202275458c637db6f01e48aa205d18bd8bac876cdf41f2b91ecb4ccf0201fd49740029",
  "source": "pragma solidity ^0.4.18;\n\n\nimport \"../LimitBalance.sol\";\n\n\n// mock class using LimitBalance\ncontract LimitBalanceMock is LimitBalance(1000) {\n\n  function limitedDeposit() public payable limitedPayable {\n  }\n\n}\n",
  "sourcePath": "D:\\dev\\tokenmint\\contracts\\tokenmarketnet-contracts\\contracts\\zeppelin\\contracts\\mocks\\LimitBalanceMock.sol",
  "compiler": {
    "name": "solc",
    "version": "0.4.24+commit.e67f0147.Emscripten.clang"
  },
  "schemaVersion": "2.0.1",
  "updatedAt": "2018-12-14T14:51:44.044Z"
}