{
  "contractName": "LimitBalanceMock",
  "abi": [
    {
      "constant": true,
      "inputs": [],
      "name": "limit",
      "outputs": [
        {
          "name": "",
          "type": "uint256"
        }
      ],
      "payable": false,
      "stateMutability": "view",
      "type": "function"
    },
    {
      "constant": false,
      "inputs": [],
      "name": "limitedDeposit",
      "outputs": [],
      "payable": true,
      "stateMutability": "payable",
      "type": "function"
    }
  ],
  "bytecode": "0x60806040526103e8806000819055505060d98061001d6000396000f3006080604052600436106049576000357c0100000000000000000000000000000000000000000000000000000000900463ffffffff16806386f3d0cd14604e578063a4d66daf146056575b600080fd5b6054607e565b005b348015606157600080fd5b50606860a7565b6040518082815260200191505060405180910390f35b6000543073ffffffffffffffffffffffffffffffffffffffff16311115151560a557600080fd5b565b600054815600a165627a7a723058200ce06fd11619840c3b6e7107fe31e67688af467e990ab6be1c6100209d6cb2ba0029",
  "source": "pragma solidity ^0.4.18;\r\n\r\n\r\nimport \"../LimitBalance.sol\";\r\n\r\n\r\n// mock class using LimitBalance\r\ncontract LimitBalanceMock is LimitBalance(1000) {\r\n\r\n  function limitedDeposit() public payable limitedPayable {\r\n  }\r\n\r\n}\r\n",
  "sourcePath": "D:\\trees\\tokenmint\\contracts\\tokenmarketnet-contracts\\contracts\\zeppelin\\contracts\\mocks\\LimitBalanceMock.sol",
  "compiler": {
    "name": "solc",
    "version": "0.4.24+commit.e67f0147.Emscripten.clang"
  },
  "schemaVersion": "2.0.1",
  "updatedAt": "2018-12-10T14:03:30.318Z"
}