{
  "contractName": "MathMock",
  "abi": [
    {
      "constant": true,
      "inputs": [
        {
          "name": "a",
          "type": "uint256"
        },
        {
          "name": "b",
          "type": "uint256"
        }
      ],
      "name": "max",
      "outputs": [
        {
          "name": "",
          "type": "uint256"
        }
      ],
      "payable": false,
      "stateMutability": "pure",
      "type": "function"
    },
    {
      "constant": true,
      "inputs": [
        {
          "name": "a",
          "type": "uint256"
        },
        {
          "name": "b",
          "type": "uint256"
        }
      ],
      "name": "min",
      "outputs": [
        {
          "name": "",
          "type": "uint256"
        }
      ],
      "payable": false,
      "stateMutability": "pure",
      "type": "function"
    },
    {
      "constant": true,
      "inputs": [
        {
          "name": "a",
          "type": "uint256"
        },
        {
          "name": "b",
          "type": "uint256"
        }
      ],
      "name": "average",
      "outputs": [
        {
          "name": "",
          "type": "uint256"
        }
      ],
      "payable": false,
      "stateMutability": "pure",
      "type": "function"
    }
  ],
  "bytecode": "0x608060405234801561001057600080fd5b50610224806100206000396000f300608060405260043610610057576000357c0100000000000000000000000000000000000000000000000000000000900463ffffffff1680632b7423ab1461005c5780636d5433e6146100a75780637ae2b5c7146100f2575b600080fd5b34801561006857600080fd5b50610091600480360381019080803590602001909291908035906020019092919050505061013d565b6040518082815260200191505060405180910390f35b3480156100b357600080fd5b506100dc6004803603810190808035906020019092919080359060200190929190505050610151565b6040518082815260200191505060405180910390f35b3480156100fe57600080fd5b506101276004803603810190808035906020019092919080359060200190929190505050610165565b6040518082815260200191505060405180910390f35b60006101498383610179565b905092915050565b600061015d83836101c5565b905092915050565b600061017183836101df565b905092915050565b60006002808381151561018857fe5b0660028581151561019557fe5b06018115156101a057fe5b046002838115156101ad57fe5b046002858115156101ba57fe5b040101905092915050565b6000818310156101d557816101d7565b825b905092915050565b60008183106101ee57816101f0565b825b9050929150505600a165627a7a72305820a146aeb934806b4af8693c97a58b16c3eca56233f886faa705434ea2df4dd1a30029",
  "source": "pragma solidity ^0.4.24;\r\n\r\nimport \"../math/Math.sol\";\r\n\r\ncontract MathMock {\r\n    function max(uint256 a, uint256 b) public pure returns (uint256) {\r\n        return Math.max(a, b);\r\n    }\r\n\r\n    function min(uint256 a, uint256 b) public pure returns (uint256) {\r\n        return Math.min(a, b);\r\n    }\r\n\r\n    function average(uint256 a, uint256 b) public pure returns (uint256) {\r\n        return Math.average(a, b);\r\n    }\r\n}\r\n",
  "sourcePath": "D:\\dev\\tokenmint\\contracts\\open-zeppelin-contracts\\mocks\\MathMock.sol",
  "compiler": {
    "name": "solc",
    "version": "0.4.24+commit.e67f0147.Emscripten.clang"
  },
  "schemaVersion": "2.0.1",
  "updatedAt": "2019-01-08T16:14:19.494Z"
}