{
  "contractName": "MessageHelper",
  "abi": [
    {
      "anonymous": false,
      "inputs": [
        {
          "indexed": false,
          "name": "b32",
          "type": "bytes32"
        },
        {
          "indexed": false,
          "name": "number",
          "type": "uint256"
        },
        {
          "indexed": false,
          "name": "text",
          "type": "string"
        }
      ],
      "name": "Show",
      "type": "event"
    },
    {
      "constant": false,
      "inputs": [
        {
          "name": "message",
          "type": "bytes32"
        },
        {
          "name": "number",
          "type": "uint256"
        },
        {
          "name": "text",
          "type": "string"
        }
      ],
      "name": "showMessage",
      "outputs": [
        {
          "name": "",
          "type": "bool"
        }
      ],
      "payable": false,
      "stateMutability": "nonpayable",
      "type": "function"
    },
    {
      "constant": false,
      "inputs": [],
      "name": "fail",
      "outputs": [],
      "payable": false,
      "stateMutability": "nonpayable",
      "type": "function"
    },
    {
      "constant": false,
      "inputs": [
        {
          "name": "to",
          "type": "address"
        },
        {
          "name": "data",
          "type": "bytes"
        }
      ],
      "name": "call",
      "outputs": [
        {
          "name": "",
          "type": "bool"
        }
      ],
      "payable": false,
      "stateMutability": "nonpayable",
      "type": "function"
    }
  ],
  "bytecode": "0x608060405234801561001057600080fd5b5061034b806100206000396000f300608060405260043610610057576000357c0100000000000000000000000000000000000000000000000000000000900463ffffffff1680631b8b921d1461005c5780636e2e2e4d146100fd578063a9cc471814610196575b600080fd5b34801561006857600080fd5b506100e3600480360381019080803573ffffffffffffffffffffffffffffffffffffffff169060200190929190803590602001908201803590602001908080601f01602080910402602001604051908101604052809392919081815260200183838082843782019150505050505091929192905050506101ad565b604051808215151515815260200191505060405180910390f35b34801561010957600080fd5b5061017c600480360381019080803560001916906020019092919080359060200190929190803590602001908201803590602001908080601f016020809104026020016040519081016040528093929190818152602001838380828437820191505050505050919291929050505061024f565b604051808215151515815260200191505060405180910390f35b3480156101a257600080fd5b506101ab610310565b005b60008273ffffffffffffffffffffffffffffffffffffffff168260405180828051906020019080838360005b838110156101f45780820151818401526020810190506101d9565b50505050905090810190601f1680156102215780820380516001836020036101000a031916815260200191505b509150506000604051808303816000865af1915050156102445760019050610249565b600090505b92915050565b60007f53f52bd5d580b08520e25370d30be415b61c6ff8e378023685ca03eec817b10f84848460405180846000191660001916815260200183815260200180602001828103825283818151815260200191508051906020019080838360005b838110156102c95780820151818401526020810190506102ae565b50505050905090810190601f1680156102f65780820380516001836020036101000a031916815260200191505b5094505050505060405180910390a1600190509392505050565b6000151561031d57600080fd5b5600a165627a7a72305820a19b718b1962e460cfa03fcff8180da49ecc1b7c15ef896fbc2583232e8ca5f60029",
  "source": "pragma solidity ^0.4.11;\r\n\r\ncontract MessageHelper {\r\n\r\n  event Show(bytes32 b32, uint256 number, string text);\r\n\r\n  function showMessage( bytes32 message, uint256 number, string text ) public returns (bool) {\r\n    Show(message, number, text);\r\n    return true;\r\n  }\r\n\r\n  function fail() public {\r\n    require(false);\r\n  }\r\n\r\n  function call(address to, bytes data) public returns (bool) {\r\n    if (to.call(data))\r\n      return true;\r\n    else\r\n      return false;\r\n  }\r\n\r\n}\r\n",
  "sourcePath": "D:\\trees\\tokenmint\\contracts\\tokenmarketnet-contracts\\contracts\\zeppelin\\contracts\\mocks\\MessageHelper.sol",
  "compiler": {
    "name": "solc",
    "version": "0.4.24+commit.e67f0147.Emscripten.clang"
  },
  "schemaVersion": "2.0.1",
  "updatedAt": "2018-12-10T14:03:30.318Z"
}