{
  "contractName": "MilestonePricing",
  "abi": [
    {
      "constant": true,
      "inputs": [],
      "name": "isPricingStrategy",
      "outputs": [
        {
          "name": "",
          "type": "bool"
        }
      ],
      "payable": false,
      "stateMutability": "view",
      "type": "function"
    },
    {
      "constant": true,
      "inputs": [],
      "name": "milestoneCount",
      "outputs": [
        {
          "name": "",
          "type": "uint256"
        }
      ],
      "payable": false,
      "stateMutability": "view",
      "type": "function"
    },
    {
      "constant": true,
      "inputs": [],
      "name": "owner",
      "outputs": [
        {
          "name": "",
          "type": "address"
        }
      ],
      "payable": false,
      "stateMutability": "view",
      "type": "function"
    },
    {
      "constant": true,
      "inputs": [],
      "name": "MAX_MILESTONE",
      "outputs": [
        {
          "name": "",
          "type": "uint256"
        }
      ],
      "payable": false,
      "stateMutability": "view",
      "type": "function"
    },
    {
      "constant": true,
      "inputs": [
        {
          "name": "",
          "type": "uint256"
        }
      ],
      "name": "milestones",
      "outputs": [
        {
          "name": "time",
          "type": "uint256"
        },
        {
          "name": "price",
          "type": "uint256"
        }
      ],
      "payable": false,
      "stateMutability": "view",
      "type": "function"
    },
    {
      "constant": true,
      "inputs": [
        {
          "name": "",
          "type": "address"
        }
      ],
      "name": "preicoAddresses",
      "outputs": [
        {
          "name": "",
          "type": "uint256"
        }
      ],
      "payable": false,
      "stateMutability": "view",
      "type": "function"
    },
    {
      "constant": false,
      "inputs": [
        {
          "name": "newOwner",
          "type": "address"
        }
      ],
      "name": "transferOwnership",
      "outputs": [],
      "payable": false,
      "stateMutability": "nonpayable",
      "type": "function"
    },
    {
      "inputs": [
        {
          "name": "_milestones",
          "type": "uint256[]"
        }
      ],
      "payable": false,
      "stateMutability": "nonpayable",
      "type": "constructor"
    },
    {
      "payable": true,
      "stateMutability": "payable",
      "type": "fallback"
    },
    {
      "anonymous": false,
      "inputs": [
        {
          "indexed": true,
          "name": "previousOwner",
          "type": "address"
        },
        {
          "indexed": true,
          "name": "newOwner",
          "type": "address"
        }
      ],
      "name": "OwnershipTransferred",
      "type": "event"
    },
    {
      "constant": false,
      "inputs": [
        {
          "name": "preicoAddress",
          "type": "address"
        },
        {
          "name": "pricePerToken",
          "type": "uint256"
        }
      ],
      "name": "setPreicoAddress",
      "outputs": [],
      "payable": false,
      "stateMutability": "nonpayable",
      "type": "function"
    },
    {
      "constant": true,
      "inputs": [
        {
          "name": "n",
          "type": "uint256"
        }
      ],
      "name": "getMilestone",
      "outputs": [
        {
          "name": "",
          "type": "uint256"
        },
        {
          "name": "",
          "type": "uint256"
        }
      ],
      "payable": false,
      "stateMutability": "view",
      "type": "function"
    },
    {
      "constant": true,
      "inputs": [],
      "name": "getPricingStartsAt",
      "outputs": [
        {
          "name": "",
          "type": "uint256"
        }
      ],
      "payable": false,
      "stateMutability": "view",
      "type": "function"
    },
    {
      "constant": true,
      "inputs": [],
      "name": "getPricingEndsAt",
      "outputs": [
        {
          "name": "",
          "type": "uint256"
        }
      ],
      "payable": false,
      "stateMutability": "view",
      "type": "function"
    },
    {
      "constant": true,
      "inputs": [
        {
          "name": "_crowdsale",
          "type": "address"
        }
      ],
      "name": "isSane",
      "outputs": [
        {
          "name": "",
          "type": "bool"
        }
      ],
      "payable": false,
      "stateMutability": "view",
      "type": "function"
    },
    {
      "constant": true,
      "inputs": [],
      "name": "getCurrentPrice",
      "outputs": [
        {
          "name": "result",
          "type": "uint256"
        }
      ],
      "payable": false,
      "stateMutability": "view",
      "type": "function"
    },
    {
      "constant": true,
      "inputs": [
        {
          "name": "value",
          "type": "uint256"
        },
        {
          "name": "weiRaised",
          "type": "uint256"
        },
        {
          "name": "tokensSold",
          "type": "uint256"
        },
        {
          "name": "msgSender",
          "type": "address"
        },
        {
          "name": "decimals",
          "type": "uint256"
        }
      ],
      "name": "calculatePrice",
      "outputs": [
        {
          "name": "",
          "type": "uint256"
        }
      ],
      "payable": false,
      "stateMutability": "view",
      "type": "function"
    },
    {
      "constant": true,
      "inputs": [
        {
          "name": "purchaser",
          "type": "address"
        }
      ],
      "name": "isPresalePurchase",
      "outputs": [
        {
          "name": "",
          "type": "bool"
        }
      ],
      "payable": false,
      "stateMutability": "view",
      "type": "function"
    }
  ],
  "bytecode": "0x608060405234801561001057600080fd5b5060405162000eda38038062000eda83398101806040528101908080518201929190505050600080336000806101000a81548173ffffffffffffffffffffffffffffffffffffffff021916908373ffffffffffffffffffffffffffffffffffffffff16021790555060016002845181151561008757fe5b06148061009957506002600a02835110155b156100a357600080fd5b600283518115156100b057fe5b0460168190555060009150600090505b600283518115156100cd57fe5b048110156101995782600282028151811015156100e657fe5b90602001906020020151600282600a811015156100ff57fe5b6002020160000181905550826001600283020181518110151561011e57fe5b90602001906020020151600282600a8110151561013757fe5b600202016001018190555060008214158015610169575081600282600a8110151561015e57fe5b600202016000015411155b1561017357600080fd5b600281600a8110151561018257fe5b6002020160000154915080806001019150506100c0565b60006002600160165403600a811015156101af57fe5b60020201600101541415156101c357600080fd5b505050610d0480620001d66000396000f3006080604052600436106100db576000357c0100000000000000000000000000000000000000000000000000000000900463ffffffff16806304bbc255146100e05780630681ca551461010f57806318a4155e1461013a5780632442e1cb146101b95780632c9a0a95146102015780636f079f901461022c5780638da5cb5b146102575780638e768288146102ae57806396821fc114610309578063e474f97a14610334578063e89e4ed614610381578063eb91d37e146103c9578063f14ae17d146103f4578063f1ef9a081461044f578063f2fde38b146104a6575b600080fd5b3480156100ec57600080fd5b506100f56104e9565b604051808215151515815260200191505060405180910390f35b34801561011b57600080fd5b506101246104f2565b6040518082815260200191505060405180910390f35b34801561014657600080fd5b506101a3600480360381019080803590602001909291908035906020019092919080359060200190929190803573ffffffffffffffffffffffffffffffffffffffff169060200190929190803590602001909291905050506104f8565b6040518082815260200191505060405180910390f35b3480156101c557600080fd5b506101e46004803603810190808035906020019092919050505061071f565b604051808381526020018281526020019250505060405180910390f35b34801561020d57600080fd5b50610216610759565b6040518082815260200191505060405180910390f35b34801561023857600080fd5b5061024161076c565b6040518082815260200191505060405180910390f35b34801561026357600080fd5b5061026c61077f565b604051808273ffffffffffffffffffffffffffffffffffffffff1673ffffffffffffffffffffffffffffffffffffffff16815260200191505060405180910390f35b3480156102ba57600080fd5b506102ef600480360381019080803573ffffffffffffffffffffffffffffffffffffffff1690602001909291905050506107a4565b604051808215151515815260200191505060405180910390f35b34801561031557600080fd5b5061031e61090a565b6040518082815260200191505060405180910390f35b34801561034057600080fd5b5061037f600480360381019080803573ffffffffffffffffffffffffffffffffffffffff1690602001909291908035906020019092919050505061090f565b005b34801561038d57600080fd5b506103ac600480360381019080803590602001909291905050506109b2565b604051808381526020018281526020019250505060405180910390f35b3480156103d557600080fd5b506103de6109db565b6040518082815260200191505060405180910390f35b34801561040057600080fd5b50610435600480360381019080803573ffffffffffffffffffffffffffffffffffffffff1690602001909291905050506109ee565b604051808215151515815260200191505060405180910390f35b34801561045b57600080fd5b50610490600480360381019080803573ffffffffffffffffffffffffffffffffffffffff169060200190929190505050610a4a565b6040518082815260200191505060405180910390f35b3480156104b257600080fd5b506104e7600480360381019080803573ffffffffffffffffffffffffffffffffffffffff169060200190929190505050610a62565b005b60006001905090565b60165481565b600080600083600a0a91506000600160008773ffffffffffffffffffffffffffffffffffffffff1673ffffffffffffffffffffffffffffffffffffffff16815260200190815260200160002054111561064c57600160008673ffffffffffffffffffffffffffffffffffffffff1673ffffffffffffffffffffffffffffffffffffffff168152602001908152602001600020548873__SafeMathLib___________________________631d3b9edf9091856040518363ffffffff167c0100000000000000000000000000000000000000000000000000000000028152600401808381526020018281526020019250505060206040518083038186803b15801561060057600080fd5b505af4158015610614573d6000803e3d6000fd5b505050506040513d602081101561062a57600080fd5b810190808051906020019092919050505081151561064457fe5b049250610714565b6106546109db565b9050808873__SafeMathLib___________________________631d3b9edf9091856040518363ffffffff167c0100000000000000000000000000000000000000000000000000000000028152600401808381526020018281526020019250505060206040518083038186803b1580156106cc57600080fd5b505af41580156106e0573d6000803e3d6000fd5b505050506040513d60208110156106f657600080fd5b810190808051906020019092919050505081151561071057fe5b0492505b505095945050505050565b600080600283600a8110151561073157fe5b6002020160000154600284600a8110151561074857fe5b600202016001015491509150915091565b6000610763610bb7565b60000151905090565b6000610776610bf7565b60000151905090565b6000809054906101000a900473ffffffffffffffffffffffffffffffffffffffff1681565b6000808290506107b2610759565b8173ffffffffffffffffffffffffffffffffffffffff1663af4686826040518163ffffffff167c0100000000000000000000000000000000000000000000000000000000028152600401602060405180830381600087803b15801561081657600080fd5b505af115801561082a573d6000803e3d6000fd5b505050506040513d602081101561084057600080fd5b8101908080519060200190929190505050148015610902575061086161076c565b8173ffffffffffffffffffffffffffffffffffffffff16630a09284a6040518163ffffffff167c0100000000000000000000000000000000000000000000000000000000028152600401602060405180830381600087803b1580156108c557600080fd5b505af11580156108d9573d6000803e3d6000fd5b505050506040513d60208110156108ef57600080fd5b8101908080519060200190929190505050145b915050919050565b600a81565b6000809054906101000a900473ffffffffffffffffffffffffffffffffffffffff1673ffffffffffffffffffffffffffffffffffffffff163373ffffffffffffffffffffffffffffffffffffffff1614151561096a57600080fd5b80600160008473ffffffffffffffffffffffffffffffffffffffff1673ffffffffffffffffffffffffffffffffffffffff168152602001908152602001600020819055505050565b600281600a811015156109c157fe5b600202016000915090508060000154908060010154905082565b60006109e5610c3b565b60200151905090565b600080600160008473ffffffffffffffffffffffffffffffffffffffff1673ffffffffffffffffffffffffffffffffffffffff168152602001908152602001600020541115610a405760019050610a45565b600090505b919050565b60016020528060005260406000206000915090505481565b6000809054906101000a900473ffffffffffffffffffffffffffffffffffffffff1673ffffffffffffffffffffffffffffffffffffffff163373ffffffffffffffffffffffffffffffffffffffff16141515610abd57600080fd5b600073ffffffffffffffffffffffffffffffffffffffff168173ffffffffffffffffffffffffffffffffffffffff1614151515610af957600080fd5b8073ffffffffffffffffffffffffffffffffffffffff166000809054906101000a900473ffffffffffffffffffffffffffffffffffffffff1673ffffffffffffffffffffffffffffffffffffffff167f8be0079c531659141344cd1fd0a4f28419497f9722a3daafe3b4186f6b6457e060405160405180910390a3806000806101000a81548173ffffffffffffffffffffffffffffffffffffffff021916908373ffffffffffffffffffffffffffffffffffffffff16021790555050565b610bbf610cbe565b60026000600a81101515610bcf57fe5b6002020160408051908101604052908160008201548152602001600182015481525050905090565b610bff610cbe565b6002600160165403600a81101515610c1357fe5b6002020160408051908101604052908160008201548152602001600182015481525050905090565b610c43610cbe565b60008090505b600a811015610cb957600281600a81101515610c6157fe5b6002020160000154421015610cac57600260018203600a81101515610c8257fe5b60020201604080519081016040529081600082015481526020016001820154815250509150610cba565b8080600101915050610c49565b5b5090565b6040805190810160405280600081526020016000815250905600a165627a7a723058201984c0618f766dccddf1d1042140f8d2a26a64c158e5d935d37118503c3e855c0029",
  "source": "/**\r\n * This smart contract code is Copyright 2017 TokenMarket Ltd. For more information see https://tokenmarket.net\r\n *\r\n * Licensed under the Apache License, version 2.0: https://github.com/TokenMarketNet/ico/blob/master/LICENSE.txt\r\n */\r\n\r\npragma solidity ^0.4.6;\r\n\r\nimport \"./PricingStrategy.sol\";\r\nimport \"./Crowdsale.sol\";\r\nimport \"./SafeMathLib.sol\";\r\nimport \"./zeppelin/contracts/ownership/Ownable.sol\";\r\n\r\n\r\n/// @dev Time milestone based pricing with special support for pre-ico deals.\r\ncontract MilestonePricing is PricingStrategy, Ownable {\r\n\r\n  using SafeMathLib for uint;\r\n\r\n  uint public constant MAX_MILESTONE = 10;\r\n\r\n  // This contains all pre-ICO addresses, and their prices (weis per token)\r\n  mapping (address => uint) public preicoAddresses;\r\n\r\n  /**\r\n  * Define pricing schedule using milestones.\r\n  */\r\n  struct Milestone {\r\n\r\n      // UNIX timestamp when this milestone kicks in\r\n      uint time;\r\n\r\n      // How many tokens per wei you will get after this milestone has been passed\r\n      uint price;\r\n  }\r\n\r\n  // Store milestones in a fixed array, so that it can be seen in a blockchain explorer\r\n  // Milestone 0 is always (0, 0)\r\n  // (TODO: change this when we confirm dynamic arrays are explorable)\r\n  Milestone[10] public milestones;\r\n\r\n  // How many active milestones we have\r\n  uint public milestoneCount;\r\n\r\n  /// @dev Contruction, creating a list of milestones\r\n  /// @param _milestones uint[] milestones Pairs of (time, price)\r\n  function MilestonePricing(uint[] _milestones) {\r\n    // Need to have tuples, length check\r\n    if(_milestones.length % 2 == 1 || _milestones.length >= MAX_MILESTONE*2) {\r\n      throw;\r\n    }\r\n\r\n    milestoneCount = _milestones.length / 2;\r\n\r\n    uint lastTimestamp = 0;\r\n\r\n    for(uint i=0; i<_milestones.length/2; i++) {\r\n      milestones[i].time = _milestones[i*2];\r\n      milestones[i].price = _milestones[i*2+1];\r\n\r\n      // No invalid steps\r\n      if((lastTimestamp != 0) && (milestones[i].time <= lastTimestamp)) {\r\n        throw;\r\n      }\r\n\r\n      lastTimestamp = milestones[i].time;\r\n    }\r\n\r\n    // Last milestone price must be zero, terminating the crowdale\r\n    if(milestones[milestoneCount-1].price != 0) {\r\n      throw;\r\n    }\r\n  }\r\n\r\n  /// @dev This is invoked once for every pre-ICO address, set pricePerToken\r\n  ///      to 0 to disable\r\n  /// @param preicoAddress PresaleFundCollector address\r\n  /// @param pricePerToken How many weis one token cost for pre-ico investors\r\n  function setPreicoAddress(address preicoAddress, uint pricePerToken)\r\n    public\r\n    onlyOwner\r\n  {\r\n    preicoAddresses[preicoAddress] = pricePerToken;\r\n  }\r\n\r\n  /// @dev Iterate through milestones. You reach end of milestones when price = 0\r\n  /// @return tuple (time, price)\r\n  function getMilestone(uint n) public constant returns (uint, uint) {\r\n    return (milestones[n].time, milestones[n].price);\r\n  }\r\n\r\n  function getFirstMilestone() private constant returns (Milestone) {\r\n    return milestones[0];\r\n  }\r\n\r\n  function getLastMilestone() private constant returns (Milestone) {\r\n    return milestones[milestoneCount-1];\r\n  }\r\n\r\n  function getPricingStartsAt() public constant returns (uint) {\r\n    return getFirstMilestone().time;\r\n  }\r\n\r\n  function getPricingEndsAt() public constant returns (uint) {\r\n    return getLastMilestone().time;\r\n  }\r\n\r\n  function isSane(address _crowdsale) public constant returns(bool) {\r\n    Crowdsale crowdsale = Crowdsale(_crowdsale);\r\n    return crowdsale.startsAt() == getPricingStartsAt() && crowdsale.endsAt() == getPricingEndsAt();\r\n  }\r\n\r\n  /// @dev Get the current milestone or bail out if we are not in the milestone periods.\r\n  /// @return {[type]} [description]\r\n  function getCurrentMilestone() private constant returns (Milestone) {\r\n    uint i;\r\n\r\n    for(i=0; i<milestones.length; i++) {\r\n      if(now < milestones[i].time) {\r\n        return milestones[i-1];\r\n      }\r\n    }\r\n  }\r\n\r\n  /// @dev Get the current price.\r\n  /// @return The current price or 0 if we are outside milestone period\r\n  function getCurrentPrice() public constant returns (uint result) {\r\n    return getCurrentMilestone().price;\r\n  }\r\n\r\n  /// @dev Calculate the current price for buy in amount.\r\n  function calculatePrice(uint value, uint weiRaised, uint tokensSold, address msgSender, uint decimals) public constant returns (uint) {\r\n\r\n    uint multiplier = 10 ** decimals;\r\n\r\n    // This investor is coming through pre-ico\r\n    if(preicoAddresses[msgSender] > 0) {\r\n      return value.times(multiplier) / preicoAddresses[msgSender];\r\n    }\r\n\r\n    uint price = getCurrentPrice();\r\n    return value.times(multiplier) / price;\r\n  }\r\n\r\n  function isPresalePurchase(address purchaser) public constant returns (bool) {\r\n    if(preicoAddresses[purchaser] > 0)\r\n      return true;\r\n    else\r\n      return false;\r\n  }\r\n\r\n  function() payable {\r\n    throw; // No money on this contract\r\n  }\r\n\r\n}\r\n",
  "sourcePath": "D:\\trees\\tokenmint\\contracts\\tokenmarketnet-contracts\\contracts\\MilestonePricing.sol",
  "compiler": {
    "name": "solc",
    "version": "0.4.24+commit.e67f0147.Emscripten.clang"
  },
  "schemaVersion": "2.0.1",
  "updatedAt": "2018-12-10T14:03:30.266Z"
}