{
  "contractName": "MintedTokenCappedCrowdsale",
  "abi": [
    {
      "constant": true,
      "inputs": [],
      "name": "ownerTestValue",
      "outputs": [
        {
          "name": "",
          "type": "uint256"
        }
      ],
      "payable": false,
      "stateMutability": "view",
      "type": "function"
    },
    {
      "constant": true,
      "inputs": [],
      "name": "requireCustomerId",
      "outputs": [
        {
          "name": "",
          "type": "bool"
        }
      ],
      "payable": false,
      "stateMutability": "view",
      "type": "function"
    },
    {
      "constant": false,
      "inputs": [
        {
          "name": "addr",
          "type": "address"
        }
      ],
      "name": "invest",
      "outputs": [],
      "payable": true,
      "stateMutability": "payable",
      "type": "function"
    },
    {
      "constant": true,
      "inputs": [],
      "name": "isPricingSane",
      "outputs": [
        {
          "name": "sane",
          "type": "bool"
        }
      ],
      "payable": false,
      "stateMutability": "view",
      "type": "function"
    },
    {
      "constant": true,
      "inputs": [],
      "name": "endsAt",
      "outputs": [
        {
          "name": "",
          "type": "uint256"
        }
      ],
      "payable": false,
      "stateMutability": "view",
      "type": "function"
    },
    {
      "constant": true,
      "inputs": [],
      "name": "minimumFundingGoal",
      "outputs": [
        {
          "name": "",
          "type": "uint256"
        }
      ],
      "payable": false,
      "stateMutability": "view",
      "type": "function"
    },
    {
      "constant": true,
      "inputs": [],
      "name": "getState",
      "outputs": [
        {
          "name": "",
          "type": "uint8"
        }
      ],
      "payable": false,
      "stateMutability": "view",
      "type": "function"
    },
    {
      "constant": false,
      "inputs": [
        {
          "name": "addr",
          "type": "address"
        }
      ],
      "name": "setFinalizeAgent",
      "outputs": [],
      "payable": false,
      "stateMutability": "nonpayable",
      "type": "function"
    },
    {
      "constant": false,
      "inputs": [
        {
          "name": "addr",
          "type": "address"
        },
        {
          "name": "customerId",
          "type": "uint128"
        },
        {
          "name": "v",
          "type": "uint8"
        },
        {
          "name": "r",
          "type": "bytes32"
        },
        {
          "name": "s",
          "type": "bytes32"
        }
      ],
      "name": "investWithSignedAddress",
      "outputs": [],
      "payable": true,
      "stateMutability": "payable",
      "type": "function"
    },
    {
      "constant": true,
      "inputs": [
        {
          "name": "",
          "type": "address"
        }
      ],
      "name": "investedAmountOf",
      "outputs": [
        {
          "name": "",
          "type": "uint256"
        }
      ],
      "payable": false,
      "stateMutability": "view",
      "type": "function"
    },
    {
      "constant": true,
      "inputs": [],
      "name": "finalizeAgent",
      "outputs": [
        {
          "name": "",
          "type": "address"
        }
      ],
      "payable": false,
      "stateMutability": "view",
      "type": "function"
    },
    {
      "constant": false,
      "inputs": [
        {
          "name": "receiver",
          "type": "address"
        },
        {
          "name": "fullTokens",
          "type": "uint256"
        },
        {
          "name": "weiPrice",
          "type": "uint256"
        }
      ],
      "name": "preallocate",
      "outputs": [],
      "payable": false,
      "stateMutability": "nonpayable",
      "type": "function"
    },
    {
      "constant": true,
      "inputs": [],
      "name": "maximumSellableTokens",
      "outputs": [
        {
          "name": "",
          "type": "uint256"
        }
      ],
      "payable": false,
      "stateMutability": "view",
      "type": "function"
    },
    {
      "constant": true,
      "inputs": [],
      "name": "weiRaised",
      "outputs": [
        {
          "name": "",
          "type": "uint256"
        }
      ],
      "payable": false,
      "stateMutability": "view",
      "type": "function"
    },
    {
      "constant": true,
      "inputs": [],
      "name": "isCrowdsale",
      "outputs": [
        {
          "name": "",
          "type": "bool"
        }
      ],
      "payable": false,
      "stateMutability": "view",
      "type": "function"
    },
    {
      "constant": false,
      "inputs": [],
      "name": "finalize",
      "outputs": [],
      "payable": false,
      "stateMutability": "nonpayable",
      "type": "function"
    },
    {
      "constant": false,
      "inputs": [
        {
          "name": "_pricingStrategy",
          "type": "address"
        }
      ],
      "name": "setPricingStrategy",
      "outputs": [],
      "payable": false,
      "stateMutability": "nonpayable",
      "type": "function"
    },
    {
      "constant": true,
      "inputs": [],
      "name": "tokensSold",
      "outputs": [
        {
          "name": "",
          "type": "uint256"
        }
      ],
      "payable": false,
      "stateMutability": "view",
      "type": "function"
    },
    {
      "constant": false,
      "inputs": [],
      "name": "refund",
      "outputs": [],
      "payable": false,
      "stateMutability": "nonpayable",
      "type": "function"
    },
    {
      "constant": true,
      "inputs": [],
      "name": "signerAddress",
      "outputs": [
        {
          "name": "",
          "type": "address"
        }
      ],
      "payable": false,
      "stateMutability": "view",
      "type": "function"
    },
    {
      "constant": true,
      "inputs": [],
      "name": "weiRefunded",
      "outputs": [
        {
          "name": "",
          "type": "uint256"
        }
      ],
      "payable": false,
      "stateMutability": "view",
      "type": "function"
    },
    {
      "constant": false,
      "inputs": [],
      "name": "halt",
      "outputs": [],
      "payable": false,
      "stateMutability": "nonpayable",
      "type": "function"
    },
    {
      "constant": true,
      "inputs": [],
      "name": "MAX_INVESTMENTS_BEFORE_MULTISIG_CHANGE",
      "outputs": [
        {
          "name": "",
          "type": "uint256"
        }
      ],
      "payable": false,
      "stateMutability": "view",
      "type": "function"
    },
    {
      "constant": false,
      "inputs": [
        {
          "name": "customerId",
          "type": "uint128"
        },
        {
          "name": "checksum",
          "type": "bytes1"
        }
      ],
      "name": "buyWithCustomerIdWithChecksum",
      "outputs": [],
      "payable": true,
      "stateMutability": "payable",
      "type": "function"
    },
    {
      "constant": false,
      "inputs": [
        {
          "name": "time",
          "type": "uint256"
        }
      ],
      "name": "setEndsAt",
      "outputs": [],
      "payable": false,
      "stateMutability": "nonpayable",
      "type": "function"
    },
    {
      "constant": true,
      "inputs": [],
      "name": "pricingStrategy",
      "outputs": [
        {
          "name": "",
          "type": "address"
        }
      ],
      "payable": false,
      "stateMutability": "view",
      "type": "function"
    },
    {
      "constant": true,
      "inputs": [],
      "name": "loadedRefund",
      "outputs": [
        {
          "name": "",
          "type": "uint256"
        }
      ],
      "payable": false,
      "stateMutability": "view",
      "type": "function"
    },
    {
      "constant": true,
      "inputs": [],
      "name": "isMinimumGoalReached",
      "outputs": [
        {
          "name": "reached",
          "type": "bool"
        }
      ],
      "payable": false,
      "stateMutability": "view",
      "type": "function"
    },
    {
      "constant": false,
      "inputs": [
        {
          "name": "value",
          "type": "bool"
        }
      ],
      "name": "setRequireCustomerId",
      "outputs": [],
      "payable": false,
      "stateMutability": "nonpayable",
      "type": "function"
    },
    {
      "constant": false,
      "inputs": [],
      "name": "loadRefund",
      "outputs": [],
      "payable": true,
      "stateMutability": "payable",
      "type": "function"
    },
    {
      "constant": false,
      "inputs": [
        {
          "name": "val",
          "type": "uint256"
        }
      ],
      "name": "setOwnerTestValue",
      "outputs": [],
      "payable": false,
      "stateMutability": "nonpayable",
      "type": "function"
    },
    {
      "constant": true,
      "inputs": [],
      "name": "owner",
      "outputs": [
        {
          "name": "",
          "type": "address"
        }
      ],
      "payable": false,
      "stateMutability": "view",
      "type": "function"
    },
    {
      "constant": true,
      "inputs": [
        {
          "name": "weisTotal",
          "type": "uint256"
        },
        {
          "name": "pricePerToken",
          "type": "uint256"
        }
      ],
      "name": "calculateTokens",
      "outputs": [
        {
          "name": "tokensTotal",
          "type": "uint256"
        }
      ],
      "payable": false,
      "stateMutability": "view",
      "type": "function"
    },
    {
      "constant": true,
      "inputs": [],
      "name": "multisigWallet",
      "outputs": [
        {
          "name": "",
          "type": "address"
        }
      ],
      "payable": false,
      "stateMutability": "view",
      "type": "function"
    },
    {
      "constant": true,
      "inputs": [
        {
          "name": "",
          "type": "address"
        }
      ],
      "name": "tokenAmountOf",
      "outputs": [
        {
          "name": "",
          "type": "uint256"
        }
      ],
      "payable": false,
      "stateMutability": "view",
      "type": "function"
    },
    {
      "constant": false,
      "inputs": [
        {
          "name": "customerId",
          "type": "uint128"
        }
      ],
      "name": "buyWithCustomerId",
      "outputs": [],
      "payable": true,
      "stateMutability": "payable",
      "type": "function"
    },
    {
      "constant": false,
      "inputs": [],
      "name": "buy",
      "outputs": [],
      "payable": true,
      "stateMutability": "payable",
      "type": "function"
    },
    {
      "constant": true,
      "inputs": [],
      "name": "isFinalizerSane",
      "outputs": [
        {
          "name": "sane",
          "type": "bool"
        }
      ],
      "payable": false,
      "stateMutability": "view",
      "type": "function"
    },
    {
      "constant": true,
      "inputs": [],
      "name": "startsAt",
      "outputs": [
        {
          "name": "",
          "type": "uint256"
        }
      ],
      "payable": false,
      "stateMutability": "view",
      "type": "function"
    },
    {
      "constant": true,
      "inputs": [],
      "name": "finalized",
      "outputs": [
        {
          "name": "",
          "type": "bool"
        }
      ],
      "payable": false,
      "stateMutability": "view",
      "type": "function"
    },
    {
      "constant": true,
      "inputs": [],
      "name": "halted",
      "outputs": [
        {
          "name": "",
          "type": "bool"
        }
      ],
      "payable": false,
      "stateMutability": "view",
      "type": "function"
    },
    {
      "constant": true,
      "inputs": [
        {
          "name": "",
          "type": "address"
        }
      ],
      "name": "earlyParticipantWhitelist",
      "outputs": [
        {
          "name": "",
          "type": "bool"
        }
      ],
      "payable": false,
      "stateMutability": "view",
      "type": "function"
    },
    {
      "constant": false,
      "inputs": [],
      "name": "unhalt",
      "outputs": [],
      "payable": false,
      "stateMutability": "nonpayable",
      "type": "function"
    },
    {
      "constant": true,
      "inputs": [],
      "name": "requiredSignedAddress",
      "outputs": [
        {
          "name": "",
          "type": "bool"
        }
      ],
      "payable": false,
      "stateMutability": "view",
      "type": "function"
    },
    {
      "constant": true,
      "inputs": [],
      "name": "investorCount",
      "outputs": [
        {
          "name": "",
          "type": "uint256"
        }
      ],
      "payable": false,
      "stateMutability": "view",
      "type": "function"
    },
    {
      "constant": false,
      "inputs": [
        {
          "name": "addr",
          "type": "address"
        },
        {
          "name": "status",
          "type": "bool"
        }
      ],
      "name": "setEarlyParicipantWhitelist",
      "outputs": [],
      "payable": false,
      "stateMutability": "nonpayable",
      "type": "function"
    },
    {
      "constant": false,
      "inputs": [
        {
          "name": "value",
          "type": "bool"
        },
        {
          "name": "_signerAddress",
          "type": "address"
        }
      ],
      "name": "setRequireSignedAddress",
      "outputs": [],
      "payable": false,
      "stateMutability": "nonpayable",
      "type": "function"
    },
    {
      "constant": false,
      "inputs": [
        {
          "name": "addr",
          "type": "address"
        },
        {
          "name": "customerId",
          "type": "uint128"
        }
      ],
      "name": "investWithCustomerId",
      "outputs": [],
      "payable": true,
      "stateMutability": "payable",
      "type": "function"
    },
    {
      "constant": false,
      "inputs": [
        {
          "name": "newOwner",
          "type": "address"
        }
      ],
      "name": "transferOwnership",
      "outputs": [],
      "payable": false,
      "stateMutability": "nonpayable",
      "type": "function"
    },
    {
      "constant": false,
      "inputs": [
        {
          "name": "addr",
          "type": "address"
        }
      ],
      "name": "setMultisig",
      "outputs": [],
      "payable": false,
      "stateMutability": "nonpayable",
      "type": "function"
    },
    {
      "constant": false,
      "inputs": [
        {
          "name": "customerId",
          "type": "uint128"
        },
        {
          "name": "v",
          "type": "uint8"
        },
        {
          "name": "r",
          "type": "bytes32"
        },
        {
          "name": "s",
          "type": "bytes32"
        }
      ],
      "name": "buyWithSignedAddress",
      "outputs": [],
      "payable": true,
      "stateMutability": "payable",
      "type": "function"
    },
    {
      "constant": true,
      "inputs": [],
      "name": "presaleWeiRaised",
      "outputs": [
        {
          "name": "",
          "type": "uint256"
        }
      ],
      "payable": false,
      "stateMutability": "view",
      "type": "function"
    },
    {
      "constant": true,
      "inputs": [],
      "name": "token",
      "outputs": [
        {
          "name": "",
          "type": "address"
        }
      ],
      "payable": false,
      "stateMutability": "view",
      "type": "function"
    },
    {
      "inputs": [
        {
          "name": "_token",
          "type": "address"
        },
        {
          "name": "_pricingStrategy",
          "type": "address"
        },
        {
          "name": "_multisigWallet",
          "type": "address"
        },
        {
          "name": "_start",
          "type": "uint256"
        },
        {
          "name": "_end",
          "type": "uint256"
        },
        {
          "name": "_minimumFundingGoal",
          "type": "uint256"
        },
        {
          "name": "_maximumSellableTokens",
          "type": "uint256"
        }
      ],
      "payable": false,
      "stateMutability": "nonpayable",
      "type": "constructor"
    },
    {
      "payable": true,
      "stateMutability": "payable",
      "type": "fallback"
    },
    {
      "anonymous": false,
      "inputs": [
        {
          "indexed": false,
          "name": "investor",
          "type": "address"
        },
        {
          "indexed": false,
          "name": "weiAmount",
          "type": "uint256"
        },
        {
          "indexed": false,
          "name": "tokenAmount",
          "type": "uint256"
        },
        {
          "indexed": false,
          "name": "customerId",
          "type": "uint128"
        }
      ],
      "name": "Invested",
      "type": "event"
    },
    {
      "anonymous": false,
      "inputs": [
        {
          "indexed": false,
          "name": "investor",
          "type": "address"
        },
        {
          "indexed": false,
          "name": "weiAmount",
          "type": "uint256"
        }
      ],
      "name": "Refund",
      "type": "event"
    },
    {
      "anonymous": false,
      "inputs": [
        {
          "indexed": false,
          "name": "newRequireCustomerId",
          "type": "bool"
        },
        {
          "indexed": false,
          "name": "newRequiredSignedAddress",
          "type": "bool"
        },
        {
          "indexed": false,
          "name": "newSignerAddress",
          "type": "address"
        }
      ],
      "name": "InvestmentPolicyChanged",
      "type": "event"
    },
    {
      "anonymous": false,
      "inputs": [
        {
          "indexed": false,
          "name": "addr",
          "type": "address"
        },
        {
          "indexed": false,
          "name": "status",
          "type": "bool"
        }
      ],
      "name": "Whitelisted",
      "type": "event"
    },
    {
      "anonymous": false,
      "inputs": [
        {
          "indexed": false,
          "name": "newEndsAt",
          "type": "uint256"
        }
      ],
      "name": "EndsAtChanged",
      "type": "event"
    },
    {
      "anonymous": false,
      "inputs": [
        {
          "indexed": true,
          "name": "previousOwner",
          "type": "address"
        },
        {
          "indexed": true,
          "name": "newOwner",
          "type": "address"
        }
      ],
      "name": "OwnershipTransferred",
      "type": "event"
    },
    {
      "constant": true,
      "inputs": [
        {
          "name": "weiAmount",
          "type": "uint256"
        },
        {
          "name": "tokenAmount",
          "type": "uint256"
        },
        {
          "name": "weiRaisedTotal",
          "type": "uint256"
        },
        {
          "name": "tokensSoldTotal",
          "type": "uint256"
        }
      ],
      "name": "isBreakingCap",
      "outputs": [
        {
          "name": "limitBroken",
          "type": "bool"
        }
      ],
      "payable": false,
      "stateMutability": "view",
      "type": "function"
    },
    {
      "constant": true,
      "inputs": [],
      "name": "isCrowdsaleFull",
      "outputs": [
        {
          "name": "",
          "type": "bool"
        }
      ],
      "payable": false,
      "stateMutability": "view",
      "type": "function"
    }
  ],
  "bytecode": "0x6080604052600560015560006009556000600a556000600b556000600c556000600d556000600e553480156200003457600080fd5b5060405160e080620036f683398101806040528101908080519060200190929190805190602001909291908051906020019092919080519060200190929190805190602001909291908051906020019092919080519060200190929190505050868686868686858585858585336000806101000a81548173ffffffffffffffffffffffffffffffffffffffff021916908373ffffffffffffffffffffffffffffffffffffffff160217905550336000806101000a81548173ffffffffffffffffffffffffffffffffffffffff021916908373ffffffffffffffffffffffffffffffffffffffff16021790555085600260006101000a81548173ffffffffffffffffffffffffffffffffffffffff021916908373ffffffffffffffffffffffffffffffffffffffff1602179055506200017b8562000269640100000000026401000000009004565b83600560006101000a81548173ffffffffffffffffffffffffffffffffffffffff021916908373ffffffffffffffffffffffffffffffffffffffff1602179055506000600560009054906101000a900473ffffffffffffffffffffffffffffffffffffffff1673ffffffffffffffffffffffffffffffffffffffff1614156200020357600080fd5b60008314156200021257600080fd5b8260078190555060008214156200022857600080fd5b816008819055506008546007541015156200024257600080fd5b806006819055505050505050505050505050508060158190555050505050505050620003d9565b6000809054906101000a900473ffffffffffffffffffffffffffffffffffffffff1673ffffffffffffffffffffffffffffffffffffffff163373ffffffffffffffffffffffffffffffffffffffff16141515620002c557600080fd5b80600360006101000a81548173ffffffffffffffffffffffffffffffffffffffff021916908373ffffffffffffffffffffffffffffffffffffffff160217905550600360009054906101000a900473ffffffffffffffffffffffffffffffffffffffff1673ffffffffffffffffffffffffffffffffffffffff166304bbc2556040518163ffffffff167c0100000000000000000000000000000000000000000000000000000000028152600401602060405180830381600087803b1580156200038d57600080fd5b505af1158015620003a2573d6000803e3d6000fd5b505050506040513d6020811015620003b957600080fd5b81019080805190602001909291905050501515620003d657600080fd5b50565b61330d80620003e96000396000f300608060405260043610610293576000357c0100000000000000000000000000000000000000000000000000000000900463ffffffff1680630226401d1461029857806303ca0eed146102c357806303f9c793146102f2578063062b01ce146103285780630a09284a1461035757806313f4e977146103825780631865c57d146103ad57806319b667da146103e65780631a49803b146104295780631aae3460146104a457806321d5c0f6146104fb57806332013ac3146105525780633ad075ea146105a95780634042b66f146105d45780634551dd59146105ff5780634bb278f31461062e57806350c6773414610645578063518ab2a814610688578063590e1ae3146106b35780635b7633d0146106ca5780635da89ac0146107215780635ed7ca5b1461074c5780636203f09f1461076357806363c6082f1461078e5780636e50eb3f146107ec57806378b99c2414610819578063797d9437146108705780637c2e08a31461089b5780637f7d711e146108ca57806387612102146108f95780638d51faec146109035780638da5cb5b14610930578063903cc583146109875780639075becf146109d257806397b150ca14610a2957806399e9376c14610a805780639d3c663f14610ab2578063a6f2ae3a14610b15578063a7ba44c314610b1f578063af46868214610b4e578063b3f05b9714610b79578063b9b8af0b14610ba8578063cb16e6d014610bd7578063cb3e64fd14610c32578063d222dc0414610c49578063d5d0902114610c78578063d7e64c0014610ca7578063eac2493214610cd2578063ed68ff2c14610d21578063ef86944314610d70578063f2fde38b14610dc2578063f3283fba14610e05578063f486972614610e48578063f7c00e2f14610ea3578063fc0c546a14610ece575b600080fd5b3480156102a457600080fd5b506102ad610f25565b6040518082815260200191505060405180910390f35b3480156102cf57600080fd5b506102d8610f2b565b604051808215151515815260200191505060405180910390f35b610326600480360381019080803573ffffffffffffffffffffffffffffffffffffffff169060200190929190505050610f3e565b005b34801561033457600080fd5b5061033d610f81565b604051808215151515815260200191505060405180910390f35b34801561036357600080fd5b5061036c611080565b6040518082815260200191505060405180910390f35b34801561038e57600080fd5b50610397611086565b6040518082815260200191505060405180910390f35b3480156103b957600080fd5b506103c261108c565b604051808260078111156103d257fe5b60ff16815260200191505060405180910390f35b3480156103f257600080fd5b50610427600480360381019080803573ffffffffffffffffffffffffffffffffffffffff169060200190929190505050611347565b005b6104a2600480360381019080803573ffffffffffffffffffffffffffffffffffffffff16906020019092919080356fffffffffffffffffffffffffffffffff169060200190929190803560ff169060200190929190803560001916906020019092919080356000191690602001909291905050506114b2565b005b3480156104b057600080fd5b506104e5600480360381019080803573ffffffffffffffffffffffffffffffffffffffff169060200190929190505050611655565b6040518082815260200191505060405180910390f35b34801561050757600080fd5b5061051061166d565b604051808273ffffffffffffffffffffffffffffffffffffffff1673ffffffffffffffffffffffffffffffffffffffff16815260200191505060405180910390f35b34801561055e57600080fd5b506105a7600480360381019080803573ffffffffffffffffffffffffffffffffffffffff1690602001909291908035906020019092919080359060200190929190505050611693565b005b3480156105b557600080fd5b506105be6119bd565b6040518082815260200191505060405180910390f35b3480156105e057600080fd5b506105e96119c3565b6040518082815260200191505060405180910390f35b34801561060b57600080fd5b506106146119c9565b604051808215151515815260200191505060405180910390f35b34801561063a57600080fd5b506106436119d2565b005b34801561065157600080fd5b50610686600480360381019080803573ffffffffffffffffffffffffffffffffffffffff169060200190929190505050611b8d565b005b34801561069457600080fd5b5061069d611cf8565b6040518082815260200191505060405180910390f35b3480156106bf57600080fd5b506106c8611cfe565b005b3480156106d657600080fd5b506106df611e8c565b604051808273ffffffffffffffffffffffffffffffffffffffff1673ffffffffffffffffffffffffffffffffffffffff16815260200191505060405180910390f35b34801561072d57600080fd5b50610736611eb2565b6040518082815260200191505060405180910390f35b34801561075857600080fd5b50610761611eb8565b005b34801561076f57600080fd5b50610778611f30565b6040518082815260200191505060405180910390f35b6107ea60048036038101908080356fffffffffffffffffffffffffffffffff16906020019092919080357effffffffffffffffffffffffffffffffffffffffffffffffffffffffffffff19169060200190929190505050611f36565b005b3480156107f857600080fd5b5061081760048036038101908080359060200190929190505050611fe2565b005b34801561082557600080fd5b5061082e61209c565b604051808273ffffffffffffffffffffffffffffffffffffffff1673ffffffffffffffffffffffffffffffffffffffff16815260200191505060405180910390f35b34801561087c57600080fd5b506108856120c2565b6040518082815260200191505060405180910390f35b3480156108a757600080fd5b506108b06120c8565b604051808215151515815260200191505060405180910390f35b3480156108d657600080fd5b506108f76004803603810190808035151590602001909291905050506120d7565b005b61090161220a565b005b34801561090f57600080fd5b5061092e60048036038101908080359060200190929190505050612263565b005b34801561093c57600080fd5b506109456122c8565b604051808273ffffffffffffffffffffffffffffffffffffffff1673ffffffffffffffffffffffffffffffffffffffff16815260200191505060405180910390f35b34801561099357600080fd5b506109bc60048036038101908080359060200190929190803590602001909291905050506122ed565b6040518082815260200191505060405180910390f35b3480156109de57600080fd5b506109e76123dd565b604051808273ffffffffffffffffffffffffffffffffffffffff1673ffffffffffffffffffffffffffffffffffffffff16815260200191505060405180910390f35b348015610a3557600080fd5b50610a6a600480360381019080803573ffffffffffffffffffffffffffffffffffffffff169060200190929190505050612403565b6040518082815260200191505060405180910390f35b610ab060048036038101908080356fffffffffffffffffffffffffffffffff16906020019092919050505061241b565b005b348015610abe57600080fd5b50610afb60048036038101908080359060200190929190803590602001909291908035906020019092919080359060200190929190505050612428565b604051808215151515815260200191505060405180910390f35b610b1d612439565b005b348015610b2b57600080fd5b50610b34612444565b604051808215151515815260200191505060405180910390f35b348015610b5a57600080fd5b50610b6361250c565b6040518082815260200191505060405180910390f35b348015610b8557600080fd5b50610b8e612512565b604051808215151515815260200191505060405180910390f35b348015610bb457600080fd5b50610bbd612525565b604051808215151515815260200191505060405180910390f35b348015610be357600080fd5b50610c18600480360381019080803573ffffffffffffffffffffffffffffffffffffffff169060200190929190505050612538565b604051808215151515815260200191505060405180910390f35b348015610c3e57600080fd5b50610c47612558565b005b348015610c5557600080fd5b50610c5e6125ea565b604051808215151515815260200191505060405180910390f35b348015610c8457600080fd5b50610c8d6125fd565b604051808215151515815260200191505060405180910390f35b348015610cb357600080fd5b50610cbc61260c565b6040518082815260200191505060405180910390f35b348015610cde57600080fd5b50610d1f600480360381019080803573ffffffffffffffffffffffffffffffffffffffff169060200190929190803515159060200190929190505050612612565b005b348015610d2d57600080fd5b50610d6e600480360381019080803515159060200190929190803573ffffffffffffffffffffffffffffffffffffffff169060200190929190505050612737565b005b610dc0600480360381019080803573ffffffffffffffffffffffffffffffffffffffff16906020019092919080356fffffffffffffffffffffffffffffffff1690602001909291905050506128ac565b005b348015610dce57600080fd5b50610e03600480360381019080803573ffffffffffffffffffffffffffffffffffffffff1690602001909291905050506128f5565b005b348015610e1157600080fd5b50610e46600480360381019080803573ffffffffffffffffffffffffffffffffffffffff169060200190929190505050612a4a565b005b610ea160048036038101908080356fffffffffffffffffffffffffffffffff169060200190929190803560ff16906020019092919080356000191690602001909291908035600019169060200190929190505050612afa565b005b348015610eaf57600080fd5b50610eb8612b0d565b6040518082815260200191505060405180910390f35b348015610eda57600080fd5b50610ee3612b13565b604051808273ffffffffffffffffffffffffffffffffffffffff1673ffffffffffffffffffffffffffffffffffffffff16815260200191505060405180910390f35b60135481565b601460009054906101000a900460ff1681565b601460009054906101000a900460ff1615610f5857600080fd5b601460019054906101000a900460ff1615610f7257600080fd5b610f7d816000612b39565b5050565b6000600360009054906101000a900473ffffffffffffffffffffffffffffffffffffffff1673ffffffffffffffffffffffffffffffffffffffff16638e768288306040518263ffffffff167c0100000000000000000000000000000000000000000000000000000000028152600401808273ffffffffffffffffffffffffffffffffffffffff1673ffffffffffffffffffffffffffffffffffffffff168152602001915050602060405180830381600087803b15801561104057600080fd5b505af1158015611054573d6000803e3d6000fd5b505050506040513d602081101561106a57600080fd5b8101908080519060200190929190505050905090565b60085481565b60065481565b6000600f60009054906101000a900460ff16156110ac5760069050611344565b6000600460009054906101000a900473ffffffffffffffffffffffffffffffffffffffff1673ffffffffffffffffffffffffffffffffffffffff1614156110f65760019050611344565b600460009054906101000a900473ffffffffffffffffffffffffffffffffffffffff1673ffffffffffffffffffffffffffffffffffffffff166382771c8e6040518163ffffffff167c0100000000000000000000000000000000000000000000000000000000028152600401602060405180830381600087803b15801561117c57600080fd5b505af1158015611190573d6000803e3d6000fd5b505050506040513d60208110156111a657600080fd5b810190808051906020019092919050505015156111c65760019050611344565b600360009054906101000a900473ffffffffffffffffffffffffffffffffffffffff1673ffffffffffffffffffffffffffffffffffffffff16638e768288306040518263ffffffff167c0100000000000000000000000000000000000000000000000000000000028152600401808273ffffffffffffffffffffffffffffffffffffffff1673ffffffffffffffffffffffffffffffffffffffff168152602001915050602060405180830381600087803b15801561128357600080fd5b505af1158015611297573d6000803e3d6000fd5b505050506040513d60208110156112ad57600080fd5b810190808051906020019092919050505015156112cd5760019050611344565b6007544210156112e05760029050611344565b600854421115156112f45760039050611344565b6112fc6120c8565b1561130a5760049050611344565b6113126120c8565b15801561132157506000600a54115b80156113315750600a54600d5410155b1561133f5760079050611344565b600590505b90565b6000809054906101000a900473ffffffffffffffffffffffffffffffffffffffff1673ffffffffffffffffffffffffffffffffffffffff163373ffffffffffffffffffffffffffffffffffffffff161415156113a257600080fd5b80600460006101000a81548173ffffffffffffffffffffffffffffffffffffffff021916908373ffffffffffffffffffffffffffffffffffffffff160217905550600460009054906101000a900473ffffffffffffffffffffffffffffffffffffffff1673ffffffffffffffffffffffffffffffffffffffff1663614cb9046040518163ffffffff167c0100000000000000000000000000000000000000000000000000000000028152600401602060405180830381600087803b15801561146957600080fd5b505af115801561147d573d6000803e3d6000fd5b505050506040513d602081101561149357600080fd5b810190808051906020019092919050505015156114af57600080fd5b50565b6000600286604051808273ffffffffffffffffffffffffffffffffffffffff1673ffffffffffffffffffffffffffffffffffffffff166c010000000000000000000000000281526014019150506020604051808303816000865af115801561151e573d6000803e3d6000fd5b5050506040513d602081101561153357600080fd5b81019080805190602001909291905050509050601460029054906101000a900473ffffffffffffffffffffffffffffffffffffffff1673ffffffffffffffffffffffffffffffffffffffff16600182868686604051600081526020016040526040518085600019166000191681526020018460ff1660ff1681526020018360001916600019168152602001826000191660001916815260200194505050505060206040516020810390808403906000865af11580156115f6573d6000803e3d6000fd5b5050506020604051035173ffffffffffffffffffffffffffffffffffffffff1614151561162257600080fd5b6000856fffffffffffffffffffffffffffffffff16141561164257600080fd5b61164c8686612b39565b50505050505050565b60106020528060005260406000206000915090505481565b600460009054906101000a900473ffffffffffffffffffffffffffffffffffffffff1681565b6000806000809054906101000a900473ffffffffffffffffffffffffffffffffffffffff1673ffffffffffffffffffffffffffffffffffffffff163373ffffffffffffffffffffffffffffffffffffffff161415156116f157600080fd5b600260009054906101000a900473ffffffffffffffffffffffffffffffffffffffff1673ffffffffffffffffffffffffffffffffffffffff1663313ce5676040518163ffffffff167c0100000000000000000000000000000000000000000000000000000000028152600401602060405180830381600087803b15801561177757600080fd5b505af115801561178b573d6000803e3d6000fd5b505050506040513d60208110156117a157600080fd5b8101908080519060200190929190505050600a0a8402915083830290506117d381600a54612d4690919063ffffffff16565b600a819055506117ee82600954612d4690919063ffffffff16565b60098190555061184681601060008873ffffffffffffffffffffffffffffffffffffffff1673ffffffffffffffffffffffffffffffffffffffff16815260200190815260200160002054612d4690919063ffffffff16565b601060008773ffffffffffffffffffffffffffffffffffffffff1673ffffffffffffffffffffffffffffffffffffffff168152602001908152602001600020819055506118db82601160008873ffffffffffffffffffffffffffffffffffffffff1673ffffffffffffffffffffffffffffffffffffffff16815260200190815260200160002054612d4690919063ffffffff16565b601160008773ffffffffffffffffffffffffffffffffffffffff1673ffffffffffffffffffffffffffffffffffffffff168152602001908152602001600020819055506119288583612d64565b7f0396f60aaad038749091d273dc13aaabc63db6e2271c7bad442d5cf25cc433508582846000604051808573ffffffffffffffffffffffffffffffffffffffff1673ffffffffffffffffffffffffffffffffffffffff168152602001848152602001838152602001826fffffffffffffffffffffffffffffffff16815260200194505050505060405180910390a15050505050565b60155481565b600a5481565b60006001905090565b60048060078111156119e057fe5b6119e861108c565b60078111156119f357fe5b1415156119ff57600080fd5b6000809054906101000a900473ffffffffffffffffffffffffffffffffffffffff1673ffffffffffffffffffffffffffffffffffffffff163373ffffffffffffffffffffffffffffffffffffffff16141515611a5a57600080fd5b600060149054906101000a900460ff1615611a7457600080fd5b600f60009054906101000a900460ff1615611a8e57600080fd5b6000600460009054906101000a900473ffffffffffffffffffffffffffffffffffffffff1673ffffffffffffffffffffffffffffffffffffffff16141515611b6f57600460009054906101000a900473ffffffffffffffffffffffffffffffffffffffff1673ffffffffffffffffffffffffffffffffffffffff16630bf318a36040518163ffffffff167c0100000000000000000000000000000000000000000000000000000000028152600401600060405180830381600087803b158015611b5657600080fd5b505af1158015611b6a573d6000803e3d6000fd5b505050505b6001600f60006101000a81548160ff02191690831515021790555050565b6000809054906101000a900473ffffffffffffffffffffffffffffffffffffffff1673ffffffffffffffffffffffffffffffffffffffff163373ffffffffffffffffffffffffffffffffffffffff16141515611be857600080fd5b80600360006101000a81548173ffffffffffffffffffffffffffffffffffffffff021916908373ffffffffffffffffffffffffffffffffffffffff160217905550600360009054906101000a900473ffffffffffffffffffffffffffffffffffffffff1673ffffffffffffffffffffffffffffffffffffffff166304bbc2556040518163ffffffff167c0100000000000000000000000000000000000000000000000000000000028152600401602060405180830381600087803b158015611caf57600080fd5b505af1158015611cc3573d6000803e3d6000fd5b505050506040513d6020811015611cd957600080fd5b81019080805190602001909291905050501515611cf557600080fd5b50565b60095481565b60006007806007811115611d0e57fe5b611d1661108c565b6007811115611d2157fe5b141515611d2d57600080fd5b601060003373ffffffffffffffffffffffffffffffffffffffff1673ffffffffffffffffffffffffffffffffffffffff1681526020019081526020016000205491506000821415611d7d57600080fd5b6000601060003373ffffffffffffffffffffffffffffffffffffffff1673ffffffffffffffffffffffffffffffffffffffff16815260200190815260200160002081905550611dd782600e54612d4690919063ffffffff16565b600e819055507fbb28353e4598c3b9199101a66e0989549b659a59a54d2c27fbb183f1932c8e6d3383604051808373ffffffffffffffffffffffffffffffffffffffff1673ffffffffffffffffffffffffffffffffffffffff1681526020018281526020019250505060405180910390a13373ffffffffffffffffffffffffffffffffffffffff166108fc839081150290604051600060405180830381858888f193505050501515611e8857600080fd5b5050565b601460029054906101000a900473ffffffffffffffffffffffffffffffffffffffff1681565b600e5481565b6000809054906101000a900473ffffffffffffffffffffffffffffffffffffffff1673ffffffffffffffffffffffffffffffffffffffff163373ffffffffffffffffffffffffffffffffffffffff16141515611f1357600080fd5b6001600060146101000a81548160ff021916908315150217905550565b60015481565b807effffffffffffffffffffffffffffffffffffffffffffffffffffffffffffff19168260405180826fffffffffffffffffffffffffffffffff166fffffffffffffffffffffffffffffffff1670010000000000000000000000000000000002815260100191505060405180910390207effffffffffffffffffffffffffffffffffffffffffffffffffffffffffffff1916141515611fd457600080fd5b611fde33836128ac565b5050565b6000809054906101000a900473ffffffffffffffffffffffffffffffffffffffff1673ffffffffffffffffffffffffffffffffffffffff163373ffffffffffffffffffffffffffffffffffffffff1614151561203d57600080fd5b8042111561204a57600080fd5b80600754111561205957600080fd5b806008819055507fd34bb772c4ae9baa99db852f622773b31c7827e8ee818449fef20d30980bd3106008546040518082815260200191505060405180910390a150565b600360009054906101000a900473ffffffffffffffffffffffffffffffffffffffff1681565b600d5481565b6000600654600a541015905090565b6000809054906101000a900473ffffffffffffffffffffffffffffffffffffffff1673ffffffffffffffffffffffffffffffffffffffff163373ffffffffffffffffffffffffffffffffffffffff1614151561213257600080fd5b80601460006101000a81548160ff0219169083151502179055507f48d826081348f5f00e8a33c9ae8ce89ed4c6e88400b585a478bc203d9e8177d3601460009054906101000a900460ff16601460019054906101000a900460ff16601460029054906101000a900473ffffffffffffffffffffffffffffffffffffffff166040518084151515158152602001831515151581526020018273ffffffffffffffffffffffffffffffffffffffff1673ffffffffffffffffffffffffffffffffffffffff168152602001935050505060405180910390a150565b600580600781111561221857fe5b61222061108c565b600781111561222b57fe5b14151561223757600080fd5b600034141561224557600080fd5b61225a34600d54612d4690919063ffffffff16565b600d8190555050565b6000809054906101000a900473ffffffffffffffffffffffffffffffffffffffff1673ffffffffffffffffffffffffffffffffffffffff163373ffffffffffffffffffffffffffffffffffffffff161415156122be57600080fd5b8060138190555050565b6000809054906101000a900473ffffffffffffffffffffffffffffffffffffffff1681565b600080600260009054906101000a900473ffffffffffffffffffffffffffffffffffffffff1673ffffffffffffffffffffffffffffffffffffffff1663313ce5676040518163ffffffff167c0100000000000000000000000000000000000000000000000000000000028152600401602060405180830381600087803b15801561237657600080fd5b505af115801561238a573d6000803e3d6000fd5b505050506040513d60208110156123a057600080fd5b8101908080519060200190929190505050600a0a9050826123ca8286612e4b90919063ffffffff16565b8115156123d357fe5b0491505092915050565b600560009054906101000a900473ffffffffffffffffffffffffffffffffffffffff1681565b60116020528060005260406000206000915090505481565b61242533826128ac565b50565b600060155482119050949350505050565b61244233610f3e565b565b6000600460009054906101000a900473ffffffffffffffffffffffffffffffffffffffff1673ffffffffffffffffffffffffffffffffffffffff166382771c8e6040518163ffffffff167c0100000000000000000000000000000000000000000000000000000000028152600401602060405180830381600087803b1580156124cc57600080fd5b505af11580156124e0573d6000803e3d6000fd5b505050506040513d60208110156124f657600080fd5b8101908080519060200190929190505050905090565b60075481565b600f60009054906101000a900460ff1681565b600060149054906101000a900460ff1681565b60126020528060005260406000206000915054906101000a900460ff1681565b6000809054906101000a900473ffffffffffffffffffffffffffffffffffffffff1673ffffffffffffffffffffffffffffffffffffffff163373ffffffffffffffffffffffffffffffffffffffff161415156125b357600080fd5b600060149054906101000a900460ff1615156125ce57600080fd5b60008060146101000a81548160ff021916908315150217905550565b601460019054906101000a900460ff1681565b60006015546009541015905090565b600c5481565b6000809054906101000a900473ffffffffffffffffffffffffffffffffffffffff1673ffffffffffffffffffffffffffffffffffffffff163373ffffffffffffffffffffffffffffffffffffffff1614151561266d57600080fd5b80601260008473ffffffffffffffffffffffffffffffffffffffff1673ffffffffffffffffffffffffffffffffffffffff16815260200190815260200160002060006101000a81548160ff0219169083151502179055507fa54714518c5d275fdcd3d2a461e4858e4e8cb04fb93cd0bca9d6d34115f264408282604051808373ffffffffffffffffffffffffffffffffffffffff1673ffffffffffffffffffffffffffffffffffffffff168152602001821515151581526020019250505060405180910390a15050565b6000809054906101000a900473ffffffffffffffffffffffffffffffffffffffff1673ffffffffffffffffffffffffffffffffffffffff163373ffffffffffffffffffffffffffffffffffffffff1614151561279257600080fd5b81601460016101000a81548160ff02191690831515021790555080601460026101000a81548173ffffffffffffffffffffffffffffffffffffffff021916908373ffffffffffffffffffffffffffffffffffffffff1602179055507f48d826081348f5f00e8a33c9ae8ce89ed4c6e88400b585a478bc203d9e8177d3601460009054906101000a900460ff16601460019054906101000a900460ff16601460029054906101000a900473ffffffffffffffffffffffffffffffffffffffff166040518084151515158152602001831515151581526020018273ffffffffffffffffffffffffffffffffffffffff1673ffffffffffffffffffffffffffffffffffffffff168152602001935050505060405180910390a15050565b601460019054906101000a900460ff16156128c657600080fd5b6000816fffffffffffffffffffffffffffffffff1614156128e657600080fd5b6128f08282612b39565b505050565b6000809054906101000a900473ffffffffffffffffffffffffffffffffffffffff1673ffffffffffffffffffffffffffffffffffffffff163373ffffffffffffffffffffffffffffffffffffffff1614151561295057600080fd5b600073ffffffffffffffffffffffffffffffffffffffff168173ffffffffffffffffffffffffffffffffffffffff161415151561298c57600080fd5b8073ffffffffffffffffffffffffffffffffffffffff166000809054906101000a900473ffffffffffffffffffffffffffffffffffffffff1673ffffffffffffffffffffffffffffffffffffffff167f8be0079c531659141344cd1fd0a4f28419497f9722a3daafe3b4186f6b6457e060405160405180910390a3806000806101000a81548173ffffffffffffffffffffffffffffffffffffffff021916908373ffffffffffffffffffffffffffffffffffffffff16021790555050565b6000809054906101000a900473ffffffffffffffffffffffffffffffffffffffff1673ffffffffffffffffffffffffffffffffffffffff163373ffffffffffffffffffffffffffffffffffffffff16141515612aa557600080fd5b600154600c541115612ab657600080fd5b80600560006101000a81548173ffffffffffffffffffffffffffffffffffffffff021916908373ffffffffffffffffffffffffffffffffffffffff16021790555050565b612b0733858585856114b2565b50505050565b600b5481565b600260009054906101000a900473ffffffffffffffffffffffffffffffffffffffff1681565b60008060149054906101000a900460ff1615612b5457600080fd5b612d3e8383600360009054906101000a900473ffffffffffffffffffffffffffffffffffffffff1673ffffffffffffffffffffffffffffffffffffffff166318a4155e34600b54600a540360095433600260009054906101000a900473ffffffffffffffffffffffffffffffffffffffff1673ffffffffffffffffffffffffffffffffffffffff1663313ce5676040518163ffffffff167c0100000000000000000000000000000000000000000000000000000000028152600401602060405180830381600087803b158015612c2957600080fd5b505af1158015612c3d573d6000803e3d6000fd5b505050506040513d6020811015612c5357600080fd5b81019080805190602001909291905050506040518663ffffffff167c0100000000000000000000000000000000000000000000000000000000028152600401808681526020018581526020018481526020018373ffffffffffffffffffffffffffffffffffffffff1673ffffffffffffffffffffffffffffffffffffffff16815260200182815260200195505050505050602060405180830381600087803b158015612cfe57600080fd5b505af1158015612d12573d6000803e3d6000fd5b505050506040513d6020811015612d2857600080fd5b8101908080519060200190929190505050612e7e565b905092915050565b6000808284019050838110151515612d5a57fe5b8091505092915050565b6000600260009054906101000a900473ffffffffffffffffffffffffffffffffffffffff1690508073ffffffffffffffffffffffffffffffffffffffff166340c10f1984846040518363ffffffff167c0100000000000000000000000000000000000000000000000000000000028152600401808373ffffffffffffffffffffffffffffffffffffffff1673ffffffffffffffffffffffffffffffffffffffff16815260200182815260200192505050600060405180830381600087803b158015612e2e57600080fd5b505af1158015612e42573d6000803e3d6000fd5b50505050505050565b60008082840290506000841480612e6c5750828482811515612e6957fe5b04145b1515612e7457fe5b8091505092915050565b600080600060149054906101000a900460ff1615612e9b57600080fd5b60026007811115612ea857fe5b612eb061108c565b6007811115612ebb57fe5b1415612f1e57601260008673ffffffffffffffffffffffffffffffffffffffff1673ffffffffffffffffffffffffffffffffffffffff16815260200190815260200160002060009054906101000a900460ff161515612f1957600080fd5b612f4f565b60036007811115612f2b57fe5b612f3361108c565b6007811115612f3e57fe5b1415612f4957612f4e565b600080fd5b5b34905060008314151515612f6257600080fd5b6000601060008773ffffffffffffffffffffffffffffffffffffffff1673ffffffffffffffffffffffffffffffffffffffff168152602001908152602001600020541415612fbd57600c600081548092919060010191905055505b61300f81601060008873ffffffffffffffffffffffffffffffffffffffff1673ffffffffffffffffffffffffffffffffffffffff16815260200190815260200160002054612d4690919063ffffffff16565b601060008773ffffffffffffffffffffffffffffffffffffffff1673ffffffffffffffffffffffffffffffffffffffff168152602001908152602001600020819055506130a483601160008873ffffffffffffffffffffffffffffffffffffffff1673ffffffffffffffffffffffffffffffffffffffff16815260200190815260200160002054612d4690919063ffffffff16565b601160008773ffffffffffffffffffffffffffffffffffffffff1673ffffffffffffffffffffffffffffffffffffffff168152602001908152602001600020819055506130fc81600a54612d4690919063ffffffff16565b600a8190555061311783600954612d4690919063ffffffff16565b600981905550600360009054906101000a900473ffffffffffffffffffffffffffffffffffffffff1673ffffffffffffffffffffffffffffffffffffffff1663f14ae17d866040518263ffffffff167c0100000000000000000000000000000000000000000000000000000000028152600401808273ffffffffffffffffffffffffffffffffffffffff1673ffffffffffffffffffffffffffffffffffffffff168152602001915050602060405180830381600087803b1580156131da57600080fd5b505af11580156131ee573d6000803e3d6000fd5b505050506040513d602081101561320457600080fd5b8101908080519060200190929190505050156132365761322f81600b54612d4690919063ffffffff16565b600b819055505b7f0396f60aaad038749091d273dc13aaabc63db6e2271c7bad442d5cf25cc4335085828587604051808573ffffffffffffffffffffffffffffffffffffffff1673ffffffffffffffffffffffffffffffffffffffff168152602001848152602001838152602001826fffffffffffffffffffffffffffffffff166fffffffffffffffffffffffffffffffff16815260200194505050505060405180910390a1600a91505093925050505600a165627a7a723058207d122777fddaccc36b2af1b4227497a785f42447c463105869fa3a4e4dc46e380029",
  "source": "/**\n * This smart contract code is Copyright 2017 TokenMarket Ltd. For more information see https://tokenmarket.net\n *\n * Licensed under the Apache License, version 2.0: https://github.com/TokenMarketNet/ico/blob/master/LICENSE.txt\n */\n\npragma solidity ^0.4.8;\n\nimport \"./Crowdsale.sol\";\nimport \"./MintableToken.sol\";\n\n/**\n * ICO crowdsale contract that is capped by amout of tokens.\n *\n * - Tokens are dynamically created during the crowdsale\n *\n *\n */\ncontract MintedTokenCappedCrowdsale is Crowdsale {\n\n  /* Maximum amount of tokens this crowdsale can sell. */\n  uint public maximumSellableTokens;\n\n  constructor(address _token, PricingStrategy _pricingStrategy, address _multisigWallet, uint _start, uint _end, uint _minimumFundingGoal, uint _maximumSellableTokens) Crowdsale(_token, _pricingStrategy, _multisigWallet, _start, _end, _minimumFundingGoal) {\n    maximumSellableTokens = _maximumSellableTokens;\n  }\n\n  /**\n   * Called from invest() to confirm if the curret investment does not break our cap rule.\n   */\n  function isBreakingCap(uint weiAmount, uint tokenAmount, uint weiRaisedTotal, uint tokensSoldTotal) constant returns (bool limitBroken) {\n    return tokensSoldTotal > maximumSellableTokens;\n  }\n\n  function isCrowdsaleFull() public constant returns (bool) {\n    return tokensSold >= maximumSellableTokens;\n  }\n\n  /**\n   * Dynamically create tokens and assign them to the investor.\n   */\n  function assignTokens(address receiver, uint tokenAmount) internal {\n    MintableToken mintableToken = MintableToken(token);\n    mintableToken.mint(receiver, tokenAmount);\n  }\n}\n",
  "sourcePath": "D:\\dev\\tokenmint\\contracts\\tokenmarketnet-contracts\\contracts\\MintedTokenCappedCrowdsale.sol",
  "compiler": {
    "name": "solc",
    "version": "0.4.24+commit.e67f0147.Emscripten.clang"
  },
  "schemaVersion": "2.0.1",
  "updatedAt": "2018-12-26T13:17:48.179Z"
}