{
  "contractName": "MockKYC",
  "abi": [
    {
      "constant": true,
      "inputs": [],
      "name": "owner",
      "outputs": [
        {
          "name": "",
          "type": "address"
        }
      ],
      "payable": false,
      "stateMutability": "view",
      "type": "function"
    },
    {
      "constant": false,
      "inputs": [
        {
          "name": "newOwner",
          "type": "address"
        }
      ],
      "name": "transferOwnership",
      "outputs": [],
      "payable": false,
      "stateMutability": "nonpayable",
      "type": "function"
    },
    {
      "inputs": [],
      "payable": false,
      "stateMutability": "nonpayable",
      "type": "constructor"
    },
    {
      "anonymous": false,
      "inputs": [
        {
          "indexed": false,
          "name": "who",
          "type": "address"
        },
        {
          "indexed": false,
          "name": "nonce",
          "type": "uint128"
        }
      ],
      "name": "Whitelisted",
      "type": "event"
    },
    {
      "anonymous": false,
      "inputs": [
        {
          "indexed": true,
          "name": "previousOwner",
          "type": "address"
        },
        {
          "indexed": true,
          "name": "newOwner",
          "type": "address"
        }
      ],
      "name": "OwnershipTransferred",
      "type": "event"
    },
    {
      "constant": false,
      "inputs": [
        {
          "name": "who",
          "type": "address"
        },
        {
          "name": "nonce",
          "type": "uint128"
        }
      ],
      "name": "whitelistUser",
      "outputs": [],
      "payable": false,
      "stateMutability": "nonpayable",
      "type": "function"
    },
    {
      "constant": false,
      "inputs": [
        {
          "name": "nonce",
          "type": "uint128"
        },
        {
          "name": "v",
          "type": "uint8"
        },
        {
          "name": "r",
          "type": "bytes32"
        },
        {
          "name": "s",
          "type": "bytes32"
        }
      ],
      "name": "whitelistMe",
      "outputs": [],
      "payable": false,
      "stateMutability": "nonpayable",
      "type": "function"
    },
    {
      "constant": true,
      "inputs": [
        {
          "name": "who",
          "type": "address"
        }
      ],
      "name": "isWhitelisted",
      "outputs": [
        {
          "name": "",
          "type": "bool"
        }
      ],
      "payable": false,
      "stateMutability": "view",
      "type": "function"
    }
  ],
  "bytecode": "0x608060405234801561001057600080fd5b50336000806101000a81548173ffffffffffffffffffffffffffffffffffffffff021916908373ffffffffffffffffffffffffffffffffffffffff1602179055506107bb806100606000396000f30060806040526004361061006d576000357c0100000000000000000000000000000000000000000000000000000000900463ffffffff1680633af32abf146100725780634bb07665146100cd5780638da5cb5b1461012c578063bda9b45c14610183578063f2fde38b146101eb575b600080fd5b34801561007e57600080fd5b506100b3600480360381019080803573ffffffffffffffffffffffffffffffffffffffff16906020019092919050505061022e565b604051808215151515815260200191505060405180910390f35b3480156100d957600080fd5b5061012a600480360381019080803573ffffffffffffffffffffffffffffffffffffffff16906020019092919080356fffffffffffffffffffffffffffffffff1690602001909291905050506102a7565b005b34801561013857600080fd5b50610141610310565b604051808273ffffffffffffffffffffffffffffffffffffffff1673ffffffffffffffffffffffffffffffffffffffff16815260200191505060405180910390f35b34801561018f57600080fd5b506101e960048036038101908080356fffffffffffffffffffffffffffffffff169060200190929190803560ff16906020019092919080356000191690602001909291908035600019169060200190929190505050610335565b005b3480156101f757600080fd5b5061022c600480360381019080803573ffffffffffffffffffffffffffffffffffffffff169060200190929190505050610531565b005b600080600160008473ffffffffffffffffffffffffffffffffffffffff1673ffffffffffffffffffffffffffffffffffffffff16815260200190815260200160002060009054906101000a90046fffffffffffffffffffffffffffffffff166fffffffffffffffffffffffffffffffff16119050919050565b6000809054906101000a900473ffffffffffffffffffffffffffffffffffffffff1673ffffffffffffffffffffffffffffffffffffffff163373ffffffffffffffffffffffffffffffffffffffff1614151561030257600080fd5b61030c8282610686565b5050565b6000809054906101000a900473ffffffffffffffffffffffffffffffffffffffff1681565b60003385604051808373ffffffffffffffffffffffffffffffffffffffff1673ffffffffffffffffffffffffffffffffffffffff166c01000000000000000000000000028152601401826fffffffffffffffffffffffffffffffff166fffffffffffffffffffffffffffffffff1670010000000000000000000000000000000002815260100192505050604051809103902090506000809054906101000a900473ffffffffffffffffffffffffffffffffffffffff1673ffffffffffffffffffffffffffffffffffffffff16600182868686604051600081526020016040526040518085600019166000191681526020018460ff1660ff1681526020018360001916600019168152602001826000191660001916815260200194505050505060206040516020810390808403906000865af1158015610478573d6000803e3d6000fd5b5050506020604051035173ffffffffffffffffffffffffffffffffffffffff161415156104a457600080fd5b6000600160003373ffffffffffffffffffffffffffffffffffffffff1673ffffffffffffffffffffffffffffffffffffffff16815260200190815260200160002060009054906101000a90046fffffffffffffffffffffffffffffffff166fffffffffffffffffffffffffffffffff1614151561052057600080fd5b61052a3386610686565b5050505050565b6000809054906101000a900473ffffffffffffffffffffffffffffffffffffffff1673ffffffffffffffffffffffffffffffffffffffff163373ffffffffffffffffffffffffffffffffffffffff1614151561058c57600080fd5b600073ffffffffffffffffffffffffffffffffffffffff168173ffffffffffffffffffffffffffffffffffffffff16141515156105c857600080fd5b8073ffffffffffffffffffffffffffffffffffffffff166000809054906101000a900473ffffffffffffffffffffffffffffffffffffffff1673ffffffffffffffffffffffffffffffffffffffff167f8be0079c531659141344cd1fd0a4f28419497f9722a3daafe3b4186f6b6457e060405160405180910390a3806000806101000a81548173ffffffffffffffffffffffffffffffffffffffff021916908373ffffffffffffffffffffffffffffffffffffffff16021790555050565b80600160008473ffffffffffffffffffffffffffffffffffffffff1673ffffffffffffffffffffffffffffffffffffffff16815260200190815260200160002060006101000a8154816fffffffffffffffffffffffffffffffff02191690836fffffffffffffffffffffffffffffffff1602179055507f134b6457382841a9c621ae6c69f4940c9ad7f00062d991f85e2567870c87ca248282604051808373ffffffffffffffffffffffffffffffffffffffff1673ffffffffffffffffffffffffffffffffffffffff168152602001826fffffffffffffffffffffffffffffffff166fffffffffffffffffffffffffffffffff1681526020019250505060405180910390a150505600a165627a7a7230582015cc2e809b0912dd10f0071496cc0dda1c928fa8b9943a704a94cddbae6ab5af0029",
  "source": "pragma solidity ^0.4.18;\n\nimport \"../../zeppelin/contracts/ownership/Ownable.sol\";\n\ncontract MockKYC is Ownable {\n    mapping (address => uint128) whitelist;\n\n    event Whitelisted(address who, uint128 nonce);\n\n    function MockKYC() Ownable() {\n      // This is here for our verification code only\n    }\n\n    function setWhitelisting(address who, uint128 nonce) internal {\n        whitelist[who] = nonce;\n\n        Whitelisted(who, nonce);\n    }\n\n    function whitelistUser(address who, uint128 nonce) external onlyOwner {\n        setWhitelisting(who, nonce);\n    }\n\n    function whitelistMe(uint128 nonce, uint8 v, bytes32 r, bytes32 s) external {\n        bytes32 hash = keccak256(msg.sender, nonce);\n        require(ecrecover(hash, v, r, s) == owner);\n        require(whitelist[msg.sender] == 0);\n\n        setWhitelisting(msg.sender, nonce);\n    }\n\n    function isWhitelisted(address who) external view returns(bool) {\n        return whitelist[who] > 0;\n    }\n}\n",
  "sourcePath": "D:\\dev\\tokenmint\\contracts\\tokenmarketnet-contracts\\contracts\\security-token\\tests\\MockKYC.sol",
  "compiler": {
    "name": "solc",
    "version": "0.4.24+commit.e67f0147.Emscripten.clang"
  },
  "schemaVersion": "2.0.1",
  "updatedAt": "2018-12-17T12:17:37.994Z"
}