{
  "contractName": "MockSecurityTransferAgent",
  "abi": [
    {
      "inputs": [],
      "payable": false,
      "stateMutability": "nonpayable",
      "type": "constructor"
    },
    {
      "constant": false,
      "inputs": [],
      "name": "freeze",
      "outputs": [],
      "payable": false,
      "stateMutability": "nonpayable",
      "type": "function"
    },
    {
      "constant": false,
      "inputs": [
        {
          "name": "from",
          "type": "address"
        },
        {
          "name": "to",
          "type": "address"
        },
        {
          "name": "value",
          "type": "uint256"
        }
      ],
      "name": "verify",
      "outputs": [
        {
          "name": "newValue",
          "type": "uint256"
        }
      ],
      "payable": false,
      "stateMutability": "nonpayable",
      "type": "function"
    }
  ],
  "bytecode": "0x608060405260008060006101000a81548160ff02191690831515021790555034801561002a57600080fd5b5061015e8061003a6000396000f30060806040526004361061004c576000357c0100000000000000000000000000000000000000000000000000000000900463ffffffff16806362a5af3b14610051578063ad07699414610068575b600080fd5b34801561005d57600080fd5b506100666100e9565b005b34801561007457600080fd5b506100d3600480360381019080803573ffffffffffffffffffffffffffffffffffffffff169060200190929190803573ffffffffffffffffffffffffffffffffffffffff16906020019092919080359060200190929190505050610105565b6040518082815260200191505060405180910390f35b60016000806101000a81548160ff021916908315150217905550565b60008015156000809054906101000a900460ff16151514151561012757600080fd5b6001905093925050505600a165627a7a7230582065643dcf12227021b9a13706721d9c8114a5679ada7c19f73a44925768b5317f0029",
  "source": "pragma solidity ^0.4.18;\r\n\r\nimport \"../SecurityTransferAgent.sol\";\r\n\r\ncontract MockSecurityTransferAgent is SecurityTransferAgent {\r\n  bool frozen = false;\r\n\r\n  function MockSecurityTransferAgent() {\r\n    // This is here for our verification code only\r\n  }\r\n\r\n  function freeze() public {\r\n    frozen = true;\r\n  }\r\n\r\n  function verify(address from, address to, uint256 value) public returns (uint256 newValue) {\r\n    require(frozen == false);\r\n\r\n    return 1;\r\n  }\r\n}\r\n",
  "sourcePath": "D:\\dev\\tokenmint\\contracts\\tokenmarketnet-contracts\\contracts\\security-token\\tests\\MockTransactionAgent.sol",
  "compiler": {
    "name": "solc",
    "version": "0.4.24+commit.e67f0147.Emscripten.clang"
  },
  "schemaVersion": "2.0.1",
  "updatedAt": "2018-12-07T11:58:33.976Z"
}