{
  "contractName": "NullFinalizeAgent",
  "abi": [
    {
      "constant": true,
      "inputs": [],
      "name": "isFinalizeAgent",
      "outputs": [
        {
          "name": "",
          "type": "bool"
        }
      ],
      "payable": false,
      "stateMutability": "view",
      "type": "function"
    },
    {
      "constant": true,
      "inputs": [],
      "name": "crowdsale",
      "outputs": [
        {
          "name": "",
          "type": "address"
        }
      ],
      "payable": false,
      "stateMutability": "view",
      "type": "function"
    },
    {
      "inputs": [
        {
          "name": "_crowdsale",
          "type": "address"
        }
      ],
      "payable": false,
      "stateMutability": "nonpayable",
      "type": "constructor"
    },
    {
      "constant": true,
      "inputs": [],
      "name": "isSane",
      "outputs": [
        {
          "name": "",
          "type": "bool"
        }
      ],
      "payable": false,
      "stateMutability": "view",
      "type": "function"
    },
    {
      "constant": false,
      "inputs": [],
      "name": "finalizeCrowdsale",
      "outputs": [],
      "payable": false,
      "stateMutability": "nonpayable",
      "type": "function"
    }
  ],
  "bytecode": "0x608060405234801561001057600080fd5b5060405160208061021b83398101806040528101908080519060200190929190505050806000806101000a81548173ffffffffffffffffffffffffffffffffffffffff021916908373ffffffffffffffffffffffffffffffffffffffff16021790555050610198806100836000396000f300608060405260043610610062576000357c0100000000000000000000000000000000000000000000000000000000900463ffffffff1680630bf318a314610067578063614cb9041461007e57806382771c8e146100ad5780639c1e03a0146100dc575b600080fd5b34801561007357600080fd5b5061007c610133565b005b34801561008a57600080fd5b50610093610135565b604051808215151515815260200191505060405180910390f35b3480156100b957600080fd5b506100c261013e565b604051808215151515815260200191505060405180910390f35b3480156100e857600080fd5b506100f1610147565b604051808273ffffffffffffffffffffffffffffffffffffffff1673ffffffffffffffffffffffffffffffffffffffff16815260200191505060405180910390f35b565b60006001905090565b60006001905090565b6000809054906101000a900473ffffffffffffffffffffffffffffffffffffffff16815600a165627a7a72305820393a6a9fa1b171c69d52cd1baba2ca4bb9867c4acec6e1e408bc884c8a371e2e0029",
  "source": "/**\r\n * This smart contract code is Copyright 2017 TokenMarket Ltd. For more information see https://tokenmarket.net\r\n *\r\n * Licensed under the Apache License, version 2.0: https://github.com/TokenMarketNet/ico/blob/master/LICENSE.txt\r\n */\r\n\r\npragma solidity ^0.4.6;\r\n\r\nimport \"./Crowdsale.sol\";\r\nimport \"./ReleasableToken.sol\";\r\n\r\n/**\r\n * A finalize agent that does nothing.\r\n *\r\n * - Token transfer must be manually released by the owner\r\n */\r\ncontract NullFinalizeAgent is FinalizeAgent {\r\n\r\n  Crowdsale public crowdsale;\r\n\r\n  function NullFinalizeAgent(Crowdsale _crowdsale) {\r\n    crowdsale = _crowdsale;\r\n  }\r\n\r\n  /** Check that we can release the token */\r\n  function isSane() public constant returns (bool) {\r\n    return true;\r\n  }\r\n\r\n  /** Called once by crowdsale finalize() if the sale was success. */\r\n  function finalizeCrowdsale() public {\r\n  }\r\n\r\n}\r\n",
  "sourcePath": "D:\\dev\\tokenmint\\contracts\\tokenmarketnet-contracts\\contracts\\NullFinalizeAgent.sol",
  "compiler": {
    "name": "solc",
    "version": "0.4.24+commit.e67f0147.Emscripten.clang"
  },
  "schemaVersion": "2.0.1",
  "updatedAt": "2018-12-07T16:59:41.016Z"
}