{
  "contractName": "PaymentForwarder",
  "abi": [
    {
      "constant": false,
      "inputs": [],
      "name": "halt",
      "outputs": [],
      "payable": false,
      "stateMutability": "nonpayable",
      "type": "function"
    },
    {
      "constant": true,
      "inputs": [],
      "name": "owner",
      "outputs": [
        {
          "name": "",
          "type": "address"
        }
      ],
      "payable": false,
      "stateMutability": "view",
      "type": "function"
    },
    {
      "constant": true,
      "inputs": [],
      "name": "customerCount",
      "outputs": [
        {
          "name": "",
          "type": "uint256"
        }
      ],
      "payable": false,
      "stateMutability": "view",
      "type": "function"
    },
    {
      "constant": true,
      "inputs": [],
      "name": "totalTransferred",
      "outputs": [
        {
          "name": "",
          "type": "uint256"
        }
      ],
      "payable": false,
      "stateMutability": "view",
      "type": "function"
    },
    {
      "constant": true,
      "inputs": [],
      "name": "halted",
      "outputs": [
        {
          "name": "",
          "type": "bool"
        }
      ],
      "payable": false,
      "stateMutability": "view",
      "type": "function"
    },
    {
      "constant": false,
      "inputs": [],
      "name": "unhalt",
      "outputs": [],
      "payable": false,
      "stateMutability": "nonpayable",
      "type": "function"
    },
    {
      "constant": true,
      "inputs": [],
      "name": "teamMultisig",
      "outputs": [
        {
          "name": "",
          "type": "address"
        }
      ],
      "payable": false,
      "stateMutability": "view",
      "type": "function"
    },
    {
      "constant": true,
      "inputs": [
        {
          "name": "",
          "type": "address"
        }
      ],
      "name": "paymentsByBenefactor",
      "outputs": [
        {
          "name": "",
          "type": "uint256"
        }
      ],
      "payable": false,
      "stateMutability": "view",
      "type": "function"
    },
    {
      "constant": false,
      "inputs": [
        {
          "name": "newOwner",
          "type": "address"
        }
      ],
      "name": "transferOwnership",
      "outputs": [],
      "payable": false,
      "stateMutability": "nonpayable",
      "type": "function"
    },
    {
      "constant": true,
      "inputs": [
        {
          "name": "",
          "type": "uint128"
        }
      ],
      "name": "paymentsByCustomer",
      "outputs": [
        {
          "name": "",
          "type": "uint256"
        }
      ],
      "payable": false,
      "stateMutability": "view",
      "type": "function"
    },
    {
      "inputs": [
        {
          "name": "_owner",
          "type": "address"
        },
        {
          "name": "_teamMultisig",
          "type": "address"
        }
      ],
      "payable": false,
      "stateMutability": "nonpayable",
      "type": "constructor"
    },
    {
      "anonymous": false,
      "inputs": [
        {
          "indexed": false,
          "name": "source",
          "type": "address"
        },
        {
          "indexed": false,
          "name": "amount",
          "type": "uint256"
        },
        {
          "indexed": false,
          "name": "customerId",
          "type": "uint128"
        },
        {
          "indexed": false,
          "name": "benefactor",
          "type": "address"
        }
      ],
      "name": "PaymentForwarded",
      "type": "event"
    },
    {
      "anonymous": false,
      "inputs": [
        {
          "indexed": true,
          "name": "previousOwner",
          "type": "address"
        },
        {
          "indexed": true,
          "name": "newOwner",
          "type": "address"
        }
      ],
      "name": "OwnershipTransferred",
      "type": "event"
    },
    {
      "constant": false,
      "inputs": [
        {
          "name": "customerId",
          "type": "uint128"
        },
        {
          "name": "benefactor",
          "type": "address"
        }
      ],
      "name": "payWithoutChecksum",
      "outputs": [],
      "payable": true,
      "stateMutability": "payable",
      "type": "function"
    },
    {
      "constant": false,
      "inputs": [
        {
          "name": "customerId",
          "type": "uint128"
        },
        {
          "name": "benefactor",
          "type": "address"
        },
        {
          "name": "checksum",
          "type": "bytes1"
        }
      ],
      "name": "pay",
      "outputs": [],
      "payable": true,
      "stateMutability": "payable",
      "type": "function"
    },
    {
      "constant": false,
      "inputs": [
        {
          "name": "customerId",
          "type": "uint128"
        },
        {
          "name": "checksum",
          "type": "bytes1"
        }
      ],
      "name": "payForMyselfWithChecksum",
      "outputs": [],
      "payable": true,
      "stateMutability": "payable",
      "type": "function"
    },
    {
      "constant": false,
      "inputs": [
        {
          "name": "customerId",
          "type": "uint128"
        }
      ],
      "name": "payForMyself",
      "outputs": [],
      "payable": true,
      "stateMutability": "payable",
      "type": "function"
    }
  ],
  "bytecode": "0x608060405234801561001057600080fd5b50604051604080610cbf8339810180604052810190808051906020019092919080519060200190929190505050336000806101000a81548173ffffffffffffffffffffffffffffffffffffffff021916908373ffffffffffffffffffffffffffffffffffffffff16021790555080600160006101000a81548173ffffffffffffffffffffffffffffffffffffffff021916908373ffffffffffffffffffffffffffffffffffffffff160217905550816000806101000a81548173ffffffffffffffffffffffffffffffffffffffff021916908373ffffffffffffffffffffffffffffffffffffffff1602179055505050610bb08061010f6000396000f3006080604052600436106100d0576000357c0100000000000000000000000000000000000000000000000000000000900463ffffffff168063274465b4146100d5578063312883971461010757806346f2e880146101595780635ed7ca5b146101b75780638da5cb5b146101ce5780639757e8a3146102255780639b087b2d14610250578063b9b8af0b1461027b578063bbc43d41146102aa578063cb3e64fd14610328578063dbc0c0851461033f578063ef3336f514610396578063f2fde38b146103ed578063f921567614610430575b600080fd5b61010560048036038101908080356fffffffffffffffffffffffffffffffff169060200190929190505050610483565b005b61015760048036038101908080356fffffffffffffffffffffffffffffffff169060200190929190803573ffffffffffffffffffffffffffffffffffffffff169060200190929190505050610490565b005b6101b560048036038101908080356fffffffffffffffffffffffffffffffff16906020019092919080357effffffffffffffffffffffffffffffffffffffffffffffffffffffffffffff191690602001909291905050506106d5565b005b3480156101c357600080fd5b506101cc610781565b005b3480156101da57600080fd5b506101e36107f9565b604051808273ffffffffffffffffffffffffffffffffffffffff1673ffffffffffffffffffffffffffffffffffffffff16815260200191505060405180910390f35b34801561023157600080fd5b5061023a61081e565b6040518082815260200191505060405180910390f35b34801561025c57600080fd5b50610265610824565b6040518082815260200191505060405180910390f35b34801561028757600080fd5b5061029061082a565b604051808215151515815260200191505060405180910390f35b61032660048036038101908080356fffffffffffffffffffffffffffffffff169060200190929190803573ffffffffffffffffffffffffffffffffffffffff16906020019092919080357effffffffffffffffffffffffffffffffffffffffffffffffffffffffffffff1916906020019092919050505061083d565b005b34801561033457600080fd5b5061033d610947565b005b34801561034b57600080fd5b506103546109d9565b604051808273ffffffffffffffffffffffffffffffffffffffff1673ffffffffffffffffffffffffffffffffffffffff16815260200191505060405180910390f35b3480156103a257600080fd5b506103d7600480360381019080803573ffffffffffffffffffffffffffffffffffffffff1690602001909291905050506109ff565b6040518082815260200191505060405180910390f35b3480156103f957600080fd5b5061042e600480360381019080803573ffffffffffffffffffffffffffffffffffffffff169060200190929190505050610a17565b005b34801561043c57600080fd5b5061046d60048036038101908080356fffffffffffffffffffffffffffffffff169060200190929190505050610b6c565b6040518082815260200191505060405180910390f35b61048d8133610490565b50565b60008060149054906101000a900460ff16156104ab57600080fd5b3490507f4e4e2d6da11427f2d85d47e2bced64efa9ccd9694ae97786772a22d465bc80a433828585604051808573ffffffffffffffffffffffffffffffffffffffff1673ffffffffffffffffffffffffffffffffffffffff168152602001848152602001836fffffffffffffffffffffffffffffffff166fffffffffffffffffffffffffffffffff1681526020018273ffffffffffffffffffffffffffffffffffffffff1673ffffffffffffffffffffffffffffffffffffffff16815260200194505050505060405180910390a180600260008282540192505081905550600060046000856fffffffffffffffffffffffffffffffff166fffffffffffffffffffffffffffffffff1681526020019081526020016000205414156105dc576003600081548092919060010191905055505b8060046000856fffffffffffffffffffffffffffffffff166fffffffffffffffffffffffffffffffff1681526020019081526020016000206000828254019250508190555080600560008473ffffffffffffffffffffffffffffffffffffffff1673ffffffffffffffffffffffffffffffffffffffff16815260200190815260200160002060008282540192505081905550600160009054906101000a900473ffffffffffffffffffffffffffffffffffffffff1673ffffffffffffffffffffffffffffffffffffffff166108fc829081150290604051600060405180830381858888f1935050505015156106d057600080fd5b505050565b807effffffffffffffffffffffffffffffffffffffffffffffffffffffffffffff19168260405180826fffffffffffffffffffffffffffffffff166fffffffffffffffffffffffffffffffff1670010000000000000000000000000000000002815260100191505060405180910390207effffffffffffffffffffffffffffffffffffffffffffffffffffffffffffff191614151561077357600080fd5b61077d8233610490565b5050565b6000809054906101000a900473ffffffffffffffffffffffffffffffffffffffff1673ffffffffffffffffffffffffffffffffffffffff163373ffffffffffffffffffffffffffffffffffffffff161415156107dc57600080fd5b6001600060146101000a81548160ff021916908315150217905550565b6000809054906101000a900473ffffffffffffffffffffffffffffffffffffffff1681565b60035481565b60025481565b600060149054906101000a900460ff1681565b600060149054906101000a900460ff161561085757600080fd5b807effffffffffffffffffffffffffffffffffffffffffffffffffffffffffffff1916838360405180836fffffffffffffffffffffffffffffffff166fffffffffffffffffffffffffffffffff167001000000000000000000000000000000000281526010018273ffffffffffffffffffffffffffffffffffffffff1673ffffffffffffffffffffffffffffffffffffffff166c010000000000000000000000000281526014019250505060405180910390207effffffffffffffffffffffffffffffffffffffffffffffffffffffffffffff191614151561093857600080fd5b6109428383610490565b505050565b6000809054906101000a900473ffffffffffffffffffffffffffffffffffffffff1673ffffffffffffffffffffffffffffffffffffffff163373ffffffffffffffffffffffffffffffffffffffff161415156109a257600080fd5b600060149054906101000a900460ff1615156109bd57600080fd5b60008060146101000a81548160ff021916908315150217905550565b600160009054906101000a900473ffffffffffffffffffffffffffffffffffffffff1681565b60056020528060005260406000206000915090505481565b6000809054906101000a900473ffffffffffffffffffffffffffffffffffffffff1673ffffffffffffffffffffffffffffffffffffffff163373ffffffffffffffffffffffffffffffffffffffff16141515610a7257600080fd5b600073ffffffffffffffffffffffffffffffffffffffff168173ffffffffffffffffffffffffffffffffffffffff1614151515610aae57600080fd5b8073ffffffffffffffffffffffffffffffffffffffff166000809054906101000a900473ffffffffffffffffffffffffffffffffffffffff1673ffffffffffffffffffffffffffffffffffffffff167f8be0079c531659141344cd1fd0a4f28419497f9722a3daafe3b4186f6b6457e060405160405180910390a3806000806101000a81548173ffffffffffffffffffffffffffffffffffffffff021916908373ffffffffffffffffffffffffffffffffffffffff16021790555050565b600460205280600052604060002060009150905054815600a165627a7a72305820bf4708d4c6b8b63448ab0541c143c83aaa75d1bd31b3f7929fa6761a3b59e0ce0029",
  "source": "/**\r\n * This smart contract code is Copyright 2017 TokenMarket Ltd. For more information see https://tokenmarket.net\r\n *\r\n * Licensed under the Apache License, version 2.0: https://github.com/TokenMarketNet/ico/blob/master/LICENSE.txt\r\n */\r\n\r\npragma solidity ^0.4.8;\r\n\r\nimport \"./Haltable.sol\";\r\n\r\n/**\r\n * Forward Ethereum payments to another wallet and track them with an event.\r\n *\r\n * Allows to identify customers who made Ethereum payment for a central token issuance.\r\n * Furthermore allow making a payment on behalf of another address.\r\n *\r\n * Allow pausing to signal the end of the crowdsale.\r\n */\r\ncontract PaymentForwarder is Haltable {\r\n\r\n  /** Who will get all ETH in the end */\r\n  address public teamMultisig;\r\n\r\n  /** Total incoming money */\r\n  uint public totalTransferred;\r\n\r\n  /** How many distinct customers we have that have made a payment */\r\n  uint public customerCount;\r\n\r\n  /** Total incoming money per centrally tracked customer id */\r\n  mapping(uint128 => uint) public paymentsByCustomer;\r\n\r\n  /** Total incoming money per benefactor address */\r\n  mapping(address => uint) public paymentsByBenefactor;\r\n\r\n  /** A customer has made a payment. Benefactor is the address where the tokens will be ultimately issued.*/\r\n  event PaymentForwarded(address source, uint amount, uint128 customerId, address benefactor);\r\n\r\n  function PaymentForwarder(address _owner, address _teamMultisig) {\r\n    teamMultisig = _teamMultisig;\r\n    owner = _owner;\r\n  }\r\n\r\n  function payWithoutChecksum(uint128 customerId, address benefactor) public stopInEmergency payable {\r\n\r\n    uint weiAmount = msg.value;\r\n\r\n    PaymentForwarded(msg.sender, weiAmount, customerId, benefactor);\r\n\r\n    // We trust Ethereum amounts cannot overflow uint256\r\n    totalTransferred += weiAmount;\r\n\r\n    if(paymentsByCustomer[customerId] == 0) {\r\n      customerCount++;\r\n    }\r\n\r\n    paymentsByCustomer[customerId] += weiAmount;\r\n\r\n    // We track benefactor addresses for extra safety;\r\n    // In the case of central ETH issuance tracking has problems we can\r\n    // construct ETH contributions solely based on blockchain data\r\n    paymentsByBenefactor[benefactor] += weiAmount;\r\n\r\n    // May run out of gas\r\n    if(!teamMultisig.send(weiAmount)) throw;\r\n  }\r\n\r\n  /**\r\n   * Pay on a behalf of an address.\r\n   *\r\n   * @param customerId Identifier in the central database, UUID v4\r\n   *\r\n   */\r\n   function pay(uint128 customerId, address benefactor, bytes1 checksum) public stopInEmergency payable {\r\n    // see customerid.py\r\n     if (bytes1(sha3(customerId, benefactor)) != checksum) throw;\r\n     payWithoutChecksum(customerId, benefactor);\r\n   }\r\n\r\n  /**\r\n   * Pay on a behalf of the sender.\r\n   *\r\n   * @param customerId Identifier in the central database, UUID v4\r\n   *\r\n   */\r\n  function payForMyselfWithChecksum(uint128 customerId, bytes1 checksum) public payable {\r\n    // see customerid.py\r\n    if (bytes1(sha3(customerId)) != checksum) throw;\r\n    payWithoutChecksum(customerId, msg.sender);\r\n  }\r\n\r\n  /**\r\n   * Legacy API signature.\r\n   */\r\n  function payForMyself(uint128 customerId) public payable {\r\n    payWithoutChecksum(customerId, msg.sender);\r\n  }\r\n\r\n}\r\n",
  "sourcePath": "D:\\trees\\tokenmint\\contracts\\tokenmarketnet-contracts\\contracts\\PaymentForwarder.sol",
  "compiler": {
    "name": "solc",
    "version": "0.4.24+commit.e67f0147.Emscripten.clang"
  },
  "schemaVersion": "2.0.1",
  "updatedAt": "2018-12-10T14:03:30.270Z"
}