{
  "contractName": "PreICOProxyBuyer",
  "abi": [
    {
      "constant": true,
      "inputs": [],
      "name": "weiMinimumLimit",
      "outputs": [
        {
          "name": "",
          "type": "uint256"
        }
      ],
      "payable": false,
      "stateMutability": "view",
      "type": "function"
    },
    {
      "constant": true,
      "inputs": [
        {
          "name": "",
          "type": "address"
        }
      ],
      "name": "balances",
      "outputs": [
        {
          "name": "",
          "type": "uint256"
        }
      ],
      "payable": false,
      "stateMutability": "view",
      "type": "function"
    },
    {
      "constant": true,
      "inputs": [
        {
          "name": "",
          "type": "uint256"
        }
      ],
      "name": "investors",
      "outputs": [
        {
          "name": "",
          "type": "address"
        }
      ],
      "payable": false,
      "stateMutability": "view",
      "type": "function"
    },
    {
      "constant": true,
      "inputs": [],
      "name": "weiRaised",
      "outputs": [
        {
          "name": "",
          "type": "uint256"
        }
      ],
      "payable": false,
      "stateMutability": "view",
      "type": "function"
    },
    {
      "constant": false,
      "inputs": [],
      "name": "halt",
      "outputs": [],
      "payable": false,
      "stateMutability": "nonpayable",
      "type": "function"
    },
    {
      "constant": true,
      "inputs": [],
      "name": "freezeEndsAt",
      "outputs": [
        {
          "name": "",
          "type": "uint256"
        }
      ],
      "payable": false,
      "stateMutability": "view",
      "type": "function"
    },
    {
      "constant": true,
      "inputs": [],
      "name": "tokensBought",
      "outputs": [
        {
          "name": "",
          "type": "uint256"
        }
      ],
      "payable": false,
      "stateMutability": "view",
      "type": "function"
    },
    {
      "constant": true,
      "inputs": [],
      "name": "weiCap",
      "outputs": [
        {
          "name": "",
          "type": "uint256"
        }
      ],
      "payable": false,
      "stateMutability": "view",
      "type": "function"
    },
    {
      "constant": true,
      "inputs": [],
      "name": "claimCount",
      "outputs": [
        {
          "name": "",
          "type": "uint256"
        }
      ],
      "payable": false,
      "stateMutability": "view",
      "type": "function"
    },
    {
      "constant": true,
      "inputs": [],
      "name": "owner",
      "outputs": [
        {
          "name": "",
          "type": "address"
        }
      ],
      "payable": false,
      "stateMutability": "view",
      "type": "function"
    },
    {
      "constant": true,
      "inputs": [],
      "name": "crowdsale",
      "outputs": [
        {
          "name": "",
          "type": "address"
        }
      ],
      "payable": false,
      "stateMutability": "view",
      "type": "function"
    },
    {
      "constant": true,
      "inputs": [],
      "name": "weiMaximumLimit",
      "outputs": [
        {
          "name": "",
          "type": "uint256"
        }
      ],
      "payable": false,
      "stateMutability": "view",
      "type": "function"
    },
    {
      "constant": true,
      "inputs": [],
      "name": "halted",
      "outputs": [
        {
          "name": "",
          "type": "bool"
        }
      ],
      "payable": false,
      "stateMutability": "view",
      "type": "function"
    },
    {
      "constant": true,
      "inputs": [
        {
          "name": "",
          "type": "address"
        }
      ],
      "name": "claimed",
      "outputs": [
        {
          "name": "",
          "type": "uint256"
        }
      ],
      "payable": false,
      "stateMutability": "view",
      "type": "function"
    },
    {
      "constant": false,
      "inputs": [],
      "name": "unhalt",
      "outputs": [],
      "payable": false,
      "stateMutability": "nonpayable",
      "type": "function"
    },
    {
      "constant": true,
      "inputs": [],
      "name": "timeLock",
      "outputs": [
        {
          "name": "",
          "type": "uint256"
        }
      ],
      "payable": false,
      "stateMutability": "view",
      "type": "function"
    },
    {
      "constant": true,
      "inputs": [],
      "name": "totalClaimed",
      "outputs": [
        {
          "name": "",
          "type": "uint256"
        }
      ],
      "payable": false,
      "stateMutability": "view",
      "type": "function"
    },
    {
      "constant": true,
      "inputs": [],
      "name": "investorCount",
      "outputs": [
        {
          "name": "",
          "type": "uint256"
        }
      ],
      "payable": false,
      "stateMutability": "view",
      "type": "function"
    },
    {
      "constant": true,
      "inputs": [],
      "name": "forcedRefund",
      "outputs": [
        {
          "name": "",
          "type": "bool"
        }
      ],
      "payable": false,
      "stateMutability": "view",
      "type": "function"
    },
    {
      "constant": false,
      "inputs": [
        {
          "name": "newOwner",
          "type": "address"
        }
      ],
      "name": "transferOwnership",
      "outputs": [],
      "payable": false,
      "stateMutability": "nonpayable",
      "type": "function"
    },
    {
      "inputs": [
        {
          "name": "_owner",
          "type": "address"
        },
        {
          "name": "_freezeEndsAt",
          "type": "uint256"
        },
        {
          "name": "_weiMinimumLimit",
          "type": "uint256"
        },
        {
          "name": "_weiMaximumLimit",
          "type": "uint256"
        },
        {
          "name": "_weiCap",
          "type": "uint256"
        }
      ],
      "payable": false,
      "stateMutability": "nonpayable",
      "type": "constructor"
    },
    {
      "payable": true,
      "stateMutability": "payable",
      "type": "fallback"
    },
    {
      "anonymous": false,
      "inputs": [
        {
          "indexed": false,
          "name": "investor",
          "type": "address"
        },
        {
          "indexed": false,
          "name": "weiAmount",
          "type": "uint256"
        },
        {
          "indexed": false,
          "name": "tokenAmount",
          "type": "uint256"
        },
        {
          "indexed": false,
          "name": "customerId",
          "type": "uint128"
        }
      ],
      "name": "Invested",
      "type": "event"
    },
    {
      "anonymous": false,
      "inputs": [
        {
          "indexed": false,
          "name": "investor",
          "type": "address"
        },
        {
          "indexed": false,
          "name": "value",
          "type": "uint256"
        }
      ],
      "name": "Refunded",
      "type": "event"
    },
    {
      "anonymous": false,
      "inputs": [
        {
          "indexed": false,
          "name": "count",
          "type": "uint256"
        }
      ],
      "name": "TokensBoughts",
      "type": "event"
    },
    {
      "anonymous": false,
      "inputs": [
        {
          "indexed": false,
          "name": "investor",
          "type": "address"
        },
        {
          "indexed": false,
          "name": "count",
          "type": "uint256"
        }
      ],
      "name": "Distributed",
      "type": "event"
    },
    {
      "anonymous": false,
      "inputs": [
        {
          "indexed": true,
          "name": "previousOwner",
          "type": "address"
        },
        {
          "indexed": true,
          "name": "newOwner",
          "type": "address"
        }
      ],
      "name": "OwnershipTransferred",
      "type": "event"
    },
    {
      "constant": true,
      "inputs": [],
      "name": "getToken",
      "outputs": [
        {
          "name": "",
          "type": "address"
        }
      ],
      "payable": false,
      "stateMutability": "view",
      "type": "function"
    },
    {
      "constant": false,
      "inputs": [
        {
          "name": "customerId",
          "type": "uint128"
        }
      ],
      "name": "buyWithCustomerId",
      "outputs": [],
      "payable": true,
      "stateMutability": "payable",
      "type": "function"
    },
    {
      "constant": false,
      "inputs": [],
      "name": "buy",
      "outputs": [],
      "payable": true,
      "stateMutability": "payable",
      "type": "function"
    },
    {
      "constant": false,
      "inputs": [],
      "name": "buyForEverybody",
      "outputs": [],
      "payable": false,
      "stateMutability": "nonpayable",
      "type": "function"
    },
    {
      "constant": true,
      "inputs": [
        {
          "name": "investor",
          "type": "address"
        }
      ],
      "name": "getClaimAmount",
      "outputs": [
        {
          "name": "",
          "type": "uint256"
        }
      ],
      "payable": false,
      "stateMutability": "view",
      "type": "function"
    },
    {
      "constant": true,
      "inputs": [
        {
          "name": "investor",
          "type": "address"
        }
      ],
      "name": "getClaimLeft",
      "outputs": [
        {
          "name": "",
          "type": "uint256"
        }
      ],
      "payable": false,
      "stateMutability": "view",
      "type": "function"
    },
    {
      "constant": false,
      "inputs": [],
      "name": "claimAll",
      "outputs": [],
      "payable": false,
      "stateMutability": "nonpayable",
      "type": "function"
    },
    {
      "constant": false,
      "inputs": [
        {
          "name": "amount",
          "type": "uint256"
        }
      ],
      "name": "claim",
      "outputs": [],
      "payable": false,
      "stateMutability": "nonpayable",
      "type": "function"
    },
    {
      "constant": false,
      "inputs": [],
      "name": "refund",
      "outputs": [],
      "payable": false,
      "stateMutability": "nonpayable",
      "type": "function"
    },
    {
      "constant": false,
      "inputs": [
        {
          "name": "_crowdsale",
          "type": "address"
        }
      ],
      "name": "setCrowdsale",
      "outputs": [],
      "payable": false,
      "stateMutability": "nonpayable",
      "type": "function"
    },
    {
      "constant": false,
      "inputs": [
        {
          "name": "_timeLock",
          "type": "uint256"
        }
      ],
      "name": "setTimeLock",
      "outputs": [],
      "payable": false,
      "stateMutability": "nonpayable",
      "type": "function"
    },
    {
      "constant": false,
      "inputs": [],
      "name": "forceRefund",
      "outputs": [],
      "payable": false,
      "stateMutability": "nonpayable",
      "type": "function"
    },
    {
      "constant": false,
      "inputs": [],
      "name": "loadRefund",
      "outputs": [],
      "payable": true,
      "stateMutability": "payable",
      "type": "function"
    },
    {
      "constant": false,
      "inputs": [],
      "name": "getState",
      "outputs": [
        {
          "name": "",
          "type": "uint8"
        }
      ],
      "payable": false,
      "stateMutability": "nonpayable",
      "type": "function"
    },
    {
      "constant": true,
      "inputs": [],
      "name": "isPresale",
      "outputs": [
        {
          "name": "",
          "type": "bool"
        }
      ],
      "payable": false,
      "stateMutability": "view",
      "type": "function"
    }
  ],
  "bytecode": "0x608060405234801561001057600080fd5b5060405160a080611d878339810180604052810190808051906020019092919080519060200190929190805190602001909291908051906020019092919080519060200190929190505050336000806101000a81548173ffffffffffffffffffffffffffffffffffffffff021916908373ffffffffffffffffffffffffffffffffffffffff160217905550846000806101000a81548173ffffffffffffffffffffffffffffffffffffffff021916908373ffffffffffffffffffffffffffffffffffffffff16021790555060008414156100e957600080fd5b60008314156100f757600080fd5b600082141561010557600080fd5b826007819055508160088190555080600981905550836006819055505050505050611c52806101356000396000f3006080604052600436106101b7576000357c0100000000000000000000000000000000000000000000000000000000900463ffffffff1680631540fe22146101bc5780631865c57d146101e757806321df0da71461022057806327e235e314610277578063379607f5146102ce5780633c67b6b7146102fb5780633feb5f2b146103525780634042b66f146103bf578063483a20b2146103ea578063590e1ae31461042d5780635bcb318a146104445780635ed7ca5b146104715780636962b01014610488578063732783ac146104b357806384fe5029146104de57806387612102146105095780638da4d3c9146105135780638da5cb5b1461053e57806395364a841461059557806399e9376c146105c45780639c1e03a0146105f6578063a6f2ae3a1461064d578063aa5581ef14610657578063b9b8af0b14610682578063bd7427f8146106b1578063c884ef83146106c8578063cb3e64fd1461071f578063d085835a14610736578063d1058e5914610761578063d460704814610778578063d54ad2a11461078f578063d7e64c00146107ba578063dba2d875146107e5578063dde070e814610814578063f2fde38b1461086b575b600080fd5b3480156101c857600080fd5b506101d16108ae565b6040518082815260200191505060405180910390f35b3480156101f357600080fd5b506101fc6108b4565b6040518082600381111561020c57fe5b60ff16815260200191505060405180910390f35b34801561022c57600080fd5b50610235610904565b604051808273ffffffffffffffffffffffffffffffffffffffff1673ffffffffffffffffffffffffffffffffffffffff16815260200191505060405180910390f35b34801561028357600080fd5b506102b8600480360381019080803573ffffffffffffffffffffffffffffffffffffffff169060200190929190505050610a11565b6040518082815260200191505060405180910390f35b3480156102da57600080fd5b506102f960048036038101908080359060200190929190505050610a29565b005b34801561030757600080fd5b5061033c600480360381019080803573ffffffffffffffffffffffffffffffffffffffff169060200190929190505050610cda565b6040518082815260200191505060405180910390f35b34801561035e57600080fd5b5061037d60048036038101908080359060200190929190505050610d3d565b604051808273ffffffffffffffffffffffffffffffffffffffff1673ffffffffffffffffffffffffffffffffffffffff16815260200191505060405180910390f35b3480156103cb57600080fd5b506103d4610d7b565b6040518082815260200191505060405180910390f35b3480156103f657600080fd5b5061042b600480360381019080803573ffffffffffffffffffffffffffffffffffffffff169060200190929190505050610d81565b005b34801561043957600080fd5b50610442610ee2565b005b34801561045057600080fd5b5061046f600480360381019080803590602001909291905050506110a5565b005b34801561047d57600080fd5b5061048661110a565b005b34801561049457600080fd5b5061049d611182565b6040518082815260200191505060405180910390f35b3480156104bf57600080fd5b506104c8611188565b6040518082815260200191505060405180910390f35b3480156104ea57600080fd5b506104f361118e565b6040518082815260200191505060405180910390f35b610511611194565b005b34801561051f57600080fd5b506105286111c1565b6040518082815260200191505060405180910390f35b34801561054a57600080fd5b506105536111c7565b604051808273ffffffffffffffffffffffffffffffffffffffff1673ffffffffffffffffffffffffffffffffffffffff16815260200191505060405180910390f35b3480156105a157600080fd5b506105aa6111ec565b604051808215151515815260200191505060405180910390f35b6105f460048036038101908080356fffffffffffffffffffffffffffffffff1690602001909291905050506111f5565b005b34801561060257600080fd5b5061060b61121b565b604051808273ffffffffffffffffffffffffffffffffffffffff1673ffffffffffffffffffffffffffffffffffffffff16815260200191505060405180910390f35b610655611241565b005b34801561066357600080fd5b5061066c611267565b6040518082815260200191505060405180910390f35b34801561068e57600080fd5b5061069761126d565b604051808215151515815260200191505060405180910390f35b3480156106bd57600080fd5b506106c6611280565b005b3480156106d457600080fd5b50610709600480360381019080803573ffffffffffffffffffffffffffffffffffffffff1690602001909291905050506112f8565b6040518082815260200191505060405180910390f35b34801561072b57600080fd5b50610734611310565b005b34801561074257600080fd5b5061074b6113a2565b6040518082815260200191505060405180910390f35b34801561076d57600080fd5b506107766113a8565b005b34801561078457600080fd5b5061078d6113bb565b005b34801561079b57600080fd5b506107a46116a6565b6040518082815260200191505060405180910390f35b3480156107c657600080fd5b506107cf6116ac565b6040518082815260200191505060405180910390f35b3480156107f157600080fd5b506107fa6116b2565b604051808215151515815260200191505060405180910390f35b34801561082057600080fd5b50610855600480360381019080803573ffffffffffffffffffffffffffffffffffffffff1690602001909291905050506116c5565b6040518082815260200191505060405180910390f35b34801561087757600080fd5b506108ac600480360381019080803573ffffffffffffffffffffffffffffffffffffffff16906020019092919050505061175b565b005b60075481565b6000600e60009054906101000a900460ff16156108d45760039050610901565b6000600a5414156108fc57600654421015156108f35760039050610901565b60019050610901565b600290505b90565b600080600e60019054906101000a900473ffffffffffffffffffffffffffffffffffffffff1673ffffffffffffffffffffffffffffffffffffffff16141561094b57600080fd5b600e60019054906101000a900473ffffffffffffffffffffffffffffffffffffffff1673ffffffffffffffffffffffffffffffffffffffff1663fc0c546a6040518163ffffffff167c0100000000000000000000000000000000000000000000000000000000028152600401602060405180830381600087803b1580156109d157600080fd5b505af11580156109e5573d6000803e3d6000fd5b505050506040513d60208110156109fb57600080fd5b8101908080519060200190929190505050905090565b60046020528060005260406000206000915090505481565b60008060149054906101000a900460ff1615610a4457600080fd5b600d5442111515610a5457600080fd5b3390506000821415610a6557600080fd5b81610a6f82610cda565b1015610a7a57600080fd5b6000600560008373ffffffffffffffffffffffffffffffffffffffff1673ffffffffffffffffffffffffffffffffffffffff168152602001908152602001600020541415610ad557600b600081548092919060010191905055505b610b2782600560008473ffffffffffffffffffffffffffffffffffffffff1673ffffffffffffffffffffffffffffffffffffffff168152602001908152602001600020546118b090919063ffffffff16565b600560008373ffffffffffffffffffffffffffffffffffffffff1673ffffffffffffffffffffffffffffffffffffffff16815260200190815260200160002081905550610b7f82600c546118b090919063ffffffff16565b600c81905550610b8d610904565b73ffffffffffffffffffffffffffffffffffffffff1663a9059cbb82846040518363ffffffff167c0100000000000000000000000000000000000000000000000000000000028152600401808373ffffffffffffffffffffffffffffffffffffffff1673ffffffffffffffffffffffffffffffffffffffff16815260200182815260200192505050602060405180830381600087803b158015610c2f57600080fd5b505af1158015610c43573d6000803e3d6000fd5b505050506040513d6020811015610c5957600080fd5b8101908080519060200190929190505050507fb649c98f58055c520df0dcb5709eff2e931217ff2fb1e21376130d31bbb1c0af8183604051808373ffffffffffffffffffffffffffffffffffffffff1673ffffffffffffffffffffffffffffffffffffffff1681526020018281526020019250505060405180910390a15050565b6000610d36600560008473ffffffffffffffffffffffffffffffffffffffff1673ffffffffffffffffffffffffffffffffffffffff16815260200190815260200160002054610d28846116c5565b6118ce90919063ffffffff16565b9050919050565b600381815481101515610d4c57fe5b906000526020600020016000915054906101000a900473ffffffffffffffffffffffffffffffffffffffff1681565b60025481565b6000809054906101000a900473ffffffffffffffffffffffffffffffffffffffff1673ffffffffffffffffffffffffffffffffffffffff163373ffffffffffffffffffffffffffffffffffffffff16141515610ddc57600080fd5b80600e60016101000a81548173ffffffffffffffffffffffffffffffffffffffff021916908373ffffffffffffffffffffffffffffffffffffffff160217905550600e60019054906101000a900473ffffffffffffffffffffffffffffffffffffffff1673ffffffffffffffffffffffffffffffffffffffff16634551dd596040518163ffffffff167c0100000000000000000000000000000000000000000000000000000000028152600401602060405180830381600087803b158015610ea357600080fd5b505af1158015610eb7573d6000803e3d6000fd5b505050506040513d6020811015610ecd57600080fd5b81019080805190602001909291905050505050565b600080600060149054906101000a900460ff1615610eff57600080fd5b600380811115610f0b57fe5b610f136108b4565b6003811115610f1e57fe5b141515610f2a57600080fd5b3391506000600460008473ffffffffffffffffffffffffffffffffffffffff1673ffffffffffffffffffffffffffffffffffffffff168152602001908152602001600020541415610f7a57600080fd5b600460008373ffffffffffffffffffffffffffffffffffffffff1673ffffffffffffffffffffffffffffffffffffffff168152602001908152602001600020549050600460008373ffffffffffffffffffffffffffffffffffffffff1673ffffffffffffffffffffffffffffffffffffffff168152602001908152602001600020600090558173ffffffffffffffffffffffffffffffffffffffff168160405160006040518083038185875af192505050151561103657600080fd5b7fd7dee2702d63ad89917b6a4da9981c90c4d24f8c2bdfd64c604ecae57d8d06518282604051808373ffffffffffffffffffffffffffffffffffffffff1673ffffffffffffffffffffffffffffffffffffffff1681526020018281526020019250505060405180910390a15050565b6000809054906101000a900473ffffffffffffffffffffffffffffffffffffffff1673ffffffffffffffffffffffffffffffffffffffff163373ffffffffffffffffffffffffffffffffffffffff1614151561110057600080fd5b80600d8190555050565b6000809054906101000a900473ffffffffffffffffffffffffffffffffffffffff1673ffffffffffffffffffffffffffffffffffffffff163373ffffffffffffffffffffffffffffffffffffffff1614151561116557600080fd5b6001600060146101000a81548160ff021916908315150217905550565b60065481565b600a5481565b60095481565b6003808111156111a057fe5b6111a86108b4565b60038111156111b357fe5b1415156111bf57600080fd5b565b600b5481565b6000809054906101000a900473ffffffffffffffffffffffffffffffffffffffff1681565b60006001905090565b600060149054906101000a900460ff161561120f57600080fd5b611218816118e7565b50565b600e60019054906101000a900473ffffffffffffffffffffffffffffffffffffffff1681565b600060149054906101000a900460ff161561125b57600080fd5b61126560006118e7565b565b60085481565b600060149054906101000a900460ff1681565b6000809054906101000a900473ffffffffffffffffffffffffffffffffffffffff1673ffffffffffffffffffffffffffffffffffffffff163373ffffffffffffffffffffffffffffffffffffffff161415156112db57600080fd5b6001600e60006101000a81548160ff021916908315150217905550565b60056020528060005260406000206000915090505481565b6000809054906101000a900473ffffffffffffffffffffffffffffffffffffffff1673ffffffffffffffffffffffffffffffffffffffff163373ffffffffffffffffffffffffffffffffffffffff1614151561136b57600080fd5b600060149054906101000a900460ff16151561138657600080fd5b60008060146101000a81548160ff021916908315150217905550565b600d5481565b6113b96113b433610cda565b610a29565b565b600060149054906101000a900460ff16801561142457506000809054906101000a900473ffffffffffffffffffffffffffffffffffffffff1673ffffffffffffffffffffffffffffffffffffffff163373ffffffffffffffffffffffffffffffffffffffff1614155b1561142e57600080fd5b6001600381111561143b57fe5b6114436108b4565b600381111561144e57fe5b14151561145a57600080fd5b6000600e60019054906101000a900473ffffffffffffffffffffffffffffffffffffffff1673ffffffffffffffffffffffffffffffffffffffff1614156114a057600080fd5b600e60019054906101000a900473ffffffffffffffffffffffffffffffffffffffff1673ffffffffffffffffffffffffffffffffffffffff166303f9c793600254306040518363ffffffff167c0100000000000000000000000000000000000000000000000000000000028152600401808273ffffffffffffffffffffffffffffffffffffffff1673ffffffffffffffffffffffffffffffffffffffff1681526020019150506000604051808303818588803b15801561155f57600080fd5b505af1158015611573573d6000803e3d6000fd5b5050505050611580610904565b73ffffffffffffffffffffffffffffffffffffffff166370a08231306040518263ffffffff167c0100000000000000000000000000000000000000000000000000000000028152600401808273ffffffffffffffffffffffffffffffffffffffff1673ffffffffffffffffffffffffffffffffffffffff168152602001915050602060405180830381600087803b15801561161a57600080fd5b505af115801561162e573d6000803e3d6000fd5b505050506040513d602081101561164457600080fd5b8101908080519060200190929190505050600a819055506000600a54141561166b57600080fd5b7f6e1e34c7e3c3bcd68cb35ee1352c9d7320d7d1ab8ff8402c789a235f368a993e600a546040518082815260200191505060405180910390a1565b600c5481565b60015481565b600e60009054906101000a900460ff1681565b6000600260038111156116d457fe5b6116dc6108b4565b60038111156116e757fe5b1415156116f357600080fd5b60025461174a600a54600460008673ffffffffffffffffffffffffffffffffffffffff1673ffffffffffffffffffffffffffffffffffffffff16815260200190815260200160002054611beb90919063ffffffff16565b81151561175357fe5b049050919050565b6000809054906101000a900473ffffffffffffffffffffffffffffffffffffffff1673ffffffffffffffffffffffffffffffffffffffff163373ffffffffffffffffffffffffffffffffffffffff161415156117b657600080fd5b600073ffffffffffffffffffffffffffffffffffffffff168173ffffffffffffffffffffffffffffffffffffffff16141515156117f257600080fd5b8073ffffffffffffffffffffffffffffffffffffffff166000809054906101000a900473ffffffffffffffffffffffffffffffffffffffff1673ffffffffffffffffffffffffffffffffffffffff167f8be0079c531659141344cd1fd0a4f28419497f9722a3daafe3b4186f6b6457e060405160405180910390a3806000806101000a81548173ffffffffffffffffffffffffffffffffffffffff021916908373ffffffffffffffffffffffffffffffffffffffff16021790555050565b60008082840190508381101515156118c457fe5b8091505092915050565b60008282111515156118dc57fe5b818303905092915050565b600080600160038111156118f757fe5b6118ff6108b4565b600381111561190a57fe5b14151561191657600080fd5b600034141561192457600080fd5b3391506000600460008473ffffffffffffffffffffffffffffffffffffffff1673ffffffffffffffffffffffffffffffffffffffff168152602001908152602001600020541190506119be34600460008573ffffffffffffffffffffffffffffffffffffffff1673ffffffffffffffffffffffffffffffffffffffff168152602001908152602001600020546118b090919063ffffffff16565b600460008473ffffffffffffffffffffffffffffffffffffffff1673ffffffffffffffffffffffffffffffffffffffff16815260200190815260200160002081905550600754600460008473ffffffffffffffffffffffffffffffffffffffff1673ffffffffffffffffffffffffffffffffffffffff168152602001908152602001600020541080611a905750600854600460008473ffffffffffffffffffffffffffffffffffffffff1673ffffffffffffffffffffffffffffffffffffffff16815260200190815260200160002054115b15611a9a57600080fd5b801515611b1a5760038290806001815401808255809150509060018203906000526020600020016000909192909190916101000a81548173ffffffffffffffffffffffffffffffffffffffff021916908373ffffffffffffffffffffffffffffffffffffffff160217905550506001600081548092919060010191905055505b611b2f346002546118b090919063ffffffff16565b6002819055506009546002541115611b4657600080fd5b7f0396f60aaad038749091d273dc13aaabc63db6e2271c7bad442d5cf25cc433508234600086604051808573ffffffffffffffffffffffffffffffffffffffff1673ffffffffffffffffffffffffffffffffffffffff168152602001848152602001838152602001826fffffffffffffffffffffffffffffffff166fffffffffffffffffffffffffffffffff16815260200194505050505060405180910390a1505050565b6000806000841415611c005760009150611c1f565b8284029050828482811515611c1157fe5b04141515611c1b57fe5b8091505b50929150505600a165627a7a72305820c2ceb50753c07fd21ad6161141164051ac881f82a6ee572564be5817471833510029",
  "source": "/**\r\n * This smart contract code is Copyright 2017 TokenMarket Ltd. For more information see https://tokenmarket.net\r\n *\r\n * Licensed under the Apache License, version 2.0: https://github.com/TokenMarketNet/ico/blob/master/LICENSE.txt\r\n */\r\n\r\npragma solidity ^0.4.6;\r\n\r\nimport \"./zeppelin/contracts/math/SafeMath.sol\";\r\nimport \"./Crowdsale.sol\";\r\nimport \"./Haltable.sol\";\r\n\r\n/**\r\n * Collect funds from presale investors, buy tokens for them in a single transaction and distribute out tokens.\r\n *\r\n * - Collect funds from pre-sale investors\r\n * - Send funds to the crowdsale when it opens\r\n * - Allow owner to set the crowdsale\r\n * - Have refund after X days as a safety hatch if the crowdsale doesn't materilize\r\n * - Allow unlimited investors\r\n * - Tokens are distributed on PreICOProxyBuyer smart contract first\r\n * - The original investors can claim their tokens from the smart contract after the token transfer has been released\r\n * - All functions can be halted by owner if something goes wrong\r\n *\r\n */\r\ncontract PreICOProxyBuyer is Ownable, Haltable {\r\n  using SafeMath for uint;\r\n\r\n  /** How many investors we have now */\r\n  uint public investorCount;\r\n\r\n  /** How many wei we have raised totla. */\r\n  uint public weiRaised;\r\n\r\n  /** Who are our investors (iterable) */\r\n  address[] public investors;\r\n\r\n  /** How much they have invested */\r\n  mapping(address => uint) public balances;\r\n\r\n  /** How many tokens investors have claimed */\r\n  mapping(address => uint) public claimed;\r\n\r\n  /** When our refund freeze is over (UNIT timestamp) */\r\n  uint public freezeEndsAt;\r\n\r\n  /** What is the minimum buy in */\r\n  uint public weiMinimumLimit;\r\n\r\n  /** What is the maximum buy in */\r\n  uint public weiMaximumLimit;\r\n\r\n  /** How many weis total we are allowed to collect. */\r\n  uint public weiCap;\r\n\r\n  /** How many tokens were bought */\r\n  uint public tokensBought;\r\n\r\n   /** How many investors have claimed their tokens */\r\n  uint public claimCount;\r\n\r\n  uint public totalClaimed;\r\n\r\n  /** If timeLock > 0, claiming is possible only after the time has passed **/\r\n  uint public timeLock;\r\n\r\n  /** This is used to signal that we want the refund **/\r\n  bool public forcedRefund;\r\n\r\n  /** Our ICO contract where we will move the funds */\r\n  Crowdsale public crowdsale;\r\n\r\n  /** What is our current state. */\r\n  enum State{Unknown, Funding, Distributing, Refunding}\r\n\r\n  /** Somebody loaded their investment money */\r\n  event Invested(address investor, uint weiAmount, uint tokenAmount, uint128 customerId);\r\n\r\n  /** Refund claimed */\r\n  event Refunded(address investor, uint value);\r\n\r\n  /** We executed our buy */\r\n  event TokensBoughts(uint count);\r\n\r\n  /** We distributed tokens to an investor */\r\n  event Distributed(address investor, uint count);\r\n\r\n  /**\r\n   * Create presale contract where lock up period is given days\r\n   */\r\n  function PreICOProxyBuyer(address _owner, uint _freezeEndsAt, uint _weiMinimumLimit, uint _weiMaximumLimit, uint _weiCap) {\r\n\r\n    owner = _owner;\r\n\r\n    // Give argument\r\n    if(_freezeEndsAt == 0) {\r\n      throw;\r\n    }\r\n\r\n    // Give argument\r\n    if(_weiMinimumLimit == 0) {\r\n      throw;\r\n    }\r\n\r\n    if(_weiMaximumLimit == 0) {\r\n      throw;\r\n    }\r\n\r\n    weiMinimumLimit = _weiMinimumLimit;\r\n    weiMaximumLimit = _weiMaximumLimit;\r\n    weiCap = _weiCap;\r\n    freezeEndsAt = _freezeEndsAt;\r\n  }\r\n\r\n  /**\r\n   * Get the token we are distributing.\r\n   */\r\n  function getToken() public constant returns(FractionalERC20) {\r\n    if(address(crowdsale) == 0)  {\r\n      throw;\r\n    }\r\n\r\n    return crowdsale.token();\r\n  }\r\n\r\n  /**\r\n   * Participate to a presale.\r\n   */\r\n  function invest(uint128 customerId) private {\r\n\r\n    // Cannot invest anymore through crowdsale when moving has begun\r\n    if(getState() != State.Funding) throw;\r\n\r\n    if(msg.value == 0) throw; // No empty buys\r\n\r\n    address investor = msg.sender;\r\n\r\n    bool existing = balances[investor] > 0;\r\n\r\n    balances[investor] = balances[investor].add(msg.value);\r\n\r\n    // Need to satisfy minimum and maximum limits\r\n    if(balances[investor] < weiMinimumLimit || balances[investor] > weiMaximumLimit) {\r\n      throw;\r\n    }\r\n\r\n    // This is a new investor\r\n    if(!existing) {\r\n      investors.push(investor);\r\n      investorCount++;\r\n    }\r\n\r\n    weiRaised = weiRaised.add(msg.value);\r\n    if(weiRaised > weiCap) {\r\n      throw;\r\n    }\r\n\r\n    // We will use the same event form the Crowdsale for compatibility reasons\r\n    // despite not having a token amount.\r\n    Invested(investor, msg.value, 0, customerId);\r\n  }\r\n\r\n  function buyWithCustomerId(uint128 customerId) public stopInEmergency payable {\r\n    invest(customerId);\r\n  }\r\n\r\n  function buy() public stopInEmergency payable {\r\n    invest(0x0);\r\n  }\r\n\r\n\r\n  /**\r\n   * Load funds to the crowdsale for all investors.\r\n   *\r\n   *\r\n   */\r\n  function buyForEverybody() stopNonOwnersInEmergency public {\r\n\r\n    if(getState() != State.Funding) {\r\n      // Only allow buy once\r\n      throw;\r\n    }\r\n\r\n    // Crowdsale not yet set\r\n    if(address(crowdsale) == 0) throw;\r\n\r\n    // Buy tokens on the contract\r\n    crowdsale.invest.value(weiRaised)(address(this));\r\n\r\n    // Record how many tokens we got\r\n    tokensBought = getToken().balanceOf(address(this));\r\n\r\n    if(tokensBought == 0) {\r\n      // Did not get any tokens\r\n      throw;\r\n    }\r\n\r\n    TokensBoughts(tokensBought);\r\n  }\r\n\r\n  /**\r\n   * How may tokens each investor gets.\r\n   */\r\n  function getClaimAmount(address investor) public constant returns (uint) {\r\n\r\n    // Claims can be only made if we manage to buy tokens\r\n    if(getState() != State.Distributing) {\r\n      throw;\r\n    }\r\n    return balances[investor].mul(tokensBought) / weiRaised;\r\n  }\r\n\r\n  /**\r\n   * How many tokens remain unclaimed for an investor.\r\n   */\r\n  function getClaimLeft(address investor) public constant returns (uint) {\r\n    return getClaimAmount(investor).sub(claimed[investor]);\r\n  }\r\n\r\n  /**\r\n   * Claim all remaining tokens for this investor.\r\n   */\r\n  function claimAll() {\r\n    claim(getClaimLeft(msg.sender));\r\n  }\r\n\r\n  /**\r\n   * Claim N bought tokens to the investor as the msg sender.\r\n   *\r\n   */\r\n  function claim(uint amount) stopInEmergency {\r\n    require (now > timeLock);\r\n\r\n    address investor = msg.sender;\r\n\r\n    if(amount == 0) {\r\n      throw;\r\n    }\r\n\r\n    if(getClaimLeft(investor) < amount) {\r\n      // Woops we cannot get more than we have left\r\n      throw;\r\n    }\r\n\r\n    // We track who many investor have (partially) claimed their tokens\r\n    if(claimed[investor] == 0) {\r\n      claimCount++;\r\n    }\r\n\r\n    claimed[investor] = claimed[investor].add(amount);\r\n    totalClaimed = totalClaimed.add(amount);\r\n    getToken().transfer(investor, amount);\r\n\r\n    Distributed(investor, amount);\r\n  }\r\n\r\n  /**\r\n   * ICO never happened. Allow refund.\r\n   */\r\n  function refund() stopInEmergency {\r\n\r\n    // Trying to ask refund too soon\r\n    if(getState() != State.Refunding) throw;\r\n\r\n    address investor = msg.sender;\r\n    if(balances[investor] == 0) throw;\r\n    uint amount = balances[investor];\r\n    delete balances[investor];\r\n    if(!(investor.call.value(amount)())) throw;\r\n    Refunded(investor, amount);\r\n  }\r\n\r\n  /**\r\n   * Set the target crowdsale where we will move presale funds when the crowdsale opens.\r\n   */\r\n  function setCrowdsale(Crowdsale _crowdsale) public onlyOwner {\r\n    crowdsale = _crowdsale;\r\n\r\n    // Check interface\r\n    if(!crowdsale.isCrowdsale()) true;\r\n  }\r\n\r\n  /// @dev Setting timelock (delay) for claiming\r\n  /// @param _timeLock Time after which claiming is possible\r\n  function setTimeLock(uint _timeLock) public onlyOwner {\r\n    timeLock = _timeLock;\r\n  }\r\n\r\n  /// @dev This is used in the first case scenario, this will force the state\r\n  ///      to refunding. This can be also used when the ICO fails to meet the cap.\r\n  function forceRefund() public onlyOwner {\r\n    forcedRefund = true;\r\n  }\r\n\r\n  /// @dev This should be used if the Crowdsale fails, to receive the refuld money.\r\n  ///      we can't use Crowdsale's refund, since our default function does not\r\n  ///      accept money in.\r\n  function loadRefund() public payable {\r\n    if(getState() != State.Refunding) throw;\r\n  }\r\n\r\n  /**\r\n   * Resolve the contract umambigious state.\r\n   */\r\n  function getState() public returns(State) {\r\n    if (forcedRefund)\r\n      return State.Refunding;\r\n\r\n    if(tokensBought == 0) {\r\n      if(now >= freezeEndsAt) {\r\n         return State.Refunding;\r\n      } else {\r\n        return State.Funding;\r\n      }\r\n    } else {\r\n      return State.Distributing;\r\n    }\r\n  }\r\n\r\n  /** Interface marker. */\r\n  function isPresale() public constant returns (bool) {\r\n    return true;\r\n  }\r\n\r\n  /** Explicitly call function from your wallet. */\r\n  function() payable {\r\n    throw;\r\n  }\r\n}\r\n",
  "sourcePath": "D:\\trees\\tokenmint\\contracts\\tokenmarketnet-contracts\\contracts\\PreICOProxyBuyer.sol",
  "compiler": {
    "name": "solc",
    "version": "0.4.24+commit.e67f0147.Emscripten.clang"
  },
  "schemaVersion": "2.0.1",
  "updatedAt": "2018-12-10T14:03:30.271Z"
}