{
  "contractName": "PresaleFundCollector",
  "abi": [
    {
      "constant": true,
      "inputs": [],
      "name": "weiMinimumLimit",
      "outputs": [
        {
          "name": "",
          "type": "uint256"
        }
      ],
      "payable": false,
      "stateMutability": "view",
      "type": "function"
    },
    {
      "constant": true,
      "inputs": [
        {
          "name": "",
          "type": "address"
        }
      ],
      "name": "balances",
      "outputs": [
        {
          "name": "",
          "type": "uint256"
        }
      ],
      "payable": false,
      "stateMutability": "view",
      "type": "function"
    },
    {
      "constant": true,
      "inputs": [
        {
          "name": "",
          "type": "uint256"
        }
      ],
      "name": "investors",
      "outputs": [
        {
          "name": "",
          "type": "address"
        }
      ],
      "payable": false,
      "stateMutability": "view",
      "type": "function"
    },
    {
      "constant": true,
      "inputs": [],
      "name": "freezeEndsAt",
      "outputs": [
        {
          "name": "",
          "type": "uint256"
        }
      ],
      "payable": false,
      "stateMutability": "view",
      "type": "function"
    },
    {
      "constant": true,
      "inputs": [],
      "name": "MAX_INVESTORS",
      "outputs": [
        {
          "name": "",
          "type": "uint256"
        }
      ],
      "payable": false,
      "stateMutability": "view",
      "type": "function"
    },
    {
      "constant": true,
      "inputs": [],
      "name": "owner",
      "outputs": [
        {
          "name": "",
          "type": "address"
        }
      ],
      "payable": false,
      "stateMutability": "view",
      "type": "function"
    },
    {
      "constant": true,
      "inputs": [],
      "name": "crowdsale",
      "outputs": [
        {
          "name": "",
          "type": "address"
        }
      ],
      "payable": false,
      "stateMutability": "view",
      "type": "function"
    },
    {
      "constant": true,
      "inputs": [],
      "name": "moving",
      "outputs": [
        {
          "name": "",
          "type": "bool"
        }
      ],
      "payable": false,
      "stateMutability": "view",
      "type": "function"
    },
    {
      "constant": true,
      "inputs": [],
      "name": "investorCount",
      "outputs": [
        {
          "name": "",
          "type": "uint256"
        }
      ],
      "payable": false,
      "stateMutability": "view",
      "type": "function"
    },
    {
      "constant": false,
      "inputs": [
        {
          "name": "newOwner",
          "type": "address"
        }
      ],
      "name": "transferOwnership",
      "outputs": [],
      "payable": false,
      "stateMutability": "nonpayable",
      "type": "function"
    },
    {
      "inputs": [
        {
          "name": "_owner",
          "type": "address"
        },
        {
          "name": "_freezeEndsAt",
          "type": "uint256"
        },
        {
          "name": "_weiMinimumLimit",
          "type": "uint256"
        }
      ],
      "payable": false,
      "stateMutability": "nonpayable",
      "type": "constructor"
    },
    {
      "payable": true,
      "stateMutability": "payable",
      "type": "fallback"
    },
    {
      "anonymous": false,
      "inputs": [
        {
          "indexed": false,
          "name": "investor",
          "type": "address"
        },
        {
          "indexed": false,
          "name": "value",
          "type": "uint256"
        }
      ],
      "name": "Invested",
      "type": "event"
    },
    {
      "anonymous": false,
      "inputs": [
        {
          "indexed": false,
          "name": "investor",
          "type": "address"
        },
        {
          "indexed": false,
          "name": "value",
          "type": "uint256"
        }
      ],
      "name": "Refunded",
      "type": "event"
    },
    {
      "anonymous": false,
      "inputs": [
        {
          "indexed": true,
          "name": "previousOwner",
          "type": "address"
        },
        {
          "indexed": true,
          "name": "newOwner",
          "type": "address"
        }
      ],
      "name": "OwnershipTransferred",
      "type": "event"
    },
    {
      "constant": false,
      "inputs": [],
      "name": "invest",
      "outputs": [],
      "payable": true,
      "stateMutability": "payable",
      "type": "function"
    },
    {
      "constant": false,
      "inputs": [
        {
          "name": "investor",
          "type": "address"
        }
      ],
      "name": "participateCrowdsaleInvestor",
      "outputs": [],
      "payable": false,
      "stateMutability": "nonpayable",
      "type": "function"
    },
    {
      "constant": false,
      "inputs": [],
      "name": "participateCrowdsaleAll",
      "outputs": [],
      "payable": false,
      "stateMutability": "nonpayable",
      "type": "function"
    },
    {
      "constant": false,
      "inputs": [],
      "name": "refund",
      "outputs": [],
      "payable": false,
      "stateMutability": "nonpayable",
      "type": "function"
    },
    {
      "constant": false,
      "inputs": [
        {
          "name": "_crowdsale",
          "type": "address"
        }
      ],
      "name": "setCrowdsale",
      "outputs": [],
      "payable": false,
      "stateMutability": "nonpayable",
      "type": "function"
    }
  ],
  "bytecode": "0x6080604052602060015534801561001557600080fd5b50604051606080610f28833981018060405281019080805190602001909291908051906020019092919080519060200190929190505050336000806101000a81548173ffffffffffffffffffffffffffffffffffffffff021916908373ffffffffffffffffffffffffffffffffffffffff160217905550826000806101000a81548173ffffffffffffffffffffffffffffffffffffffff021916908373ffffffffffffffffffffffffffffffffffffffff16021790555060008214156100da57600080fd5b60008114156100e857600080fd5b8060068190555081600581905550505050610e20806101086000396000f3006080604052600436106100db576000357c0100000000000000000000000000000000000000000000000000000000900463ffffffff1680631540fe22146100e057806324ae84cc1461010b57806327e235e31461014e5780633feb5f2b146101a5578063483a20b214610212578063590e1ae3146102555780636962b0101461026c5780636a34480b146102975780638da5cb5b146102c25780639c1e03a014610319578063b8e3e6da14610370578063cb11526d14610387578063d7e64c00146103b6578063e8b5e51f146103e1578063f2fde38b146103eb575b600080fd5b3480156100ec57600080fd5b506100f561042e565b6040518082815260200191505060405180910390f35b34801561011757600080fd5b5061014c600480360381019080803573ffffffffffffffffffffffffffffffffffffffff169060200190929190505050610434565b005b34801561015a57600080fd5b5061018f600480360381019080803573ffffffffffffffffffffffffffffffffffffffff16906020019092919050505061063e565b6040518082815260200191505060405180910390f35b3480156101b157600080fd5b506101d060048036038101908080359060200190929190505050610656565b604051808273ffffffffffffffffffffffffffffffffffffffff1673ffffffffffffffffffffffffffffffffffffffff16815260200191505060405180910390f35b34801561021e57600080fd5b50610253600480360381019080803573ffffffffffffffffffffffffffffffffffffffff169060200190929190505050610694565b005b34801561026157600080fd5b5061026a610733565b005b34801561027857600080fd5b506102816108e4565b6040518082815260200191505060405180910390f35b3480156102a357600080fd5b506102ac6108ea565b6040518082815260200191505060405180910390f35b3480156102ce57600080fd5b506102d76108f0565b604051808273ffffffffffffffffffffffffffffffffffffffff1673ffffffffffffffffffffffffffffffffffffffff16815260200191505060405180910390f35b34801561032557600080fd5b5061032e610915565b604051808273ffffffffffffffffffffffffffffffffffffffff1673ffffffffffffffffffffffffffffffffffffffff16815260200191505060405180910390f35b34801561037c57600080fd5b5061038561093b565b005b34801561039357600080fd5b5061039c6109a0565b604051808215151515815260200191505060405180910390f35b3480156103c257600080fd5b506103cb6109b3565b6040518082815260200191505060405180910390f35b6103e96109b9565b005b3480156103f757600080fd5b5061042c600480360381019080803573ffffffffffffffffffffffffffffffffffffffff169060200190929190505050610c9f565b005b60065481565b600080600760019054906101000a900473ffffffffffffffffffffffffffffffffffffffff1673ffffffffffffffffffffffffffffffffffffffff16141561047b57600080fd5b6001600760006101000a81548160ff0219169083151502179055506000600460008473ffffffffffffffffffffffffffffffffffffffff1673ffffffffffffffffffffffffffffffffffffffff16815260200190815260200160002054111561063a57600460008373ffffffffffffffffffffffffffffffffffffffff1673ffffffffffffffffffffffffffffffffffffffff168152602001908152602001600020549050600460008373ffffffffffffffffffffffffffffffffffffffff1673ffffffffffffffffffffffffffffffffffffffff16815260200190815260200160002060009055600760019054906101000a900473ffffffffffffffffffffffffffffffffffffffff1673ffffffffffffffffffffffffffffffffffffffff166303f9c79382846040518363ffffffff167c0100000000000000000000000000000000000000000000000000000000028152600401808273ffffffffffffffffffffffffffffffffffffffff1673ffffffffffffffffffffffffffffffffffffffff1681526020019150506000604051808303818588803b15801561062057600080fd5b505af1158015610634573d6000803e3d6000fd5b50505050505b5050565b60046020528060005260406000206000915090505481565b60038181548110151561066557fe5b906000526020600020016000915054906101000a900473ffffffffffffffffffffffffffffffffffffffff1681565b6000809054906101000a900473ffffffffffffffffffffffffffffffffffffffff1673ffffffffffffffffffffffffffffffffffffffff163373ffffffffffffffffffffffffffffffffffffffff161415156106ef57600080fd5b80600760016101000a81548173ffffffffffffffffffffffffffffffffffffffff021916908373ffffffffffffffffffffffffffffffffffffffff16021790555050565b60008060055442101561074557600080fd5b6001600760006101000a81548160ff0219169083151502179055503391506000600460008473ffffffffffffffffffffffffffffffffffffffff1673ffffffffffffffffffffffffffffffffffffffff1681526020019081526020016000205414156107b057600080fd5b600460008373ffffffffffffffffffffffffffffffffffffffff1673ffffffffffffffffffffffffffffffffffffffff168152602001908152602001600020549050600460008373ffffffffffffffffffffffffffffffffffffffff1673ffffffffffffffffffffffffffffffffffffffff168152602001908152602001600020600090558173ffffffffffffffffffffffffffffffffffffffff166108fc829081150290604051600060405180830381858888f19350505050151561087557600080fd5b7fd7dee2702d63ad89917b6a4da9981c90c4d24f8c2bdfd64c604ecae57d8d06518282604051808373ffffffffffffffffffffffffffffffffffffffff1673ffffffffffffffffffffffffffffffffffffffff1681526020018281526020019250505060405180910390a15050565b60055481565b60015481565b6000809054906101000a900473ffffffffffffffffffffffffffffffffffffffff1681565b600760019054906101000a900473ffffffffffffffffffffffffffffffffffffffff1681565b60008090505b60038054905081101561099d5761099060038281548110151561096057fe5b9060005260206000200160009054906101000a900473ffffffffffffffffffffffffffffffffffffffff16610434565b8080600101915050610941565b50565b600760009054906101000a900460ff1681565b60025481565b600080600760009054906101000a900460ff16156109d657600080fd5b3391506000600460008473ffffffffffffffffffffffffffffffffffffffff1673ffffffffffffffffffffffffffffffffffffffff16815260200190815260200160002054119050600460008373ffffffffffffffffffffffffffffffffffffffff1673ffffffffffffffffffffffffffffffffffffffff1681526020019081526020016000205473__SafeMathLib___________________________6366098d4f9091346040518363ffffffff167c0100000000000000000000000000000000000000000000000000000000028152600401808381526020018281526020019250505060206040518083038186803b158015610ad257600080fd5b505af4158015610ae6573d6000803e3d6000fd5b505050506040513d6020811015610afc57600080fd5b8101908080519060200190929190505050600460008473ffffffffffffffffffffffffffffffffffffffff1673ffffffffffffffffffffffffffffffffffffffff16815260200190815260200160002081905550600654600460008473ffffffffffffffffffffffffffffffffffffffff1673ffffffffffffffffffffffffffffffffffffffff168152602001908152602001600020541015610b9e57600080fd5b801515610c3057600154600254101515610bb757600080fd5b60038290806001815401808255809150509060018203906000526020600020016000909192909190916101000a81548173ffffffffffffffffffffffffffffffffffffffff021916908373ffffffffffffffffffffffffffffffffffffffff160217905550506002600081548092919060010191905055505b7fc3f75dfc78f6efac88ad5abb5e606276b903647d97b2a62a1ef89840a658bbc38234604051808373ffffffffffffffffffffffffffffffffffffffff1673ffffffffffffffffffffffffffffffffffffffff1681526020018281526020019250505060405180910390a15050565b6000809054906101000a900473ffffffffffffffffffffffffffffffffffffffff1673ffffffffffffffffffffffffffffffffffffffff163373ffffffffffffffffffffffffffffffffffffffff16141515610cfa57600080fd5b600073ffffffffffffffffffffffffffffffffffffffff168173ffffffffffffffffffffffffffffffffffffffff1614151515610d3657600080fd5b8073ffffffffffffffffffffffffffffffffffffffff166000809054906101000a900473ffffffffffffffffffffffffffffffffffffffff1673ffffffffffffffffffffffffffffffffffffffff167f8be0079c531659141344cd1fd0a4f28419497f9722a3daafe3b4186f6b6457e060405160405180910390a3806000806101000a81548173ffffffffffffffffffffffffffffffffffffffff021916908373ffffffffffffffffffffffffffffffffffffffff160217905550505600a165627a7a7230582002ee0a5d10af4d2f2142c3f56b75cd872782b48b9988f1ef7d84bf76dc6716790029",
  "source": "/**\r\n * This smart contract code is Copyright 2017 TokenMarket Ltd. For more information see https://tokenmarket.net\r\n *\r\n * Licensed under the Apache License, version 2.0: https://github.com/TokenMarketNet/ico/blob/master/LICENSE.txt\r\n */\r\n\r\npragma solidity ^0.4.6;\r\n\r\n\r\nimport \"./Crowdsale.sol\";\r\nimport \"./SafeMathLib.sol\";\r\n\r\n/**\r\n * Collect funds from presale investors to be send to the crowdsale smart contract later.\r\n *\r\n * - Collect funds from pre-sale investors\r\n * - Send funds to the crowdsale when it opens\r\n * - Allow owner to set the crowdsale\r\n * - Have refund after X days as a safety hatch if the crowdsale doesn't materilize\r\n *\r\n */\r\ncontract PresaleFundCollector is Ownable {\r\n\r\n  using SafeMathLib for uint;\r\n\r\n  /** How many investors when can carry per a single contract */\r\n  uint public MAX_INVESTORS = 32;\r\n\r\n  /** How many investors we have now */\r\n  uint public investorCount;\r\n\r\n  /** Who are our investors (iterable) */\r\n  address[] public investors;\r\n\r\n  /** How much they have invested */\r\n  mapping(address => uint) public balances;\r\n\r\n  /** When our refund freeze is over (UNIX timestamp) */\r\n  uint public freezeEndsAt;\r\n\r\n  /** What is the minimum buy in */\r\n  uint public weiMinimumLimit;\r\n\r\n  /** Have we begun to move funds */\r\n  bool public moving;\r\n\r\n  /** Our ICO contract where we will move the funds */\r\n  Crowdsale public crowdsale;\r\n\r\n  event Invested(address investor, uint value);\r\n  event Refunded(address investor, uint value);\r\n\r\n  /**\r\n   * Create presale contract where lock up period is given days\r\n   */\r\n  function PresaleFundCollector(address _owner, uint _freezeEndsAt, uint _weiMinimumLimit) {\r\n\r\n    owner = _owner;\r\n\r\n    // Give argument\r\n    if(_freezeEndsAt == 0) {\r\n      throw;\r\n    }\r\n\r\n    // Give argument\r\n    if(_weiMinimumLimit == 0) {\r\n      throw;\r\n    }\r\n\r\n    weiMinimumLimit = _weiMinimumLimit;\r\n    freezeEndsAt = _freezeEndsAt;\r\n  }\r\n\r\n  /**\r\n   * Participate to a presale.\r\n   */\r\n  function invest() public payable {\r\n\r\n    // Cannot invest anymore through crowdsale when moving has begun\r\n    if(moving) throw;\r\n\r\n    address investor = msg.sender;\r\n\r\n    bool existing = balances[investor] > 0;\r\n\r\n    balances[investor] = balances[investor].plus(msg.value);\r\n\r\n    // Need to fulfill minimum limit\r\n    if(balances[investor] < weiMinimumLimit) {\r\n      throw;\r\n    }\r\n\r\n    // This is a new investor\r\n    if(!existing) {\r\n\r\n      // Limit number of investors to prevent too long loops\r\n      if(investorCount >= MAX_INVESTORS) throw;\r\n\r\n      investors.push(investor);\r\n      investorCount++;\r\n    }\r\n\r\n    Invested(investor, msg.value);\r\n  }\r\n\r\n  /**\r\n   * Load funds to the crowdsale for a single investor.\r\n   */\r\n  function participateCrowdsaleInvestor(address investor) public {\r\n\r\n    // Crowdsale not yet set\r\n    if(address(crowdsale) == 0) throw;\r\n\r\n    moving = true;\r\n\r\n    if(balances[investor] > 0) {\r\n      uint amount = balances[investor];\r\n      delete balances[investor];\r\n      crowdsale.invest.value(amount)(investor);\r\n    }\r\n  }\r\n\r\n  /**\r\n   * Load funds to the crowdsale for all investor.\r\n   *\r\n   */\r\n  function participateCrowdsaleAll() public {\r\n\r\n    // We might hit a max gas limit in this loop,\r\n    // and in this case you can simply call participateCrowdsaleInvestor() for all investors\r\n    for(uint i=0; i<investors.length; i++) {\r\n       participateCrowdsaleInvestor(investors[i]);\r\n    }\r\n  }\r\n\r\n  /**\r\n   * ICO never happened. Allow refund.\r\n   */\r\n  function refund() {\r\n\r\n    // Trying to ask refund too soon\r\n    if(now < freezeEndsAt) throw;\r\n\r\n    // We have started to move funds\r\n    moving = true;\r\n\r\n    address investor = msg.sender;\r\n    if(balances[investor] == 0) throw;\r\n    uint amount = balances[investor];\r\n    delete balances[investor];\r\n    if(!investor.send(amount)) throw;\r\n    Refunded(investor, amount);\r\n  }\r\n\r\n  /**\r\n   * Set the target crowdsale where we will move presale funds when the crowdsale opens.\r\n   */\r\n  function setCrowdsale(Crowdsale _crowdsale) public onlyOwner {\r\n     crowdsale = _crowdsale;\r\n  }\r\n\r\n  /** Explicitly call function from your wallet. */\r\n  function() payable {\r\n    throw;\r\n  }\r\n}\r\n",
  "sourcePath": "D:\\trees\\tokenmint\\contracts\\tokenmarketnet-contracts\\contracts\\PresaleFundCollector.sol",
  "compiler": {
    "name": "solc",
    "version": "0.4.24+commit.e67f0147.Emscripten.clang"
  },
  "schemaVersion": "2.0.1",
  "updatedAt": "2018-12-10T14:03:30.273Z"
}