{
  "contractName": "PullPaymentMock",
  "abi": [
    {
      "constant": true,
      "inputs": [],
      "name": "totalPayments",
      "outputs": [
        {
          "name": "",
          "type": "uint256"
        }
      ],
      "payable": false,
      "stateMutability": "view",
      "type": "function"
    },
    {
      "constant": false,
      "inputs": [],
      "name": "withdrawPayments",
      "outputs": [],
      "payable": false,
      "stateMutability": "nonpayable",
      "type": "function"
    },
    {
      "constant": true,
      "inputs": [
        {
          "name": "",
          "type": "address"
        }
      ],
      "name": "payments",
      "outputs": [
        {
          "name": "",
          "type": "uint256"
        }
      ],
      "payable": false,
      "stateMutability": "view",
      "type": "function"
    },
    {
      "inputs": [],
      "payable": true,
      "stateMutability": "payable",
      "type": "constructor"
    },
    {
      "constant": false,
      "inputs": [
        {
          "name": "dest",
          "type": "address"
        },
        {
          "name": "amount",
          "type": "uint256"
        }
      ],
      "name": "callSend",
      "outputs": [],
      "payable": false,
      "stateMutability": "nonpayable",
      "type": "function"
    }
  ],
  "bytecode": "0x60806040526103aa806100136000396000f300608060405260043610610061576000357c0100000000000000000000000000000000000000000000000000000000900463ffffffff1680625b4487146100665780636103d70b14610091578063752c5628146100a8578063e2982c21146100f5575b600080fd5b34801561007257600080fd5b5061007b61014c565b6040518082815260200191505060405180910390f35b34801561009d57600080fd5b506100a6610152565b005b3480156100b457600080fd5b506100f3600480360381019080803573ffffffffffffffffffffffffffffffffffffffff1690602001909291908035906020019092919050505061026f565b005b34801561010157600080fd5b50610136600480360381019080803573ffffffffffffffffffffffffffffffffffffffff16906020019092919050505061027d565b6040518082815260200191505060405180910390f35b60015481565b6000803391506000808373ffffffffffffffffffffffffffffffffffffffff1673ffffffffffffffffffffffffffffffffffffffff168152602001908152602001600020549050600081141515156101a957600080fd5b803073ffffffffffffffffffffffffffffffffffffffff1631101515156101cf57600080fd5b6101e48160015461029590919063ffffffff16565b60018190555060008060008473ffffffffffffffffffffffffffffffffffffffff1673ffffffffffffffffffffffffffffffffffffffff168152602001908152602001600020819055508173ffffffffffffffffffffffffffffffffffffffff166108fc829081150290604051600060405180830381858888f19350505050151561026b57fe5b5050565b61027982826102ae565b5050565b60006020528060005260406000206000915090505481565b60008282111515156102a357fe5b818303905092915050565b6102ff816000808573ffffffffffffffffffffffffffffffffffffffff1673ffffffffffffffffffffffffffffffffffffffff1681526020019081526020016000205461036090919063ffffffff16565b6000808473ffffffffffffffffffffffffffffffffffffffff1673ffffffffffffffffffffffffffffffffffffffff168152602001908152602001600020819055506103568160015461036090919063ffffffff16565b6001819055505050565b600080828401905083811015151561037457fe5b80915050929150505600a165627a7a72305820408ef8c9db04a950e733415587c0c7f61db435c22c8b1e1783c3a2d25cb734ec0029",
  "source": "pragma solidity ^0.4.18;\r\n\r\n\r\nimport \"../payment/PullPayment.sol\";\r\n\r\n\r\n// mock class using PullPayment\r\ncontract PullPaymentMock is PullPayment {\r\n\r\n  function PullPaymentMock() public payable { }\r\n\r\n  // test helper function to call asyncSend\r\n  function callSend(address dest, uint256 amount) public {\r\n    asyncSend(dest, amount);\r\n  }\r\n\r\n}\r\n",
  "sourcePath": "D:\\trees\\tokenmint\\contracts\\tokenmarketnet-contracts\\contracts\\zeppelin\\contracts\\mocks\\PullPaymentMock.sol",
  "compiler": {
    "name": "solc",
    "version": "0.4.24+commit.e67f0147.Emscripten.clang"
  },
  "schemaVersion": "2.0.1",
  "updatedAt": "2018-12-10T14:03:30.319Z"
}