{
  "contractName": "RefundableCrowdsaleImpl",
  "abi": [
    {
      "constant": true,
      "inputs": [],
      "name": "hasClosed",
      "outputs": [
        {
          "name": "",
          "type": "bool"
        }
      ],
      "payable": false,
      "stateMutability": "view",
      "type": "function"
    },
    {
      "constant": true,
      "inputs": [],
      "name": "rate",
      "outputs": [
        {
          "name": "",
          "type": "uint256"
        }
      ],
      "payable": false,
      "stateMutability": "view",
      "type": "function"
    },
    {
      "constant": true,
      "inputs": [],
      "name": "goal",
      "outputs": [
        {
          "name": "",
          "type": "uint256"
        }
      ],
      "payable": false,
      "stateMutability": "view",
      "type": "function"
    },
    {
      "constant": true,
      "inputs": [],
      "name": "weiRaised",
      "outputs": [
        {
          "name": "",
          "type": "uint256"
        }
      ],
      "payable": false,
      "stateMutability": "view",
      "type": "function"
    },
    {
      "constant": true,
      "inputs": [],
      "name": "isOpen",
      "outputs": [
        {
          "name": "",
          "type": "bool"
        }
      ],
      "payable": false,
      "stateMutability": "view",
      "type": "function"
    },
    {
      "constant": true,
      "inputs": [],
      "name": "closingTime",
      "outputs": [
        {
          "name": "",
          "type": "uint256"
        }
      ],
      "payable": false,
      "stateMutability": "view",
      "type": "function"
    },
    {
      "constant": false,
      "inputs": [],
      "name": "finalize",
      "outputs": [],
      "payable": false,
      "stateMutability": "nonpayable",
      "type": "function"
    },
    {
      "constant": true,
      "inputs": [],
      "name": "wallet",
      "outputs": [
        {
          "name": "",
          "type": "address"
        }
      ],
      "payable": false,
      "stateMutability": "view",
      "type": "function"
    },
    {
      "constant": true,
      "inputs": [],
      "name": "goalReached",
      "outputs": [
        {
          "name": "",
          "type": "bool"
        }
      ],
      "payable": false,
      "stateMutability": "view",
      "type": "function"
    },
    {
      "constant": true,
      "inputs": [],
      "name": "finalized",
      "outputs": [
        {
          "name": "",
          "type": "bool"
        }
      ],
      "payable": false,
      "stateMutability": "view",
      "type": "function"
    },
    {
      "constant": true,
      "inputs": [],
      "name": "openingTime",
      "outputs": [
        {
          "name": "",
          "type": "uint256"
        }
      ],
      "payable": false,
      "stateMutability": "view",
      "type": "function"
    },
    {
      "constant": false,
      "inputs": [
        {
          "name": "refundee",
          "type": "address"
        }
      ],
      "name": "claimRefund",
      "outputs": [],
      "payable": false,
      "stateMutability": "nonpayable",
      "type": "function"
    },
    {
      "constant": false,
      "inputs": [
        {
          "name": "beneficiary",
          "type": "address"
        }
      ],
      "name": "buyTokens",
      "outputs": [],
      "payable": true,
      "stateMutability": "payable",
      "type": "function"
    },
    {
      "constant": true,
      "inputs": [],
      "name": "token",
      "outputs": [
        {
          "name": "",
          "type": "address"
        }
      ],
      "payable": false,
      "stateMutability": "view",
      "type": "function"
    },
    {
      "inputs": [
        {
          "name": "openingTime",
          "type": "uint256"
        },
        {
          "name": "closingTime",
          "type": "uint256"
        },
        {
          "name": "rate",
          "type": "uint256"
        },
        {
          "name": "wallet",
          "type": "address"
        },
        {
          "name": "token",
          "type": "address"
        },
        {
          "name": "goal",
          "type": "uint256"
        }
      ],
      "payable": false,
      "stateMutability": "nonpayable",
      "type": "constructor"
    },
    {
      "payable": true,
      "stateMutability": "payable",
      "type": "fallback"
    },
    {
      "anonymous": false,
      "inputs": [],
      "name": "CrowdsaleFinalized",
      "type": "event"
    },
    {
      "anonymous": false,
      "inputs": [
        {
          "indexed": true,
          "name": "purchaser",
          "type": "address"
        },
        {
          "indexed": true,
          "name": "beneficiary",
          "type": "address"
        },
        {
          "indexed": false,
          "name": "value",
          "type": "uint256"
        },
        {
          "indexed": false,
          "name": "amount",
          "type": "uint256"
        }
      ],
      "name": "TokensPurchased",
      "type": "event"
    }
  ],
  "bytecode": "0x608060405234801561001057600080fd5b5060405160c080611c44833981018060405281019080805190602001909291908051906020019092919080519060200190929190805190602001909291908051906020019092919080519060200190929190505050808686868686600160008190555060008311151561008257600080fd5b600073ffffffffffffffffffffffffffffffffffffffff168273ffffffffffffffffffffffffffffffffffffffff16141515156100be57600080fd5b600073ffffffffffffffffffffffffffffffffffffffff168173ffffffffffffffffffffffffffffffffffffffff16141515156100fa57600080fd5b8260038190555081600260006101000a81548173ffffffffffffffffffffffffffffffffffffffff021916908373ffffffffffffffffffffffffffffffffffffffff16021790555080600160006101000a81548173ffffffffffffffffffffffffffffffffffffffff021916908373ffffffffffffffffffffffffffffffffffffffff16021790555050505042821015151561019557600080fd5b81811115156101a357600080fd5b816005819055508060068190555050506000600760006101000a81548160ff0219169083151502179055506000811115156101dd57600080fd5b6101f46102a2640100000000026401000000009004565b6101fc6102cc565b808273ffffffffffffffffffffffffffffffffffffffff1673ffffffffffffffffffffffffffffffffffffffff168152602001915050604051809103906000f08015801561024e573d6000803e3d6000fd5b50600960006101000a81548173ffffffffffffffffffffffffffffffffffffffff021916908373ffffffffffffffffffffffffffffffffffffffff16021790555080600881905550505050505050506102dc565b6000600260009054906101000a900473ffffffffffffffffffffffffffffffffffffffff16905090565b604051610d2080610f2483390190565b610c39806102eb6000396000f3006080604052600436106100d0576000357c0100000000000000000000000000000000000000000000000000000000900463ffffffff1680631515bc2b146100db5780632c4e722e1461010a57806340193883146101355780634042b66f1461016057806347535d7b1461018b5780634b6753bc146101ba5780634bb278f3146101e5578063521eb273146101fc5780637d3d652214610253578063b3f05b9714610282578063b7a8807c146102b1578063bffa55d5146102dc578063ec8ac4d81461031f578063fc0c546a14610355575b6100d9336103ac565b005b3480156100e757600080fd5b506100f06104a2565b604051808215151515815260200191505060405180910390f35b34801561011657600080fd5b5061011f6104ae565b6040518082815260200191505060405180910390f35b34801561014157600080fd5b5061014a6104b8565b6040518082815260200191505060405180910390f35b34801561016c57600080fd5b506101756104c2565b6040518082815260200191505060405180910390f35b34801561019757600080fd5b506101a06104cc565b604051808215151515815260200191505060405180910390f35b3480156101c657600080fd5b506101cf6104e7565b6040518082815260200191505060405180910390f35b3480156101f157600080fd5b506101fa6104f1565b005b34801561020857600080fd5b50610211610571565b604051808273ffffffffffffffffffffffffffffffffffffffff1673ffffffffffffffffffffffffffffffffffffffff16815260200191505060405180910390f35b34801561025f57600080fd5b5061026861059b565b604051808215151515815260200191505060405180910390f35b34801561028e57600080fd5b506102976105af565b604051808215151515815260200191505060405180910390f35b3480156102bd57600080fd5b506102c66105c6565b6040518082815260200191505060405180910390f35b3480156102e857600080fd5b5061031d600480360381019080803573ffffffffffffffffffffffffffffffffffffffff1690602001909291905050506105d0565b005b610353600480360381019080803573ffffffffffffffffffffffffffffffffffffffff1690602001909291905050506103ac565b005b34801561036157600080fd5b5061036a6106cf565b604051808273ffffffffffffffffffffffffffffffffffffffff1673ffffffffffffffffffffffffffffffffffffffff16815260200191505060405180910390f35b60008060006001600080828254019250508190555060005490503492506103d384846106f9565b6103dc8361071a565b91506103f38360045461073890919063ffffffff16565b6004819055506104038483610759565b8373ffffffffffffffffffffffffffffffffffffffff163373ffffffffffffffffffffffffffffffffffffffff167f6faf93231a456e552dbc9961f58d9713ee4f2e69d15f1975b050ef0911053a7b8585604051808381526020018281526020019250505060405180910390a361047a8484610767565b61048261076b565b61048c8484610843565b6000548114151561049c57600080fd5b50505050565b60006006544211905090565b6000600354905090565b6000600854905090565b6000600454905090565b600060055442101580156104e257506006544211155b905090565b6000600654905090565b600760009054906101000a900460ff1615151561050d57600080fd5b6105156104a2565b151561052057600080fd5b6001600760006101000a81548160ff021916908315150217905550610543610847565b7f9270cc390c096600a1c17c44345a1ba689fafd99d97487b10cfccf86cf73183660405160405180910390a1565b6000600260009054906101000a900473ffffffffffffffffffffffffffffffffffffffff16905090565b60006008546105a86104c2565b1015905090565b6000600760009054906101000a900460ff16905090565b6000600554905090565b6105d86105af565b15156105e357600080fd5b6105eb61059b565b1515156105f757600080fd5b600960009054906101000a900473ffffffffffffffffffffffffffffffffffffffff1673ffffffffffffffffffffffffffffffffffffffff166351cff8d9826040518263ffffffff167c0100000000000000000000000000000000000000000000000000000000028152600401808273ffffffffffffffffffffffffffffffffffffffff1673ffffffffffffffffffffffffffffffffffffffff168152602001915050600060405180830381600087803b1580156106b457600080fd5b505af11580156106c8573d6000803e3d6000fd5b5050505050565b6000600160009054906101000a900473ffffffffffffffffffffffffffffffffffffffff16905090565b6107016104cc565b151561070c57600080fd5b6107168282610a3e565b5050565b600061073160035483610a8e90919063ffffffff16565b9050919050565b600080828401905083811015151561074f57600080fd5b8091505092915050565b6107638282610acc565b5050565b5050565b600960009054906101000a900473ffffffffffffffffffffffffffffffffffffffff1673ffffffffffffffffffffffffffffffffffffffff1663f340fa0134336040518363ffffffff167c0100000000000000000000000000000000000000000000000000000000028152600401808273ffffffffffffffffffffffffffffffffffffffff1673ffffffffffffffffffffffffffffffffffffffff1681526020019150506000604051808303818588803b15801561082857600080fd5b505af115801561083c573d6000803e3d6000fd5b5050505050565b5050565b61084f61059b565b1561099557600960009054906101000a900473ffffffffffffffffffffffffffffffffffffffff1673ffffffffffffffffffffffffffffffffffffffff166343d726d66040518163ffffffff167c0100000000000000000000000000000000000000000000000000000000028152600401600060405180830381600087803b1580156108da57600080fd5b505af11580156108ee573d6000803e3d6000fd5b50505050600960009054906101000a900473ffffffffffffffffffffffffffffffffffffffff1673ffffffffffffffffffffffffffffffffffffffff16639af6549a6040518163ffffffff167c0100000000000000000000000000000000000000000000000000000000028152600401600060405180830381600087803b15801561097857600080fd5b505af115801561098c573d6000803e3d6000fd5b50505050610a34565b600960009054906101000a900473ffffffffffffffffffffffffffffffffffffffff1673ffffffffffffffffffffffffffffffffffffffff16638c52dc416040518163ffffffff167c0100000000000000000000000000000000000000000000000000000000028152600401600060405180830381600087803b158015610a1b57600080fd5b505af1158015610a2f573d6000803e3d6000fd5b505050505b610a3c610b1d565b565b600073ffffffffffffffffffffffffffffffffffffffff168273ffffffffffffffffffffffffffffffffffffffff1614151515610a7a57600080fd5b60008114151515610a8a57600080fd5b5050565b6000806000841415610aa35760009150610ac5565b8284029050828482811515610ab457fe5b04141515610ac157600080fd5b8091505b5092915050565b610b198282600160009054906101000a900473ffffffffffffffffffffffffffffffffffffffff1673ffffffffffffffffffffffffffffffffffffffff16610b1f9092919063ffffffff16565b5050565b565b8273ffffffffffffffffffffffffffffffffffffffff1663a9059cbb83836040518363ffffffff167c0100000000000000000000000000000000000000000000000000000000028152600401808373ffffffffffffffffffffffffffffffffffffffff1673ffffffffffffffffffffffffffffffffffffffff16815260200182815260200192505050602060405180830381600087803b158015610bc257600080fd5b505af1158015610bd6573d6000803e3d6000fd5b505050506040513d6020811015610bec57600080fd5b81019080805190602001909291905050501515610c0857600080fd5b5050505600a165627a7a7230582042fa5e9137d9ad7a4fe0e49f015894bf5a15ce5d8a5d6dcbbc0fdec6aad47ec50029608060405234801561001057600080fd5b50604051602080610d2083398101806040528101908080519060200190929190505050336000806101000a81548173ffffffffffffffffffffffffffffffffffffffff021916908373ffffffffffffffffffffffffffffffffffffffff1602179055507f4101e71e974f68df5e9730cc223280b41654676bbb052cdcc735c3337e64d2d96000809054906101000a900473ffffffffffffffffffffffffffffffffffffffff16604051808273ffffffffffffffffffffffffffffffffffffffff1673ffffffffffffffffffffffffffffffffffffffff16815260200191505060405180910390a1600073ffffffffffffffffffffffffffffffffffffffff168173ffffffffffffffffffffffffffffffffffffffff161415151561013357600080fd5b80600260016101000a81548173ffffffffffffffffffffffffffffffffffffffff021916908373ffffffffffffffffffffffffffffffffffffffff1602179055506000600260006101000a81548160ff0219169083600281111561019357fe5b021790555050610b78806101a86000396000f3006080604052600436106100af576000357c0100000000000000000000000000000000000000000000000000000000900463ffffffff1680632348238c146100b457806338af3eed146100f757806343d726d61461014e57806351cff8d914610165578063685ca194146101a85780638c52dc41146102035780639af6549a1461021a578063c19d93fb14610231578063c6dbdf611461026a578063e3a9db1a146102c1578063f340fa0114610318575b600080fd5b3480156100c057600080fd5b506100f5600480360381019080803573ffffffffffffffffffffffffffffffffffffffff16906020019092919050505061034e565b005b34801561010357600080fd5b5061010c6104ac565b604051808273ffffffffffffffffffffffffffffffffffffffff1673ffffffffffffffffffffffffffffffffffffffff16815260200191505060405180910390f35b34801561015a57600080fd5b506101636104d6565b005b34801561017157600080fd5b506101a6600480360381019080803573ffffffffffffffffffffffffffffffffffffffff1690602001909291905050506105b6565b005b3480156101b457600080fd5b506101e9600480360381019080803573ffffffffffffffffffffffffffffffffffffffff1690602001909291905050506105d6565b604051808215151515815260200191505060405180910390f35b34801561020f57600080fd5b50610218610608565b005b34801561022657600080fd5b5061022f6106e9565b005b34801561023d57600080fd5b5061024661079e565b6040518082600281111561025657fe5b60ff16815260200191505060405180910390f35b34801561027657600080fd5b5061027f6107b5565b604051808273ffffffffffffffffffffffffffffffffffffffff1673ffffffffffffffffffffffffffffffffffffffff16815260200191505060405180910390f35b3480156102cd57600080fd5b50610302600480360381019080803573ffffffffffffffffffffffffffffffffffffffff1690602001909291905050506107de565b6040518082815260200191505060405180910390f35b61034c600480360381019080803573ffffffffffffffffffffffffffffffffffffffff169060200190929190505050610827565b005b6000809054906101000a900473ffffffffffffffffffffffffffffffffffffffff1673ffffffffffffffffffffffffffffffffffffffff163373ffffffffffffffffffffffffffffffffffffffff161415156103a957600080fd5b600073ffffffffffffffffffffffffffffffffffffffff168173ffffffffffffffffffffffffffffffffffffffff16141515156103e557600080fd5b806000806101000a81548173ffffffffffffffffffffffffffffffffffffffff021916908373ffffffffffffffffffffffffffffffffffffffff1602179055507f4101e71e974f68df5e9730cc223280b41654676bbb052cdcc735c3337e64d2d96000809054906101000a900473ffffffffffffffffffffffffffffffffffffffff16604051808273ffffffffffffffffffffffffffffffffffffffff1673ffffffffffffffffffffffffffffffffffffffff16815260200191505060405180910390a150565b6000600260019054906101000a900473ffffffffffffffffffffffffffffffffffffffff16905090565b6000809054906101000a900473ffffffffffffffffffffffffffffffffffffffff1673ffffffffffffffffffffffffffffffffffffffff163373ffffffffffffffffffffffffffffffffffffffff1614151561053157600080fd5b6000600281111561053e57fe5b600260009054906101000a900460ff16600281111561055957fe5b14151561056557600080fd5b60028060006101000a81548160ff0219169083600281111561058357fe5b02179055507f088672c3a6e342f7cd94a65ba63b79df24a8973927b4d05d803c44bbf787d12f60405160405180910390a1565b6105bf816105d6565b15156105ca57600080fd5b6105d381610867565b50565b6000600160028111156105e557fe5b600260009054906101000a900460ff16600281111561060057fe5b149050919050565b6000809054906101000a900473ffffffffffffffffffffffffffffffffffffffff1673ffffffffffffffffffffffffffffffffffffffff163373ffffffffffffffffffffffffffffffffffffffff1614151561066357600080fd5b6000600281111561067057fe5b600260009054906101000a900460ff16600281111561068b57fe5b14151561069757600080fd5b6001600260006101000a81548160ff021916908360028111156106b657fe5b02179055507f599d8e5a83cffb867d051598c4d70e805d59802d8081c1c7d6dffc5b6aca2b8960405160405180910390a1565b6002808111156106f557fe5b600260009054906101000a900460ff16600281111561071057fe5b14151561071c57600080fd5b600260019054906101000a900473ffffffffffffffffffffffffffffffffffffffff1673ffffffffffffffffffffffffffffffffffffffff166108fc3073ffffffffffffffffffffffffffffffffffffffff16319081150290604051600060405180830381858888f1935050505015801561079b573d6000803e3d6000fd5b50565b6000600260009054906101000a900460ff16905090565b60008060009054906101000a900473ffffffffffffffffffffffffffffffffffffffff16905090565b6000600160008373ffffffffffffffffffffffffffffffffffffffff1673ffffffffffffffffffffffffffffffffffffffff168152602001908152602001600020549050919050565b6000600281111561083457fe5b600260009054906101000a900460ff16600281111561084f57fe5b14151561085b57600080fd5b610864816109e4565b50565b60008060009054906101000a900473ffffffffffffffffffffffffffffffffffffffff1673ffffffffffffffffffffffffffffffffffffffff163373ffffffffffffffffffffffffffffffffffffffff161415156108c457600080fd5b600160008373ffffffffffffffffffffffffffffffffffffffff1673ffffffffffffffffffffffffffffffffffffffff1681526020019081526020016000205490506000600160008473ffffffffffffffffffffffffffffffffffffffff1673ffffffffffffffffffffffffffffffffffffffff168152602001908152602001600020819055508173ffffffffffffffffffffffffffffffffffffffff166108fc829081150290604051600060405180830381858888f19350505050158015610991573d6000803e3d6000fd5b508173ffffffffffffffffffffffffffffffffffffffff167f7084f5476618d8e60b11ef0d7d3f06914655adb8793e28ff7f018d4c76d505d5826040518082815260200191505060405180910390a25050565b60008060009054906101000a900473ffffffffffffffffffffffffffffffffffffffff1673ffffffffffffffffffffffffffffffffffffffff163373ffffffffffffffffffffffffffffffffffffffff16141515610a4157600080fd5b349050610a9681600160008573ffffffffffffffffffffffffffffffffffffffff1673ffffffffffffffffffffffffffffffffffffffff16815260200190815260200160002054610b2b90919063ffffffff16565b600160008473ffffffffffffffffffffffffffffffffffffffff1673ffffffffffffffffffffffffffffffffffffffff168152602001908152602001600020819055508173ffffffffffffffffffffffffffffffffffffffff167f2da466a7b24304f47e87fa2e1e5a81b9831ce54fec19055ce277ca2f39ba42c4826040518082815260200191505060405180910390a25050565b6000808284019050838110151515610b4257600080fd5b80915050929150505600a165627a7a723058203aa47b41c272e1d4c454e3e0a55db132923261098af47a3b1bf3012c2dc7d9f20029",
  "source": "pragma solidity ^0.4.24;\r\n\r\nimport \"../token/ERC20/IERC20.sol\";\r\nimport \"../crowdsale/distribution/RefundableCrowdsale.sol\";\r\n\r\ncontract RefundableCrowdsaleImpl is RefundableCrowdsale {\r\n    constructor (\r\n        uint256 openingTime,\r\n        uint256 closingTime,\r\n        uint256 rate,\r\n        address wallet,\r\n        IERC20 token,\r\n        uint256 goal\r\n    )\r\n        public\r\n        Crowdsale(rate, wallet, token)\r\n        TimedCrowdsale(openingTime, closingTime)\r\n        RefundableCrowdsale(goal)\r\n    {}\r\n}\r\n",
  "sourcePath": "D:\\dev\\tokenmint\\contracts\\open-zeppelin-contracts\\mocks\\RefundableCrowdsaleImpl.sol",
  "compiler": {
    "name": "solc",
    "version": "0.4.24+commit.e67f0147.Emscripten.clang"
  },
  "schemaVersion": "2.0.1",
  "updatedAt": "2019-01-09T16:09:04.060Z"
}