{
  "contractName": "RelaunchedCrowdsale",
  "abi": [
    {
      "constant": true,
      "inputs": [],
      "name": "ownerTestValue",
      "outputs": [
        {
          "name": "",
          "type": "uint256"
        }
      ],
      "payable": false,
      "stateMutability": "view",
      "type": "function"
    },
    {
      "constant": true,
      "inputs": [],
      "name": "requireCustomerId",
      "outputs": [
        {
          "name": "",
          "type": "bool"
        }
      ],
      "payable": false,
      "stateMutability": "view",
      "type": "function"
    },
    {
      "constant": false,
      "inputs": [
        {
          "name": "addr",
          "type": "address"
        }
      ],
      "name": "invest",
      "outputs": [],
      "payable": true,
      "stateMutability": "payable",
      "type": "function"
    },
    {
      "constant": true,
      "inputs": [],
      "name": "isPricingSane",
      "outputs": [
        {
          "name": "sane",
          "type": "bool"
        }
      ],
      "payable": false,
      "stateMutability": "view",
      "type": "function"
    },
    {
      "constant": true,
      "inputs": [],
      "name": "endsAt",
      "outputs": [
        {
          "name": "",
          "type": "uint256"
        }
      ],
      "payable": false,
      "stateMutability": "view",
      "type": "function"
    },
    {
      "constant": true,
      "inputs": [],
      "name": "minimumFundingGoal",
      "outputs": [
        {
          "name": "",
          "type": "uint256"
        }
      ],
      "payable": false,
      "stateMutability": "view",
      "type": "function"
    },
    {
      "constant": true,
      "inputs": [],
      "name": "getState",
      "outputs": [
        {
          "name": "",
          "type": "uint8"
        }
      ],
      "payable": false,
      "stateMutability": "view",
      "type": "function"
    },
    {
      "constant": false,
      "inputs": [
        {
          "name": "addr",
          "type": "address"
        }
      ],
      "name": "setFinalizeAgent",
      "outputs": [],
      "payable": false,
      "stateMutability": "nonpayable",
      "type": "function"
    },
    {
      "constant": false,
      "inputs": [
        {
          "name": "addr",
          "type": "address"
        },
        {
          "name": "customerId",
          "type": "uint128"
        },
        {
          "name": "v",
          "type": "uint8"
        },
        {
          "name": "r",
          "type": "bytes32"
        },
        {
          "name": "s",
          "type": "bytes32"
        }
      ],
      "name": "investWithSignedAddress",
      "outputs": [],
      "payable": true,
      "stateMutability": "payable",
      "type": "function"
    },
    {
      "constant": true,
      "inputs": [
        {
          "name": "",
          "type": "address"
        }
      ],
      "name": "investedAmountOf",
      "outputs": [
        {
          "name": "",
          "type": "uint256"
        }
      ],
      "payable": false,
      "stateMutability": "view",
      "type": "function"
    },
    {
      "constant": true,
      "inputs": [],
      "name": "finalizeAgent",
      "outputs": [
        {
          "name": "",
          "type": "address"
        }
      ],
      "payable": false,
      "stateMutability": "view",
      "type": "function"
    },
    {
      "constant": false,
      "inputs": [
        {
          "name": "receiver",
          "type": "address"
        },
        {
          "name": "fullTokens",
          "type": "uint256"
        },
        {
          "name": "weiPrice",
          "type": "uint256"
        }
      ],
      "name": "preallocate",
      "outputs": [],
      "payable": false,
      "stateMutability": "nonpayable",
      "type": "function"
    },
    {
      "constant": true,
      "inputs": [],
      "name": "maximumSellableTokens",
      "outputs": [
        {
          "name": "",
          "type": "uint256"
        }
      ],
      "payable": false,
      "stateMutability": "view",
      "type": "function"
    },
    {
      "constant": true,
      "inputs": [],
      "name": "weiRaised",
      "outputs": [
        {
          "name": "",
          "type": "uint256"
        }
      ],
      "payable": false,
      "stateMutability": "view",
      "type": "function"
    },
    {
      "constant": true,
      "inputs": [],
      "name": "isCrowdsale",
      "outputs": [
        {
          "name": "",
          "type": "bool"
        }
      ],
      "payable": false,
      "stateMutability": "view",
      "type": "function"
    },
    {
      "constant": false,
      "inputs": [],
      "name": "finalize",
      "outputs": [],
      "payable": false,
      "stateMutability": "nonpayable",
      "type": "function"
    },
    {
      "constant": false,
      "inputs": [
        {
          "name": "_pricingStrategy",
          "type": "address"
        }
      ],
      "name": "setPricingStrategy",
      "outputs": [],
      "payable": false,
      "stateMutability": "nonpayable",
      "type": "function"
    },
    {
      "constant": true,
      "inputs": [],
      "name": "tokensSold",
      "outputs": [
        {
          "name": "",
          "type": "uint256"
        }
      ],
      "payable": false,
      "stateMutability": "view",
      "type": "function"
    },
    {
      "constant": false,
      "inputs": [],
      "name": "refund",
      "outputs": [],
      "payable": false,
      "stateMutability": "nonpayable",
      "type": "function"
    },
    {
      "constant": true,
      "inputs": [],
      "name": "signerAddress",
      "outputs": [
        {
          "name": "",
          "type": "address"
        }
      ],
      "payable": false,
      "stateMutability": "view",
      "type": "function"
    },
    {
      "constant": true,
      "inputs": [
        {
          "name": "",
          "type": "uint256"
        }
      ],
      "name": "reissuedTransactions",
      "outputs": [
        {
          "name": "",
          "type": "bool"
        }
      ],
      "payable": false,
      "stateMutability": "view",
      "type": "function"
    },
    {
      "constant": true,
      "inputs": [],
      "name": "weiRefunded",
      "outputs": [
        {
          "name": "",
          "type": "uint256"
        }
      ],
      "payable": false,
      "stateMutability": "view",
      "type": "function"
    },
    {
      "constant": false,
      "inputs": [],
      "name": "halt",
      "outputs": [],
      "payable": false,
      "stateMutability": "nonpayable",
      "type": "function"
    },
    {
      "constant": true,
      "inputs": [],
      "name": "MAX_INVESTMENTS_BEFORE_MULTISIG_CHANGE",
      "outputs": [
        {
          "name": "",
          "type": "uint256"
        }
      ],
      "payable": false,
      "stateMutability": "view",
      "type": "function"
    },
    {
      "constant": false,
      "inputs": [
        {
          "name": "customerId",
          "type": "uint128"
        },
        {
          "name": "checksum",
          "type": "bytes1"
        }
      ],
      "name": "buyWithCustomerIdWithChecksum",
      "outputs": [],
      "payable": true,
      "stateMutability": "payable",
      "type": "function"
    },
    {
      "constant": false,
      "inputs": [
        {
          "name": "time",
          "type": "uint256"
        }
      ],
      "name": "setEndsAt",
      "outputs": [],
      "payable": false,
      "stateMutability": "nonpayable",
      "type": "function"
    },
    {
      "constant": true,
      "inputs": [],
      "name": "pricingStrategy",
      "outputs": [
        {
          "name": "",
          "type": "address"
        }
      ],
      "payable": false,
      "stateMutability": "view",
      "type": "function"
    },
    {
      "constant": true,
      "inputs": [],
      "name": "loadedRefund",
      "outputs": [
        {
          "name": "",
          "type": "uint256"
        }
      ],
      "payable": false,
      "stateMutability": "view",
      "type": "function"
    },
    {
      "constant": true,
      "inputs": [],
      "name": "isMinimumGoalReached",
      "outputs": [
        {
          "name": "reached",
          "type": "bool"
        }
      ],
      "payable": false,
      "stateMutability": "view",
      "type": "function"
    },
    {
      "constant": false,
      "inputs": [
        {
          "name": "value",
          "type": "bool"
        }
      ],
      "name": "setRequireCustomerId",
      "outputs": [],
      "payable": false,
      "stateMutability": "nonpayable",
      "type": "function"
    },
    {
      "constant": false,
      "inputs": [],
      "name": "loadRefund",
      "outputs": [],
      "payable": true,
      "stateMutability": "payable",
      "type": "function"
    },
    {
      "constant": false,
      "inputs": [
        {
          "name": "val",
          "type": "uint256"
        }
      ],
      "name": "setOwnerTestValue",
      "outputs": [],
      "payable": false,
      "stateMutability": "nonpayable",
      "type": "function"
    },
    {
      "constant": true,
      "inputs": [],
      "name": "owner",
      "outputs": [
        {
          "name": "",
          "type": "address"
        }
      ],
      "payable": false,
      "stateMutability": "view",
      "type": "function"
    },
    {
      "constant": true,
      "inputs": [
        {
          "name": "weisTotal",
          "type": "uint256"
        },
        {
          "name": "pricePerToken",
          "type": "uint256"
        }
      ],
      "name": "calculateTokens",
      "outputs": [
        {
          "name": "tokensTotal",
          "type": "uint256"
        }
      ],
      "payable": false,
      "stateMutability": "view",
      "type": "function"
    },
    {
      "constant": true,
      "inputs": [],
      "name": "multisigWallet",
      "outputs": [
        {
          "name": "",
          "type": "address"
        }
      ],
      "payable": false,
      "stateMutability": "view",
      "type": "function"
    },
    {
      "constant": true,
      "inputs": [
        {
          "name": "",
          "type": "address"
        }
      ],
      "name": "tokenAmountOf",
      "outputs": [
        {
          "name": "",
          "type": "uint256"
        }
      ],
      "payable": false,
      "stateMutability": "view",
      "type": "function"
    },
    {
      "constant": false,
      "inputs": [
        {
          "name": "customerId",
          "type": "uint128"
        }
      ],
      "name": "buyWithCustomerId",
      "outputs": [],
      "payable": true,
      "stateMutability": "payable",
      "type": "function"
    },
    {
      "constant": true,
      "inputs": [
        {
          "name": "weiAmount",
          "type": "uint256"
        },
        {
          "name": "tokenAmount",
          "type": "uint256"
        },
        {
          "name": "weiRaisedTotal",
          "type": "uint256"
        },
        {
          "name": "tokensSoldTotal",
          "type": "uint256"
        }
      ],
      "name": "isBreakingCap",
      "outputs": [
        {
          "name": "limitBroken",
          "type": "bool"
        }
      ],
      "payable": false,
      "stateMutability": "view",
      "type": "function"
    },
    {
      "constant": false,
      "inputs": [],
      "name": "buy",
      "outputs": [],
      "payable": true,
      "stateMutability": "payable",
      "type": "function"
    },
    {
      "constant": true,
      "inputs": [],
      "name": "isFinalizerSane",
      "outputs": [
        {
          "name": "sane",
          "type": "bool"
        }
      ],
      "payable": false,
      "stateMutability": "view",
      "type": "function"
    },
    {
      "constant": true,
      "inputs": [],
      "name": "startsAt",
      "outputs": [
        {
          "name": "",
          "type": "uint256"
        }
      ],
      "payable": false,
      "stateMutability": "view",
      "type": "function"
    },
    {
      "constant": true,
      "inputs": [],
      "name": "finalized",
      "outputs": [
        {
          "name": "",
          "type": "bool"
        }
      ],
      "payable": false,
      "stateMutability": "view",
      "type": "function"
    },
    {
      "constant": true,
      "inputs": [],
      "name": "halted",
      "outputs": [
        {
          "name": "",
          "type": "bool"
        }
      ],
      "payable": false,
      "stateMutability": "view",
      "type": "function"
    },
    {
      "constant": true,
      "inputs": [
        {
          "name": "",
          "type": "address"
        }
      ],
      "name": "earlyParticipantWhitelist",
      "outputs": [
        {
          "name": "",
          "type": "bool"
        }
      ],
      "payable": false,
      "stateMutability": "view",
      "type": "function"
    },
    {
      "constant": false,
      "inputs": [],
      "name": "unhalt",
      "outputs": [],
      "payable": false,
      "stateMutability": "nonpayable",
      "type": "function"
    },
    {
      "constant": true,
      "inputs": [],
      "name": "requiredSignedAddress",
      "outputs": [
        {
          "name": "",
          "type": "bool"
        }
      ],
      "payable": false,
      "stateMutability": "view",
      "type": "function"
    },
    {
      "constant": true,
      "inputs": [],
      "name": "isCrowdsaleFull",
      "outputs": [
        {
          "name": "",
          "type": "bool"
        }
      ],
      "payable": false,
      "stateMutability": "view",
      "type": "function"
    },
    {
      "constant": true,
      "inputs": [],
      "name": "investorCount",
      "outputs": [
        {
          "name": "",
          "type": "uint256"
        }
      ],
      "payable": false,
      "stateMutability": "view",
      "type": "function"
    },
    {
      "constant": false,
      "inputs": [
        {
          "name": "addr",
          "type": "address"
        },
        {
          "name": "status",
          "type": "bool"
        }
      ],
      "name": "setEarlyParicipantWhitelist",
      "outputs": [],
      "payable": false,
      "stateMutability": "nonpayable",
      "type": "function"
    },
    {
      "constant": false,
      "inputs": [
        {
          "name": "value",
          "type": "bool"
        },
        {
          "name": "_signerAddress",
          "type": "address"
        }
      ],
      "name": "setRequireSignedAddress",
      "outputs": [],
      "payable": false,
      "stateMutability": "nonpayable",
      "type": "function"
    },
    {
      "constant": false,
      "inputs": [
        {
          "name": "addr",
          "type": "address"
        },
        {
          "name": "customerId",
          "type": "uint128"
        }
      ],
      "name": "investWithCustomerId",
      "outputs": [],
      "payable": true,
      "stateMutability": "payable",
      "type": "function"
    },
    {
      "constant": false,
      "inputs": [
        {
          "name": "newOwner",
          "type": "address"
        }
      ],
      "name": "transferOwnership",
      "outputs": [],
      "payable": false,
      "stateMutability": "nonpayable",
      "type": "function"
    },
    {
      "constant": false,
      "inputs": [
        {
          "name": "addr",
          "type": "address"
        }
      ],
      "name": "setMultisig",
      "outputs": [],
      "payable": false,
      "stateMutability": "nonpayable",
      "type": "function"
    },
    {
      "constant": false,
      "inputs": [
        {
          "name": "customerId",
          "type": "uint128"
        },
        {
          "name": "v",
          "type": "uint8"
        },
        {
          "name": "r",
          "type": "bytes32"
        },
        {
          "name": "s",
          "type": "bytes32"
        }
      ],
      "name": "buyWithSignedAddress",
      "outputs": [],
      "payable": true,
      "stateMutability": "payable",
      "type": "function"
    },
    {
      "constant": true,
      "inputs": [],
      "name": "presaleWeiRaised",
      "outputs": [
        {
          "name": "",
          "type": "uint256"
        }
      ],
      "payable": false,
      "stateMutability": "view",
      "type": "function"
    },
    {
      "constant": true,
      "inputs": [],
      "name": "token",
      "outputs": [
        {
          "name": "",
          "type": "address"
        }
      ],
      "payable": false,
      "stateMutability": "view",
      "type": "function"
    },
    {
      "inputs": [
        {
          "name": "_token",
          "type": "address"
        },
        {
          "name": "_pricingStrategy",
          "type": "address"
        },
        {
          "name": "_multisigWallet",
          "type": "address"
        },
        {
          "name": "_start",
          "type": "uint256"
        },
        {
          "name": "_end",
          "type": "uint256"
        },
        {
          "name": "_minimumFundingGoal",
          "type": "uint256"
        },
        {
          "name": "_maximumSellableTokens",
          "type": "uint256"
        }
      ],
      "payable": false,
      "stateMutability": "nonpayable",
      "type": "constructor"
    },
    {
      "payable": true,
      "stateMutability": "payable",
      "type": "fallback"
    },
    {
      "anonymous": false,
      "inputs": [
        {
          "indexed": false,
          "name": "addr",
          "type": "address"
        },
        {
          "indexed": false,
          "name": "originalTxHash",
          "type": "uint256"
        }
      ],
      "name": "RestoredInvestment",
      "type": "event"
    },
    {
      "anonymous": false,
      "inputs": [
        {
          "indexed": false,
          "name": "investor",
          "type": "address"
        },
        {
          "indexed": false,
          "name": "weiAmount",
          "type": "uint256"
        },
        {
          "indexed": false,
          "name": "tokenAmount",
          "type": "uint256"
        },
        {
          "indexed": false,
          "name": "customerId",
          "type": "uint128"
        }
      ],
      "name": "Invested",
      "type": "event"
    },
    {
      "anonymous": false,
      "inputs": [
        {
          "indexed": false,
          "name": "investor",
          "type": "address"
        },
        {
          "indexed": false,
          "name": "weiAmount",
          "type": "uint256"
        }
      ],
      "name": "Refund",
      "type": "event"
    },
    {
      "anonymous": false,
      "inputs": [
        {
          "indexed": false,
          "name": "newRequireCustomerId",
          "type": "bool"
        },
        {
          "indexed": false,
          "name": "newRequiredSignedAddress",
          "type": "bool"
        },
        {
          "indexed": false,
          "name": "newSignerAddress",
          "type": "address"
        }
      ],
      "name": "InvestmentPolicyChanged",
      "type": "event"
    },
    {
      "anonymous": false,
      "inputs": [
        {
          "indexed": false,
          "name": "addr",
          "type": "address"
        },
        {
          "indexed": false,
          "name": "status",
          "type": "bool"
        }
      ],
      "name": "Whitelisted",
      "type": "event"
    },
    {
      "anonymous": false,
      "inputs": [
        {
          "indexed": false,
          "name": "newEndsAt",
          "type": "uint256"
        }
      ],
      "name": "EndsAtChanged",
      "type": "event"
    },
    {
      "anonymous": false,
      "inputs": [
        {
          "indexed": true,
          "name": "previousOwner",
          "type": "address"
        },
        {
          "indexed": true,
          "name": "newOwner",
          "type": "address"
        }
      ],
      "name": "OwnershipTransferred",
      "type": "event"
    },
    {
      "constant": true,
      "inputs": [
        {
          "name": "_originalTxHash",
          "type": "uint256"
        }
      ],
      "name": "getRestoredTransactionStatus",
      "outputs": [
        {
          "name": "",
          "type": "bool"
        }
      ],
      "payable": false,
      "stateMutability": "view",
      "type": "function"
    },
    {
      "constant": false,
      "inputs": [
        {
          "name": "_addr",
          "type": "address"
        },
        {
          "name": "_weiAmount",
          "type": "uint256"
        },
        {
          "name": "_tokenAmount",
          "type": "uint256"
        },
        {
          "name": "_originalTxHash",
          "type": "uint256"
        }
      ],
      "name": "setInvestorData",
      "outputs": [],
      "payable": false,
      "stateMutability": "nonpayable",
      "type": "function"
    },
    {
      "constant": false,
      "inputs": [
        {
          "name": "_addr",
          "type": "address"
        },
        {
          "name": "_weiAmount",
          "type": "uint256"
        },
        {
          "name": "_tokenAmount",
          "type": "uint256"
        },
        {
          "name": "_originalTxHash",
          "type": "uint256"
        }
      ],
      "name": "setInvestorDataAndIssueNewToken",
      "outputs": [],
      "payable": false,
      "stateMutability": "nonpayable",
      "type": "function"
    }
  ],
  "bytecode": "0x6080604052600560015560006009556000600a556000600b556000600c556000600d556000600e553480156200003457600080fd5b5060405160e080620044998339810180604052810190808051906020019092919080519060200190929190805190602001909291908051906020019092919080519060200190929190805190602001909291908051906020019092919050505086868686868686868686868686858585858585336000806101000a81548173ffffffffffffffffffffffffffffffffffffffff021916908373ffffffffffffffffffffffffffffffffffffffff160217905550336000806101000a81548173ffffffffffffffffffffffffffffffffffffffff021916908373ffffffffffffffffffffffffffffffffffffffff16021790555085600260006101000a81548173ffffffffffffffffffffffffffffffffffffffff021916908373ffffffffffffffffffffffffffffffffffffffff160217905550620001828562000277640100000000026401000000009004565b83600560006101000a81548173ffffffffffffffffffffffffffffffffffffffff021916908373ffffffffffffffffffffffffffffffffffffffff1602179055506000600560009054906101000a900473ffffffffffffffffffffffffffffffffffffffff1673ffffffffffffffffffffffffffffffffffffffff1614156200020a57600080fd5b60008314156200021957600080fd5b8260078190555060008214156200022f57600080fd5b816008819055506008546007541015156200024957600080fd5b80600681905550505050505050505050505050806015819055505050505050505050505050505050620003e7565b6000809054906101000a900473ffffffffffffffffffffffffffffffffffffffff1673ffffffffffffffffffffffffffffffffffffffff163373ffffffffffffffffffffffffffffffffffffffff16141515620002d357600080fd5b80600360006101000a81548173ffffffffffffffffffffffffffffffffffffffff021916908373ffffffffffffffffffffffffffffffffffffffff160217905550600360009054906101000a900473ffffffffffffffffffffffffffffffffffffffff1673ffffffffffffffffffffffffffffffffffffffff166304bbc2556040518163ffffffff167c0100000000000000000000000000000000000000000000000000000000028152600401602060405180830381600087803b1580156200039b57600080fd5b505af1158015620003b0573d6000803e3d6000fd5b505050506040513d6020811015620003c757600080fd5b81019080805190602001909291905050501515620003e457600080fd5b50565b6140a280620003f76000396000f3006080604052600436106102bf576000357c0100000000000000000000000000000000000000000000000000000000900463ffffffff1680630226401d146102c457806303ca0eed146102ef57806303f9c7931461031e578063062b01ce146103545780630a09284a1461038357806313f4e977146103ae57806316164e15146103d95780631865c57d1461043a57806319b667da146104735780631a49803b146104b65780631aae34601461053157806321d5c0f61461058857806332013ac3146105df5780633ad075ea146106365780634042b66f146106615780634551dd591461068c5780634bb278f3146106bb57806350c67734146106d2578063518ab2a814610715578063590e1ae3146107405780635b7633d0146107575780635d2fea9d146107ae5780635da89ac0146107f35780635ed7ca5b1461081e5780636203f09f1461083557806363c6082f146108605780636e50eb3f146108be57806378b99c24146108eb578063797d9437146109425780637c2e08a31461096d5780637f7d711e1461099c57806387612102146109cb5780638d51faec146109d55780638da5cb5b14610a02578063903cc58314610a595780639075becf14610aa457806397b150ca14610afb57806399e9376c14610b525780639d3c663f14610b84578063a6f2ae3a14610be7578063a7ba44c314610bf1578063af46868214610c20578063b3f05b9714610c4b578063b9b8af0b14610c7a578063cb16e6d014610ca9578063cb3e64fd14610d04578063d222dc0414610d1b578063d5d0902114610d4a578063d7e64c0014610d79578063eac2493214610da4578063ed2f5b1a14610df3578063ed68ff2c14610e38578063ef86944314610e87578063f04cb80c14610ed9578063f2fde38b14610f3a578063f3283fba14610f7d578063f486972614610fc0578063f7c00e2f1461101b578063fc0c546a14611046575b600080fd5b3480156102d057600080fd5b506102d961109d565b6040518082815260200191505060405180910390f35b3480156102fb57600080fd5b506103046110a3565b604051808215151515815260200191505060405180910390f35b610352600480360381019080803573ffffffffffffffffffffffffffffffffffffffff1690602001909291905050506110b6565b005b34801561036057600080fd5b506103696110f9565b604051808215151515815260200191505060405180910390f35b34801561038f57600080fd5b506103986111f8565b6040518082815260200191505060405180910390f35b3480156103ba57600080fd5b506103c36111fe565b6040518082815260200191505060405180910390f35b3480156103e557600080fd5b50610438600480360381019080803573ffffffffffffffffffffffffffffffffffffffff169060200190929190803590602001909291908035906020019092919080359060200190929190505050611204565b005b34801561044657600080fd5b5061044f611473565b6040518082600781111561045f57fe5b60ff16815260200191505060405180910390f35b34801561047f57600080fd5b506104b4600480360381019080803573ffffffffffffffffffffffffffffffffffffffff16906020019092919050505061173f565b005b61052f600480360381019080803573ffffffffffffffffffffffffffffffffffffffff16906020019092919080356fffffffffffffffffffffffffffffffff169060200190929190803560ff169060200190929190803560001916906020019092919080356000191690602001909291905050506118aa565b005b34801561053d57600080fd5b50610572600480360381019080803573ffffffffffffffffffffffffffffffffffffffff169060200190929190505050611a4d565b6040518082815260200191505060405180910390f35b34801561059457600080fd5b5061059d611a65565b604051808273ffffffffffffffffffffffffffffffffffffffff1673ffffffffffffffffffffffffffffffffffffffff16815260200191505060405180910390f35b3480156105eb57600080fd5b50610634600480360381019080803573ffffffffffffffffffffffffffffffffffffffff1690602001909291908035906020019092919080359060200190929190505050611a8b565b005b34801561064257600080fd5b5061064b612029565b6040518082815260200191505060405180910390f35b34801561066d57600080fd5b5061067661202f565b6040518082815260200191505060405180910390f35b34801561069857600080fd5b506106a1612035565b604051808215151515815260200191505060405180910390f35b3480156106c757600080fd5b506106d061203e565b005b3480156106de57600080fd5b50610713600480360381019080803573ffffffffffffffffffffffffffffffffffffffff1690602001909291905050506121f9565b005b34801561072157600080fd5b5061072a612364565b6040518082815260200191505060405180910390f35b34801561074c57600080fd5b5061075561236a565b005b34801561076357600080fd5b5061076c612595565b604051808273ffffffffffffffffffffffffffffffffffffffff1673ffffffffffffffffffffffffffffffffffffffff16815260200191505060405180910390f35b3480156107ba57600080fd5b506107d9600480360381019080803590602001909291905050506125bb565b604051808215151515815260200191505060405180910390f35b3480156107ff57600080fd5b506108086125db565b6040518082815260200191505060405180910390f35b34801561082a57600080fd5b506108336125e1565b005b34801561084157600080fd5b5061084a612659565b6040518082815260200191505060405180910390f35b6108bc60048036038101908080356fffffffffffffffffffffffffffffffff16906020019092919080357effffffffffffffffffffffffffffffffffffffffffffffffffffffffffffff1916906020019092919050505061265f565b005b3480156108ca57600080fd5b506108e96004803603810190808035906020019092919050505061270b565b005b3480156108f757600080fd5b506109006127c5565b604051808273ffffffffffffffffffffffffffffffffffffffff1673ffffffffffffffffffffffffffffffffffffffff16815260200191505060405180910390f35b34801561094e57600080fd5b506109576127eb565b6040518082815260200191505060405180910390f35b34801561097957600080fd5b506109826127f1565b604051808215151515815260200191505060405180910390f35b3480156109a857600080fd5b506109c9600480360381019080803515159060200190929190505050612800565b005b6109d3612933565b005b3480156109e157600080fd5b50610a0060048036038101908080359060200190929190505050612a29565b005b348015610a0e57600080fd5b50610a17612a8e565b604051808273ffffffffffffffffffffffffffffffffffffffff1673ffffffffffffffffffffffffffffffffffffffff16815260200191505060405180910390f35b348015610a6557600080fd5b50610a8e6004803603810190808035906020019092919080359060200190929190505050612ab3565b6040518082815260200191505060405180910390f35b348015610ab057600080fd5b50610ab9612c40565b604051808273ffffffffffffffffffffffffffffffffffffffff1673ffffffffffffffffffffffffffffffffffffffff16815260200191505060405180910390f35b348015610b0757600080fd5b50610b3c600480360381019080803573ffffffffffffffffffffffffffffffffffffffff169060200190929190505050612c66565b6040518082815260200191505060405180910390f35b610b8260048036038101908080356fffffffffffffffffffffffffffffffff169060200190929190505050612c7e565b005b348015610b9057600080fd5b50610bcd60048036038101908080359060200190929190803590602001909291908035906020019092919080359060200190929190505050612c8b565b604051808215151515815260200191505060405180910390f35b610bef612c9c565b005b348015610bfd57600080fd5b50610c06612ca7565b604051808215151515815260200191505060405180910390f35b348015610c2c57600080fd5b50610c35612d6f565b6040518082815260200191505060405180910390f35b348015610c5757600080fd5b50610c60612d75565b604051808215151515815260200191505060405180910390f35b348015610c8657600080fd5b50610c8f612d88565b604051808215151515815260200191505060405180910390f35b348015610cb557600080fd5b50610cea600480360381019080803573ffffffffffffffffffffffffffffffffffffffff169060200190929190505050612d9b565b604051808215151515815260200191505060405180910390f35b348015610d1057600080fd5b50610d19612dbb565b005b348015610d2757600080fd5b50610d30612e4d565b604051808215151515815260200191505060405180910390f35b348015610d5657600080fd5b50610d5f612e60565b604051808215151515815260200191505060405180910390f35b348015610d8557600080fd5b50610d8e612e6f565b6040518082815260200191505060405180910390f35b348015610db057600080fd5b50610df1600480360381019080803573ffffffffffffffffffffffffffffffffffffffff169060200190929190803515159060200190929190505050612e75565b005b348015610dff57600080fd5b50610e1e60048036038101908080359060200190929190505050612f9a565b604051808215151515815260200191505060405180910390f35b348015610e4457600080fd5b50610e85600480360381019080803515159060200190929190803573ffffffffffffffffffffffffffffffffffffffff169060200190929190505050612fc4565b005b610ed7600480360381019080803573ffffffffffffffffffffffffffffffffffffffff16906020019092919080356fffffffffffffffffffffffffffffffff169060200190929190505050613139565b005b348015610ee557600080fd5b50610f38600480360381019080803573ffffffffffffffffffffffffffffffffffffffff169060200190929190803590602001909291908035906020019092919080359060200190929190505050613182565b005b348015610f4657600080fd5b50610f7b600480360381019080803573ffffffffffffffffffffffffffffffffffffffff169060200190929190505050613343565b005b348015610f8957600080fd5b50610fbe600480360381019080803573ffffffffffffffffffffffffffffffffffffffff169060200190929190505050613498565b005b61101960048036038101908080356fffffffffffffffffffffffffffffffff169060200190929190803560ff16906020019092919080356000191690602001909291908035600019169060200190929190505050613548565b005b34801561102757600080fd5b5061103061355b565b6040518082815260200191505060405180910390f35b34801561105257600080fd5b5061105b613561565b604051808273ffffffffffffffffffffffffffffffffffffffff1673ffffffffffffffffffffffffffffffffffffffff16815260200191505060405180910390f35b60135481565b601460009054906101000a900460ff1681565b601460009054906101000a900460ff16156110d057600080fd5b601460019054906101000a900460ff16156110ea57600080fd5b6110f5816000613587565b5050565b6000600360009054906101000a900473ffffffffffffffffffffffffffffffffffffffff1673ffffffffffffffffffffffffffffffffffffffff16638e768288306040518263ffffffff167c0100000000000000000000000000000000000000000000000000000000028152600401808273ffffffffffffffffffffffffffffffffffffffff1673ffffffffffffffffffffffffffffffffffffffff168152602001915050602060405180830381600087803b1580156111b857600080fd5b505af11580156111cc573d6000803e3d6000fd5b505050506040513d60208110156111e257600080fd5b8101908080519060200190929190505050905090565b60085481565b60065481565b6000809054906101000a900473ffffffffffffffffffffffffffffffffffffffff1673ffffffffffffffffffffffffffffffffffffffff163373ffffffffffffffffffffffffffffffffffffffff1614151561125f57600080fd5b6000601060008673ffffffffffffffffffffffffffffffffffffffff1673ffffffffffffffffffffffffffffffffffffffff1681526020019081526020016000205414156112ba57600c600081548092919060010191905055505b82601060008673ffffffffffffffffffffffffffffffffffffffff1673ffffffffffffffffffffffffffffffffffffffff1681526020019081526020016000206000828254019250508190555081601160008673ffffffffffffffffffffffffffffffffffffffff1673ffffffffffffffffffffffffffffffffffffffff1681526020019081526020016000206000828254019250508190555082600a60008282540192505081905550816009600082825401925050819055507f0396f60aaad038749091d273dc13aaabc63db6e2271c7bad442d5cf25cc433508484846000604051808573ffffffffffffffffffffffffffffffffffffffff1673ffffffffffffffffffffffffffffffffffffffff168152602001848152602001838152602001826fffffffffffffffffffffffffffffffff16815260200194505050505060405180910390a17f08b1adf3440f557bc3ad64e718e68b3656a43fdde2a00cbecf89765352b76cb68482604051808373ffffffffffffffffffffffffffffffffffffffff1673ffffffffffffffffffffffffffffffffffffffff1681526020018281526020019250505060405180910390a150505050565b6000600f60009054906101000a900460ff1615611493576006905061173c565b6000600460009054906101000a900473ffffffffffffffffffffffffffffffffffffffff1673ffffffffffffffffffffffffffffffffffffffff1614156114dd576001905061173c565b600460009054906101000a900473ffffffffffffffffffffffffffffffffffffffff1673ffffffffffffffffffffffffffffffffffffffff166382771c8e6040518163ffffffff167c0100000000000000000000000000000000000000000000000000000000028152600401602060405180830381600087803b15801561156357600080fd5b505af1158015611577573d6000803e3d6000fd5b505050506040513d602081101561158d57600080fd5b810190808051906020019092919050505015156115ad576001905061173c565b600360009054906101000a900473ffffffffffffffffffffffffffffffffffffffff1673ffffffffffffffffffffffffffffffffffffffff16638e768288306040518263ffffffff167c0100000000000000000000000000000000000000000000000000000000028152600401808273ffffffffffffffffffffffffffffffffffffffff1673ffffffffffffffffffffffffffffffffffffffff168152602001915050602060405180830381600087803b15801561166a57600080fd5b505af115801561167e573d6000803e3d6000fd5b505050506040513d602081101561169457600080fd5b810190808051906020019092919050505015156116b4576001905061173c565b6007544210156116c7576002905061173c565b60085442111580156116de57506116dc612e60565b155b156116ec576003905061173c565b6116f46127f1565b15611702576004905061173c565b61170a6127f1565b15801561171957506000600a54115b80156117295750600a54600d5410155b15611737576007905061173c565b600590505b90565b6000809054906101000a900473ffffffffffffffffffffffffffffffffffffffff1673ffffffffffffffffffffffffffffffffffffffff163373ffffffffffffffffffffffffffffffffffffffff1614151561179a57600080fd5b80600460006101000a81548173ffffffffffffffffffffffffffffffffffffffff021916908373ffffffffffffffffffffffffffffffffffffffff160217905550600460009054906101000a900473ffffffffffffffffffffffffffffffffffffffff1673ffffffffffffffffffffffffffffffffffffffff1663614cb9046040518163ffffffff167c0100000000000000000000000000000000000000000000000000000000028152600401602060405180830381600087803b15801561186157600080fd5b505af1158015611875573d6000803e3d6000fd5b505050506040513d602081101561188b57600080fd5b810190808051906020019092919050505015156118a757600080fd5b50565b6000600286604051808273ffffffffffffffffffffffffffffffffffffffff1673ffffffffffffffffffffffffffffffffffffffff166c010000000000000000000000000281526014019150506020604051808303816000865af1158015611916573d6000803e3d6000fd5b5050506040513d602081101561192b57600080fd5b81019080805190602001909291905050509050601460029054906101000a900473ffffffffffffffffffffffffffffffffffffffff1673ffffffffffffffffffffffffffffffffffffffff16600182868686604051600081526020016040526040518085600019166000191681526020018460ff1660ff1681526020018360001916600019168152602001826000191660001916815260200194505050505060206040516020810390808403906000865af11580156119ee573d6000803e3d6000fd5b5050506020604051035173ffffffffffffffffffffffffffffffffffffffff16141515611a1a57600080fd5b6000856fffffffffffffffffffffffffffffffff161415611a3a57600080fd5b611a448686613587565b50505050505050565b60106020528060005260406000206000915090505481565b600460009054906101000a900473ffffffffffffffffffffffffffffffffffffffff1681565b6000806000809054906101000a900473ffffffffffffffffffffffffffffffffffffffff1673ffffffffffffffffffffffffffffffffffffffff163373ffffffffffffffffffffffffffffffffffffffff16141515611ae957600080fd5b600260009054906101000a900473ffffffffffffffffffffffffffffffffffffffff1673ffffffffffffffffffffffffffffffffffffffff1663313ce5676040518163ffffffff167c0100000000000000000000000000000000000000000000000000000000028152600401602060405180830381600087803b158015611b6f57600080fd5b505af1158015611b83573d6000803e3d6000fd5b505050506040513d6020811015611b9957600080fd5b8101908080519060200190929190505050600a0a840291508383029050600a5473__SafeMathLib___________________________6366098d4f9091836040518363ffffffff167c0100000000000000000000000000000000000000000000000000000000028152600401808381526020018281526020019250505060206040518083038186803b158015611c2d57600080fd5b505af4158015611c41573d6000803e3d6000fd5b505050506040513d6020811015611c5757600080fd5b8101908080519060200190929190505050600a8190555060095473__SafeMathLib___________________________6366098d4f9091846040518363ffffffff167c0100000000000000000000000000000000000000000000000000000000028152600401808381526020018281526020019250505060206040518083038186803b158015611ce557600080fd5b505af4158015611cf9573d6000803e3d6000fd5b505050506040513d6020811015611d0f57600080fd5b8101908080519060200190929190505050600981905550601060008673ffffffffffffffffffffffffffffffffffffffff1673ffffffffffffffffffffffffffffffffffffffff1681526020019081526020016000205473__SafeMathLib___________________________6366098d4f9091836040518363ffffffff167c0100000000000000000000000000000000000000000000000000000000028152600401808381526020018281526020019250505060206040518083038186803b158015611dda57600080fd5b505af4158015611dee573d6000803e3d6000fd5b505050506040513d6020811015611e0457600080fd5b8101908080519060200190929190505050601060008773ffffffffffffffffffffffffffffffffffffffff1673ffffffffffffffffffffffffffffffffffffffff16815260200190815260200160002081905550601160008673ffffffffffffffffffffffffffffffffffffffff1673ffffffffffffffffffffffffffffffffffffffff1681526020019081526020016000205473__SafeMathLib___________________________6366098d4f9091846040518363ffffffff167c0100000000000000000000000000000000000000000000000000000000028152600401808381526020018281526020019250505060206040518083038186803b158015611f0c57600080fd5b505af4158015611f20573d6000803e3d6000fd5b505050506040513d6020811015611f3657600080fd5b8101908080519060200190929190505050601160008773ffffffffffffffffffffffffffffffffffffffff1673ffffffffffffffffffffffffffffffffffffffff16815260200190815260200160002081905550611f948583613794565b7f0396f60aaad038749091d273dc13aaabc63db6e2271c7bad442d5cf25cc433508582846000604051808573ffffffffffffffffffffffffffffffffffffffff1673ffffffffffffffffffffffffffffffffffffffff168152602001848152602001838152602001826fffffffffffffffffffffffffffffffff16815260200194505050505060405180910390a15050505050565b60155481565b600a5481565b60006001905090565b600480600781111561204c57fe5b612054611473565b600781111561205f57fe5b14151561206b57600080fd5b6000809054906101000a900473ffffffffffffffffffffffffffffffffffffffff1673ffffffffffffffffffffffffffffffffffffffff163373ffffffffffffffffffffffffffffffffffffffff161415156120c657600080fd5b600060149054906101000a900460ff16156120e057600080fd5b600f60009054906101000a900460ff16156120fa57600080fd5b6000600460009054906101000a900473ffffffffffffffffffffffffffffffffffffffff1673ffffffffffffffffffffffffffffffffffffffff161415156121db57600460009054906101000a900473ffffffffffffffffffffffffffffffffffffffff1673ffffffffffffffffffffffffffffffffffffffff16630bf318a36040518163ffffffff167c0100000000000000000000000000000000000000000000000000000000028152600401600060405180830381600087803b1580156121c257600080fd5b505af11580156121d6573d6000803e3d6000fd5b505050505b6001600f60006101000a81548160ff02191690831515021790555050565b6000809054906101000a900473ffffffffffffffffffffffffffffffffffffffff1673ffffffffffffffffffffffffffffffffffffffff163373ffffffffffffffffffffffffffffffffffffffff1614151561225457600080fd5b80600360006101000a81548173ffffffffffffffffffffffffffffffffffffffff021916908373ffffffffffffffffffffffffffffffffffffffff160217905550600360009054906101000a900473ffffffffffffffffffffffffffffffffffffffff1673ffffffffffffffffffffffffffffffffffffffff166304bbc2556040518163ffffffff167c0100000000000000000000000000000000000000000000000000000000028152600401602060405180830381600087803b15801561231b57600080fd5b505af115801561232f573d6000803e3d6000fd5b505050506040513d602081101561234557600080fd5b8101908080519060200190929190505050151561236157600080fd5b50565b60095481565b6000600780600781111561237a57fe5b612382611473565b600781111561238d57fe5b14151561239957600080fd5b601060003373ffffffffffffffffffffffffffffffffffffffff1673ffffffffffffffffffffffffffffffffffffffff16815260200190815260200160002054915060008214156123e957600080fd5b6000601060003373ffffffffffffffffffffffffffffffffffffffff1673ffffffffffffffffffffffffffffffffffffffff16815260200190815260200160002081905550600e5473__SafeMathLib___________________________6366098d4f9091846040518363ffffffff167c0100000000000000000000000000000000000000000000000000000000028152600401808381526020018281526020019250505060206040518083038186803b1580156124a557600080fd5b505af41580156124b9573d6000803e3d6000fd5b505050506040513d60208110156124cf57600080fd5b8101908080519060200190929190505050600e819055507fbb28353e4598c3b9199101a66e0989549b659a59a54d2c27fbb183f1932c8e6d3383604051808373ffffffffffffffffffffffffffffffffffffffff1673ffffffffffffffffffffffffffffffffffffffff1681526020018281526020019250505060405180910390a13373ffffffffffffffffffffffffffffffffffffffff166108fc839081150290604051600060405180830381858888f19350505050151561259157600080fd5b5050565b601460029054906101000a900473ffffffffffffffffffffffffffffffffffffffff1681565b60166020528060005260406000206000915054906101000a900460ff1681565b600e5481565b6000809054906101000a900473ffffffffffffffffffffffffffffffffffffffff1673ffffffffffffffffffffffffffffffffffffffff163373ffffffffffffffffffffffffffffffffffffffff1614151561263c57600080fd5b6001600060146101000a81548160ff021916908315150217905550565b60015481565b807effffffffffffffffffffffffffffffffffffffffffffffffffffffffffffff19168260405180826fffffffffffffffffffffffffffffffff166fffffffffffffffffffffffffffffffff1670010000000000000000000000000000000002815260100191505060405180910390207effffffffffffffffffffffffffffffffffffffffffffffffffffffffffffff19161415156126fd57600080fd5b6127073383613139565b5050565b6000809054906101000a900473ffffffffffffffffffffffffffffffffffffffff1673ffffffffffffffffffffffffffffffffffffffff163373ffffffffffffffffffffffffffffffffffffffff1614151561276657600080fd5b8042111561277357600080fd5b80600754111561278257600080fd5b806008819055507fd34bb772c4ae9baa99db852f622773b31c7827e8ee818449fef20d30980bd3106008546040518082815260200191505060405180910390a150565b600360009054906101000a900473ffffffffffffffffffffffffffffffffffffffff1681565b600d5481565b6000600654600a541015905090565b6000809054906101000a900473ffffffffffffffffffffffffffffffffffffffff1673ffffffffffffffffffffffffffffffffffffffff163373ffffffffffffffffffffffffffffffffffffffff1614151561285b57600080fd5b80601460006101000a81548160ff0219169083151502179055507f48d826081348f5f00e8a33c9ae8ce89ed4c6e88400b585a478bc203d9e8177d3601460009054906101000a900460ff16601460019054906101000a900460ff16601460029054906101000a900473ffffffffffffffffffffffffffffffffffffffff166040518084151515158152602001831515151581526020018273ffffffffffffffffffffffffffffffffffffffff1673ffffffffffffffffffffffffffffffffffffffff168152602001935050505060405180910390a150565b600580600781111561294157fe5b612949611473565b600781111561295457fe5b14151561296057600080fd5b600034141561296e57600080fd5b600d5473__SafeMathLib___________________________6366098d4f9091346040518363ffffffff167c0100000000000000000000000000000000000000000000000000000000028152600401808381526020018281526020019250505060206040518083038186803b1580156129e557600080fd5b505af41580156129f9573d6000803e3d6000fd5b505050506040513d6020811015612a0f57600080fd5b8101908080519060200190929190505050600d8190555050565b6000809054906101000a900473ffffffffffffffffffffffffffffffffffffffff1673ffffffffffffffffffffffffffffffffffffffff163373ffffffffffffffffffffffffffffffffffffffff16141515612a8457600080fd5b8060138190555050565b6000809054906101000a900473ffffffffffffffffffffffffffffffffffffffff1681565b600080600260009054906101000a900473ffffffffffffffffffffffffffffffffffffffff1673ffffffffffffffffffffffffffffffffffffffff1663313ce5676040518163ffffffff167c0100000000000000000000000000000000000000000000000000000000028152600401602060405180830381600087803b158015612b3c57600080fd5b505af1158015612b50573d6000803e3d6000fd5b505050506040513d6020811015612b6657600080fd5b8101908080519060200190929190505050600a0a9050828473__SafeMathLib___________________________631d3b9edf9091846040518363ffffffff167c0100000000000000000000000000000000000000000000000000000000028152600401808381526020018281526020019250505060206040518083038186803b158015612bf257600080fd5b505af4158015612c06573d6000803e3d6000fd5b505050506040513d6020811015612c1c57600080fd5b8101908080519060200190929190505050811515612c3657fe5b0491505092915050565b600560009054906101000a900473ffffffffffffffffffffffffffffffffffffffff1681565b60116020528060005260406000206000915090505481565b612c883382613139565b50565b600060155482119050949350505050565b612ca5336110b6565b565b6000600460009054906101000a900473ffffffffffffffffffffffffffffffffffffffff1673ffffffffffffffffffffffffffffffffffffffff166382771c8e6040518163ffffffff167c0100000000000000000000000000000000000000000000000000000000028152600401602060405180830381600087803b158015612d2f57600080fd5b505af1158015612d43573d6000803e3d6000fd5b505050506040513d6020811015612d5957600080fd5b8101908080519060200190929190505050905090565b60075481565b600f60009054906101000a900460ff1681565b600060149054906101000a900460ff1681565b60126020528060005260406000206000915054906101000a900460ff1681565b6000809054906101000a900473ffffffffffffffffffffffffffffffffffffffff1673ffffffffffffffffffffffffffffffffffffffff163373ffffffffffffffffffffffffffffffffffffffff16141515612e1657600080fd5b600060149054906101000a900460ff161515612e3157600080fd5b60008060146101000a81548160ff021916908315150217905550565b601460019054906101000a900460ff1681565b60006015546009541015905090565b600c5481565b6000809054906101000a900473ffffffffffffffffffffffffffffffffffffffff1673ffffffffffffffffffffffffffffffffffffffff163373ffffffffffffffffffffffffffffffffffffffff16141515612ed057600080fd5b80601260008473ffffffffffffffffffffffffffffffffffffffff1673ffffffffffffffffffffffffffffffffffffffff16815260200190815260200160002060006101000a81548160ff0219169083151502179055507fa54714518c5d275fdcd3d2a461e4858e4e8cb04fb93cd0bca9d6d34115f264408282604051808373ffffffffffffffffffffffffffffffffffffffff1673ffffffffffffffffffffffffffffffffffffffff168152602001821515151581526020019250505060405180910390a15050565b60006016600083815260200190815260200160002060009054906101000a900460ff169050919050565b6000809054906101000a900473ffffffffffffffffffffffffffffffffffffffff1673ffffffffffffffffffffffffffffffffffffffff163373ffffffffffffffffffffffffffffffffffffffff1614151561301f57600080fd5b81601460016101000a81548160ff02191690831515021790555080601460026101000a81548173ffffffffffffffffffffffffffffffffffffffff021916908373ffffffffffffffffffffffffffffffffffffffff1602179055507f48d826081348f5f00e8a33c9ae8ce89ed4c6e88400b585a478bc203d9e8177d3601460009054906101000a900460ff16601460019054906101000a900460ff16601460029054906101000a900473ffffffffffffffffffffffffffffffffffffffff166040518084151515158152602001831515151581526020018273ffffffffffffffffffffffffffffffffffffffff1673ffffffffffffffffffffffffffffffffffffffff168152602001935050505060405180910390a15050565b601460019054906101000a900460ff161561315357600080fd5b6000816fffffffffffffffffffffffffffffffff16141561317357600080fd5b61317d8282613587565b505050565b60008060009054906101000a900473ffffffffffffffffffffffffffffffffffffffff1673ffffffffffffffffffffffffffffffffffffffff163373ffffffffffffffffffffffffffffffffffffffff161415156131df57600080fd5b6016600083815260200190815260200160002060009054906101000a900460ff161561320a57600080fd5b61321685858585611204565b6132268484600a54600954612c8b565b1561323057600080fd5b60016016600084815260200190815260200160002060006101000a81548160ff021916908315150217905550600260009054906101000a900473ffffffffffffffffffffffffffffffffffffffff1690508073ffffffffffffffffffffffffffffffffffffffff166340c10f1986856040518363ffffffff167c0100000000000000000000000000000000000000000000000000000000028152600401808373ffffffffffffffffffffffffffffffffffffffff1673ffffffffffffffffffffffffffffffffffffffff16815260200182815260200192505050600060405180830381600087803b15801561332457600080fd5b505af1158015613338573d6000803e3d6000fd5b505050505050505050565b6000809054906101000a900473ffffffffffffffffffffffffffffffffffffffff1673ffffffffffffffffffffffffffffffffffffffff163373ffffffffffffffffffffffffffffffffffffffff1614151561339e57600080fd5b600073ffffffffffffffffffffffffffffffffffffffff168173ffffffffffffffffffffffffffffffffffffffff16141515156133da57600080fd5b8073ffffffffffffffffffffffffffffffffffffffff166000809054906101000a900473ffffffffffffffffffffffffffffffffffffffff1673ffffffffffffffffffffffffffffffffffffffff167f8be0079c531659141344cd1fd0a4f28419497f9722a3daafe3b4186f6b6457e060405160405180910390a3806000806101000a81548173ffffffffffffffffffffffffffffffffffffffff021916908373ffffffffffffffffffffffffffffffffffffffff16021790555050565b6000809054906101000a900473ffffffffffffffffffffffffffffffffffffffff1673ffffffffffffffffffffffffffffffffffffffff163373ffffffffffffffffffffffffffffffffffffffff161415156134f357600080fd5b600154600c54111561350457600080fd5b80600560006101000a81548173ffffffffffffffffffffffffffffffffffffffff021916908373ffffffffffffffffffffffffffffffffffffffff16021790555050565b61355533858585856118aa565b50505050565b600b5481565b600260009054906101000a900473ffffffffffffffffffffffffffffffffffffffff1681565b60008060149054906101000a900460ff16156135a257600080fd5b61378c8383600360009054906101000a900473ffffffffffffffffffffffffffffffffffffffff1673ffffffffffffffffffffffffffffffffffffffff166318a4155e34600b54600a540360095433600260009054906101000a900473ffffffffffffffffffffffffffffffffffffffff1673ffffffffffffffffffffffffffffffffffffffff1663313ce5676040518163ffffffff167c0100000000000000000000000000000000000000000000000000000000028152600401602060405180830381600087803b15801561367757600080fd5b505af115801561368b573d6000803e3d6000fd5b505050506040513d60208110156136a157600080fd5b81019080805190602001909291905050506040518663ffffffff167c0100000000000000000000000000000000000000000000000000000000028152600401808681526020018581526020018481526020018373ffffffffffffffffffffffffffffffffffffffff1673ffffffffffffffffffffffffffffffffffffffff16815260200182815260200195505050505050602060405180830381600087803b15801561374c57600080fd5b505af1158015613760573d6000803e3d6000fd5b505050506040513d602081101561377657600080fd5b810190808051906020019092919050505061387b565b905092915050565b6000600260009054906101000a900473ffffffffffffffffffffffffffffffffffffffff1690508073ffffffffffffffffffffffffffffffffffffffff166340c10f1984846040518363ffffffff167c0100000000000000000000000000000000000000000000000000000000028152600401808373ffffffffffffffffffffffffffffffffffffffff1673ffffffffffffffffffffffffffffffffffffffff16815260200182815260200192505050600060405180830381600087803b15801561385e57600080fd5b505af1158015613872573d6000803e3d6000fd5b50505050505050565b600080600060149054906101000a900460ff161561389857600080fd5b600260078111156138a557fe5b6138ad611473565b60078111156138b857fe5b141561391b57601260008673ffffffffffffffffffffffffffffffffffffffff1673ffffffffffffffffffffffffffffffffffffffff16815260200190815260200160002060009054906101000a900460ff16151561391657600080fd5b61394c565b6003600781111561392857fe5b613930611473565b600781111561393b57fe5b14156139465761394b565b600080fd5b5b3490506000831415151561395f57600080fd5b6000601060008773ffffffffffffffffffffffffffffffffffffffff1673ffffffffffffffffffffffffffffffffffffffff1681526020019081526020016000205414156139ba57600c600081548092919060010191905055505b601060008673ffffffffffffffffffffffffffffffffffffffff1673ffffffffffffffffffffffffffffffffffffffff1681526020019081526020016000205473__SafeMathLib___________________________6366098d4f9091836040518363ffffffff167c0100000000000000000000000000000000000000000000000000000000028152600401808381526020018281526020019250505060206040518083038186803b158015613a6e57600080fd5b505af4158015613a82573d6000803e3d6000fd5b505050506040513d6020811015613a9857600080fd5b8101908080519060200190929190505050601060008773ffffffffffffffffffffffffffffffffffffffff1673ffffffffffffffffffffffffffffffffffffffff16815260200190815260200160002081905550601160008673ffffffffffffffffffffffffffffffffffffffff1673ffffffffffffffffffffffffffffffffffffffff1681526020019081526020016000205473__SafeMathLib___________________________6366098d4f9091856040518363ffffffff167c0100000000000000000000000000000000000000000000000000000000028152600401808381526020018281526020019250505060206040518083038186803b158015613ba057600080fd5b505af4158015613bb4573d6000803e3d6000fd5b505050506040513d6020811015613bca57600080fd5b8101908080519060200190929190505050601160008773ffffffffffffffffffffffffffffffffffffffff1673ffffffffffffffffffffffffffffffffffffffff16815260200190815260200160002081905550600a5473__SafeMathLib___________________________6366098d4f9091836040518363ffffffff167c0100000000000000000000000000000000000000000000000000000000028152600401808381526020018281526020019250505060206040518083038186803b158015613c9557600080fd5b505af4158015613ca9573d6000803e3d6000fd5b505050506040513d6020811015613cbf57600080fd5b8101908080519060200190929190505050600a8190555060095473__SafeMathLib___________________________6366098d4f9091856040518363ffffffff167c0100000000000000000000000000000000000000000000000000000000028152600401808381526020018281526020019250505060206040518083038186803b158015613d4d57600080fd5b505af4158015613d61573d6000803e3d6000fd5b505050506040513d6020811015613d7757600080fd5b8101908080519060200190929190505050600981905550600360009054906101000a900473ffffffffffffffffffffffffffffffffffffffff1673ffffffffffffffffffffffffffffffffffffffff1663f14ae17d866040518263ffffffff167c0100000000000000000000000000000000000000000000000000000000028152600401808273ffffffffffffffffffffffffffffffffffffffff1673ffffffffffffffffffffffffffffffffffffffff168152602001915050602060405180830381600087803b158015613e4b57600080fd5b505af1158015613e5f573d6000803e3d6000fd5b505050506040513d6020811015613e7557600080fd5b810190808051906020019092919050505015613f4457600b5473__SafeMathLib___________________________6366098d4f9091836040518363ffffffff167c0100000000000000000000000000000000000000000000000000000000028152600401808381526020018281526020019250505060206040518083038186803b158015613f0257600080fd5b505af4158015613f16573d6000803e3d6000fd5b505050506040513d6020811015613f2c57600080fd5b8101908080519060200190929190505050600b819055505b613f548184600a54600954612c8b565b151515613f6057600080fd5b613f6a8584613794565b600560009054906101000a900473ffffffffffffffffffffffffffffffffffffffff1673ffffffffffffffffffffffffffffffffffffffff166108fc829081150290604051600060405180830381858888f193505050501515613fcc57600080fd5b7f0396f60aaad038749091d273dc13aaabc63db6e2271c7bad442d5cf25cc4335085828587604051808573ffffffffffffffffffffffffffffffffffffffff1673ffffffffffffffffffffffffffffffffffffffff168152602001848152602001838152602001826fffffffffffffffffffffffffffffffff166fffffffffffffffffffffffffffffffff16815260200194505050505060405180910390a18291505093925050505600a165627a7a72305820aa54c9ac3b46a7f6554aceced6b61c8f83f0d304d16a4eba7843b5ed3c38894b0029",
  "source": "/**\r\n * This smart contract code is Copyright 2017 TokenMarket Ltd. For more information see https://tokenmarket.net\r\n *\r\n * Licensed under the Apache License, version 2.0: https://github.com/TokenMarketNet/ico/blob/master/LICENSE.txt\r\n */\r\n\r\npragma solidity ^0.4.8;\r\n\r\nimport \"./MintedTokenCappedCrowdsale.sol\";\r\n\r\n\r\n/**\r\n * A crowdsale that retains the previous token, but changes some parameters.\r\n *\r\n * Investor data can be manually fed in.\r\n *\r\n * Mostly useful as a hot fix.\r\n *\r\n */\r\ncontract RelaunchedCrowdsale is MintedTokenCappedCrowdsale {\r\n\r\n  // This transaction was restored from a previous crowdsale\r\n  event RestoredInvestment(address addr, uint originalTxHash);\r\n\r\n  mapping(uint => bool) public reissuedTransactions;\r\n\r\n  function RelaunchedCrowdsale(address _token, PricingStrategy _pricingStrategy, address _multisigWallet, uint _start, uint _end, uint _minimumFundingGoal, uint _maximumSellableTokens) MintedTokenCappedCrowdsale(_token, _pricingStrategy, _multisigWallet, _start, _end, _minimumFundingGoal, _maximumSellableTokens) {\r\n  }\r\n\r\n  /**\r\n   * Check if a particular transaction has already been written.\r\n   */\r\n  function getRestoredTransactionStatus(uint _originalTxHash) public constant returns(bool) {\r\n    return reissuedTransactions[_originalTxHash];\r\n  }\r\n\r\n  /**\r\n   * Rebuild the previous invest data back to the crowdsale.\r\n   */\r\n  function setInvestorData(address _addr, uint _weiAmount, uint _tokenAmount, uint _originalTxHash) onlyOwner public {\r\n\r\n    if(investedAmountOf[_addr] == 0) {\r\n      investorCount++;\r\n    }\r\n\r\n    investedAmountOf[_addr] += _weiAmount;\r\n    tokenAmountOf[_addr] += _tokenAmount;\r\n\r\n    weiRaised += _weiAmount;\r\n    tokensSold += _tokenAmount;\r\n\r\n    Invested(_addr, _weiAmount, _tokenAmount, 0);\r\n    RestoredInvestment(_addr, _originalTxHash);\r\n  }\r\n\r\n  /**\r\n   * Rebuild the previous invest data and do a token reissuance.\r\n   */\r\n  function setInvestorDataAndIssueNewToken(address _addr, uint _weiAmount, uint _tokenAmount, uint _originalTxHash) onlyOwner public {\r\n\r\n    // This transaction has already been rebuild\r\n    if(reissuedTransactions[_originalTxHash]) {\r\n      throw;\r\n    }\r\n\r\n    setInvestorData(_addr, _weiAmount, _tokenAmount, _originalTxHash);\r\n\r\n    // Check that we did not bust the cap in the restoration process\r\n    if(isBreakingCap(_weiAmount, _tokenAmount, weiRaised, tokensSold)) {\r\n      throw;\r\n    }\r\n\r\n    // Mark transaction processed\r\n    reissuedTransactions[_originalTxHash] = true;\r\n\r\n    // Mint new token to give it to the original investor\r\n    MintableToken mintableToken = MintableToken(token);\r\n    mintableToken.mint(_addr, _tokenAmount);\r\n  }\r\n\r\n}\r\n",
  "sourcePath": "D:\\trees\\tokenmint\\contracts\\tokenmarketnet-contracts\\contracts\\RelaunchedCrowdsale.sol",
  "compiler": {
    "name": "solc",
    "version": "0.4.24+commit.e67f0147.Emscripten.clang"
  },
  "schemaVersion": "2.0.1",
  "updatedAt": "2018-12-10T14:03:30.274Z"
}