{
  "contractName": "RolesMock",
  "abi": [
    {
      "constant": false,
      "inputs": [
        {
          "name": "account",
          "type": "address"
        }
      ],
      "name": "add",
      "outputs": [],
      "payable": false,
      "stateMutability": "nonpayable",
      "type": "function"
    },
    {
      "constant": false,
      "inputs": [
        {
          "name": "account",
          "type": "address"
        }
      ],
      "name": "remove",
      "outputs": [],
      "payable": false,
      "stateMutability": "nonpayable",
      "type": "function"
    },
    {
      "constant": true,
      "inputs": [
        {
          "name": "account",
          "type": "address"
        }
      ],
      "name": "has",
      "outputs": [
        {
          "name": "",
          "type": "bool"
        }
      ],
      "payable": false,
      "stateMutability": "view",
      "type": "function"
    }
  ],
  "bytecode": "0x608060405234801561001057600080fd5b506103a7806100206000396000f300608060405260043610610057576000357c0100000000000000000000000000000000000000000000000000000000900463ffffffff1680630a3b0a4f1461005c57806321887c3d1461009f57806329092d0e146100fa575b600080fd5b34801561006857600080fd5b5061009d600480360381019080803573ffffffffffffffffffffffffffffffffffffffff16906020019092919050505061013d565b005b3480156100ab57600080fd5b506100e0600480360381019080803573ffffffffffffffffffffffffffffffffffffffff169060200190929190505050610154565b604051808215151515815260200191505060405180910390f35b34801561010657600080fd5b5061013b600480360381019080803573ffffffffffffffffffffffffffffffffffffffff169060200190929190505050610171565b005b61015181600061018890919063ffffffff16565b50565b600061016a82600061023890919063ffffffff16565b9050919050565b6101858160006102cc90919063ffffffff16565b50565b600073ffffffffffffffffffffffffffffffffffffffff168173ffffffffffffffffffffffffffffffffffffffff16141515156101c457600080fd5b6101ce8282610238565b1515156101da57600080fd5b60018260000160008373ffffffffffffffffffffffffffffffffffffffff1673ffffffffffffffffffffffffffffffffffffffff16815260200190815260200160002060006101000a81548160ff0219169083151502179055505050565b60008073ffffffffffffffffffffffffffffffffffffffff168273ffffffffffffffffffffffffffffffffffffffff161415151561027557600080fd5b8260000160008373ffffffffffffffffffffffffffffffffffffffff1673ffffffffffffffffffffffffffffffffffffffff16815260200190815260200160002060009054906101000a900460ff16905092915050565b600073ffffffffffffffffffffffffffffffffffffffff168173ffffffffffffffffffffffffffffffffffffffff161415151561030857600080fd5b6103128282610238565b151561031d57600080fd5b60008260000160008373ffffffffffffffffffffffffffffffffffffffff1673ffffffffffffffffffffffffffffffffffffffff16815260200190815260200160002060006101000a81548160ff02191690831515021790555050505600a165627a7a7230582041675c5ca39c9b837883f1d88dac99a7728ebffbf0895b54cb168ce3f92e35c60029",
  "source": "pragma solidity ^0.4.24;\r\n\r\nimport \"../access/Roles.sol\";\r\n\r\ncontract RolesMock {\r\n    using Roles for Roles.Role;\r\n\r\n    Roles.Role private dummyRole;\r\n\r\n    function add(address account) public {\r\n        dummyRole.add(account);\r\n    }\r\n\r\n    function remove(address account) public {\r\n        dummyRole.remove(account);\r\n    }\r\n\r\n    function has(address account) public view returns (bool) {\r\n        return dummyRole.has(account);\r\n    }\r\n}\r\n",
  "sourcePath": "D:\\dev\\tokenmint\\contracts\\open-zeppelin-contracts\\mocks\\RolesMock.sol",
  "compiler": {
    "name": "solc",
    "version": "0.4.24+commit.e67f0147.Emscripten.clang"
  },
  "schemaVersion": "2.0.1",
  "updatedAt": "2019-01-09T16:58:53.789Z"
}