{
  "contractName": "SafeMathMock",
  "abi": [
    {
      "constant": true,
      "inputs": [
        {
          "name": "a",
          "type": "uint256"
        },
        {
          "name": "b",
          "type": "uint256"
        }
      ],
      "name": "mulUints",
      "outputs": [
        {
          "name": "",
          "type": "uint256"
        }
      ],
      "payable": false,
      "stateMutability": "pure",
      "type": "function"
    },
    {
      "constant": true,
      "inputs": [
        {
          "name": "a",
          "type": "int256"
        },
        {
          "name": "b",
          "type": "int256"
        }
      ],
      "name": "mulInts",
      "outputs": [
        {
          "name": "",
          "type": "int256"
        }
      ],
      "payable": false,
      "stateMutability": "pure",
      "type": "function"
    },
    {
      "constant": true,
      "inputs": [
        {
          "name": "a",
          "type": "uint256"
        },
        {
          "name": "b",
          "type": "uint256"
        }
      ],
      "name": "divUints",
      "outputs": [
        {
          "name": "",
          "type": "uint256"
        }
      ],
      "payable": false,
      "stateMutability": "pure",
      "type": "function"
    },
    {
      "constant": true,
      "inputs": [
        {
          "name": "a",
          "type": "int256"
        },
        {
          "name": "b",
          "type": "int256"
        }
      ],
      "name": "divInts",
      "outputs": [
        {
          "name": "",
          "type": "int256"
        }
      ],
      "payable": false,
      "stateMutability": "pure",
      "type": "function"
    },
    {
      "constant": true,
      "inputs": [
        {
          "name": "a",
          "type": "uint256"
        },
        {
          "name": "b",
          "type": "uint256"
        }
      ],
      "name": "subUints",
      "outputs": [
        {
          "name": "",
          "type": "uint256"
        }
      ],
      "payable": false,
      "stateMutability": "pure",
      "type": "function"
    },
    {
      "constant": true,
      "inputs": [
        {
          "name": "a",
          "type": "int256"
        },
        {
          "name": "b",
          "type": "int256"
        }
      ],
      "name": "subInts",
      "outputs": [
        {
          "name": "",
          "type": "int256"
        }
      ],
      "payable": false,
      "stateMutability": "pure",
      "type": "function"
    },
    {
      "constant": true,
      "inputs": [
        {
          "name": "a",
          "type": "uint256"
        },
        {
          "name": "b",
          "type": "uint256"
        }
      ],
      "name": "addUints",
      "outputs": [
        {
          "name": "",
          "type": "uint256"
        }
      ],
      "payable": false,
      "stateMutability": "pure",
      "type": "function"
    },
    {
      "constant": true,
      "inputs": [
        {
          "name": "a",
          "type": "int256"
        },
        {
          "name": "b",
          "type": "int256"
        }
      ],
      "name": "addInts",
      "outputs": [
        {
          "name": "",
          "type": "int256"
        }
      ],
      "payable": false,
      "stateMutability": "pure",
      "type": "function"
    },
    {
      "constant": true,
      "inputs": [
        {
          "name": "a",
          "type": "uint256"
        },
        {
          "name": "b",
          "type": "uint256"
        }
      ],
      "name": "modUints",
      "outputs": [
        {
          "name": "",
          "type": "uint256"
        }
      ],
      "payable": false,
      "stateMutability": "pure",
      "type": "function"
    }
  ],
  "bytecode": "0x608060405234801561001057600080fd5b50610695806100206000396000f300608060405260043610610099576000357c0100000000000000000000000000000000000000000000000000000000900463ffffffff1680631bd7b1491461009e57806337f27fa3146100e9578063577e3019146101345780636a68a3121461017f5780636feed98f146101ca578063ba61cf3714610215578063cedf5acc14610260578063f242d2d8146102ab578063f293eeff146102f6575b600080fd5b3480156100aa57600080fd5b506100d36004803603810190808035906020019092919080359060200190929190505050610341565b6040518082815260200191505060405180910390f35b3480156100f557600080fd5b5061011e6004803603810190808035906020019092919080359060200190929190505050610355565b6040518082815260200191505060405180910390f35b34801561014057600080fd5b506101696004803603810190808035906020019092919080359060200190929190505050610369565b6040518082815260200191505060405180910390f35b34801561018b57600080fd5b506101b4600480360381019080803590602001909291908035906020019092919050505061037d565b6040518082815260200191505060405180910390f35b3480156101d657600080fd5b506101ff6004803603810190808035906020019092919080359060200190929190505050610391565b6040518082815260200191505060405180910390f35b34801561022157600080fd5b5061024a60048036038101908080359060200190929190803590602001909291905050506103a5565b6040518082815260200191505060405180910390f35b34801561026c57600080fd5b5061029560048036038101908080359060200190929190803590602001909291905050506103b9565b6040518082815260200191505060405180910390f35b3480156102b757600080fd5b506102e060048036038101908080359060200190929190803590602001909291905050506103cd565b6040518082815260200191505060405180910390f35b34801561030257600080fd5b5061032b60048036038101908080359060200190929190803590602001909291905050506103e1565b6040518082815260200191505060405180910390f35b600061034d83836103f5565b905092915050565b60006103618383610416565b905092915050565b60006103758383610437565b905092915050565b6000610389838361047b565b905092915050565b600061039d83836104b9565b905092915050565b60006103b183836104de565b905092915050565b60006103c58383610508565b905092915050565b60006103d983836105a0565b905092915050565b60006103ed83836105e4565b905092915050565b600080828401905083811015151561040c57600080fd5b8091505092915050565b60008083831115151561042857600080fd5b82840390508091505092915050565b6000808284039050600083121580156104505750838113155b80610466575060008312801561046557508381135b5b151561047157600080fd5b8091505092915050565b600080600084141561049057600091506104b2565b82840290508284828115156104a157fe5b041415156104ae57600080fd5b8091505b5092915050565b60008082141515156104ca57600080fd5b81838115156104d557fe5b06905092915050565b6000806000831115156104f057600080fd5b82848115156104fb57fe5b0490508091505092915050565b600080600084141561051d5760009150610599565b7fffffffffffffffffffffffffffffffffffffffffffffffffffffffffffffffff8414801561056b57507f800000000000000000000000000000000000000000000000000000000000000083145b15151561057757600080fd5b828402905082848281151561058857fe5b0514151561059557600080fd5b8091505b5092915050565b6000808284019050600083121580156105b95750838112155b806105cf57506000831280156105ce57508381125b5b15156105da57600080fd5b8091505092915050565b600080600083141515156105f757600080fd5b7fffffffffffffffffffffffffffffffffffffffffffffffffffffffffffffffff8314801561064557507f800000000000000000000000000000000000000000000000000000000000000084145b15151561065157600080fd5b828481151561065c57fe5b05905080915050929150505600a165627a7a723058200fcfa08ae86944bb0589e79a50bc83a28bfdbba7916caac977ca725dab02bf950029",
  "source": "pragma solidity ^0.4.24;\r\n\r\n\r\nimport \"../math/SafeMath.sol\";\r\n\r\n\r\ncontract SafeMathMock {\r\n    function mulUints(uint256 a, uint256 b) public pure returns (uint256) {\r\n        return SafeMath.mul(a, b);\r\n    }\r\n\r\n    function mulInts(int256 a, int256 b) public pure returns (int256) {\r\n        return SafeMath.mul(a, b);\r\n    }\r\n\r\n    function divUints(uint256 a, uint256 b) public pure returns (uint256) {\r\n        return SafeMath.div(a, b);\r\n    }\r\n\r\n    function divInts(int256 a, int256 b) public pure returns (int256) {\r\n        return SafeMath.div(a, b);\r\n    }\r\n\r\n    function subUints(uint256 a, uint256 b) public pure returns (uint256) {\r\n        return SafeMath.sub(a, b);\r\n    }\r\n\r\n    function subInts(int256 a, int256 b) public pure returns (int256) {\r\n        return SafeMath.sub(a, b);\r\n    }\r\n\r\n    function addUints(uint256 a, uint256 b) public pure returns (uint256) {\r\n        return SafeMath.add(a, b);\r\n    }\r\n\r\n    function addInts(int256 a, int256 b) public pure returns (int256) {\r\n        return SafeMath.add(a, b);\r\n    }\r\n\r\n    function modUints(uint256 a, uint256 b) public pure returns (uint256) {\r\n        return SafeMath.mod(a, b);\r\n    }\r\n}\r\n",
  "sourcePath": "D:\\dev\\tokenmint\\contracts\\open-zeppelin-contracts\\mocks\\SafeMathMock.sol",
  "compiler": {
    "name": "solc",
    "version": "0.4.24+commit.e67f0147.Emscripten.clang"
  },
  "schemaVersion": "2.0.1",
  "updatedAt": "2019-01-02T15:51:01.698Z"
}