{
  "contractName": "SafeMathMock",
  "abi": [
    {
      "constant": true,
      "inputs": [],
      "name": "result",
      "outputs": [
        {
          "name": "",
          "type": "uint256"
        }
      ],
      "payable": false,
      "stateMutability": "view",
      "type": "function"
    },
    {
      "constant": false,
      "inputs": [
        {
          "name": "a",
          "type": "uint256"
        },
        {
          "name": "b",
          "type": "uint256"
        }
      ],
      "name": "multiply",
      "outputs": [],
      "payable": false,
      "stateMutability": "nonpayable",
      "type": "function"
    },
    {
      "constant": false,
      "inputs": [
        {
          "name": "a",
          "type": "uint256"
        },
        {
          "name": "b",
          "type": "uint256"
        }
      ],
      "name": "subtract",
      "outputs": [],
      "payable": false,
      "stateMutability": "nonpayable",
      "type": "function"
    },
    {
      "constant": false,
      "inputs": [
        {
          "name": "a",
          "type": "uint256"
        },
        {
          "name": "b",
          "type": "uint256"
        }
      ],
      "name": "add",
      "outputs": [],
      "payable": false,
      "stateMutability": "nonpayable",
      "type": "function"
    }
  ],
  "bytecode": "0x608060405234801561001057600080fd5b50610217806100206000396000f300608060405260043610610062576000357c0100000000000000000000000000000000000000000000000000000000900463ffffffff168063165c4a16146100675780633ef5e4451461009e57806365372147146100d5578063771602f714610100575b600080fd5b34801561007357600080fd5b5061009c6004803603810190808035906020019092919080359060200190929190505050610137565b005b3480156100aa57600080fd5b506100d3600480360381019080803590602001909291908035906020019092919050505061014b565b005b3480156100e157600080fd5b506100ea61015f565b6040518082815260200191505060405180910390f35b34801561010c57600080fd5b506101356004803603810190808035906020019092919080359060200190929190505050610165565b005b6101418282610179565b6000819055505050565b61015582826101b4565b6000819055505050565b60005481565b61016f82826101cd565b6000819055505050565b600080600084141561018e57600091506101ad565b828402905082848281151561019f57fe5b041415156101a957fe5b8091505b5092915050565b60008282111515156101c257fe5b818303905092915050565b60008082840190508381101515156101e157fe5b80915050929150505600a165627a7a72305820b6e6cfd09a77e7223300ad2433eeffdf966f62fea0fa6be86ddc6b701493a4480029",
  "source": "pragma solidity ^0.4.18;\n\n\nimport \"../math/SafeMath.sol\";\n\n\ncontract SafeMathMock {\n  uint256 public result;\n\n  function multiply(uint256 a, uint256 b) public {\n    result = SafeMath.mul(a, b);\n  }\n\n  function subtract(uint256 a, uint256 b) public {\n    result = SafeMath.sub(a, b);\n  }\n\n  function add(uint256 a, uint256 b) public {\n    result = SafeMath.add(a, b);\n  }\n}\n",
  "sourcePath": "D:\\dev\\tokenmint\\contracts\\tokenmarketnet-contracts\\contracts\\zeppelin\\contracts\\mocks\\SafeMathMock.sol",
  "compiler": {
    "name": "solc",
    "version": "0.4.24+commit.e67f0147.Emscripten.clang"
  },
  "schemaVersion": "2.0.1",
  "updatedAt": "2018-12-07T11:58:34.004Z"
}