{
  "contractName": "SecurityToken",
  "abi": [
    {
      "constant": true,
      "inputs": [],
      "name": "name",
      "outputs": [
        {
          "name": "",
          "type": "string"
        }
      ],
      "payable": false,
      "stateMutability": "view",
      "type": "function"
    },
    {
      "constant": false,
      "inputs": [
        {
          "name": "spender",
          "type": "address"
        },
        {
          "name": "value",
          "type": "uint256"
        }
      ],
      "name": "approve",
      "outputs": [
        {
          "name": "",
          "type": "bool"
        }
      ],
      "payable": false,
      "stateMutability": "nonpayable",
      "type": "function"
    },
    {
      "constant": false,
      "inputs": [
        {
          "name": "token",
          "type": "address"
        }
      ],
      "name": "recoverTokens",
      "outputs": [],
      "payable": false,
      "stateMutability": "nonpayable",
      "type": "function"
    },
    {
      "constant": false,
      "inputs": [
        {
          "name": "spender",
          "type": "address"
        },
        {
          "name": "addedValue",
          "type": "uint256"
        },
        {
          "name": "data",
          "type": "bytes"
        }
      ],
      "name": "increaseApproval",
      "outputs": [
        {
          "name": "",
          "type": "bool"
        }
      ],
      "payable": false,
      "stateMutability": "nonpayable",
      "type": "function"
    },
    {
      "constant": true,
      "inputs": [],
      "name": "totalSupply",
      "outputs": [
        {
          "name": "tokenCount",
          "type": "uint256"
        }
      ],
      "payable": false,
      "stateMutability": "view",
      "type": "function"
    },
    {
      "constant": true,
      "inputs": [
        {
          "name": "",
          "type": "uint256"
        }
      ],
      "name": "announcements",
      "outputs": [
        {
          "name": "",
          "type": "address"
        }
      ],
      "payable": false,
      "stateMutability": "view",
      "type": "function"
    },
    {
      "constant": false,
      "inputs": [
        {
          "name": "from",
          "type": "address"
        },
        {
          "name": "to",
          "type": "address"
        },
        {
          "name": "value",
          "type": "uint256"
        }
      ],
      "name": "transferFrom",
      "outputs": [
        {
          "name": "",
          "type": "bool"
        }
      ],
      "payable": false,
      "stateMutability": "nonpayable",
      "type": "function"
    },
    {
      "constant": false,
      "inputs": [
        {
          "name": "addrs",
          "type": "address[]"
        }
      ],
      "name": "removeAddressesFromWhitelist",
      "outputs": [
        {
          "name": "success",
          "type": "bool"
        }
      ],
      "payable": false,
      "stateMutability": "nonpayable",
      "type": "function"
    },
    {
      "constant": false,
      "inputs": [
        {
          "name": "addr",
          "type": "address"
        }
      ],
      "name": "removeAddressFromWhitelist",
      "outputs": [
        {
          "name": "success",
          "type": "bool"
        }
      ],
      "payable": false,
      "stateMutability": "nonpayable",
      "type": "function"
    },
    {
      "constant": true,
      "inputs": [],
      "name": "decimals",
      "outputs": [
        {
          "name": "",
          "type": "uint256"
        }
      ],
      "payable": false,
      "stateMutability": "view",
      "type": "function"
    },
    {
      "constant": true,
      "inputs": [
        {
          "name": "owner",
          "type": "address"
        },
        {
          "name": "blockNumber",
          "type": "uint256"
        }
      ],
      "name": "balanceAt",
      "outputs": [
        {
          "name": "balance",
          "type": "uint256"
        }
      ],
      "payable": false,
      "stateMutability": "view",
      "type": "function"
    },
    {
      "constant": false,
      "inputs": [
        {
          "name": "receiver",
          "type": "address"
        },
        {
          "name": "amount",
          "type": "uint256"
        },
        {
          "name": "data",
          "type": "bytes"
        }
      ],
      "name": "transferAndCall",
      "outputs": [
        {
          "name": "success",
          "type": "bool"
        }
      ],
      "payable": false,
      "stateMutability": "nonpayable",
      "type": "function"
    },
    {
      "constant": true,
      "inputs": [
        {
          "name": "",
          "type": "address"
        },
        {
          "name": "",
          "type": "uint256"
        }
      ],
      "name": "tokenBalances",
      "outputs": [
        {
          "name": "blockNumber",
          "type": "uint256"
        },
        {
          "name": "value",
          "type": "uint256"
        }
      ],
      "payable": false,
      "stateMutability": "view",
      "type": "function"
    },
    {
      "constant": true,
      "inputs": [
        {
          "name": "",
          "type": "uint256"
        }
      ],
      "name": "tokensTotal",
      "outputs": [
        {
          "name": "blockNumber",
          "type": "uint256"
        },
        {
          "name": "value",
          "type": "uint256"
        }
      ],
      "payable": false,
      "stateMutability": "view",
      "type": "function"
    },
    {
      "constant": true,
      "inputs": [],
      "name": "version",
      "outputs": [
        {
          "name": "",
          "type": "string"
        }
      ],
      "payable": false,
      "stateMutability": "view",
      "type": "function"
    },
    {
      "constant": true,
      "inputs": [
        {
          "name": "",
          "type": "address"
        },
        {
          "name": "",
          "type": "address"
        }
      ],
      "name": "allowed",
      "outputs": [
        {
          "name": "",
          "type": "uint256"
        }
      ],
      "payable": false,
      "stateMutability": "view",
      "type": "function"
    },
    {
      "constant": false,
      "inputs": [
        {
          "name": "spender",
          "type": "address"
        },
        {
          "name": "subtractedValue",
          "type": "uint256"
        }
      ],
      "name": "decreaseApproval",
      "outputs": [
        {
          "name": "",
          "type": "bool"
        }
      ],
      "payable": false,
      "stateMutability": "nonpayable",
      "type": "function"
    },
    {
      "constant": true,
      "inputs": [
        {
          "name": "owner",
          "type": "address"
        }
      ],
      "name": "balanceOf",
      "outputs": [
        {
          "name": "balance",
          "type": "uint256"
        }
      ],
      "payable": false,
      "stateMutability": "view",
      "type": "function"
    },
    {
      "constant": false,
      "inputs": [
        {
          "name": "spender",
          "type": "address"
        },
        {
          "name": "subtractedValue",
          "type": "uint256"
        },
        {
          "name": "data",
          "type": "bytes"
        }
      ],
      "name": "decreaseApproval",
      "outputs": [
        {
          "name": "",
          "type": "bool"
        }
      ],
      "payable": false,
      "stateMutability": "nonpayable",
      "type": "function"
    },
    {
      "constant": false,
      "inputs": [
        {
          "name": "addr",
          "type": "address"
        }
      ],
      "name": "addAddressToWhitelist",
      "outputs": [
        {
          "name": "success",
          "type": "bool"
        }
      ],
      "payable": false,
      "stateMutability": "nonpayable",
      "type": "function"
    },
    {
      "constant": true,
      "inputs": [],
      "name": "owner",
      "outputs": [
        {
          "name": "",
          "type": "address"
        }
      ],
      "payable": false,
      "stateMutability": "view",
      "type": "function"
    },
    {
      "constant": true,
      "inputs": [],
      "name": "transferVerifier",
      "outputs": [
        {
          "name": "",
          "type": "address"
        }
      ],
      "payable": false,
      "stateMutability": "view",
      "type": "function"
    },
    {
      "constant": true,
      "inputs": [],
      "name": "symbol",
      "outputs": [
        {
          "name": "",
          "type": "string"
        }
      ],
      "payable": false,
      "stateMutability": "view",
      "type": "function"
    },
    {
      "constant": true,
      "inputs": [
        {
          "name": "blockNumber",
          "type": "uint256"
        }
      ],
      "name": "totalSupplyAt",
      "outputs": [
        {
          "name": "tokenCount",
          "type": "uint256"
        }
      ],
      "payable": false,
      "stateMutability": "view",
      "type": "function"
    },
    {
      "constant": true,
      "inputs": [
        {
          "name": "",
          "type": "address"
        }
      ],
      "name": "whitelist",
      "outputs": [
        {
          "name": "",
          "type": "bool"
        }
      ],
      "payable": false,
      "stateMutability": "view",
      "type": "function"
    },
    {
      "constant": false,
      "inputs": [
        {
          "name": "to",
          "type": "address"
        },
        {
          "name": "value",
          "type": "uint256"
        }
      ],
      "name": "transfer",
      "outputs": [
        {
          "name": "",
          "type": "bool"
        }
      ],
      "payable": false,
      "stateMutability": "nonpayable",
      "type": "function"
    },
    {
      "constant": false,
      "inputs": [
        {
          "name": "token",
          "type": "address"
        }
      ],
      "name": "tokensToBeReturned",
      "outputs": [
        {
          "name": "",
          "type": "uint256"
        }
      ],
      "payable": false,
      "stateMutability": "nonpayable",
      "type": "function"
    },
    {
      "constant": false,
      "inputs": [
        {
          "name": "spender",
          "type": "address"
        },
        {
          "name": "addedValue",
          "type": "uint256"
        }
      ],
      "name": "increaseApproval",
      "outputs": [
        {
          "name": "",
          "type": "bool"
        }
      ],
      "payable": false,
      "stateMutability": "nonpayable",
      "type": "function"
    },
    {
      "constant": true,
      "inputs": [
        {
          "name": "owner",
          "type": "address"
        },
        {
          "name": "spender",
          "type": "address"
        }
      ],
      "name": "allowance",
      "outputs": [
        {
          "name": "",
          "type": "uint256"
        }
      ],
      "payable": false,
      "stateMutability": "view",
      "type": "function"
    },
    {
      "constant": false,
      "inputs": [
        {
          "name": "addrs",
          "type": "address[]"
        }
      ],
      "name": "addAddressesToWhitelist",
      "outputs": [
        {
          "name": "success",
          "type": "bool"
        }
      ],
      "payable": false,
      "stateMutability": "nonpayable",
      "type": "function"
    },
    {
      "constant": false,
      "inputs": [
        {
          "name": "newOwner",
          "type": "address"
        }
      ],
      "name": "transferOwnership",
      "outputs": [],
      "payable": false,
      "stateMutability": "nonpayable",
      "type": "function"
    },
    {
      "inputs": [
        {
          "name": "_name",
          "type": "string"
        },
        {
          "name": "_symbol",
          "type": "string"
        }
      ],
      "payable": false,
      "stateMutability": "nonpayable",
      "type": "constructor"
    },
    {
      "anonymous": false,
      "inputs": [
        {
          "indexed": true,
          "name": "to",
          "type": "address"
        },
        {
          "indexed": false,
          "name": "value",
          "type": "uint256"
        }
      ],
      "name": "Issued",
      "type": "event"
    },
    {
      "anonymous": false,
      "inputs": [
        {
          "indexed": true,
          "name": "burner",
          "type": "address"
        },
        {
          "indexed": false,
          "name": "value",
          "type": "uint256"
        }
      ],
      "name": "Burned",
      "type": "event"
    },
    {
      "anonymous": false,
      "inputs": [
        {
          "indexed": true,
          "name": "from",
          "type": "address"
        },
        {
          "indexed": true,
          "name": "to",
          "type": "address"
        },
        {
          "indexed": false,
          "name": "value",
          "type": "uint256"
        }
      ],
      "name": "Forced",
      "type": "event"
    },
    {
      "anonymous": false,
      "inputs": [
        {
          "indexed": true,
          "name": "announcement",
          "type": "address"
        },
        {
          "indexed": true,
          "name": "announcementType",
          "type": "uint256"
        },
        {
          "indexed": true,
          "name": "announcementName",
          "type": "bytes32"
        },
        {
          "indexed": false,
          "name": "announcementURI",
          "type": "bytes32"
        },
        {
          "indexed": false,
          "name": "announcementHash",
          "type": "uint256"
        }
      ],
      "name": "Announced",
      "type": "event"
    },
    {
      "anonymous": false,
      "inputs": [
        {
          "indexed": false,
          "name": "newName",
          "type": "string"
        },
        {
          "indexed": false,
          "name": "newSymbol",
          "type": "string"
        }
      ],
      "name": "UpdatedTokenInformation",
      "type": "event"
    },
    {
      "anonymous": false,
      "inputs": [
        {
          "indexed": false,
          "name": "newVerifier",
          "type": "address"
        }
      ],
      "name": "UpdatedTransactionVerifier",
      "type": "event"
    },
    {
      "anonymous": false,
      "inputs": [
        {
          "indexed": false,
          "name": "addr",
          "type": "address"
        }
      ],
      "name": "WhitelistedAddressAdded",
      "type": "event"
    },
    {
      "anonymous": false,
      "inputs": [
        {
          "indexed": false,
          "name": "addr",
          "type": "address"
        }
      ],
      "name": "WhitelistedAddressRemoved",
      "type": "event"
    },
    {
      "anonymous": false,
      "inputs": [
        {
          "indexed": true,
          "name": "previousOwner",
          "type": "address"
        },
        {
          "indexed": true,
          "name": "newOwner",
          "type": "address"
        }
      ],
      "name": "OwnershipTransferred",
      "type": "event"
    },
    {
      "anonymous": false,
      "inputs": [
        {
          "indexed": false,
          "name": "from",
          "type": "address"
        },
        {
          "indexed": false,
          "name": "receiver",
          "type": "address"
        },
        {
          "indexed": false,
          "name": "amount",
          "type": "uint256"
        },
        {
          "indexed": false,
          "name": "data",
          "type": "bytes"
        }
      ],
      "name": "Transfer",
      "type": "event"
    },
    {
      "anonymous": false,
      "inputs": [
        {
          "indexed": true,
          "name": "owner",
          "type": "address"
        },
        {
          "indexed": true,
          "name": "spender",
          "type": "address"
        },
        {
          "indexed": false,
          "name": "value",
          "type": "uint256"
        }
      ],
      "name": "Approval",
      "type": "event"
    },
    {
      "anonymous": false,
      "inputs": [
        {
          "indexed": true,
          "name": "from",
          "type": "address"
        },
        {
          "indexed": true,
          "name": "to",
          "type": "address"
        },
        {
          "indexed": false,
          "name": "value",
          "type": "uint256"
        }
      ],
      "name": "Transfer",
      "type": "event"
    },
    {
      "constant": false,
      "inputs": [
        {
          "name": "announcement",
          "type": "address"
        }
      ],
      "name": "announce",
      "outputs": [],
      "payable": false,
      "stateMutability": "nonpayable",
      "type": "function"
    },
    {
      "constant": false,
      "inputs": [
        {
          "name": "from",
          "type": "address"
        },
        {
          "name": "to",
          "type": "address"
        },
        {
          "name": "value",
          "type": "uint256"
        }
      ],
      "name": "forceTransfer",
      "outputs": [],
      "payable": false,
      "stateMutability": "nonpayable",
      "type": "function"
    },
    {
      "constant": false,
      "inputs": [
        {
          "name": "value",
          "type": "uint256"
        }
      ],
      "name": "issueTokens",
      "outputs": [],
      "payable": false,
      "stateMutability": "nonpayable",
      "type": "function"
    },
    {
      "constant": false,
      "inputs": [
        {
          "name": "value",
          "type": "uint256"
        }
      ],
      "name": "burnTokens",
      "outputs": [],
      "payable": false,
      "stateMutability": "nonpayable",
      "type": "function"
    },
    {
      "constant": false,
      "inputs": [
        {
          "name": "_name",
          "type": "string"
        },
        {
          "name": "_symbol",
          "type": "string"
        }
      ],
      "name": "setTokenInformation",
      "outputs": [],
      "payable": false,
      "stateMutability": "nonpayable",
      "type": "function"
    },
    {
      "constant": false,
      "inputs": [
        {
          "name": "newVerifier",
          "type": "address"
        }
      ],
      "name": "setTransactionVerifier",
      "outputs": [],
      "payable": false,
      "stateMutability": "nonpayable",
      "type": "function"
    }
  ],
  "bytecode": "0x60806040526040805190810160405280600881526020017f544d303120302e31000000000000000000000000000000000000000000000000815250600990805190602001906200005192919062000117565b503480156200005f57600080fd5b5060405162003a3c38038062003a3c8339810180604052810190808051820192919060200180518201929190505050818160128260009080519060200190620000aa92919062000117565b508160019080519060200190620000c392919062000117565b508060028190555050505033600760006101000a81548173ffffffffffffffffffffffffffffffffffffffff021916908373ffffffffffffffffffffffffffffffffffffffff1602179055505050620001c6565b828054600181600116156101000203166002900490600052602060002090601f016020900481019282601f106200015a57805160ff19168380011785556200018b565b828001600101855582156200018b579182015b828111156200018a5782518255916020019190600101906200016d565b5b5090506200019a91906200019e565b5090565b620001c391905b80821115620001bf576000816000905550600101620001a5565b5090565b90565b61386680620001d66000396000f3006080604052600436106101cd576000357c0100000000000000000000000000000000000000000000000000000000900463ffffffff16806306fdde03146101d2578063095ea7b31461026257806316114acd146102c757806316ca3b631461030a57806318160ddd146103b557806318913e21146103e05780631bcfbe311461042357806323b872dd1461049057806324953eaa14610515578063286dd3f514610593578063313ce567146105ee57806333bebb77146106195780633b8e6f2e146106865780634000aea0146106e757806348ff5665146107925780634eee966f146107fa5780634f0092ab1461084d57806354fd4d50146108955780635c65816514610925578063661884631461099c5780636d1b229d14610a0157806370a0823114610a2e5780637272ad4914610a855780637b9417c814610b305780638da5cb5b14610b8b5780638daed52814610be257806395d89b4114610c39578063981b24d014610cc95780639b19251a14610d0a578063a5820daa14610d65578063a9059cbb14610d92578063c45d19db14610df7578063d73dd62314610e4e578063dd62ed3e14610eb3578063e2ec6ec314610f2a578063eeac096914610fa8578063f2fde38b14610feb575b600080fd5b3480156101de57600080fd5b506101e761102e565b6040518080602001828103825283818151815260200191508051906020019080838360005b8381101561022757808201518184015260208101905061020c565b50505050905090810190601f1680156102545780820380516001836020036101000a031916815260200191505b509250505060405180910390f35b34801561026e57600080fd5b506102ad600480360381019080803573ffffffffffffffffffffffffffffffffffffffff169060200190929190803590602001909291905050506110cc565b604051808215151515815260200191505060405180910390f35b3480156102d357600080fd5b50610308600480360381019080803573ffffffffffffffffffffffffffffffffffffffff1690602001909291905050506111be565b005b34801561031657600080fd5b5061039b600480360381019080803573ffffffffffffffffffffffffffffffffffffffff16906020019092919080359060200190929190803590602001908201803590602001908080601f0160208091040260200160405190810160405280939291908181526020018383808284378201915050505050509192919290505050611326565b604051808215151515815260200191505060405180910390f35b3480156103c157600080fd5b506103ca61140b565b6040518082815260200191505060405180910390f35b3480156103ec57600080fd5b50610421600480360381019080803573ffffffffffffffffffffffffffffffffffffffff16906020019092919050505061141d565b005b34801561042f57600080fd5b5061044e600480360381019080803590602001909291905050506117ba565b604051808273ffffffffffffffffffffffffffffffffffffffff1673ffffffffffffffffffffffffffffffffffffffff16815260200191505060405180910390f35b34801561049c57600080fd5b506104fb600480360381019080803573ffffffffffffffffffffffffffffffffffffffff169060200190929190803573ffffffffffffffffffffffffffffffffffffffff169060200190929190803590602001909291905050506117f8565b604051808215151515815260200191505060405180910390f35b34801561052157600080fd5b5061057960048036038101908080359060200190820180359060200190808060200260200160405190810160405280939291908181526020018383602002808284378201915050505050509192919290505050611900565b604051808215151515815260200191505060405180910390f35b34801561059f57600080fd5b506105d4600480360381019080803573ffffffffffffffffffffffffffffffffffffffff1690602001909291905050506119aa565b604051808215151515815260200191505060405180910390f35b3480156105fa57600080fd5b50610603611b1f565b6040518082815260200191505060405180910390f35b34801561062557600080fd5b50610684600480360381019080803573ffffffffffffffffffffffffffffffffffffffff169060200190929190803573ffffffffffffffffffffffffffffffffffffffff16906020019092919080359060200190929190505050611b25565b005b34801561069257600080fd5b506106d1600480360381019080803573ffffffffffffffffffffffffffffffffffffffff16906020019092919080359060200190929190505050611bf2565b6040518082815260200191505060405180910390f35b3480156106f357600080fd5b50610778600480360381019080803573ffffffffffffffffffffffffffffffffffffffff16906020019092919080359060200190929190803590602001908201803590602001908080601f0160208091040260200160405190810160405280939291908181526020018383808284378201915050505050509192919290505050611c44565b604051808215151515815260200191505060405180910390f35b34801561079e57600080fd5b506107dd600480360381019080803573ffffffffffffffffffffffffffffffffffffffff16906020019092919080359060200190929190505050611ec4565b604051808381526020018281526020019250505060405180910390f35b34801561080657600080fd5b5061084b600480360381019080803590602001908201803590602001919091929391929390803590602001908201803590602001919091929391929390505050611f04565b005b34801561085957600080fd5b50610878600480360381019080803590602001909291905050506120cb565b604051808381526020018281526020019250505060405180910390f35b3480156108a157600080fd5b506108aa6120fe565b6040518080602001828103825283818151815260200191508051906020019080838360005b838110156108ea5780820151818401526020810190506108cf565b50505050905090810190601f1680156109175780820380516001836020036101000a031916815260200191505b509250505060405180910390f35b34801561093157600080fd5b50610986600480360381019080803573ffffffffffffffffffffffffffffffffffffffff169060200190929190803573ffffffffffffffffffffffffffffffffffffffff16906020019092919050505061219c565b6040518082815260200191505060405180910390f35b3480156109a857600080fd5b506109e7600480360381019080803573ffffffffffffffffffffffffffffffffffffffff169060200190929190803590602001909291905050506121c1565b604051808215151515815260200191505060405180910390f35b348015610a0d57600080fd5b50610a2c60048036038101908080359060200190929190505050612452565b005b348015610a3a57600080fd5b50610a6f600480360381019080803573ffffffffffffffffffffffffffffffffffffffff16906020019092919050505061259e565b6040518082815260200191505060405180910390f35b348015610a9157600080fd5b50610b16600480360381019080803573ffffffffffffffffffffffffffffffffffffffff16906020019092919080359060200190929190803590602001908201803590602001908080601f01602080910402602001604051908101604052809392919081815260200183838082843782019150505050505091929192905050506125ef565b604051808215151515815260200191505060405180910390f35b348015610b3c57600080fd5b50610b71600480360381019080803573ffffffffffffffffffffffffffffffffffffffff1690602001909291905050506126d4565b604051808215151515815260200191505060405180910390f35b348015610b9757600080fd5b50610ba061284a565b604051808273ffffffffffffffffffffffffffffffffffffffff1673ffffffffffffffffffffffffffffffffffffffff16815260200191505060405180910390f35b348015610bee57600080fd5b50610bf7612870565b604051808273ffffffffffffffffffffffffffffffffffffffff1673ffffffffffffffffffffffffffffffffffffffff16815260200191505060405180910390f35b348015610c4557600080fd5b50610c4e612896565b6040518080602001828103825283818151815260200191508051906020019080838360005b83811015610c8e578082015181840152602081019050610c73565b50505050905090810190601f168015610cbb5780820380516001836020036101000a031916815260200191505b509250505060405180910390f35b348015610cd557600080fd5b50610cf460048036038101908080359060200190929190505050612934565b6040518082815260200191505060405180910390f35b348015610d1657600080fd5b50610d4b600480360381019080803573ffffffffffffffffffffffffffffffffffffffff169060200190929190505050612948565b604051808215151515815260200191505060405180910390f35b348015610d7157600080fd5b50610d9060048036038101908080359060200190929190505050612968565b005b348015610d9e57600080fd5b50610ddd600480360381019080803573ffffffffffffffffffffffffffffffffffffffff16906020019092919080359060200190929190505050612ab5565b604051808215151515815260200191505060405180910390f35b348015610e0357600080fd5b50610e38600480360381019080803573ffffffffffffffffffffffffffffffffffffffff169060200190929190505050612b31565b6040518082815260200191505060405180910390f35b348015610e5a57600080fd5b50610e99600480360381019080803573ffffffffffffffffffffffffffffffffffffffff16906020019092919080359060200190929190505050612c10565b604051808215151515815260200191505060405180910390f35b348015610ebf57600080fd5b50610f14600480360381019080803573ffffffffffffffffffffffffffffffffffffffff169060200190929190803573ffffffffffffffffffffffffffffffffffffffff169060200190929190505050612e0c565b6040518082815260200191505060405180910390f35b348015610f3657600080fd5b50610f8e60048036038101908080359060200190820180359060200190808060200260200160405190810160405280939291908181526020018383602002808284378201915050505050509192919290505050612e93565b604051808215151515815260200191505060405180910390f35b348015610fb457600080fd5b50610fe9600480360381019080803573ffffffffffffffffffffffffffffffffffffffff169060200190929190505050612f3d565b005b348015610ff757600080fd5b5061102c600480360381019080803573ffffffffffffffffffffffffffffffffffffffff16906020019092919050505061303c565b005b60008054600181600116156101000203166002900480601f0160208091040260200160405190810160405280929190818152602001828054600181600116156101000203166002900480156110c45780601f10611099576101008083540402835291602001916110c4565b820191906000526020600020905b8154815290600101906020018083116110a757829003601f168201915b505050505081565b600081600660003373ffffffffffffffffffffffffffffffffffffffff1673ffffffffffffffffffffffffffffffffffffffff16815260200190815260200160002060008573ffffffffffffffffffffffffffffffffffffffff1673ffffffffffffffffffffffffffffffffffffffff168152602001908152602001600020819055508273ffffffffffffffffffffffffffffffffffffffff163373ffffffffffffffffffffffffffffffffffffffff167f8c5be1e5ebec7d5bd14f71427d1e84f3dd0314c0f7b2291e5b200ac8c7c3b925846040518082815260200191505060405180910390a36001905092915050565b600760009054906101000a900473ffffffffffffffffffffffffffffffffffffffff1673ffffffffffffffffffffffffffffffffffffffff163373ffffffffffffffffffffffffffffffffffffffff1614151561121a57600080fd5b8073ffffffffffffffffffffffffffffffffffffffff1663a9059cbb600760009054906101000a900473ffffffffffffffffffffffffffffffffffffffff1661126284612b31565b6040518363ffffffff167c0100000000000000000000000000000000000000000000000000000000028152600401808373ffffffffffffffffffffffffffffffffffffffff1673ffffffffffffffffffffffffffffffffffffffff16815260200182815260200192505050602060405180830381600087803b1580156112e757600080fd5b505af11580156112fb573d6000803e3d6000fd5b505050506040513d602081101561131157600080fd5b81019080805190602001909291905050505050565b60003073ffffffffffffffffffffffffffffffffffffffff168473ffffffffffffffffffffffffffffffffffffffff161415151561136357600080fd5b61136d8484612c10565b508373ffffffffffffffffffffffffffffffffffffffff168260405180828051906020019080838360005b838110156113b3578082015181840152602081019050611398565b50505050905090810190601f1680156113e05780820380516001836020036101000a031916815260200191505b509150506000604051808303816000865af1915050151561140057600080fd5b600190509392505050565b6000611418600543613194565b905090565b600860003373ffffffffffffffffffffffffffffffffffffffff1673ffffffffffffffffffffffffffffffffffffffff16815260200190815260200160002060009054906101000a900460ff16151561147557600080fd5b600a8190806001815401808255809150509060018203906000526020600020016000909192909190916101000a81548173ffffffffffffffffffffffffffffffffffffffff021916908373ffffffffffffffffffffffffffffffffffffffff160217905550508073ffffffffffffffffffffffffffffffffffffffff16639ea0c08c6040518163ffffffff167c0100000000000000000000000000000000000000000000000000000000028152600401602060405180830381600087803b15801561153f57600080fd5b505af1158015611553573d6000803e3d6000fd5b505050506040513d602081101561156957600080fd5b8101908080519060200190929190505050600019168173ffffffffffffffffffffffffffffffffffffffff16635fcce2796040518163ffffffff167c0100000000000000000000000000000000000000000000000000000000028152600401602060405180830381600087803b1580156115e257600080fd5b505af11580156115f6573d6000803e3d6000fd5b505050506040513d602081101561160c57600080fd5b81019080805190602001909291905050508273ffffffffffffffffffffffffffffffffffffffff167fecae36ae461af9b3746319bfdbfefc7de682e71e22dd901cbec95ad177c33db48473ffffffffffffffffffffffffffffffffffffffff1663f31294a46040518163ffffffff167c0100000000000000000000000000000000000000000000000000000000028152600401602060405180830381600087803b1580156116b957600080fd5b505af11580156116cd573d6000803e3d6000fd5b505050506040513d60208110156116e357600080fd5b81019080805190602001909291905050508573ffffffffffffffffffffffffffffffffffffffff16631274c3f36040518163ffffffff167c0100000000000000000000000000000000000000000000000000000000028152600401602060405180830381600087803b15801561175857600080fd5b505af115801561176c573d6000803e3d6000fd5b505050506040513d602081101561178257600080fd5b81019080805190602001909291905050506040518083600019166000191681526020018281526020019250505060405180910390a450565b600a818154811015156117c957fe5b906000526020600020016000915054906101000a900473ffffffffffffffffffffffffffffffffffffffff1681565b6000600660008573ffffffffffffffffffffffffffffffffffffffff1673ffffffffffffffffffffffffffffffffffffffff16815260200190815260200160002060003373ffffffffffffffffffffffffffffffffffffffff1673ffffffffffffffffffffffffffffffffffffffff16815260200190815260200160002054821115151561188557600080fd5b6118908484846131b0565b8273ffffffffffffffffffffffffffffffffffffffff168473ffffffffffffffffffffffffffffffffffffffff167fddf252ad1be2c89b69c2b068fc378daa952ba7f163c4a11628f55a4df523b3ef846040518082815260200191505060405180910390a3600190509392505050565b600080600760009054906101000a900473ffffffffffffffffffffffffffffffffffffffff1673ffffffffffffffffffffffffffffffffffffffff163373ffffffffffffffffffffffffffffffffffffffff1614151561195f57600080fd5b600090505b82518110156119a45761198d838281518110151561197e57fe5b906020019060200201516119aa565b1561199757600191505b8080600101915050611964565b50919050565b6000600760009054906101000a900473ffffffffffffffffffffffffffffffffffffffff1673ffffffffffffffffffffffffffffffffffffffff163373ffffffffffffffffffffffffffffffffffffffff16141515611a0857600080fd5b600860008373ffffffffffffffffffffffffffffffffffffffff1673ffffffffffffffffffffffffffffffffffffffff16815260200190815260200160002060009054906101000a900460ff1615611b1a576000600860008473ffffffffffffffffffffffffffffffffffffffff1673ffffffffffffffffffffffffffffffffffffffff16815260200190815260200160002060006101000a81548160ff0219169083151502179055507ff1abf01a1043b7c244d128e8595cf0c1d10743b022b03a02dffd8ca3bf729f5a82604051808273ffffffffffffffffffffffffffffffffffffffff1673ffffffffffffffffffffffffffffffffffffffff16815260200191505060405180910390a1600190505b919050565b60025481565b600860003373ffffffffffffffffffffffffffffffffffffffff1673ffffffffffffffffffffffffffffffffffffffff16815260200190815260200160002060009054906101000a900460ff161515611b7d57600080fd5b611b888383836131b0565b8173ffffffffffffffffffffffffffffffffffffffff168373ffffffffffffffffffffffffffffffffffffffff167f768ff242747198c58dcb1136fb640adf7a199de1789b75bc95b6f787668b51b7836040518082815260200191505060405180910390a3505050565b6000611c3c600460008573ffffffffffffffffffffffffffffffffffffffff1673ffffffffffffffffffffffffffffffffffffffff16815260200190815260200160002083613194565b905092915050565b6000611c508484612ab5565b1515611c5b57600080fd5b7fe19260aff97b920c7df27010903aeb9c8d2be5d310a2c67824cf3f15396e4c1633858585604051808573ffffffffffffffffffffffffffffffffffffffff1673ffffffffffffffffffffffffffffffffffffffff1681526020018473ffffffffffffffffffffffffffffffffffffffff1673ffffffffffffffffffffffffffffffffffffffff16815260200183815260200180602001828103825283818151815260200191508051906020019080838360005b83811015611d2a578082015181840152602081019050611d0f565b50505050905090810190601f168015611d575780820380516001836020036101000a031916815260200191505b509550505050505060405180910390a18373ffffffffffffffffffffffffffffffffffffffff1663c0ee0b8a3385856040518463ffffffff167c0100000000000000000000000000000000000000000000000000000000028152600401808473ffffffffffffffffffffffffffffffffffffffff1673ffffffffffffffffffffffffffffffffffffffff16815260200183815260200180602001828103825283818151815260200191508051906020019080838360005b83811015611e29578082015181840152602081019050611e0e565b50505050905090810190601f168015611e565780820380516001836020036101000a031916815260200191505b50945050505050602060405180830381600087803b158015611e7757600080fd5b505af1158015611e8b573d6000803e3d6000fd5b505050506040513d6020811015611ea157600080fd5b81019080805190602001909291905050501515611ebd57600080fd5b9392505050565b600460205281600052604060002081815481101515611edf57fe5b9060005260206000209060020201600091509150508060000154908060010154905082565b600860003373ffffffffffffffffffffffffffffffffffffffff1673ffffffffffffffffffffffffffffffffffffffff16815260200190815260200160002060009054906101000a900460ff161515611f5c57600080fd5b838360009190611f6d929190613795565b50818160019190611f7f929190613795565b507fd131ab1e6f279deea74e13a18477e13e2107deb6dc8ae955648948be5841fb46600060016040518080602001806020018381038352858181546001816001161561010002031660029004815260200191508054600181600116156101000203166002900480156120325780601f1061200757610100808354040283529160200191612032565b820191906000526020600020905b81548152906001019060200180831161201557829003601f168201915b50508381038252848181546001816001161561010002031660029004815260200191508054600181600116156101000203166002900480156120b55780601f1061208a576101008083540402835291602001916120b5565b820191906000526020600020905b81548152906001019060200180831161209857829003601f168201915b505094505050505060405180910390a150505050565b6005818154811015156120da57fe5b90600052602060002090600202016000915090508060000154908060010154905082565b60098054600181600116156101000203166002900480601f0160208091040260200160405190810160405280929190818152602001828054600181600116156101000203166002900480156121945780601f1061216957610100808354040283529160200191612194565b820191906000526020600020905b81548152906001019060200180831161217757829003601f168201915b505050505081565b6006602052816000526040600020602052806000526040600020600091509150505481565b600080600660003373ffffffffffffffffffffffffffffffffffffffff1673ffffffffffffffffffffffffffffffffffffffff16815260200190815260200160002060008573ffffffffffffffffffffffffffffffffffffffff1673ffffffffffffffffffffffffffffffffffffffff168152602001908152602001600020549050808311156122d2576000600660003373ffffffffffffffffffffffffffffffffffffffff1673ffffffffffffffffffffffffffffffffffffffff16815260200190815260200160002060008673ffffffffffffffffffffffffffffffffffffffff1673ffffffffffffffffffffffffffffffffffffffff16815260200190815260200160002081905550612366565b6122e5838261342290919063ffffffff16565b600660003373ffffffffffffffffffffffffffffffffffffffff1673ffffffffffffffffffffffffffffffffffffffff16815260200190815260200160002060008673ffffffffffffffffffffffffffffffffffffffff1673ffffffffffffffffffffffffffffffffffffffff168152602001908152602001600020819055505b8373ffffffffffffffffffffffffffffffffffffffff163373ffffffffffffffffffffffffffffffffffffffff167f8c5be1e5ebec7d5bd14f71427d1e84f3dd0314c0f7b2291e5b200ac8c7c3b925600660003373ffffffffffffffffffffffffffffffffffffffff1673ffffffffffffffffffffffffffffffffffffffff16815260200190815260200160002060008873ffffffffffffffffffffffffffffffffffffffff1673ffffffffffffffffffffffffffffffffffffffff168152602001908152602001600020546040518082815260200191505060405180910390a3600191505092915050565b6000806000600860003373ffffffffffffffffffffffffffffffffffffffff1673ffffffffffffffffffffffffffffffffffffffff16815260200190815260200160002060009054906101000a900460ff1615156124af57600080fd5b3092506124bb8361259e565b91506124c561140b565b90506124d3836000866131b0565b61252d600460008073ffffffffffffffffffffffffffffffffffffffff1673ffffffffffffffffffffffffffffffffffffffff168152602001908152602001600020612528868561342290919063ffffffff16565b61343b565b61254a6005612545868461342290919063ffffffff16565b61343b565b8273ffffffffffffffffffffffffffffffffffffffff167f696de425f79f4a40bc6d2122ca50507f0efbeabbff86a84871b7196ab8ea8df7856040518082815260200191505060405180910390a250505050565b60006125e8600460008473ffffffffffffffffffffffffffffffffffffffff1673ffffffffffffffffffffffffffffffffffffffff16815260200190815260200160002043613194565b9050919050565b60003073ffffffffffffffffffffffffffffffffffffffff168473ffffffffffffffffffffffffffffffffffffffff161415151561262c57600080fd5b61263684846121c1565b508373ffffffffffffffffffffffffffffffffffffffff168260405180828051906020019080838360005b8381101561267c578082015181840152602081019050612661565b50505050905090810190601f1680156126a95780820380516001836020036101000a031916815260200191505b509150506000604051808303816000865af191505015156126c957600080fd5b600190509392505050565b6000600760009054906101000a900473ffffffffffffffffffffffffffffffffffffffff1673ffffffffffffffffffffffffffffffffffffffff163373ffffffffffffffffffffffffffffffffffffffff1614151561273257600080fd5b600860008373ffffffffffffffffffffffffffffffffffffffff1673ffffffffffffffffffffffffffffffffffffffff16815260200190815260200160002060009054906101000a900460ff161515612845576001600860008473ffffffffffffffffffffffffffffffffffffffff1673ffffffffffffffffffffffffffffffffffffffff16815260200190815260200160002060006101000a81548160ff0219169083151502179055507fd1bba68c128cc3f427e5831b3c6f99f480b6efa6b9e80c757768f6124158cc3f82604051808273ffffffffffffffffffffffffffffffffffffffff1673ffffffffffffffffffffffffffffffffffffffff16815260200191505060405180910390a1600190505b919050565b600760009054906101000a900473ffffffffffffffffffffffffffffffffffffffff1681565b600360009054906101000a900473ffffffffffffffffffffffffffffffffffffffff1681565b60018054600181600116156101000203166002900480601f01602080910402602001604051908101604052809291908181526020018280546001816001161561010002031660029004801561292c5780601f106129015761010080835404028352916020019161292c565b820191906000526020600020905b81548152906001019060200180831161290f57829003601f168201915b505050505081565b6000612941600583613194565b9050919050565b60086020528060005260406000206000915054906101000a900460ff1681565b6000806000600860003373ffffffffffffffffffffffffffffffffffffffff1673ffffffffffffffffffffffffffffffffffffffff16815260200190815260200160002060009054906101000a900460ff1615156129c557600080fd5b3392506129d2600061259e565b91506129dc61140b565b9050612a38600460008073ffffffffffffffffffffffffffffffffffffffff1673ffffffffffffffffffffffffffffffffffffffff168152602001908152602001600020612a33868561354990919063ffffffff16565b61343b565b612a44600084866131b0565b612a616005612a5c868461354990919063ffffffff16565b61343b565b8273ffffffffffffffffffffffffffffffffffffffff167fa59f12e354e8cd10bb74c559844c2dd69a5458e31fe56c7594c62ca57480509a856040518082815260200191505060405180910390a250505050565b6000612ac23384846131b0565b8273ffffffffffffffffffffffffffffffffffffffff163373ffffffffffffffffffffffffffffffffffffffff167fddf252ad1be2c89b69c2b068fc378daa952ba7f163c4a11628f55a4df523b3ef846040518082815260200191505060405180910390a36001905092915050565b60008173ffffffffffffffffffffffffffffffffffffffff166370a08231306040518263ffffffff167c0100000000000000000000000000000000000000000000000000000000028152600401808273ffffffffffffffffffffffffffffffffffffffff1673ffffffffffffffffffffffffffffffffffffffff168152602001915050602060405180830381600087803b158015612bce57600080fd5b505af1158015612be2573d6000803e3d6000fd5b505050506040513d6020811015612bf857600080fd5b81019080805190602001909291905050509050919050565b6000612ca182600660003373ffffffffffffffffffffffffffffffffffffffff1673ffffffffffffffffffffffffffffffffffffffff16815260200190815260200160002060008673ffffffffffffffffffffffffffffffffffffffff1673ffffffffffffffffffffffffffffffffffffffff1681526020019081526020016000205461354990919063ffffffff16565b600660003373ffffffffffffffffffffffffffffffffffffffff1673ffffffffffffffffffffffffffffffffffffffff16815260200190815260200160002060008573ffffffffffffffffffffffffffffffffffffffff1673ffffffffffffffffffffffffffffffffffffffff168152602001908152602001600020819055508273ffffffffffffffffffffffffffffffffffffffff163373ffffffffffffffffffffffffffffffffffffffff167f8c5be1e5ebec7d5bd14f71427d1e84f3dd0314c0f7b2291e5b200ac8c7c3b925600660003373ffffffffffffffffffffffffffffffffffffffff1673ffffffffffffffffffffffffffffffffffffffff16815260200190815260200160002060008773ffffffffffffffffffffffffffffffffffffffff1673ffffffffffffffffffffffffffffffffffffffff168152602001908152602001600020546040518082815260200191505060405180910390a36001905092915050565b6000600660008473ffffffffffffffffffffffffffffffffffffffff1673ffffffffffffffffffffffffffffffffffffffff16815260200190815260200160002060008373ffffffffffffffffffffffffffffffffffffffff1673ffffffffffffffffffffffffffffffffffffffff16815260200190815260200160002054905092915050565b600080600760009054906101000a900473ffffffffffffffffffffffffffffffffffffffff1673ffffffffffffffffffffffffffffffffffffffff163373ffffffffffffffffffffffffffffffffffffffff16141515612ef257600080fd5b600090505b8251811015612f3757612f208382815181101515612f1157fe5b906020019060200201516126d4565b15612f2a57600191505b8080600101915050612ef7565b50919050565b600860003373ffffffffffffffffffffffffffffffffffffffff1673ffffffffffffffffffffffffffffffffffffffff16815260200190815260200160002060009054906101000a900460ff161515612f9557600080fd5b80600360006101000a81548173ffffffffffffffffffffffffffffffffffffffff021916908373ffffffffffffffffffffffffffffffffffffffff1602179055507fe87a0b647188a1482a1a619a8d3eaba4275e36eed81b5247a12e24a4df2032fb81604051808273ffffffffffffffffffffffffffffffffffffffff1673ffffffffffffffffffffffffffffffffffffffff16815260200191505060405180910390a150565b600760009054906101000a900473ffffffffffffffffffffffffffffffffffffffff1673ffffffffffffffffffffffffffffffffffffffff163373ffffffffffffffffffffffffffffffffffffffff1614151561309857600080fd5b600073ffffffffffffffffffffffffffffffffffffffff168173ffffffffffffffffffffffffffffffffffffffff16141515156130d457600080fd5b8073ffffffffffffffffffffffffffffffffffffffff16600760009054906101000a900473ffffffffffffffffffffffffffffffffffffffff1673ffffffffffffffffffffffffffffffffffffffff167f8be0079c531659141344cd1fd0a4f28419497f9722a3daafe3b4186f6b6457e060405160405180910390a380600760006101000a81548173ffffffffffffffffffffffffffffffffffffffff021916908373ffffffffffffffffffffffffffffffffffffffff16021790555050565b6000806131a18484613567565b80935081925050505092915050565b600080600073ffffffffffffffffffffffffffffffffffffffff16600360009054906101000a900473ffffffffffffffffffffffffffffffffffffffff1673ffffffffffffffffffffffffffffffffffffffff1614151561335157600360009054906101000a900473ffffffffffffffffffffffffffffffffffffffff1673ffffffffffffffffffffffffffffffffffffffff1663ad0769948686866040518463ffffffff167c0100000000000000000000000000000000000000000000000000000000028152600401808473ffffffffffffffffffffffffffffffffffffffff1673ffffffffffffffffffffffffffffffffffffffff1681526020018373ffffffffffffffffffffffffffffffffffffffff1673ffffffffffffffffffffffffffffffffffffffff1681526020018281526020019350505050602060405180830381600087803b15801561330457600080fd5b505af1158015613318573d6000803e3d6000fd5b505050506040513d602081101561332e57600080fd5b8101908080519060200190929190505050925060008311151561335057600080fd5b5b61335a8561259e565b91506133658461259e565b90506133c1600460008773ffffffffffffffffffffffffffffffffffffffff1673ffffffffffffffffffffffffffffffffffffffff1681526020019081526020016000206133bc858561342290919063ffffffff16565b61343b565b61341b600460008673ffffffffffffffffffffffffffffffffffffffff1673ffffffffffffffffffffffffffffffffffffffff168152602001908152602001600020613416858461354990919063ffffffff16565b61343b565b5050505050565b600082821115151561343057fe5b818303905092915050565b600082805490501480613483575043826134636001858054905061342290919063ffffffff16565b81548110151561346f57fe5b906000526020600020906002020160000154105b156134e55781604080519081016040528043815260200183815250908060018154018082558091505090600182039060005260206000209060020201600090919290919091506000820151816000015560208201518160010155505050613545565b604080519081016040528043815260200182815250826135136001858054905061342290919063ffffffff16565b81548110151561351f57fe5b906000526020600020906002020160008201518160000155602082015181600101559050505b5050565b600080828401905083811015151561355d57fe5b8091505092915050565b6000806000806000808780549050141561358d5760008081915080905094509450613770565b866135a66001898054905061342290919063ffffffff16565b8154811015156135b257fe5b9060005260206000209060020201600001548610151561364357866135e56001898054905061342290919063ffffffff16565b8154811015156135f157fe5b9060005260206000209060020201600001548761361c60018a8054905061342290919063ffffffff16565b81548110151561362857fe5b90600052602060002090600202016001015494509450613770565b86600081548110151561365257fe5b90600052602060002090600202016000015486101561367d5760008081915080905094509450613770565b600092506136996001888054905061342290919063ffffffff16565b91505b8282111561372b576136dd60026136cf6136c060018761354990919063ffffffff16565b8561354990919063ffffffff16565b61377a90919063ffffffff16565b90508587828154811015156136ee57fe5b90600052602060002090600202016000015411151561370f57809250613726565b61372360018261342290919063ffffffff16565b91505b61369c565b868381548110151561373957fe5b906000526020600020906002020160000154878481548110151561375957fe5b906000526020600020906002020160010154945094505b5050509250929050565b600080828481151561378857fe5b0490508091505092915050565b828054600181600116156101000203166002900490600052602060002090601f016020900481019282601f106137d657803560ff1916838001178555613804565b82800160010185558215613804579182015b828111156138035782358255916020019190600101906137e8565b5b5090506138119190613815565b5090565b61383791905b8082111561383357600081600090555060010161381b565b5090565b905600a165627a7a7230582068173f8c6be1a89b7d694d76983b7e8f018308b1ea4a356dd3a17c14872b859f0029",
  "source": "/**\n * This smart contract code is Copyright 2018 TokenMarket Ltd. For more information see https://tokenmarket.net\n * Licensed under the Apache License, version 2.0: https://github.com/TokenMarketNet/ico/blob/master/LICENSE.txt\n * NatSpec is used intentionally to cover also other than public functions\n * Solidity 0.4.18 is intentionally used: it's stable, and our framework is\n * based on that.\n */\n\npragma solidity ^0.4.18;\n\nimport \"../CrowdsaleToken.sol\";\nimport \"../Recoverable.sol\";\nimport \"./CheckpointToken.sol\";\nimport \"../zeppelin/contracts/math/SafeMath.sol\";\nimport \"../zeppelin/contracts/ownership/Whitelist.sol\";\n\n/**\n * @dev Interface for general announcements about the security.\n *\n * Announcements can be for instance for dividend sharing, voting, or\n * just for general announcements.\n */\ninterface Announcement {\n  function announcementName() public view returns (bytes32);\n  function announcementURI() public view returns (bytes32);\n  function announcementType() public view returns (uint256);\n  function announcementHash() public view returns (uint256);\n}\n\n/**\n * @author TokenMarket /  Ville Sundell <ville at tokenmarket.net>\n */\ncontract SecurityToken is CheckpointToken, Whitelist, Recoverable {\n  using SafeMath for uint256; // We use only uint256 for safety reasons (no boxing)\n\n  string public version = 'TM01 0.1';\n\n  /** SecurityToken specific events **/\n  event Issued(address indexed to, uint256 value);\n  event Burned(address indexed burner, uint256 value);\n  event Forced(address indexed from, address indexed to, uint256 value);\n  event Announced(address indexed announcement, uint256 indexed announcementType, bytes32 indexed announcementName, bytes32 announcementURI, uint256 announcementHash);\n  event UpdatedTokenInformation(string newName, string newSymbol);\n  event UpdatedTransactionVerifier(address newVerifier);\n\n  address[] public announcements;\n\n  /**\n   * @dev Contructor to create SecurityToken, and subsequent CheckpointToken.\n   *\n   * CheckpointToken will be created with hardcoded 18 decimals.\n   *\n   * @param _name Initial name of the token\n   * @param _symbol Initial symbol of the token\n   */\n  function SecurityToken(string _name, string _symbol) CheckpointToken(_name, _symbol, 18) public {\n\n  }\n\n  /**\n   * @dev Function to announce Announcements.\n   *\n   * Announcements can be for instance for dividend sharing, voting, or\n   * just for general announcements.\n   *\n   * Instead of storing the announcement details, we just broadcast them as an\n   * event, and store only the address.\n   *\n   * @param announcement Address of the Announcement\n   */\n  function announce(Announcement announcement) external onlyWhitelisted {\n    announcements.push(announcement);\n    Announced(address(announcement), announcement.announcementType(), announcement.announcementName(), announcement.announcementURI(), announcement.announcementHash());\n  }\n\n  /**\n   * @dev Function to forcefully transfer tokens from A to B by board decission\n   *\n   * This must be implemented carefully, since this is a very critical part\n   * to ensure investor safety.\n   *\n   * This is intended to be called by the BAC (The Board), hence the whitelisting.\n   *\n   * @param from Address of the account to confisticate the tokens from\n   * @param to Address to deposit the confisticated token to\n   * @param value amount of tokens to be confisticated\n   */\n  function forceTransfer(address from, address to, uint256 value) external onlyWhitelisted {\n    transferInternal(from, to, value);\n\n    Forced(from, to, value);\n  }\n\n  /**\n   * @dev Issue new tokens to the board by a board decission\n   *\n   * Issue new tokens. This is intended to be called by the BAC (The Board),\n   * hence the whitelisting.\n   *\n   * @param value Token amount to issue\n   */\n  function issueTokens(uint256 value) external onlyWhitelisted {\n    address issuer = msg.sender;\n    uint256 blackHoleBalance = balanceOf(address(0));\n    uint256 totalSupplyNow = totalSupply();\n\n    setCheckpoint(tokenBalances[address(0)], blackHoleBalance.add(value));\n    transferInternal(address(0), issuer, value);\n    setCheckpoint(tokensTotal, totalSupplyNow.add(value));\n\n    Issued(issuer, value);\n  }\n\n  /**\n   * @dev Burn tokens from contract's own balance by a board decission\n   *\n   * Burn tokens from contract's own balance to prevent accidental burnings.\n   * This is intended to be called by the BAC (The Board), hence the whitelisting.\n   *\n   * @param value Token amount to burn from this contract's balance\n   */\n  function burnTokens(uint256 value) external onlyWhitelisted {\n    address burner = address(this);\n    uint256 burnerBalance = balanceOf(burner);\n    uint256 totalSupplyNow = totalSupply();\n\n    transferInternal(burner, address(0), value);\n    setCheckpoint(tokenBalances[address(0)], burnerBalance.sub(value));\n    setCheckpoint(tokensTotal, totalSupplyNow.sub(value));\n\n    Burned(burner, value);\n  }\n\n  /**\n   * @dev Whitelisted users (The Board, BAC) can update token information here.\n   *\n   * It is often useful to conceal the actual token association, until\n   * the token operations, like central issuance or reissuance have been completed.\n   *\n   * This function allows the token owner to rename the token after the operations\n   * have been completed and then point the audience to use the token contract.\n   *\n   * @param _name New name of the token\n   * @param _symbol New symbol of the token\n   */\n  function setTokenInformation(string _name, string _symbol) external onlyWhitelisted {\n    name = _name;\n    symbol = _symbol;\n\n    UpdatedTokenInformation(name, symbol);\n  }\n\n  /**\n   * @dev Set transaction verifier\n   *\n   * This sets a SecurityTransferAgent to be used as a transaction verifier for\n   * each transfer. This is implemented for possible regulatory requirements.\n   *\n   * @param newVerifier Address of the SecurityTransferAgent used as verifier\n   */\n  function setTransactionVerifier(SecurityTransferAgent newVerifier) external onlyWhitelisted {\n    transferVerifier = newVerifier;\n\n    UpdatedTransactionVerifier(newVerifier);\n  }\n}\n",
  "sourcePath": "D:\\dev\\tokenmint\\contracts\\tokenmarketnet-contracts\\contracts\\security-token\\SecurityToken.sol",
  "compiler": {
    "name": "solc",
    "version": "0.4.24+commit.e67f0147.Emscripten.clang"
  },
  "schemaVersion": "2.0.1",
  "updatedAt": "2018-12-07T11:58:33.972Z"
}