{
  "contractName": "TCACrowdsale",
  "abi": [
    {
      "constant": true,
      "inputs": [],
      "name": "hasClosed",
      "outputs": [
        {
          "name": "",
          "type": "bool"
        }
      ],
      "payable": false,
      "stateMutability": "view",
      "type": "function"
    },
    {
      "constant": true,
      "inputs": [],
      "name": "rate",
      "outputs": [
        {
          "name": "",
          "type": "uint256"
        }
      ],
      "payable": false,
      "stateMutability": "view",
      "type": "function"
    },
    {
      "constant": true,
      "inputs": [],
      "name": "cap",
      "outputs": [
        {
          "name": "",
          "type": "uint256"
        }
      ],
      "payable": false,
      "stateMutability": "view",
      "type": "function"
    },
    {
      "constant": true,
      "inputs": [],
      "name": "weiRaised",
      "outputs": [
        {
          "name": "",
          "type": "uint256"
        }
      ],
      "payable": false,
      "stateMutability": "view",
      "type": "function"
    },
    {
      "constant": true,
      "inputs": [],
      "name": "isOpen",
      "outputs": [
        {
          "name": "",
          "type": "bool"
        }
      ],
      "payable": false,
      "stateMutability": "view",
      "type": "function"
    },
    {
      "constant": true,
      "inputs": [],
      "name": "closingTime",
      "outputs": [
        {
          "name": "",
          "type": "uint256"
        }
      ],
      "payable": false,
      "stateMutability": "view",
      "type": "function"
    },
    {
      "constant": true,
      "inputs": [],
      "name": "capReached",
      "outputs": [
        {
          "name": "",
          "type": "bool"
        }
      ],
      "payable": false,
      "stateMutability": "view",
      "type": "function"
    },
    {
      "constant": true,
      "inputs": [],
      "name": "wallet",
      "outputs": [
        {
          "name": "",
          "type": "address"
        }
      ],
      "payable": false,
      "stateMutability": "view",
      "type": "function"
    },
    {
      "constant": true,
      "inputs": [],
      "name": "openingTime",
      "outputs": [
        {
          "name": "",
          "type": "uint256"
        }
      ],
      "payable": false,
      "stateMutability": "view",
      "type": "function"
    },
    {
      "constant": true,
      "inputs": [],
      "name": "remainingTokens",
      "outputs": [
        {
          "name": "",
          "type": "uint256"
        }
      ],
      "payable": false,
      "stateMutability": "view",
      "type": "function"
    },
    {
      "constant": true,
      "inputs": [],
      "name": "tokenWallet",
      "outputs": [
        {
          "name": "",
          "type": "address"
        }
      ],
      "payable": false,
      "stateMutability": "view",
      "type": "function"
    },
    {
      "constant": false,
      "inputs": [
        {
          "name": "beneficiary",
          "type": "address"
        }
      ],
      "name": "buyTokens",
      "outputs": [],
      "payable": true,
      "stateMutability": "payable",
      "type": "function"
    },
    {
      "constant": true,
      "inputs": [],
      "name": "token",
      "outputs": [
        {
          "name": "",
          "type": "address"
        }
      ],
      "payable": false,
      "stateMutability": "view",
      "type": "function"
    },
    {
      "inputs": [
        {
          "name": "openingTime",
          "type": "uint256"
        },
        {
          "name": "closingTime",
          "type": "uint256"
        },
        {
          "name": "rate",
          "type": "uint256"
        },
        {
          "name": "fundRaisingAddress",
          "type": "address"
        },
        {
          "name": "tokenContractAddress",
          "type": "address"
        },
        {
          "name": "cap",
          "type": "uint256"
        },
        {
          "name": "tokenHolderAddress",
          "type": "address"
        },
        {
          "name": "feeReceiverAddress",
          "type": "address"
        }
      ],
      "payable": true,
      "stateMutability": "payable",
      "type": "constructor"
    },
    {
      "payable": true,
      "stateMutability": "payable",
      "type": "fallback"
    },
    {
      "anonymous": false,
      "inputs": [
        {
          "indexed": true,
          "name": "purchaser",
          "type": "address"
        },
        {
          "indexed": true,
          "name": "beneficiary",
          "type": "address"
        },
        {
          "indexed": false,
          "name": "value",
          "type": "uint256"
        },
        {
          "indexed": false,
          "name": "amount",
          "type": "uint256"
        }
      ],
      "name": "TokensPurchased",
      "type": "event"
    }
  ],
  "bytecode": "0x608060405260405161010080610dd4833981018060405281019080805190602001909291908051906020019092919080519060200190929190805190602001909291908051906020019092919080519060200190929190805190602001909291908051906020019092919050505081838989898989600160008190555060008311151561008b57600080fd5b600073ffffffffffffffffffffffffffffffffffffffff168273ffffffffffffffffffffffffffffffffffffffff16141515156100c757600080fd5b600073ffffffffffffffffffffffffffffffffffffffff168173ffffffffffffffffffffffffffffffffffffffff161415151561010357600080fd5b8260038190555081600260006101000a81548173ffffffffffffffffffffffffffffffffffffffff021916908373ffffffffffffffffffffffffffffffffffffffff16021790555080600160006101000a81548173ffffffffffffffffffffffffffffffffffffffff021916908373ffffffffffffffffffffffffffffffffffffffff16021790555050505042821015151561019e57600080fd5b81811115156101ac57600080fd5b816005819055508060068190555050506000811115156101cb57600080fd5b8060078190555050600073ffffffffffffffffffffffffffffffffffffffff168173ffffffffffffffffffffffffffffffffffffffff161415151561020f57600080fd5b80600860006101000a81548173ffffffffffffffffffffffffffffffffffffffff021916908373ffffffffffffffffffffffffffffffffffffffff160217905550508073ffffffffffffffffffffffffffffffffffffffff166108fc349081150290604051600060405180830381858888f19350505050158015610297573d6000803e3d6000fd5b505050505050505050610b25806102af6000396000f3006080604052600436106100c5576000357c0100000000000000000000000000000000000000000000000000000000900463ffffffff1680631515bc2b146100d05780632c4e722e146100ff578063355274ea1461012a5780634042b66f1461015557806347535d7b146101805780634b6753bc146101af5780634f935945146101da578063521eb27314610209578063b7a8807c14610260578063bf5839031461028b578063bff99c6c146102b6578063ec8ac4d81461030d578063fc0c546a14610343575b6100ce3361039a565b005b3480156100dc57600080fd5b506100e5610490565b604051808215151515815260200191505060405180910390f35b34801561010b57600080fd5b5061011461049c565b6040518082815260200191505060405180910390f35b34801561013657600080fd5b5061013f6104a6565b6040518082815260200191505060405180910390f35b34801561016157600080fd5b5061016a6104b0565b6040518082815260200191505060405180910390f35b34801561018c57600080fd5b506101956104ba565b604051808215151515815260200191505060405180910390f35b3480156101bb57600080fd5b506101c46104d5565b6040518082815260200191505060405180910390f35b3480156101e657600080fd5b506101ef6104df565b604051808215151515815260200191505060405180910390f35b34801561021557600080fd5b5061021e6104f3565b604051808273ffffffffffffffffffffffffffffffffffffffff1673ffffffffffffffffffffffffffffffffffffffff16815260200191505060405180910390f35b34801561026c57600080fd5b5061027561051d565b6040518082815260200191505060405180910390f35b34801561029757600080fd5b506102a0610527565b6040518082815260200191505060405180910390f35b3480156102c257600080fd5b506102cb610768565b604051808273ffffffffffffffffffffffffffffffffffffffff1673ffffffffffffffffffffffffffffffffffffffff16815260200191505060405180910390f35b610341600480360381019080803573ffffffffffffffffffffffffffffffffffffffff16906020019092919050505061039a565b005b34801561034f57600080fd5b50610358610792565b604051808273ffffffffffffffffffffffffffffffffffffffff1673ffffffffffffffffffffffffffffffffffffffff16815260200191505060405180910390f35b60008060006001600080828254019250508190555060005490503492506103c184846107bc565b6103ca836107f4565b91506103e18360045461081290919063ffffffff16565b6004819055506103f18483610833565b8373ffffffffffffffffffffffffffffffffffffffff163373ffffffffffffffffffffffffffffffffffffffff167f6faf93231a456e552dbc9961f58d9713ee4f2e69d15f1975b050ef0911053a7b8585604051808381526020018281526020019250505060405180910390a36104688484610841565b610470610845565b61047a84846108b0565b6000548114151561048a57600080fd5b50505050565b60006006544211905090565b6000600354905090565b6000600754905090565b6000600454905090565b600060055442101580156104d057506006544211155b905090565b6000600654905090565b60006007546104ec6104b0565b1015905090565b6000600260009054906101000a900473ffffffffffffffffffffffffffffffffffffffff16905090565b6000600554905090565b6000610763610534610792565b73ffffffffffffffffffffffffffffffffffffffff166370a08231600860009054906101000a900473ffffffffffffffffffffffffffffffffffffffff166040518263ffffffff167c0100000000000000000000000000000000000000000000000000000000028152600401808273ffffffffffffffffffffffffffffffffffffffff1673ffffffffffffffffffffffffffffffffffffffff168152602001915050602060405180830381600087803b1580156105f057600080fd5b505af1158015610604573d6000803e3d6000fd5b505050506040513d602081101561061a57600080fd5b8101908080519060200190929190505050610633610792565b73ffffffffffffffffffffffffffffffffffffffff1663dd62ed3e600860009054906101000a900473ffffffffffffffffffffffffffffffffffffffff16306040518363ffffffff167c0100000000000000000000000000000000000000000000000000000000028152600401808373ffffffffffffffffffffffffffffffffffffffff1673ffffffffffffffffffffffffffffffffffffffff1681526020018273ffffffffffffffffffffffffffffffffffffffff1673ffffffffffffffffffffffffffffffffffffffff16815260200192505050602060405180830381600087803b15801561072357600080fd5b505af1158015610737573d6000803e3d6000fd5b505050506040513d602081101561074d57600080fd5b81019080805190602001909291905050506108b4565b905090565b6000600860009054906101000a900473ffffffffffffffffffffffffffffffffffffffff16905090565b6000600160009054906101000a900473ffffffffffffffffffffffffffffffffffffffff16905090565b6107c682826108cd565b6007546107e3826107d56104b0565b61081290919063ffffffff16565b111515156107f057600080fd5b5050565b600061080b600354836108ee90919063ffffffff16565b9050919050565b600080828401905083811015151561082957600080fd5b8091505092915050565b61083d828261092c565b5050565b5050565b600260009054906101000a900473ffffffffffffffffffffffffffffffffffffffff1673ffffffffffffffffffffffffffffffffffffffff166108fc349081150290604051600060405180830381858888f193505050501580156108ad573d6000803e3d6000fd5b50565b5050565b60008183106108c357816108c5565b825b905092915050565b6108d56104ba565b15156108e057600080fd5b6108ea8282610986565b5050565b60008060008414156109035760009150610925565b828402905082848281151561091457fe5b0414151561092157600080fd5b8091505b5092915050565b610982600860009054906101000a900473ffffffffffffffffffffffffffffffffffffffff16838361095c610792565b73ffffffffffffffffffffffffffffffffffffffff166109d6909392919063ffffffff16565b5050565b600073ffffffffffffffffffffffffffffffffffffffff168273ffffffffffffffffffffffffffffffffffffffff16141515156109c257600080fd5b600081141515156109d257600080fd5b5050565b8373ffffffffffffffffffffffffffffffffffffffff166323b872dd8484846040518463ffffffff167c0100000000000000000000000000000000000000000000000000000000028152600401808473ffffffffffffffffffffffffffffffffffffffff1673ffffffffffffffffffffffffffffffffffffffff1681526020018373ffffffffffffffffffffffffffffffffffffffff1673ffffffffffffffffffffffffffffffffffffffff1681526020018281526020019350505050602060405180830381600087803b158015610aad57600080fd5b505af1158015610ac1573d6000803e3d6000fd5b505050506040513d6020811015610ad757600080fd5b81019080805190602001909291905050501515610af357600080fd5b505050505600a165627a7a72305820cf026498f38ac8f48e6863caf468ceb5d6e2b90a521824b0e76431a910dfb8700029",
  "source": "pragma solidity ^0.4.24;\n\nimport \"../open-zeppelin-contracts/token/ERC20/IERC20.sol\";\nimport \"../open-zeppelin-contracts/crowdsale/validation/TimedCrowdsale.sol\";\nimport \"../open-zeppelin-contracts/crowdsale/validation/CappedCrowdsale.sol\";\nimport \"../open-zeppelin-contracts/crowdsale/emission/AllowanceCrowdsale.sol\";\n\n/**\n * @title TCACrowdsale\n * @dev TCACrowdsale is an ERC-20 tokens crowdsale. Contract uses ETH as a fund raising currency. Features:\n *   - Capped - has a cap (maximum, hard cap) on ETH funds raised\n *   - Allowance - it uses already deployed ERC-20 token, using approve function\n *   - Timed - has opening and closing time\n * @author TokenMint.io\n */\ncontract TCACrowdsale is TimedCrowdsale, CappedCrowdsale, AllowanceCrowdsale {\n    /**\n    * @dev Constructor, creates CARPDCrowdsale.\n    * @param openingTime Crowdsale opening time\n    * @param closingTime Crowdsale closing time\n    * @param rate How many smallest token units a buyer gets per wei\n    * @param fundRaisingAddress Address where raised funds will be transfered if crowdsale is successful\n    * @param tokenContractAddress IERC20 contract address of the token being sold, already deployed\n    * @param cap Cap on funds raised (maximum, hard cap)\n    * @param tokenHolderAddress Address holding the tokens, must approve allowance to the crowdsale contract\n    * @param feeReceiverAddress Address that receives fees for contract deployment\n    */\n    constructor (\n        uint256 openingTime,\n        uint256 closingTime,\n        uint256 rate,\n        address fundRaisingAddress,\n        IERC20 tokenContractAddress,\n        uint256 cap,\n        address tokenHolderAddress,\n        address feeReceiverAddress\n    )\n        public payable\n        Crowdsale(rate, fundRaisingAddress, tokenContractAddress)\n        CappedCrowdsale(cap)\n        AllowanceCrowdsale(tokenHolderAddress)\n        TimedCrowdsale(openingTime, closingTime)\n    {\n      // pay the service fee for contract deployment\n      feeReceiverAddress.transfer(msg.value);\n    }\n}\n",
  "sourcePath": "D:\\dev\\tokenmint-github\\contracts\\crowdsale\\TCACrowdsale.sol",
  "compiler": {
    "name": "solc",
    "version": "0.4.24+commit.e67f0147.Emscripten.clang"
  },
  "schemaVersion": "2.0.1",
  "updatedAt": "2019-02-04T16:11:06.180Z"
}