{
  "contractName": "TestCheckpointFailsafe",
  "abi": [
    {
      "constant": true,
      "inputs": [
        {
          "name": "token",
          "type": "address"
        },
        {
          "name": "blockNumber",
          "type": "uint256"
        },
        {
          "name": "who",
          "type": "address"
        },
        {
          "name": "index",
          "type": "uint256"
        }
      ],
      "name": "getTokenBalance",
      "outputs": [
        {
          "name": "result",
          "type": "bool"
        },
        {
          "name": "balance",
          "type": "uint256"
        },
        {
          "name": "latestBlock",
          "type": "uint256"
        }
      ],
      "payable": false,
      "stateMutability": "view",
      "type": "function"
    }
  ],
  "bytecode": "0x608060405234801561001057600080fd5b50610326806100206000396000f300608060405260043610610041576000357c0100000000000000000000000000000000000000000000000000000000900463ffffffff16806304e9827a14610046575b600080fd5b34801561005257600080fd5b506100bb600480360381019080803573ffffffffffffffffffffffffffffffffffffffff16906020019092919080359060200190929190803573ffffffffffffffffffffffffffffffffffffffff169060200190929190803590602001909291905050506100e3565b6040518084151515158152602001838152602001828152602001935050505060405180910390f35b60008060008060008873ffffffffffffffffffffffffffffffffffffffff166348ff566588886040518363ffffffff167c0100000000000000000000000000000000000000000000000000000000028152600401808373ffffffffffffffffffffffffffffffffffffffff1673ffffffffffffffffffffffffffffffffffffffff168152602001828152602001925050506040805180830381600087803b15801561018d57600080fd5b505af11580156101a1573d6000803e3d6000fd5b505050506040513d60408110156101b757600080fd5b81019080805190602001909291908051906020019092919050505080955081945050508873ffffffffffffffffffffffffffffffffffffffff166348ff566588600189016040518363ffffffff167c0100000000000000000000000000000000000000000000000000000000028152600401808373ffffffffffffffffffffffffffffffffffffffff1673ffffffffffffffffffffffffffffffffffffffff168152602001828152602001925050506040805180830381600087803b15801561027f57600080fd5b505af1158015610293573d6000803e3d6000fd5b505050506040513d60408110156102a957600080fd5b81019080805190602001909291908051906020019092919050505080925081935050508783101580156102db57508188105b156102e957600194506102ee565b600094505b505094509450949150505600a165627a7a72305820b1adf7c87e8d6c0224bc24a36c9324cadcdeb598b4a2f94b008161fabdb0c35f0029",
  "source": "pragma solidity ^0.4.18;\r\n\r\nimport \"../CheckpointToken.sol\";\r\n\r\ncontract TestCheckpointFailsafe {\r\n  function getTokenBalance(CheckpointToken token, uint blockNumber, address who, uint index) public constant returns (bool result, uint balance, uint latestBlock) {\r\n    uint tmpBlock;\r\n    uint tmpBalance;\r\n\r\n    (latestBlock, balance) = token.tokenBalances(who, index);\r\n    (tmpBlock, tmpBalance) = token.tokenBalances(who, index+1);\r\n\r\n    if (latestBlock >= blockNumber && blockNumber < tmpBlock) {\r\n      result = true;\r\n    } else {\r\n      result = false;\r\n    }\r\n  }\r\n}\r\n",
  "sourcePath": "D:\\dev\\tokenmint\\contracts\\tokenmarketnet-contracts\\contracts\\security-token\\tests\\TestCheckpointFailsafe.sol",
  "compiler": {
    "name": "solc",
    "version": "0.4.24+commit.e67f0147.Emscripten.clang"
  },
  "schemaVersion": "2.0.1",
  "updatedAt": "2018-12-07T16:17:17.996Z"
}