{
  "contractName": "TokenTranchePricing",
  "abi": [
    {
      "constant": true,
      "inputs": [],
      "name": "isPricingStrategy",
      "outputs": [
        {
          "name": "",
          "type": "bool"
        }
      ],
      "payable": false,
      "stateMutability": "view",
      "type": "function"
    },
    {
      "constant": true,
      "inputs": [
        {
          "name": "",
          "type": "uint256"
        }
      ],
      "name": "tranches",
      "outputs": [
        {
          "name": "amount",
          "type": "uint256"
        },
        {
          "name": "price",
          "type": "uint256"
        }
      ],
      "payable": false,
      "stateMutability": "view",
      "type": "function"
    },
    {
      "constant": true,
      "inputs": [],
      "name": "trancheCount",
      "outputs": [
        {
          "name": "",
          "type": "uint256"
        }
      ],
      "payable": false,
      "stateMutability": "view",
      "type": "function"
    },
    {
      "constant": true,
      "inputs": [],
      "name": "MAX_TRANCHES",
      "outputs": [
        {
          "name": "",
          "type": "uint256"
        }
      ],
      "payable": false,
      "stateMutability": "view",
      "type": "function"
    },
    {
      "constant": true,
      "inputs": [],
      "name": "owner",
      "outputs": [
        {
          "name": "",
          "type": "address"
        }
      ],
      "payable": false,
      "stateMutability": "view",
      "type": "function"
    },
    {
      "constant": true,
      "inputs": [
        {
          "name": "purchaser",
          "type": "address"
        }
      ],
      "name": "isPresalePurchase",
      "outputs": [
        {
          "name": "",
          "type": "bool"
        }
      ],
      "payable": false,
      "stateMutability": "view",
      "type": "function"
    },
    {
      "constant": true,
      "inputs": [
        {
          "name": "",
          "type": "address"
        }
      ],
      "name": "preicoAddresses",
      "outputs": [
        {
          "name": "",
          "type": "uint256"
        }
      ],
      "payable": false,
      "stateMutability": "view",
      "type": "function"
    },
    {
      "constant": false,
      "inputs": [
        {
          "name": "newOwner",
          "type": "address"
        }
      ],
      "name": "transferOwnership",
      "outputs": [],
      "payable": false,
      "stateMutability": "nonpayable",
      "type": "function"
    },
    {
      "inputs": [
        {
          "name": "_tranches",
          "type": "uint256[]"
        }
      ],
      "payable": false,
      "stateMutability": "nonpayable",
      "type": "constructor"
    },
    {
      "payable": true,
      "stateMutability": "payable",
      "type": "fallback"
    },
    {
      "anonymous": false,
      "inputs": [
        {
          "indexed": true,
          "name": "previousOwner",
          "type": "address"
        },
        {
          "indexed": true,
          "name": "newOwner",
          "type": "address"
        }
      ],
      "name": "OwnershipTransferred",
      "type": "event"
    },
    {
      "constant": false,
      "inputs": [
        {
          "name": "preicoAddress",
          "type": "address"
        },
        {
          "name": "pricePerToken",
          "type": "uint256"
        }
      ],
      "name": "setPreicoAddress",
      "outputs": [],
      "payable": false,
      "stateMutability": "nonpayable",
      "type": "function"
    },
    {
      "constant": true,
      "inputs": [
        {
          "name": "n",
          "type": "uint256"
        }
      ],
      "name": "getTranche",
      "outputs": [
        {
          "name": "",
          "type": "uint256"
        },
        {
          "name": "",
          "type": "uint256"
        }
      ],
      "payable": false,
      "stateMutability": "view",
      "type": "function"
    },
    {
      "constant": true,
      "inputs": [],
      "name": "getPricingStartsAt",
      "outputs": [
        {
          "name": "",
          "type": "uint256"
        }
      ],
      "payable": false,
      "stateMutability": "view",
      "type": "function"
    },
    {
      "constant": true,
      "inputs": [],
      "name": "getPricingEndsAt",
      "outputs": [
        {
          "name": "",
          "type": "uint256"
        }
      ],
      "payable": false,
      "stateMutability": "view",
      "type": "function"
    },
    {
      "constant": true,
      "inputs": [
        {
          "name": "_crowdsale",
          "type": "address"
        }
      ],
      "name": "isSane",
      "outputs": [
        {
          "name": "",
          "type": "bool"
        }
      ],
      "payable": false,
      "stateMutability": "view",
      "type": "function"
    },
    {
      "constant": true,
      "inputs": [
        {
          "name": "tokensSold",
          "type": "uint256"
        }
      ],
      "name": "getCurrentPrice",
      "outputs": [
        {
          "name": "result",
          "type": "uint256"
        }
      ],
      "payable": false,
      "stateMutability": "view",
      "type": "function"
    },
    {
      "constant": true,
      "inputs": [
        {
          "name": "value",
          "type": "uint256"
        },
        {
          "name": "weiRaised",
          "type": "uint256"
        },
        {
          "name": "tokensSold",
          "type": "uint256"
        },
        {
          "name": "msgSender",
          "type": "address"
        },
        {
          "name": "decimals",
          "type": "uint256"
        }
      ],
      "name": "calculatePrice",
      "outputs": [
        {
          "name": "",
          "type": "uint256"
        }
      ],
      "payable": false,
      "stateMutability": "view",
      "type": "function"
    }
  ],
  "bytecode": "0x608060405234801561001057600080fd5b50604051610d46380380610d4683398101806040528101908080518201929190505050600080336000806101000a81548173ffffffffffffffffffffffffffffffffffffffff021916908373ffffffffffffffffffffffffffffffffffffffff16021790555060016002845181151561008557fe5b06148061009757506002600a02835110155b156100a157600080fd5b600283518115156100ae57fe5b0460168190555060009150600090505b600283518115156100cb57fe5b048110156101975782600282028151811015156100e457fe5b90602001906020020151600282600a811015156100fd57fe5b6002020160000181905550826001600283020181518110151561011c57fe5b90602001906020020151600282600a8110151561013557fe5b600202016001018190555060008214158015610167575081600282600a8110151561015c57fe5b600202016000015411155b1561017157600080fd5b600281600a8110151561018057fe5b6002020160000154915080806001019150506100be565b60006002600160165403600a811015156101ad57fe5b60020201600101541415156101c157600080fd5b505050610b73806101d36000396000f3006080604052600436106100db576000357c0100000000000000000000000000000000000000000000000000000000900463ffffffff16806304bbc255146100e057806318a4155e1461010f57806326c259621461018e5780632c9a0a95146101d657806359eb8224146102015780636f079f901461022c57806389506a44146102575780638da5cb5b146102825780638e768288146102d9578063c55d0f5614610334578063d972e8ad14610375578063e474f97a146103bd578063f14ae17d1461040a578063f1ef9a0814610465578063f2fde38b146104bc575b600080fd5b3480156100ec57600080fd5b506100f56104ff565b604051808215151515815260200191505060405180910390f35b34801561011b57600080fd5b50610178600480360381019080803590602001909291908035906020019092919080359060200190929190803573ffffffffffffffffffffffffffffffffffffffff16906020019092919080359060200190929190505050610508565b6040518082815260200191505060405180910390f35b34801561019a57600080fd5b506101b960048036038101908080359060200190929190505050610730565b604051808381526020018281526020019250505060405180910390f35b3480156101e257600080fd5b506101eb610759565b6040518082815260200191505060405180910390f35b34801561020d57600080fd5b5061021661076c565b6040518082815260200191505060405180910390f35b34801561023857600080fd5b50610241610772565b6040518082815260200191505060405180910390f35b34801561026357600080fd5b5061026c610785565b6040518082815260200191505060405180910390f35b34801561028e57600080fd5b5061029761078a565b604051808273ffffffffffffffffffffffffffffffffffffffff1673ffffffffffffffffffffffffffffffffffffffff16815260200191505060405180910390f35b3480156102e557600080fd5b5061031a600480360381019080803573ffffffffffffffffffffffffffffffffffffffff1690602001909291905050506107af565b604051808215151515815260200191505060405180910390f35b34801561034057600080fd5b5061035f600480360381019080803590602001909291905050506107ba565b6040518082815260200191505060405180910390f35b34801561038157600080fd5b506103a0600480360381019080803590602001909291905050506107d0565b604051808381526020018281526020019250505060405180910390f35b3480156103c957600080fd5b50610408600480360381019080803573ffffffffffffffffffffffffffffffffffffffff1690602001909291908035906020019092919050505061080a565b005b34801561041657600080fd5b5061044b600480360381019080803573ffffffffffffffffffffffffffffffffffffffff1690602001909291905050506108ad565b604051808215151515815260200191505060405180910390f35b34801561047157600080fd5b506104a6600480360381019080803573ffffffffffffffffffffffffffffffffffffffff1690602001909291905050506108b7565b6040518082815260200191505060405180910390f35b3480156104c857600080fd5b506104fd600480360381019080803573ffffffffffffffffffffffffffffffffffffffff1690602001909291905050506108cf565b005b60006001905090565b600080600083600a0a91506000600160008773ffffffffffffffffffffffffffffffffffffffff1673ffffffffffffffffffffffffffffffffffffffff16815260200190815260200160002054111561065c57600160008673ffffffffffffffffffffffffffffffffffffffff1673ffffffffffffffffffffffffffffffffffffffff168152602001908152602001600020548873__SafeMathLib___________________________631d3b9edf9091856040518363ffffffff167c0100000000000000000000000000000000000000000000000000000000028152600401808381526020018281526020019250505060206040518083038186803b15801561061057600080fd5b505af4158015610624573d6000803e3d6000fd5b505050506040513d602081101561063a57600080fd5b810190808051906020019092919050505081151561065457fe5b049250610725565b610665866107ba565b9050808873__SafeMathLib___________________________631d3b9edf9091856040518363ffffffff167c0100000000000000000000000000000000000000000000000000000000028152600401808381526020018281526020019250505060206040518083038186803b1580156106dd57600080fd5b505af41580156106f1573d6000803e3d6000fd5b505050506040513d602081101561070757600080fd5b810190808051906020019092919050505081151561072157fe5b0492505b505095945050505050565b600281600a8110151561073f57fe5b600202016000915090508060000154908060010154905082565b6000610763610a24565b60000151905090565b60165481565b600061077c610a64565b60000151905090565b600a81565b6000809054906101000a900473ffffffffffffffffffffffffffffffffffffffff1681565b600060019050919050565b60006107c582610aa8565b602001519050919050565b600080600283600a811015156107e257fe5b6002020160000154600284600a811015156107f957fe5b600202016001015491509150915091565b6000809054906101000a900473ffffffffffffffffffffffffffffffffffffffff1673ffffffffffffffffffffffffffffffffffffffff163373ffffffffffffffffffffffffffffffffffffffff1614151561086557600080fd5b80600160008473ffffffffffffffffffffffffffffffffffffffff1673ffffffffffffffffffffffffffffffffffffffff168152602001908152602001600020819055505050565b6000809050919050565b60016020528060005260406000206000915090505481565b6000809054906101000a900473ffffffffffffffffffffffffffffffffffffffff1673ffffffffffffffffffffffffffffffffffffffff163373ffffffffffffffffffffffffffffffffffffffff1614151561092a57600080fd5b600073ffffffffffffffffffffffffffffffffffffffff168173ffffffffffffffffffffffffffffffffffffffff161415151561096657600080fd5b8073ffffffffffffffffffffffffffffffffffffffff166000809054906101000a900473ffffffffffffffffffffffffffffffffffffffff1673ffffffffffffffffffffffffffffffffffffffff167f8be0079c531659141344cd1fd0a4f28419497f9722a3daafe3b4186f6b6457e060405160405180910390a3806000806101000a81548173ffffffffffffffffffffffffffffffffffffffff021916908373ffffffffffffffffffffffffffffffffffffffff16021790555050565b610a2c610b2d565b60026000600a81101515610a3c57fe5b6002020160408051908101604052908160008201548152602001600182015481525050905090565b610a6c610b2d565b6002600160165403600a81101515610a8057fe5b6002020160408051908101604052908160008201548152602001600182015481525050905090565b610ab0610b2d565b60008090505b600a811015610b2657600281600a81101515610ace57fe5b6002020160000154831015610b1957600260018203600a81101515610aef57fe5b60020201604080519081016040529081600082015481526020016001820154815250509150610b27565b8080600101915050610ab6565b5b50919050565b6040805190810160405280600081526020016000815250905600a165627a7a723058203625eab44b60c2d42c06eece0fd704b6da65150536059f1764fbcbabb030fa610029",
  "source": "/**\r\n * This smart contract code is Copyright 2017 TokenMarket Ltd. For more information see https://tokenmarket.net\r\n *\r\n * Licensed under the Apache License, version 2.0: https://github.com/TokenMarketNet/ico/blob/master/LICENSE.txt\r\n */\r\n\r\npragma solidity ^0.4.6;\r\n\r\nimport \"./PricingStrategy.sol\";\r\nimport \"./Crowdsale.sol\";\r\nimport \"./SafeMathLib.sol\";\r\nimport \"./zeppelin/contracts/ownership/Ownable.sol\";\r\n\r\n/// @dev Tranche based pricing with special support for pre-ico deals.\r\n///      Implementing \"first price\" tranches, meaning, that if buyers order is\r\n///      covering more than one tranche, the price of the lowest tranche will apply\r\n///      to the whole order.\r\ncontract TokenTranchePricing is PricingStrategy, Ownable {\r\n\r\n  using SafeMathLib for uint;\r\n\r\n  uint public constant MAX_TRANCHES = 10;\r\n\r\n  // This contains all pre-ICO addresses, and their prices (weis per token)\r\n  mapping (address => uint) public preicoAddresses;\r\n\r\n  /**\r\n  * Define pricing schedule using tranches.\r\n  */\r\n  struct Tranche {\r\n\r\n      // Amount in weis when this tranche becomes active\r\n      uint amount;\r\n\r\n      // How many tokens per satoshi you will get while this tranche is active\r\n      uint price;\r\n  }\r\n\r\n  // Store tranches in a fixed array, so that it can be seen in a blockchain explorer\r\n  // Tranche 0 is always (0, 0)\r\n  // (TODO: change this when we confirm dynamic arrays are explorable)\r\n  Tranche[10] public tranches;\r\n\r\n  // How many active tranches we have\r\n  uint public trancheCount;\r\n\r\n  /// @dev Contruction, creating a list of tranches\r\n  /// @param _tranches uint[] tranches Pairs of (start amount, price)\r\n  function TokenTranchePricing(uint[] _tranches) {\r\n    // Need to have tuples, length check\r\n    if(_tranches.length % 2 == 1 || _tranches.length >= MAX_TRANCHES*2) {\r\n      throw;\r\n    }\r\n\r\n    trancheCount = _tranches.length / 2;\r\n\r\n    uint highestAmount = 0;\r\n\r\n    for(uint i=0; i<_tranches.length/2; i++) {\r\n      tranches[i].amount = _tranches[i*2];\r\n      tranches[i].price = _tranches[i*2+1];\r\n\r\n      // No invalid steps\r\n      if((highestAmount != 0) && (tranches[i].amount <= highestAmount)) {\r\n        throw;\r\n      }\r\n\r\n      highestAmount = tranches[i].amount;\r\n    }\r\n\r\n    // Last tranche price must be zero, terminating the crowdale\r\n    if(tranches[trancheCount-1].price != 0) {\r\n      throw;\r\n    }\r\n  }\r\n\r\n  /// @dev This is invoked once for every pre-ICO address, set pricePerToken\r\n  ///      to 0 to disable\r\n  /// @param preicoAddress PresaleFundCollector address\r\n  /// @param pricePerToken How many weis one token cost for pre-ico investors\r\n  function setPreicoAddress(address preicoAddress, uint pricePerToken)\r\n    public\r\n    onlyOwner\r\n  {\r\n    preicoAddresses[preicoAddress] = pricePerToken;\r\n  }\r\n\r\n  /// @dev Iterate through tranches. You reach end of tranches when price = 0\r\n  /// @return tuple (time, price)\r\n  function getTranche(uint n) public constant returns (uint, uint) {\r\n    return (tranches[n].amount, tranches[n].price);\r\n  }\r\n\r\n  function getFirstTranche() private constant returns (Tranche) {\r\n    return tranches[0];\r\n  }\r\n\r\n  function getLastTranche() private constant returns (Tranche) {\r\n    return tranches[trancheCount-1];\r\n  }\r\n\r\n  function getPricingStartsAt() public constant returns (uint) {\r\n    return getFirstTranche().amount;\r\n  }\r\n\r\n  function getPricingEndsAt() public constant returns (uint) {\r\n    return getLastTranche().amount;\r\n  }\r\n\r\n  function isSane(address _crowdsale) public constant returns(bool) {\r\n    // Our tranches are not bound by time, so we can't really check are we sane\r\n    // so we presume we are ;)\r\n    // In the future we could save and track raised tokens, and compare it to\r\n    // the Crowdsale contract.\r\n    return true;\r\n  }\r\n\r\n  /// @dev Get the current tranche or bail out if we are not in the tranche periods.\r\n  /// @param tokensSold total amount of tokens sold, for calculating the current tranche\r\n  /// @return {[type]} [description]\r\n  function getCurrentTranche(uint tokensSold) private constant returns (Tranche) {\r\n    uint i;\r\n\r\n    for(i=0; i < tranches.length; i++) {\r\n      if(tokensSold < tranches[i].amount) {\r\n        return tranches[i-1];\r\n      }\r\n    }\r\n  }\r\n\r\n  /// @dev Get the current price.\r\n  /// @param tokensSold total amount of tokens sold, for calculating the current tranche\r\n  /// @return The current price or 0 if we are outside trache ranges\r\n  function getCurrentPrice(uint tokensSold) public constant returns (uint result) {\r\n    return getCurrentTranche(tokensSold).price;\r\n  }\r\n\r\n  /// @dev Calculate the current price for buy in amount.\r\n  function calculatePrice(uint value, uint weiRaised, uint tokensSold, address msgSender, uint decimals) public constant returns (uint) {\r\n\r\n    uint multiplier = 10 ** decimals;\r\n\r\n    // This investor is coming through pre-ico\r\n    if(preicoAddresses[msgSender] > 0) {\r\n      return value.times(multiplier) / preicoAddresses[msgSender];\r\n    }\r\n\r\n    uint price = getCurrentPrice(tokensSold);\r\n    return value.times(multiplier) / price;\r\n  }\r\n\r\n  function() payable {\r\n    throw; // No money on this contract\r\n  }\r\n\r\n}\r\n",
  "sourcePath": "D:\\trees\\tokenmint\\contracts\\tokenmarketnet-contracts\\contracts\\TokenTranchePricing.sol",
  "compiler": {
    "name": "solc",
    "version": "0.4.24+commit.e67f0147.Emscripten.clang"
  },
  "schemaVersion": "2.0.1",
  "updatedAt": "2018-12-10T14:03:30.277Z"
}