{
  "contractName": "TokenVesting",
  "abi": [
    {
      "constant": false,
      "inputs": [],
      "name": "renounceOwnership",
      "outputs": [],
      "payable": false,
      "stateMutability": "nonpayable",
      "type": "function"
    },
    {
      "constant": true,
      "inputs": [],
      "name": "owner",
      "outputs": [
        {
          "name": "",
          "type": "address"
        }
      ],
      "payable": false,
      "stateMutability": "view",
      "type": "function"
    },
    {
      "constant": true,
      "inputs": [],
      "name": "isOwner",
      "outputs": [
        {
          "name": "",
          "type": "bool"
        }
      ],
      "payable": false,
      "stateMutability": "view",
      "type": "function"
    },
    {
      "constant": false,
      "inputs": [
        {
          "name": "newOwner",
          "type": "address"
        }
      ],
      "name": "transferOwnership",
      "outputs": [],
      "payable": false,
      "stateMutability": "nonpayable",
      "type": "function"
    },
    {
      "inputs": [
        {
          "name": "beneficiary",
          "type": "address"
        },
        {
          "name": "start",
          "type": "uint256"
        },
        {
          "name": "cliffDuration",
          "type": "uint256"
        },
        {
          "name": "duration",
          "type": "uint256"
        },
        {
          "name": "revocable",
          "type": "bool"
        }
      ],
      "payable": false,
      "stateMutability": "nonpayable",
      "type": "constructor"
    },
    {
      "anonymous": false,
      "inputs": [
        {
          "indexed": false,
          "name": "token",
          "type": "address"
        },
        {
          "indexed": false,
          "name": "amount",
          "type": "uint256"
        }
      ],
      "name": "TokensReleased",
      "type": "event"
    },
    {
      "anonymous": false,
      "inputs": [
        {
          "indexed": false,
          "name": "token",
          "type": "address"
        }
      ],
      "name": "TokenVestingRevoked",
      "type": "event"
    },
    {
      "anonymous": false,
      "inputs": [
        {
          "indexed": true,
          "name": "previousOwner",
          "type": "address"
        },
        {
          "indexed": true,
          "name": "newOwner",
          "type": "address"
        }
      ],
      "name": "OwnershipTransferred",
      "type": "event"
    },
    {
      "constant": true,
      "inputs": [],
      "name": "beneficiary",
      "outputs": [
        {
          "name": "",
          "type": "address"
        }
      ],
      "payable": false,
      "stateMutability": "view",
      "type": "function"
    },
    {
      "constant": true,
      "inputs": [],
      "name": "cliff",
      "outputs": [
        {
          "name": "",
          "type": "uint256"
        }
      ],
      "payable": false,
      "stateMutability": "view",
      "type": "function"
    },
    {
      "constant": true,
      "inputs": [],
      "name": "start",
      "outputs": [
        {
          "name": "",
          "type": "uint256"
        }
      ],
      "payable": false,
      "stateMutability": "view",
      "type": "function"
    },
    {
      "constant": true,
      "inputs": [],
      "name": "duration",
      "outputs": [
        {
          "name": "",
          "type": "uint256"
        }
      ],
      "payable": false,
      "stateMutability": "view",
      "type": "function"
    },
    {
      "constant": true,
      "inputs": [],
      "name": "revocable",
      "outputs": [
        {
          "name": "",
          "type": "bool"
        }
      ],
      "payable": false,
      "stateMutability": "view",
      "type": "function"
    },
    {
      "constant": true,
      "inputs": [
        {
          "name": "token",
          "type": "address"
        }
      ],
      "name": "released",
      "outputs": [
        {
          "name": "",
          "type": "uint256"
        }
      ],
      "payable": false,
      "stateMutability": "view",
      "type": "function"
    },
    {
      "constant": true,
      "inputs": [
        {
          "name": "token",
          "type": "address"
        }
      ],
      "name": "revoked",
      "outputs": [
        {
          "name": "",
          "type": "bool"
        }
      ],
      "payable": false,
      "stateMutability": "view",
      "type": "function"
    },
    {
      "constant": false,
      "inputs": [
        {
          "name": "token",
          "type": "address"
        }
      ],
      "name": "release",
      "outputs": [],
      "payable": false,
      "stateMutability": "nonpayable",
      "type": "function"
    },
    {
      "constant": false,
      "inputs": [
        {
          "name": "token",
          "type": "address"
        }
      ],
      "name": "revoke",
      "outputs": [],
      "payable": false,
      "stateMutability": "nonpayable",
      "type": "function"
    }
  ],
  "bytecode": "0x608060405234801561001057600080fd5b5060405160a0806111c88339810180604052810190808051906020019092919080519060200190929190805190602001909291908051906020019092919080519060200190929190505050336000806101000a81548173ffffffffffffffffffffffffffffffffffffffff021916908373ffffffffffffffffffffffffffffffffffffffff1602179055506000809054906101000a900473ffffffffffffffffffffffffffffffffffffffff1673ffffffffffffffffffffffffffffffffffffffff16600073ffffffffffffffffffffffffffffffffffffffff167f8be0079c531659141344cd1fd0a4f28419497f9722a3daafe3b4186f6b6457e060405160405180910390a3600073ffffffffffffffffffffffffffffffffffffffff168573ffffffffffffffffffffffffffffffffffffffff161415151561015357600080fd5b81831115151561016257600080fd5b60008211151561017157600080fd5b42610192838661023764010000000002610a9f179091906401000000009004565b11151561019e57600080fd5b84600160006101000a81548173ffffffffffffffffffffffffffffffffffffffff021916908373ffffffffffffffffffffffffffffffffffffffff16021790555080600560006101000a81548160ff02191690831515021790555081600481905550610220838561023764010000000002610a9f179091906401000000009004565b600281905550836003819055505050505050610258565b600080828401905083811015151561024e57600080fd5b8091505092915050565b610f61806102676000396000f3006080604052600436106100c5576000357c0100000000000000000000000000000000000000000000000000000000900463ffffffff1680630fb5a6b4146100ca57806313d033c0146100f5578063191655871461012057806338af3eed14610163578063715018a6146101ba57806374a8f103146101d1578063872a7810146102145780638da5cb5b146102435780638f32d59b1461029a5780639852595c146102c9578063be9a655514610320578063f2fde38b1461034b578063fa01dc061461038e575b600080fd5b3480156100d657600080fd5b506100df6103e9565b6040518082815260200191505060405180910390f35b34801561010157600080fd5b5061010a6103f3565b6040518082815260200191505060405180910390f35b34801561012c57600080fd5b50610161600480360381019080803573ffffffffffffffffffffffffffffffffffffffff1690602001909291905050506103fd565b005b34801561016f57600080fd5b5061017861056a565b604051808273ffffffffffffffffffffffffffffffffffffffff1673ffffffffffffffffffffffffffffffffffffffff16815260200191505060405180910390f35b3480156101c657600080fd5b506101cf610594565b005b3480156101dd57600080fd5b50610212600480360381019080803573ffffffffffffffffffffffffffffffffffffffff169060200190929190505050610666565b005b34801561022057600080fd5b506102296108dd565b604051808215151515815260200191505060405180910390f35b34801561024f57600080fd5b506102586108f4565b604051808273ffffffffffffffffffffffffffffffffffffffff1673ffffffffffffffffffffffffffffffffffffffff16815260200191505060405180910390f35b3480156102a657600080fd5b506102af61091d565b604051808215151515815260200191505060405180910390f35b3480156102d557600080fd5b5061030a600480360381019080803573ffffffffffffffffffffffffffffffffffffffff169060200190929190505050610974565b6040518082815260200191505060405180910390f35b34801561032c57600080fd5b506103356109bd565b6040518082815260200191505060405180910390f35b34801561035757600080fd5b5061038c600480360381019080803573ffffffffffffffffffffffffffffffffffffffff1690602001909291905050506109c7565b005b34801561039a57600080fd5b506103cf600480360381019080803573ffffffffffffffffffffffffffffffffffffffff1690602001909291905050506109e6565b604051808215151515815260200191505060405180910390f35b6000600454905090565b6000600254905090565b600061040882610a3c565b905060008111151561041957600080fd5b61046b81600660008573ffffffffffffffffffffffffffffffffffffffff1673ffffffffffffffffffffffffffffffffffffffff16815260200190815260200160002054610a9f90919063ffffffff16565b600660008473ffffffffffffffffffffffffffffffffffffffff1673ffffffffffffffffffffffffffffffffffffffff168152602001908152602001600020819055506104fb600160009054906101000a900473ffffffffffffffffffffffffffffffffffffffff16828473ffffffffffffffffffffffffffffffffffffffff16610ac09092919063ffffffff16565b7fc7798891864187665ac6dd119286e44ec13f014527aeeb2b8eb3fd413df931798282604051808373ffffffffffffffffffffffffffffffffffffffff1673ffffffffffffffffffffffffffffffffffffffff1681526020018281526020019250505060405180910390a15050565b6000600160009054906101000a900473ffffffffffffffffffffffffffffffffffffffff16905090565b61059c61091d565b15156105a757600080fd5b600073ffffffffffffffffffffffffffffffffffffffff166000809054906101000a900473ffffffffffffffffffffffffffffffffffffffff1673ffffffffffffffffffffffffffffffffffffffff167f8be0079c531659141344cd1fd0a4f28419497f9722a3daafe3b4186f6b6457e060405160405180910390a360008060006101000a81548173ffffffffffffffffffffffffffffffffffffffff021916908373ffffffffffffffffffffffffffffffffffffffff160217905550565b600080600061067361091d565b151561067e57600080fd5b600560009054906101000a900460ff16151561069957600080fd5b600760008573ffffffffffffffffffffffffffffffffffffffff1673ffffffffffffffffffffffffffffffffffffffff16815260200190815260200160002060009054906101000a900460ff161515156106f257600080fd5b8373ffffffffffffffffffffffffffffffffffffffff166370a08231306040518263ffffffff167c0100000000000000000000000000000000000000000000000000000000028152600401808273ffffffffffffffffffffffffffffffffffffffff1673ffffffffffffffffffffffffffffffffffffffff168152602001915050602060405180830381600087803b15801561078d57600080fd5b505af11580156107a1573d6000803e3d6000fd5b505050506040513d60208110156107b757600080fd5b810190808051906020019092919050505092506107d384610a3c565b91506107e88284610bae90919063ffffffff16565b90506001600760008673ffffffffffffffffffffffffffffffffffffffff1673ffffffffffffffffffffffffffffffffffffffff16815260200190815260200160002060006101000a81548160ff02191690831515021790555061087461084d6108f4565b828673ffffffffffffffffffffffffffffffffffffffff16610ac09092919063ffffffff16565b7f39983c6d4d174a7aee564f449d4a5c3c7ac9649d72b7793c56901183996f8af684604051808273ffffffffffffffffffffffffffffffffffffffff1673ffffffffffffffffffffffffffffffffffffffff16815260200191505060405180910390a150505050565b6000600560009054906101000a900460ff16905090565b60008060009054906101000a900473ffffffffffffffffffffffffffffffffffffffff16905090565b60008060009054906101000a900473ffffffffffffffffffffffffffffffffffffffff1673ffffffffffffffffffffffffffffffffffffffff163373ffffffffffffffffffffffffffffffffffffffff1614905090565b6000600660008373ffffffffffffffffffffffffffffffffffffffff1673ffffffffffffffffffffffffffffffffffffffff168152602001908152602001600020549050919050565b6000600354905090565b6109cf61091d565b15156109da57600080fd5b6109e381610bcf565b50565b6000600760008373ffffffffffffffffffffffffffffffffffffffff1673ffffffffffffffffffffffffffffffffffffffff16815260200190815260200160002060009054906101000a900460ff169050919050565b6000610a98600660008473ffffffffffffffffffffffffffffffffffffffff1673ffffffffffffffffffffffffffffffffffffffff16815260200190815260200160002054610a8a84610cc9565b610bae90919063ffffffff16565b9050919050565b6000808284019050838110151515610ab657600080fd5b8091505092915050565b8273ffffffffffffffffffffffffffffffffffffffff1663a9059cbb83836040518363ffffffff167c0100000000000000000000000000000000000000000000000000000000028152600401808373ffffffffffffffffffffffffffffffffffffffff1673ffffffffffffffffffffffffffffffffffffffff16815260200182815260200192505050602060405180830381600087803b158015610b6357600080fd5b505af1158015610b77573d6000803e3d6000fd5b505050506040513d6020811015610b8d57600080fd5b81019080805190602001909291905050501515610ba957600080fd5b505050565b600080838311151515610bc057600080fd5b82840390508091505092915050565b600073ffffffffffffffffffffffffffffffffffffffff168173ffffffffffffffffffffffffffffffffffffffff1614151515610c0b57600080fd5b8073ffffffffffffffffffffffffffffffffffffffff166000809054906101000a900473ffffffffffffffffffffffffffffffffffffffff1673ffffffffffffffffffffffffffffffffffffffff167f8be0079c531659141344cd1fd0a4f28419497f9722a3daafe3b4186f6b6457e060405160405180910390a3806000806101000a81548173ffffffffffffffffffffffffffffffffffffffff021916908373ffffffffffffffffffffffffffffffffffffffff16021790555050565b60008060008373ffffffffffffffffffffffffffffffffffffffff166370a08231306040518263ffffffff167c0100000000000000000000000000000000000000000000000000000000028152600401808273ffffffffffffffffffffffffffffffffffffffff1673ffffffffffffffffffffffffffffffffffffffff168152602001915050602060405180830381600087803b158015610d6957600080fd5b505af1158015610d7d573d6000803e3d6000fd5b505050506040513d6020811015610d9357600080fd5b81019080805190602001909291905050509150610df8600660008673ffffffffffffffffffffffffffffffffffffffff1673ffffffffffffffffffffffffffffffffffffffff1681526020019081526020016000205483610a9f90919063ffffffff16565b9050600254421015610e0d5760009250610ec6565b610e24600454600354610a9f90919063ffffffff16565b42101580610e7b5750600760008573ffffffffffffffffffffffffffffffffffffffff1673ffffffffffffffffffffffffffffffffffffffff16815260200190815260200160002060009054906101000a900460ff165b15610e8857809250610ec6565b610ec3600454610eb5610ea660035442610bae90919063ffffffff16565b84610ecd90919063ffffffff16565b610f0b90919063ffffffff16565b92505b5050919050565b6000806000841415610ee25760009150610f04565b8284029050828482811515610ef357fe5b04141515610f0057600080fd5b8091505b5092915050565b600080600083111515610f1d57600080fd5b8284811515610f2857fe5b04905080915050929150505600a165627a7a72305820e1cc5d6368717d82dcc35548b390bace247a5f775abba0c8bf2e4495ea258a2f0029",
  "source": "/* solium-disable security/no-block-members */\r\n\r\npragma solidity ^0.4.24;\r\n\r\nimport \"../token/ERC20/SafeERC20.sol\";\r\nimport \"../ownership/Ownable.sol\";\r\nimport \"../math/SafeMath.sol\";\r\n\r\n/**\r\n * @title TokenVesting\r\n * @dev A token holder contract that can release its token balance gradually like a\r\n * typical vesting scheme, with a cliff and vesting period. Optionally revocable by the\r\n * owner.\r\n */\r\ncontract TokenVesting is Ownable {\r\n    using SafeMath for uint256;\r\n    using SafeERC20 for IERC20;\r\n\r\n    event TokensReleased(address token, uint256 amount);\r\n    event TokenVestingRevoked(address token);\r\n\r\n    // beneficiary of tokens after they are released\r\n    address private _beneficiary;\r\n\r\n    uint256 private _cliff;\r\n    uint256 private _start;\r\n    uint256 private _duration;\r\n\r\n    bool private _revocable;\r\n\r\n    mapping (address => uint256) private _released;\r\n    mapping (address => bool) private _revoked;\r\n\r\n    /**\r\n     * @dev Creates a vesting contract that vests its balance of any ERC20 token to the\r\n     * beneficiary, gradually in a linear fashion until start + duration. By then all\r\n     * of the balance will have vested.\r\n     * @param beneficiary address of the beneficiary to whom vested tokens are transferred\r\n     * @param cliffDuration duration in seconds of the cliff in which tokens will begin to vest\r\n     * @param start the time (as Unix time) at which point vesting starts\r\n     * @param duration duration in seconds of the period in which the tokens will vest\r\n     * @param revocable whether the vesting is revocable or not\r\n     */\r\n    constructor (address beneficiary, uint256 start, uint256 cliffDuration, uint256 duration, bool revocable) public {\r\n        require(beneficiary != address(0));\r\n        require(cliffDuration <= duration);\r\n        require(duration > 0);\r\n        require(start.add(duration) > block.timestamp);\r\n\r\n        _beneficiary = beneficiary;\r\n        _revocable = revocable;\r\n        _duration = duration;\r\n        _cliff = start.add(cliffDuration);\r\n        _start = start;\r\n    }\r\n\r\n    /**\r\n     * @return the beneficiary of the tokens.\r\n     */\r\n    function beneficiary() public view returns (address) {\r\n        return _beneficiary;\r\n    }\r\n\r\n    /**\r\n     * @return the cliff time of the token vesting.\r\n     */\r\n    function cliff() public view returns (uint256) {\r\n        return _cliff;\r\n    }\r\n\r\n    /**\r\n     * @return the start time of the token vesting.\r\n     */\r\n    function start() public view returns (uint256) {\r\n        return _start;\r\n    }\r\n\r\n    /**\r\n     * @return the duration of the token vesting.\r\n     */\r\n    function duration() public view returns (uint256) {\r\n        return _duration;\r\n    }\r\n\r\n    /**\r\n     * @return true if the vesting is revocable.\r\n     */\r\n    function revocable() public view returns (bool) {\r\n        return _revocable;\r\n    }\r\n\r\n    /**\r\n     * @return the amount of the token released.\r\n     */\r\n    function released(address token) public view returns (uint256) {\r\n        return _released[token];\r\n    }\r\n\r\n    /**\r\n     * @return true if the token is revoked.\r\n     */\r\n    function revoked(address token) public view returns (bool) {\r\n        return _revoked[token];\r\n    }\r\n\r\n    /**\r\n     * @notice Transfers vested tokens to beneficiary.\r\n     * @param token ERC20 token which is being vested\r\n     */\r\n    function release(IERC20 token) public {\r\n        uint256 unreleased = _releasableAmount(token);\r\n\r\n        require(unreleased > 0);\r\n\r\n        _released[token] = _released[token].add(unreleased);\r\n\r\n        token.safeTransfer(_beneficiary, unreleased);\r\n\r\n        emit TokensReleased(token, unreleased);\r\n    }\r\n\r\n    /**\r\n     * @notice Allows the owner to revoke the vesting. Tokens already vested\r\n     * remain in the contract, the rest are returned to the owner.\r\n     * @param token ERC20 token which is being vested\r\n     */\r\n    function revoke(IERC20 token) public onlyOwner {\r\n        require(_revocable);\r\n        require(!_revoked[token]);\r\n\r\n        uint256 balance = token.balanceOf(address(this));\r\n\r\n        uint256 unreleased = _releasableAmount(token);\r\n        uint256 refund = balance.sub(unreleased);\r\n\r\n        _revoked[token] = true;\r\n\r\n        token.safeTransfer(owner(), refund);\r\n\r\n        emit TokenVestingRevoked(token);\r\n    }\r\n\r\n    /**\r\n     * @dev Calculates the amount that has already vested but hasn't been released yet.\r\n     * @param token ERC20 token which is being vested\r\n     */\r\n    function _releasableAmount(IERC20 token) private view returns (uint256) {\r\n        return _vestedAmount(token).sub(_released[token]);\r\n    }\r\n\r\n    /**\r\n     * @dev Calculates the amount that has already vested.\r\n     * @param token ERC20 token which is being vested\r\n     */\r\n    function _vestedAmount(IERC20 token) private view returns (uint256) {\r\n        uint256 currentBalance = token.balanceOf(address(this));\r\n        uint256 totalBalance = currentBalance.add(_released[token]);\r\n\r\n        if (block.timestamp < _cliff) {\r\n            return 0;\r\n        } else if (block.timestamp >= _start.add(_duration) || _revoked[token]) {\r\n            return totalBalance;\r\n        } else {\r\n            return totalBalance.mul(block.timestamp.sub(_start)).div(_duration);\r\n        }\r\n    }\r\n}\r\n",
  "sourcePath": "D:\\dev\\tokenmint\\contracts\\open-zeppelin-contracts\\drafts\\TokenVesting.sol",
  "compiler": {
    "name": "solc",
    "version": "0.4.24+commit.e67f0147.Emscripten.clang"
  },
  "schemaVersion": "2.0.1",
  "updatedAt": "2019-01-10T17:04:16.186Z"
}