{
  "contractName": "UncappedCrowdsale",
  "abi": [
    {
      "constant": true,
      "inputs": [],
      "name": "ownerTestValue",
      "outputs": [
        {
          "name": "",
          "type": "uint256"
        }
      ],
      "payable": false,
      "stateMutability": "view",
      "type": "function"
    },
    {
      "constant": true,
      "inputs": [],
      "name": "requireCustomerId",
      "outputs": [
        {
          "name": "",
          "type": "bool"
        }
      ],
      "payable": false,
      "stateMutability": "view",
      "type": "function"
    },
    {
      "constant": false,
      "inputs": [
        {
          "name": "addr",
          "type": "address"
        }
      ],
      "name": "invest",
      "outputs": [],
      "payable": true,
      "stateMutability": "payable",
      "type": "function"
    },
    {
      "constant": true,
      "inputs": [],
      "name": "isPricingSane",
      "outputs": [
        {
          "name": "sane",
          "type": "bool"
        }
      ],
      "payable": false,
      "stateMutability": "view",
      "type": "function"
    },
    {
      "constant": true,
      "inputs": [],
      "name": "endsAt",
      "outputs": [
        {
          "name": "",
          "type": "uint256"
        }
      ],
      "payable": false,
      "stateMutability": "view",
      "type": "function"
    },
    {
      "constant": true,
      "inputs": [],
      "name": "minimumFundingGoal",
      "outputs": [
        {
          "name": "",
          "type": "uint256"
        }
      ],
      "payable": false,
      "stateMutability": "view",
      "type": "function"
    },
    {
      "constant": true,
      "inputs": [],
      "name": "getState",
      "outputs": [
        {
          "name": "",
          "type": "uint8"
        }
      ],
      "payable": false,
      "stateMutability": "view",
      "type": "function"
    },
    {
      "constant": false,
      "inputs": [
        {
          "name": "addr",
          "type": "address"
        }
      ],
      "name": "setFinalizeAgent",
      "outputs": [],
      "payable": false,
      "stateMutability": "nonpayable",
      "type": "function"
    },
    {
      "constant": false,
      "inputs": [
        {
          "name": "addr",
          "type": "address"
        },
        {
          "name": "customerId",
          "type": "uint128"
        },
        {
          "name": "v",
          "type": "uint8"
        },
        {
          "name": "r",
          "type": "bytes32"
        },
        {
          "name": "s",
          "type": "bytes32"
        }
      ],
      "name": "investWithSignedAddress",
      "outputs": [],
      "payable": true,
      "stateMutability": "payable",
      "type": "function"
    },
    {
      "constant": true,
      "inputs": [
        {
          "name": "",
          "type": "address"
        }
      ],
      "name": "investedAmountOf",
      "outputs": [
        {
          "name": "",
          "type": "uint256"
        }
      ],
      "payable": false,
      "stateMutability": "view",
      "type": "function"
    },
    {
      "constant": true,
      "inputs": [],
      "name": "finalizeAgent",
      "outputs": [
        {
          "name": "",
          "type": "address"
        }
      ],
      "payable": false,
      "stateMutability": "view",
      "type": "function"
    },
    {
      "constant": false,
      "inputs": [
        {
          "name": "receiver",
          "type": "address"
        },
        {
          "name": "fullTokens",
          "type": "uint256"
        },
        {
          "name": "weiPrice",
          "type": "uint256"
        }
      ],
      "name": "preallocate",
      "outputs": [],
      "payable": false,
      "stateMutability": "nonpayable",
      "type": "function"
    },
    {
      "constant": true,
      "inputs": [],
      "name": "weiRaised",
      "outputs": [
        {
          "name": "",
          "type": "uint256"
        }
      ],
      "payable": false,
      "stateMutability": "view",
      "type": "function"
    },
    {
      "constant": true,
      "inputs": [],
      "name": "isCrowdsale",
      "outputs": [
        {
          "name": "",
          "type": "bool"
        }
      ],
      "payable": false,
      "stateMutability": "view",
      "type": "function"
    },
    {
      "constant": false,
      "inputs": [],
      "name": "finalize",
      "outputs": [],
      "payable": false,
      "stateMutability": "nonpayable",
      "type": "function"
    },
    {
      "constant": false,
      "inputs": [
        {
          "name": "_pricingStrategy",
          "type": "address"
        }
      ],
      "name": "setPricingStrategy",
      "outputs": [],
      "payable": false,
      "stateMutability": "nonpayable",
      "type": "function"
    },
    {
      "constant": true,
      "inputs": [],
      "name": "tokensSold",
      "outputs": [
        {
          "name": "",
          "type": "uint256"
        }
      ],
      "payable": false,
      "stateMutability": "view",
      "type": "function"
    },
    {
      "constant": false,
      "inputs": [],
      "name": "refund",
      "outputs": [],
      "payable": false,
      "stateMutability": "nonpayable",
      "type": "function"
    },
    {
      "constant": true,
      "inputs": [],
      "name": "signerAddress",
      "outputs": [
        {
          "name": "",
          "type": "address"
        }
      ],
      "payable": false,
      "stateMutability": "view",
      "type": "function"
    },
    {
      "constant": true,
      "inputs": [],
      "name": "weiRefunded",
      "outputs": [
        {
          "name": "",
          "type": "uint256"
        }
      ],
      "payable": false,
      "stateMutability": "view",
      "type": "function"
    },
    {
      "constant": false,
      "inputs": [],
      "name": "halt",
      "outputs": [],
      "payable": false,
      "stateMutability": "nonpayable",
      "type": "function"
    },
    {
      "constant": true,
      "inputs": [],
      "name": "MAX_INVESTMENTS_BEFORE_MULTISIG_CHANGE",
      "outputs": [
        {
          "name": "",
          "type": "uint256"
        }
      ],
      "payable": false,
      "stateMutability": "view",
      "type": "function"
    },
    {
      "constant": false,
      "inputs": [
        {
          "name": "customerId",
          "type": "uint128"
        },
        {
          "name": "checksum",
          "type": "bytes1"
        }
      ],
      "name": "buyWithCustomerIdWithChecksum",
      "outputs": [],
      "payable": true,
      "stateMutability": "payable",
      "type": "function"
    },
    {
      "constant": false,
      "inputs": [
        {
          "name": "time",
          "type": "uint256"
        }
      ],
      "name": "setEndsAt",
      "outputs": [],
      "payable": false,
      "stateMutability": "nonpayable",
      "type": "function"
    },
    {
      "constant": true,
      "inputs": [],
      "name": "pricingStrategy",
      "outputs": [
        {
          "name": "",
          "type": "address"
        }
      ],
      "payable": false,
      "stateMutability": "view",
      "type": "function"
    },
    {
      "constant": true,
      "inputs": [],
      "name": "loadedRefund",
      "outputs": [
        {
          "name": "",
          "type": "uint256"
        }
      ],
      "payable": false,
      "stateMutability": "view",
      "type": "function"
    },
    {
      "constant": true,
      "inputs": [],
      "name": "isMinimumGoalReached",
      "outputs": [
        {
          "name": "reached",
          "type": "bool"
        }
      ],
      "payable": false,
      "stateMutability": "view",
      "type": "function"
    },
    {
      "constant": false,
      "inputs": [
        {
          "name": "value",
          "type": "bool"
        }
      ],
      "name": "setRequireCustomerId",
      "outputs": [],
      "payable": false,
      "stateMutability": "nonpayable",
      "type": "function"
    },
    {
      "constant": false,
      "inputs": [],
      "name": "loadRefund",
      "outputs": [],
      "payable": true,
      "stateMutability": "payable",
      "type": "function"
    },
    {
      "constant": false,
      "inputs": [
        {
          "name": "val",
          "type": "uint256"
        }
      ],
      "name": "setOwnerTestValue",
      "outputs": [],
      "payable": false,
      "stateMutability": "nonpayable",
      "type": "function"
    },
    {
      "constant": true,
      "inputs": [],
      "name": "owner",
      "outputs": [
        {
          "name": "",
          "type": "address"
        }
      ],
      "payable": false,
      "stateMutability": "view",
      "type": "function"
    },
    {
      "constant": true,
      "inputs": [
        {
          "name": "weisTotal",
          "type": "uint256"
        },
        {
          "name": "pricePerToken",
          "type": "uint256"
        }
      ],
      "name": "calculateTokens",
      "outputs": [
        {
          "name": "tokensTotal",
          "type": "uint256"
        }
      ],
      "payable": false,
      "stateMutability": "view",
      "type": "function"
    },
    {
      "constant": true,
      "inputs": [],
      "name": "multisigWallet",
      "outputs": [
        {
          "name": "",
          "type": "address"
        }
      ],
      "payable": false,
      "stateMutability": "view",
      "type": "function"
    },
    {
      "constant": true,
      "inputs": [
        {
          "name": "",
          "type": "address"
        }
      ],
      "name": "tokenAmountOf",
      "outputs": [
        {
          "name": "",
          "type": "uint256"
        }
      ],
      "payable": false,
      "stateMutability": "view",
      "type": "function"
    },
    {
      "constant": false,
      "inputs": [
        {
          "name": "customerId",
          "type": "uint128"
        }
      ],
      "name": "buyWithCustomerId",
      "outputs": [],
      "payable": true,
      "stateMutability": "payable",
      "type": "function"
    },
    {
      "constant": false,
      "inputs": [],
      "name": "buy",
      "outputs": [],
      "payable": true,
      "stateMutability": "payable",
      "type": "function"
    },
    {
      "constant": true,
      "inputs": [],
      "name": "isFinalizerSane",
      "outputs": [
        {
          "name": "sane",
          "type": "bool"
        }
      ],
      "payable": false,
      "stateMutability": "view",
      "type": "function"
    },
    {
      "constant": true,
      "inputs": [],
      "name": "startsAt",
      "outputs": [
        {
          "name": "",
          "type": "uint256"
        }
      ],
      "payable": false,
      "stateMutability": "view",
      "type": "function"
    },
    {
      "constant": true,
      "inputs": [],
      "name": "finalized",
      "outputs": [
        {
          "name": "",
          "type": "bool"
        }
      ],
      "payable": false,
      "stateMutability": "view",
      "type": "function"
    },
    {
      "constant": true,
      "inputs": [],
      "name": "halted",
      "outputs": [
        {
          "name": "",
          "type": "bool"
        }
      ],
      "payable": false,
      "stateMutability": "view",
      "type": "function"
    },
    {
      "constant": true,
      "inputs": [
        {
          "name": "",
          "type": "address"
        }
      ],
      "name": "earlyParticipantWhitelist",
      "outputs": [
        {
          "name": "",
          "type": "bool"
        }
      ],
      "payable": false,
      "stateMutability": "view",
      "type": "function"
    },
    {
      "constant": false,
      "inputs": [],
      "name": "unhalt",
      "outputs": [],
      "payable": false,
      "stateMutability": "nonpayable",
      "type": "function"
    },
    {
      "constant": true,
      "inputs": [],
      "name": "requiredSignedAddress",
      "outputs": [
        {
          "name": "",
          "type": "bool"
        }
      ],
      "payable": false,
      "stateMutability": "view",
      "type": "function"
    },
    {
      "constant": true,
      "inputs": [],
      "name": "investorCount",
      "outputs": [
        {
          "name": "",
          "type": "uint256"
        }
      ],
      "payable": false,
      "stateMutability": "view",
      "type": "function"
    },
    {
      "constant": false,
      "inputs": [
        {
          "name": "addr",
          "type": "address"
        },
        {
          "name": "status",
          "type": "bool"
        }
      ],
      "name": "setEarlyParicipantWhitelist",
      "outputs": [],
      "payable": false,
      "stateMutability": "nonpayable",
      "type": "function"
    },
    {
      "constant": false,
      "inputs": [
        {
          "name": "value",
          "type": "bool"
        },
        {
          "name": "_signerAddress",
          "type": "address"
        }
      ],
      "name": "setRequireSignedAddress",
      "outputs": [],
      "payable": false,
      "stateMutability": "nonpayable",
      "type": "function"
    },
    {
      "constant": false,
      "inputs": [
        {
          "name": "addr",
          "type": "address"
        },
        {
          "name": "customerId",
          "type": "uint128"
        }
      ],
      "name": "investWithCustomerId",
      "outputs": [],
      "payable": true,
      "stateMutability": "payable",
      "type": "function"
    },
    {
      "constant": false,
      "inputs": [
        {
          "name": "newOwner",
          "type": "address"
        }
      ],
      "name": "transferOwnership",
      "outputs": [],
      "payable": false,
      "stateMutability": "nonpayable",
      "type": "function"
    },
    {
      "constant": false,
      "inputs": [
        {
          "name": "addr",
          "type": "address"
        }
      ],
      "name": "setMultisig",
      "outputs": [],
      "payable": false,
      "stateMutability": "nonpayable",
      "type": "function"
    },
    {
      "constant": false,
      "inputs": [
        {
          "name": "customerId",
          "type": "uint128"
        },
        {
          "name": "v",
          "type": "uint8"
        },
        {
          "name": "r",
          "type": "bytes32"
        },
        {
          "name": "s",
          "type": "bytes32"
        }
      ],
      "name": "buyWithSignedAddress",
      "outputs": [],
      "payable": true,
      "stateMutability": "payable",
      "type": "function"
    },
    {
      "constant": true,
      "inputs": [],
      "name": "presaleWeiRaised",
      "outputs": [
        {
          "name": "",
          "type": "uint256"
        }
      ],
      "payable": false,
      "stateMutability": "view",
      "type": "function"
    },
    {
      "constant": true,
      "inputs": [],
      "name": "token",
      "outputs": [
        {
          "name": "",
          "type": "address"
        }
      ],
      "payable": false,
      "stateMutability": "view",
      "type": "function"
    },
    {
      "inputs": [
        {
          "name": "_token",
          "type": "address"
        },
        {
          "name": "_pricingStrategy",
          "type": "address"
        },
        {
          "name": "_multisigWallet",
          "type": "address"
        },
        {
          "name": "_start",
          "type": "uint256"
        },
        {
          "name": "_end",
          "type": "uint256"
        },
        {
          "name": "_minimumFundingGoal",
          "type": "uint256"
        }
      ],
      "payable": false,
      "stateMutability": "nonpayable",
      "type": "constructor"
    },
    {
      "payable": true,
      "stateMutability": "payable",
      "type": "fallback"
    },
    {
      "anonymous": false,
      "inputs": [
        {
          "indexed": false,
          "name": "investor",
          "type": "address"
        },
        {
          "indexed": false,
          "name": "weiAmount",
          "type": "uint256"
        },
        {
          "indexed": false,
          "name": "tokenAmount",
          "type": "uint256"
        },
        {
          "indexed": false,
          "name": "customerId",
          "type": "uint128"
        }
      ],
      "name": "Invested",
      "type": "event"
    },
    {
      "anonymous": false,
      "inputs": [
        {
          "indexed": false,
          "name": "investor",
          "type": "address"
        },
        {
          "indexed": false,
          "name": "weiAmount",
          "type": "uint256"
        }
      ],
      "name": "Refund",
      "type": "event"
    },
    {
      "anonymous": false,
      "inputs": [
        {
          "indexed": false,
          "name": "newRequireCustomerId",
          "type": "bool"
        },
        {
          "indexed": false,
          "name": "newRequiredSignedAddress",
          "type": "bool"
        },
        {
          "indexed": false,
          "name": "newSignerAddress",
          "type": "address"
        }
      ],
      "name": "InvestmentPolicyChanged",
      "type": "event"
    },
    {
      "anonymous": false,
      "inputs": [
        {
          "indexed": false,
          "name": "addr",
          "type": "address"
        },
        {
          "indexed": false,
          "name": "status",
          "type": "bool"
        }
      ],
      "name": "Whitelisted",
      "type": "event"
    },
    {
      "anonymous": false,
      "inputs": [
        {
          "indexed": false,
          "name": "newEndsAt",
          "type": "uint256"
        }
      ],
      "name": "EndsAtChanged",
      "type": "event"
    },
    {
      "anonymous": false,
      "inputs": [
        {
          "indexed": true,
          "name": "previousOwner",
          "type": "address"
        },
        {
          "indexed": true,
          "name": "newOwner",
          "type": "address"
        }
      ],
      "name": "OwnershipTransferred",
      "type": "event"
    },
    {
      "constant": true,
      "inputs": [
        {
          "name": "weiAmount",
          "type": "uint256"
        },
        {
          "name": "tokenAmount",
          "type": "uint256"
        },
        {
          "name": "weiRaisedTotal",
          "type": "uint256"
        },
        {
          "name": "tokensSoldTotal",
          "type": "uint256"
        }
      ],
      "name": "isBreakingCap",
      "outputs": [
        {
          "name": "limitBroken",
          "type": "bool"
        }
      ],
      "payable": false,
      "stateMutability": "view",
      "type": "function"
    },
    {
      "constant": true,
      "inputs": [],
      "name": "isCrowdsaleFull",
      "outputs": [
        {
          "name": "",
          "type": "bool"
        }
      ],
      "payable": false,
      "stateMutability": "view",
      "type": "function"
    }
  ],
  "bytecode": "0x6080604052600560015560006009556000600a556000600b556000600c556000600d556000600e553480156200003457600080fd5b5060405160c08062003e40833981018060405281019080805190602001909291908051906020019092919080519060200190929190805190602001909291908051906020019092919080519060200190929190505050858585858585858585858585336000806101000a81548173ffffffffffffffffffffffffffffffffffffffff021916908373ffffffffffffffffffffffffffffffffffffffff160217905550336000806101000a81548173ffffffffffffffffffffffffffffffffffffffff021916908373ffffffffffffffffffffffffffffffffffffffff16021790555085600260006101000a81548173ffffffffffffffffffffffffffffffffffffffff021916908373ffffffffffffffffffffffffffffffffffffffff160217905550620001718562000257640100000000026401000000009004565b83600560006101000a81548173ffffffffffffffffffffffffffffffffffffffff021916908373ffffffffffffffffffffffffffffffffffffffff1602179055506000600560009054906101000a900473ffffffffffffffffffffffffffffffffffffffff1673ffffffffffffffffffffffffffffffffffffffff161415620001f957600080fd5b60008314156200020857600080fd5b8260078190555060008214156200021e57600080fd5b816008819055506008546007541015156200023857600080fd5b80600681905550505050505050505050505050505050505050620003c7565b6000809054906101000a900473ffffffffffffffffffffffffffffffffffffffff1673ffffffffffffffffffffffffffffffffffffffff163373ffffffffffffffffffffffffffffffffffffffff16141515620002b357600080fd5b80600360006101000a81548173ffffffffffffffffffffffffffffffffffffffff021916908373ffffffffffffffffffffffffffffffffffffffff160217905550600360009054906101000a900473ffffffffffffffffffffffffffffffffffffffff1673ffffffffffffffffffffffffffffffffffffffff166304bbc2556040518163ffffffff167c0100000000000000000000000000000000000000000000000000000000028152600401602060405180830381600087803b1580156200037b57600080fd5b505af115801562000390573d6000803e3d6000fd5b505050506040513d6020811015620003a757600080fd5b81019080805190602001909291905050501515620003c457600080fd5b50565b613a6980620003d76000396000f300608060405260043610610288576000357c0100000000000000000000000000000000000000000000000000000000900463ffffffff1680630226401d1461028d57806303ca0eed146102b857806303f9c793146102e7578063062b01ce1461031d5780630a09284a1461034c57806313f4e977146103775780631865c57d146103a257806319b667da146103db5780631a49803b1461041e5780631aae34601461049957806321d5c0f6146104f057806332013ac3146105475780634042b66f1461059e5780634551dd59146105c95780634bb278f3146105f857806350c677341461060f578063518ab2a814610652578063590e1ae31461067d5780635b7633d0146106945780635da89ac0146106eb5780635ed7ca5b146107165780636203f09f1461072d57806363c6082f146107585780636e50eb3f146107b657806378b99c24146107e3578063797d94371461083a5780637c2e08a3146108655780637f7d711e1461089457806387612102146108c35780638d51faec146108cd5780638da5cb5b146108fa578063903cc583146109515780639075becf1461099c57806397b150ca146109f357806399e9376c14610a4a5780639d3c663f14610a7c578063a6f2ae3a14610adf578063a7ba44c314610ae9578063af46868214610b18578063b3f05b9714610b43578063b9b8af0b14610b72578063cb16e6d014610ba1578063cb3e64fd14610bfc578063d222dc0414610c13578063d5d0902114610c42578063d7e64c0014610c71578063eac2493214610c9c578063ed68ff2c14610ceb578063ef86944314610d3a578063f2fde38b14610d8c578063f3283fba14610dcf578063f486972614610e12578063f7c00e2f14610e6d578063fc0c546a14610e98575b600080fd5b34801561029957600080fd5b506102a2610eef565b6040518082815260200191505060405180910390f35b3480156102c457600080fd5b506102cd610ef5565b604051808215151515815260200191505060405180910390f35b61031b600480360381019080803573ffffffffffffffffffffffffffffffffffffffff169060200190929190505050610f08565b005b34801561032957600080fd5b50610332610f4b565b604051808215151515815260200191505060405180910390f35b34801561035857600080fd5b5061036161104a565b6040518082815260200191505060405180910390f35b34801561038357600080fd5b5061038c611050565b6040518082815260200191505060405180910390f35b3480156103ae57600080fd5b506103b7611056565b604051808260078111156103c757fe5b60ff16815260200191505060405180910390f35b3480156103e757600080fd5b5061041c600480360381019080803573ffffffffffffffffffffffffffffffffffffffff169060200190929190505050611322565b005b610497600480360381019080803573ffffffffffffffffffffffffffffffffffffffff16906020019092919080356fffffffffffffffffffffffffffffffff169060200190929190803560ff1690602001909291908035600019169060200190929190803560001916906020019092919050505061148d565b005b3480156104a557600080fd5b506104da600480360381019080803573ffffffffffffffffffffffffffffffffffffffff169060200190929190505050611630565b6040518082815260200191505060405180910390f35b3480156104fc57600080fd5b50610505611648565b604051808273ffffffffffffffffffffffffffffffffffffffff1673ffffffffffffffffffffffffffffffffffffffff16815260200191505060405180910390f35b34801561055357600080fd5b5061059c600480360381019080803573ffffffffffffffffffffffffffffffffffffffff169060200190929190803590602001909291908035906020019092919050505061166e565b005b3480156105aa57600080fd5b506105b3611c0c565b6040518082815260200191505060405180910390f35b3480156105d557600080fd5b506105de611c12565b604051808215151515815260200191505060405180910390f35b34801561060457600080fd5b5061060d611c1b565b005b34801561061b57600080fd5b50610650600480360381019080803573ffffffffffffffffffffffffffffffffffffffff169060200190929190505050611dd6565b005b34801561065e57600080fd5b50610667611f41565b6040518082815260200191505060405180910390f35b34801561068957600080fd5b50610692611f47565b005b3480156106a057600080fd5b506106a9612172565b604051808273ffffffffffffffffffffffffffffffffffffffff1673ffffffffffffffffffffffffffffffffffffffff16815260200191505060405180910390f35b3480156106f757600080fd5b50610700612198565b6040518082815260200191505060405180910390f35b34801561072257600080fd5b5061072b61219e565b005b34801561073957600080fd5b50610742612216565b6040518082815260200191505060405180910390f35b6107b460048036038101908080356fffffffffffffffffffffffffffffffff16906020019092919080357effffffffffffffffffffffffffffffffffffffffffffffffffffffffffffff1916906020019092919050505061221c565b005b3480156107c257600080fd5b506107e1600480360381019080803590602001909291905050506122c8565b005b3480156107ef57600080fd5b506107f8612382565b604051808273ffffffffffffffffffffffffffffffffffffffff1673ffffffffffffffffffffffffffffffffffffffff16815260200191505060405180910390f35b34801561084657600080fd5b5061084f6123a8565b6040518082815260200191505060405180910390f35b34801561087157600080fd5b5061087a6123ae565b604051808215151515815260200191505060405180910390f35b3480156108a057600080fd5b506108c16004803603810190808035151590602001909291905050506123bd565b005b6108cb6124f0565b005b3480156108d957600080fd5b506108f8600480360381019080803590602001909291905050506125e6565b005b34801561090657600080fd5b5061090f61264b565b604051808273ffffffffffffffffffffffffffffffffffffffff1673ffffffffffffffffffffffffffffffffffffffff16815260200191505060405180910390f35b34801561095d57600080fd5b506109866004803603810190808035906020019092919080359060200190929190505050612670565b6040518082815260200191505060405180910390f35b3480156109a857600080fd5b506109b16127fd565b604051808273ffffffffffffffffffffffffffffffffffffffff1673ffffffffffffffffffffffffffffffffffffffff16815260200191505060405180910390f35b3480156109ff57600080fd5b50610a34600480360381019080803573ffffffffffffffffffffffffffffffffffffffff169060200190929190505050612823565b6040518082815260200191505060405180910390f35b610a7a60048036038101908080356fffffffffffffffffffffffffffffffff16906020019092919050505061283b565b005b348015610a8857600080fd5b50610ac560048036038101908080359060200190929190803590602001909291908035906020019092919080359060200190929190505050612848565b604051808215151515815260200191505060405180910390f35b610ae7612855565b005b348015610af557600080fd5b50610afe612860565b604051808215151515815260200191505060405180910390f35b348015610b2457600080fd5b50610b2d612928565b6040518082815260200191505060405180910390f35b348015610b4f57600080fd5b50610b5861292e565b604051808215151515815260200191505060405180910390f35b348015610b7e57600080fd5b50610b87612941565b604051808215151515815260200191505060405180910390f35b348015610bad57600080fd5b50610be2600480360381019080803573ffffffffffffffffffffffffffffffffffffffff169060200190929190505050612954565b604051808215151515815260200191505060405180910390f35b348015610c0857600080fd5b50610c11612974565b005b348015610c1f57600080fd5b50610c28612a06565b604051808215151515815260200191505060405180910390f35b348015610c4e57600080fd5b50610c57612a19565b604051808215151515815260200191505060405180910390f35b348015610c7d57600080fd5b50610c86612a21565b6040518082815260200191505060405180910390f35b348015610ca857600080fd5b50610ce9600480360381019080803573ffffffffffffffffffffffffffffffffffffffff169060200190929190803515159060200190929190505050612a27565b005b348015610cf757600080fd5b50610d38600480360381019080803515159060200190929190803573ffffffffffffffffffffffffffffffffffffffff169060200190929190505050612b4c565b005b610d8a600480360381019080803573ffffffffffffffffffffffffffffffffffffffff16906020019092919080356fffffffffffffffffffffffffffffffff169060200190929190505050612cc1565b005b348015610d9857600080fd5b50610dcd600480360381019080803573ffffffffffffffffffffffffffffffffffffffff169060200190929190505050612d0a565b005b348015610ddb57600080fd5b50610e10600480360381019080803573ffffffffffffffffffffffffffffffffffffffff169060200190929190505050612e5f565b005b610e6b60048036038101908080356fffffffffffffffffffffffffffffffff169060200190929190803560ff16906020019092919080356000191690602001909291908035600019169060200190929190505050612f0f565b005b348015610e7957600080fd5b50610e82612f22565b6040518082815260200191505060405180910390f35b348015610ea457600080fd5b50610ead612f28565b604051808273ffffffffffffffffffffffffffffffffffffffff1673ffffffffffffffffffffffffffffffffffffffff16815260200191505060405180910390f35b60135481565b601460009054906101000a900460ff1681565b601460009054906101000a900460ff1615610f2257600080fd5b601460019054906101000a900460ff1615610f3c57600080fd5b610f47816000612f4e565b5050565b6000600360009054906101000a900473ffffffffffffffffffffffffffffffffffffffff1673ffffffffffffffffffffffffffffffffffffffff16638e768288306040518263ffffffff167c0100000000000000000000000000000000000000000000000000000000028152600401808273ffffffffffffffffffffffffffffffffffffffff1673ffffffffffffffffffffffffffffffffffffffff168152602001915050602060405180830381600087803b15801561100a57600080fd5b505af115801561101e573d6000803e3d6000fd5b505050506040513d602081101561103457600080fd5b8101908080519060200190929190505050905090565b60085481565b60065481565b6000600f60009054906101000a900460ff1615611076576006905061131f565b6000600460009054906101000a900473ffffffffffffffffffffffffffffffffffffffff1673ffffffffffffffffffffffffffffffffffffffff1614156110c0576001905061131f565b600460009054906101000a900473ffffffffffffffffffffffffffffffffffffffff1673ffffffffffffffffffffffffffffffffffffffff166382771c8e6040518163ffffffff167c0100000000000000000000000000000000000000000000000000000000028152600401602060405180830381600087803b15801561114657600080fd5b505af115801561115a573d6000803e3d6000fd5b505050506040513d602081101561117057600080fd5b81019080805190602001909291905050501515611190576001905061131f565b600360009054906101000a900473ffffffffffffffffffffffffffffffffffffffff1673ffffffffffffffffffffffffffffffffffffffff16638e768288306040518263ffffffff167c0100000000000000000000000000000000000000000000000000000000028152600401808273ffffffffffffffffffffffffffffffffffffffff1673ffffffffffffffffffffffffffffffffffffffff168152602001915050602060405180830381600087803b15801561124d57600080fd5b505af1158015611261573d6000803e3d6000fd5b505050506040513d602081101561127757600080fd5b81019080805190602001909291905050501515611297576001905061131f565b6007544210156112aa576002905061131f565b60085442111580156112c157506112bf612a19565b155b156112cf576003905061131f565b6112d76123ae565b156112e5576004905061131f565b6112ed6123ae565b1580156112fc57506000600a54115b801561130c5750600a54600d5410155b1561131a576007905061131f565b600590505b90565b6000809054906101000a900473ffffffffffffffffffffffffffffffffffffffff1673ffffffffffffffffffffffffffffffffffffffff163373ffffffffffffffffffffffffffffffffffffffff1614151561137d57600080fd5b80600460006101000a81548173ffffffffffffffffffffffffffffffffffffffff021916908373ffffffffffffffffffffffffffffffffffffffff160217905550600460009054906101000a900473ffffffffffffffffffffffffffffffffffffffff1673ffffffffffffffffffffffffffffffffffffffff1663614cb9046040518163ffffffff167c0100000000000000000000000000000000000000000000000000000000028152600401602060405180830381600087803b15801561144457600080fd5b505af1158015611458573d6000803e3d6000fd5b505050506040513d602081101561146e57600080fd5b8101908080519060200190929190505050151561148a57600080fd5b50565b6000600286604051808273ffffffffffffffffffffffffffffffffffffffff1673ffffffffffffffffffffffffffffffffffffffff166c010000000000000000000000000281526014019150506020604051808303816000865af11580156114f9573d6000803e3d6000fd5b5050506040513d602081101561150e57600080fd5b81019080805190602001909291905050509050601460029054906101000a900473ffffffffffffffffffffffffffffffffffffffff1673ffffffffffffffffffffffffffffffffffffffff16600182868686604051600081526020016040526040518085600019166000191681526020018460ff1660ff1681526020018360001916600019168152602001826000191660001916815260200194505050505060206040516020810390808403906000865af11580156115d1573d6000803e3d6000fd5b5050506020604051035173ffffffffffffffffffffffffffffffffffffffff161415156115fd57600080fd5b6000856fffffffffffffffffffffffffffffffff16141561161d57600080fd5b6116278686612f4e565b50505050505050565b60106020528060005260406000206000915090505481565b600460009054906101000a900473ffffffffffffffffffffffffffffffffffffffff1681565b6000806000809054906101000a900473ffffffffffffffffffffffffffffffffffffffff1673ffffffffffffffffffffffffffffffffffffffff163373ffffffffffffffffffffffffffffffffffffffff161415156116cc57600080fd5b600260009054906101000a900473ffffffffffffffffffffffffffffffffffffffff1673ffffffffffffffffffffffffffffffffffffffff1663313ce5676040518163ffffffff167c0100000000000000000000000000000000000000000000000000000000028152600401602060405180830381600087803b15801561175257600080fd5b505af1158015611766573d6000803e3d6000fd5b505050506040513d602081101561177c57600080fd5b8101908080519060200190929190505050600a0a840291508383029050600a5473__SafeMathLib___________________________6366098d4f9091836040518363ffffffff167c0100000000000000000000000000000000000000000000000000000000028152600401808381526020018281526020019250505060206040518083038186803b15801561181057600080fd5b505af4158015611824573d6000803e3d6000fd5b505050506040513d602081101561183a57600080fd5b8101908080519060200190929190505050600a8190555060095473__SafeMathLib___________________________6366098d4f9091846040518363ffffffff167c0100000000000000000000000000000000000000000000000000000000028152600401808381526020018281526020019250505060206040518083038186803b1580156118c857600080fd5b505af41580156118dc573d6000803e3d6000fd5b505050506040513d60208110156118f257600080fd5b8101908080519060200190929190505050600981905550601060008673ffffffffffffffffffffffffffffffffffffffff1673ffffffffffffffffffffffffffffffffffffffff1681526020019081526020016000205473__SafeMathLib___________________________6366098d4f9091836040518363ffffffff167c0100000000000000000000000000000000000000000000000000000000028152600401808381526020018281526020019250505060206040518083038186803b1580156119bd57600080fd5b505af41580156119d1573d6000803e3d6000fd5b505050506040513d60208110156119e757600080fd5b8101908080519060200190929190505050601060008773ffffffffffffffffffffffffffffffffffffffff1673ffffffffffffffffffffffffffffffffffffffff16815260200190815260200160002081905550601160008673ffffffffffffffffffffffffffffffffffffffff1673ffffffffffffffffffffffffffffffffffffffff1681526020019081526020016000205473__SafeMathLib___________________________6366098d4f9091846040518363ffffffff167c0100000000000000000000000000000000000000000000000000000000028152600401808381526020018281526020019250505060206040518083038186803b158015611aef57600080fd5b505af4158015611b03573d6000803e3d6000fd5b505050506040513d6020811015611b1957600080fd5b8101908080519060200190929190505050601160008773ffffffffffffffffffffffffffffffffffffffff1673ffffffffffffffffffffffffffffffffffffffff16815260200190815260200160002081905550611b77858361315b565b7f0396f60aaad038749091d273dc13aaabc63db6e2271c7bad442d5cf25cc433508582846000604051808573ffffffffffffffffffffffffffffffffffffffff1673ffffffffffffffffffffffffffffffffffffffff168152602001848152602001838152602001826fffffffffffffffffffffffffffffffff16815260200194505050505060405180910390a15050505050565b600a5481565b60006001905090565b6004806007811115611c2957fe5b611c31611056565b6007811115611c3c57fe5b141515611c4857600080fd5b6000809054906101000a900473ffffffffffffffffffffffffffffffffffffffff1673ffffffffffffffffffffffffffffffffffffffff163373ffffffffffffffffffffffffffffffffffffffff16141515611ca357600080fd5b600060149054906101000a900460ff1615611cbd57600080fd5b600f60009054906101000a900460ff1615611cd757600080fd5b6000600460009054906101000a900473ffffffffffffffffffffffffffffffffffffffff1673ffffffffffffffffffffffffffffffffffffffff16141515611db857600460009054906101000a900473ffffffffffffffffffffffffffffffffffffffff1673ffffffffffffffffffffffffffffffffffffffff16630bf318a36040518163ffffffff167c0100000000000000000000000000000000000000000000000000000000028152600401600060405180830381600087803b158015611d9f57600080fd5b505af1158015611db3573d6000803e3d6000fd5b505050505b6001600f60006101000a81548160ff02191690831515021790555050565b6000809054906101000a900473ffffffffffffffffffffffffffffffffffffffff1673ffffffffffffffffffffffffffffffffffffffff163373ffffffffffffffffffffffffffffffffffffffff16141515611e3157600080fd5b80600360006101000a81548173ffffffffffffffffffffffffffffffffffffffff021916908373ffffffffffffffffffffffffffffffffffffffff160217905550600360009054906101000a900473ffffffffffffffffffffffffffffffffffffffff1673ffffffffffffffffffffffffffffffffffffffff166304bbc2556040518163ffffffff167c0100000000000000000000000000000000000000000000000000000000028152600401602060405180830381600087803b158015611ef857600080fd5b505af1158015611f0c573d6000803e3d6000fd5b505050506040513d6020811015611f2257600080fd5b81019080805190602001909291905050501515611f3e57600080fd5b50565b60095481565b60006007806007811115611f5757fe5b611f5f611056565b6007811115611f6a57fe5b141515611f7657600080fd5b601060003373ffffffffffffffffffffffffffffffffffffffff1673ffffffffffffffffffffffffffffffffffffffff1681526020019081526020016000205491506000821415611fc657600080fd5b6000601060003373ffffffffffffffffffffffffffffffffffffffff1673ffffffffffffffffffffffffffffffffffffffff16815260200190815260200160002081905550600e5473__SafeMathLib___________________________6366098d4f9091846040518363ffffffff167c0100000000000000000000000000000000000000000000000000000000028152600401808381526020018281526020019250505060206040518083038186803b15801561208257600080fd5b505af4158015612096573d6000803e3d6000fd5b505050506040513d60208110156120ac57600080fd5b8101908080519060200190929190505050600e819055507fbb28353e4598c3b9199101a66e0989549b659a59a54d2c27fbb183f1932c8e6d3383604051808373ffffffffffffffffffffffffffffffffffffffff1673ffffffffffffffffffffffffffffffffffffffff1681526020018281526020019250505060405180910390a13373ffffffffffffffffffffffffffffffffffffffff166108fc839081150290604051600060405180830381858888f19350505050151561216e57600080fd5b5050565b601460029054906101000a900473ffffffffffffffffffffffffffffffffffffffff1681565b600e5481565b6000809054906101000a900473ffffffffffffffffffffffffffffffffffffffff1673ffffffffffffffffffffffffffffffffffffffff163373ffffffffffffffffffffffffffffffffffffffff161415156121f957600080fd5b6001600060146101000a81548160ff021916908315150217905550565b60015481565b807effffffffffffffffffffffffffffffffffffffffffffffffffffffffffffff19168260405180826fffffffffffffffffffffffffffffffff166fffffffffffffffffffffffffffffffff1670010000000000000000000000000000000002815260100191505060405180910390207effffffffffffffffffffffffffffffffffffffffffffffffffffffffffffff19161415156122ba57600080fd5b6122c43383612cc1565b5050565b6000809054906101000a900473ffffffffffffffffffffffffffffffffffffffff1673ffffffffffffffffffffffffffffffffffffffff163373ffffffffffffffffffffffffffffffffffffffff1614151561232357600080fd5b8042111561233057600080fd5b80600754111561233f57600080fd5b806008819055507fd34bb772c4ae9baa99db852f622773b31c7827e8ee818449fef20d30980bd3106008546040518082815260200191505060405180910390a150565b600360009054906101000a900473ffffffffffffffffffffffffffffffffffffffff1681565b600d5481565b6000600654600a541015905090565b6000809054906101000a900473ffffffffffffffffffffffffffffffffffffffff1673ffffffffffffffffffffffffffffffffffffffff163373ffffffffffffffffffffffffffffffffffffffff1614151561241857600080fd5b80601460006101000a81548160ff0219169083151502179055507f48d826081348f5f00e8a33c9ae8ce89ed4c6e88400b585a478bc203d9e8177d3601460009054906101000a900460ff16601460019054906101000a900460ff16601460029054906101000a900473ffffffffffffffffffffffffffffffffffffffff166040518084151515158152602001831515151581526020018273ffffffffffffffffffffffffffffffffffffffff1673ffffffffffffffffffffffffffffffffffffffff168152602001935050505060405180910390a150565b60058060078111156124fe57fe5b612506611056565b600781111561251157fe5b14151561251d57600080fd5b600034141561252b57600080fd5b600d5473__SafeMathLib___________________________6366098d4f9091346040518363ffffffff167c0100000000000000000000000000000000000000000000000000000000028152600401808381526020018281526020019250505060206040518083038186803b1580156125a257600080fd5b505af41580156125b6573d6000803e3d6000fd5b505050506040513d60208110156125cc57600080fd5b8101908080519060200190929190505050600d8190555050565b6000809054906101000a900473ffffffffffffffffffffffffffffffffffffffff1673ffffffffffffffffffffffffffffffffffffffff163373ffffffffffffffffffffffffffffffffffffffff1614151561264157600080fd5b8060138190555050565b6000809054906101000a900473ffffffffffffffffffffffffffffffffffffffff1681565b600080600260009054906101000a900473ffffffffffffffffffffffffffffffffffffffff1673ffffffffffffffffffffffffffffffffffffffff1663313ce5676040518163ffffffff167c0100000000000000000000000000000000000000000000000000000000028152600401602060405180830381600087803b1580156126f957600080fd5b505af115801561270d573d6000803e3d6000fd5b505050506040513d602081101561272357600080fd5b8101908080519060200190929190505050600a0a9050828473__SafeMathLib___________________________631d3b9edf9091846040518363ffffffff167c0100000000000000000000000000000000000000000000000000000000028152600401808381526020018281526020019250505060206040518083038186803b1580156127af57600080fd5b505af41580156127c3573d6000803e3d6000fd5b505050506040513d60208110156127d957600080fd5b81019080805190602001909291905050508115156127f357fe5b0491505092915050565b600560009054906101000a900473ffffffffffffffffffffffffffffffffffffffff1681565b60116020528060005260406000206000915090505481565b6128453382612cc1565b50565b6000809050949350505050565b61285e33610f08565b565b6000600460009054906101000a900473ffffffffffffffffffffffffffffffffffffffff1673ffffffffffffffffffffffffffffffffffffffff166382771c8e6040518163ffffffff167c0100000000000000000000000000000000000000000000000000000000028152600401602060405180830381600087803b1580156128e857600080fd5b505af11580156128fc573d6000803e3d6000fd5b505050506040513d602081101561291257600080fd5b8101908080519060200190929190505050905090565b60075481565b600f60009054906101000a900460ff1681565b600060149054906101000a900460ff1681565b60126020528060005260406000206000915054906101000a900460ff1681565b6000809054906101000a900473ffffffffffffffffffffffffffffffffffffffff1673ffffffffffffffffffffffffffffffffffffffff163373ffffffffffffffffffffffffffffffffffffffff161415156129cf57600080fd5b600060149054906101000a900460ff1615156129ea57600080fd5b60008060146101000a81548160ff021916908315150217905550565b601460019054906101000a900460ff1681565b600080905090565b600c5481565b6000809054906101000a900473ffffffffffffffffffffffffffffffffffffffff1673ffffffffffffffffffffffffffffffffffffffff163373ffffffffffffffffffffffffffffffffffffffff16141515612a8257600080fd5b80601260008473ffffffffffffffffffffffffffffffffffffffff1673ffffffffffffffffffffffffffffffffffffffff16815260200190815260200160002060006101000a81548160ff0219169083151502179055507fa54714518c5d275fdcd3d2a461e4858e4e8cb04fb93cd0bca9d6d34115f264408282604051808373ffffffffffffffffffffffffffffffffffffffff1673ffffffffffffffffffffffffffffffffffffffff168152602001821515151581526020019250505060405180910390a15050565b6000809054906101000a900473ffffffffffffffffffffffffffffffffffffffff1673ffffffffffffffffffffffffffffffffffffffff163373ffffffffffffffffffffffffffffffffffffffff16141515612ba757600080fd5b81601460016101000a81548160ff02191690831515021790555080601460026101000a81548173ffffffffffffffffffffffffffffffffffffffff021916908373ffffffffffffffffffffffffffffffffffffffff1602179055507f48d826081348f5f00e8a33c9ae8ce89ed4c6e88400b585a478bc203d9e8177d3601460009054906101000a900460ff16601460019054906101000a900460ff16601460029054906101000a900473ffffffffffffffffffffffffffffffffffffffff166040518084151515158152602001831515151581526020018273ffffffffffffffffffffffffffffffffffffffff1673ffffffffffffffffffffffffffffffffffffffff168152602001935050505060405180910390a15050565b601460019054906101000a900460ff1615612cdb57600080fd5b6000816fffffffffffffffffffffffffffffffff161415612cfb57600080fd5b612d058282612f4e565b505050565b6000809054906101000a900473ffffffffffffffffffffffffffffffffffffffff1673ffffffffffffffffffffffffffffffffffffffff163373ffffffffffffffffffffffffffffffffffffffff16141515612d6557600080fd5b600073ffffffffffffffffffffffffffffffffffffffff168173ffffffffffffffffffffffffffffffffffffffff1614151515612da157600080fd5b8073ffffffffffffffffffffffffffffffffffffffff166000809054906101000a900473ffffffffffffffffffffffffffffffffffffffff1673ffffffffffffffffffffffffffffffffffffffff167f8be0079c531659141344cd1fd0a4f28419497f9722a3daafe3b4186f6b6457e060405160405180910390a3806000806101000a81548173ffffffffffffffffffffffffffffffffffffffff021916908373ffffffffffffffffffffffffffffffffffffffff16021790555050565b6000809054906101000a900473ffffffffffffffffffffffffffffffffffffffff1673ffffffffffffffffffffffffffffffffffffffff163373ffffffffffffffffffffffffffffffffffffffff16141515612eba57600080fd5b600154600c541115612ecb57600080fd5b80600560006101000a81548173ffffffffffffffffffffffffffffffffffffffff021916908373ffffffffffffffffffffffffffffffffffffffff16021790555050565b612f1c338585858561148d565b50505050565b600b5481565b600260009054906101000a900473ffffffffffffffffffffffffffffffffffffffff1681565b60008060149054906101000a900460ff1615612f6957600080fd5b6131538383600360009054906101000a900473ffffffffffffffffffffffffffffffffffffffff1673ffffffffffffffffffffffffffffffffffffffff166318a4155e34600b54600a540360095433600260009054906101000a900473ffffffffffffffffffffffffffffffffffffffff1673ffffffffffffffffffffffffffffffffffffffff1663313ce5676040518163ffffffff167c0100000000000000000000000000000000000000000000000000000000028152600401602060405180830381600087803b15801561303e57600080fd5b505af1158015613052573d6000803e3d6000fd5b505050506040513d602081101561306857600080fd5b81019080805190602001909291905050506040518663ffffffff167c0100000000000000000000000000000000000000000000000000000000028152600401808681526020018581526020018481526020018373ffffffffffffffffffffffffffffffffffffffff1673ffffffffffffffffffffffffffffffffffffffff16815260200182815260200195505050505050602060405180830381600087803b15801561311357600080fd5b505af1158015613127573d6000803e3d6000fd5b505050506040513d602081101561313d57600080fd5b8101908080519060200190929190505050613242565b905092915050565b6000600260009054906101000a900473ffffffffffffffffffffffffffffffffffffffff1690508073ffffffffffffffffffffffffffffffffffffffff166340c10f1984846040518363ffffffff167c0100000000000000000000000000000000000000000000000000000000028152600401808373ffffffffffffffffffffffffffffffffffffffff1673ffffffffffffffffffffffffffffffffffffffff16815260200182815260200192505050600060405180830381600087803b15801561322557600080fd5b505af1158015613239573d6000803e3d6000fd5b50505050505050565b600080600060149054906101000a900460ff161561325f57600080fd5b6002600781111561326c57fe5b613274611056565b600781111561327f57fe5b14156132e257601260008673ffffffffffffffffffffffffffffffffffffffff1673ffffffffffffffffffffffffffffffffffffffff16815260200190815260200160002060009054906101000a900460ff1615156132dd57600080fd5b613313565b600360078111156132ef57fe5b6132f7611056565b600781111561330257fe5b141561330d57613312565b600080fd5b5b3490506000831415151561332657600080fd5b6000601060008773ffffffffffffffffffffffffffffffffffffffff1673ffffffffffffffffffffffffffffffffffffffff16815260200190815260200160002054141561338157600c600081548092919060010191905055505b601060008673ffffffffffffffffffffffffffffffffffffffff1673ffffffffffffffffffffffffffffffffffffffff1681526020019081526020016000205473__SafeMathLib___________________________6366098d4f9091836040518363ffffffff167c0100000000000000000000000000000000000000000000000000000000028152600401808381526020018281526020019250505060206040518083038186803b15801561343557600080fd5b505af4158015613449573d6000803e3d6000fd5b505050506040513d602081101561345f57600080fd5b8101908080519060200190929190505050601060008773ffffffffffffffffffffffffffffffffffffffff1673ffffffffffffffffffffffffffffffffffffffff16815260200190815260200160002081905550601160008673ffffffffffffffffffffffffffffffffffffffff1673ffffffffffffffffffffffffffffffffffffffff1681526020019081526020016000205473__SafeMathLib___________________________6366098d4f9091856040518363ffffffff167c0100000000000000000000000000000000000000000000000000000000028152600401808381526020018281526020019250505060206040518083038186803b15801561356757600080fd5b505af415801561357b573d6000803e3d6000fd5b505050506040513d602081101561359157600080fd5b8101908080519060200190929190505050601160008773ffffffffffffffffffffffffffffffffffffffff1673ffffffffffffffffffffffffffffffffffffffff16815260200190815260200160002081905550600a5473__SafeMathLib___________________________6366098d4f9091836040518363ffffffff167c0100000000000000000000000000000000000000000000000000000000028152600401808381526020018281526020019250505060206040518083038186803b15801561365c57600080fd5b505af4158015613670573d6000803e3d6000fd5b505050506040513d602081101561368657600080fd5b8101908080519060200190929190505050600a8190555060095473__SafeMathLib___________________________6366098d4f9091856040518363ffffffff167c0100000000000000000000000000000000000000000000000000000000028152600401808381526020018281526020019250505060206040518083038186803b15801561371457600080fd5b505af4158015613728573d6000803e3d6000fd5b505050506040513d602081101561373e57600080fd5b8101908080519060200190929190505050600981905550600360009054906101000a900473ffffffffffffffffffffffffffffffffffffffff1673ffffffffffffffffffffffffffffffffffffffff1663f14ae17d866040518263ffffffff167c0100000000000000000000000000000000000000000000000000000000028152600401808273ffffffffffffffffffffffffffffffffffffffff1673ffffffffffffffffffffffffffffffffffffffff168152602001915050602060405180830381600087803b15801561381257600080fd5b505af1158015613826573d6000803e3d6000fd5b505050506040513d602081101561383c57600080fd5b81019080805190602001909291905050501561390b57600b5473__SafeMathLib___________________________6366098d4f9091836040518363ffffffff167c0100000000000000000000000000000000000000000000000000000000028152600401808381526020018281526020019250505060206040518083038186803b1580156138c957600080fd5b505af41580156138dd573d6000803e3d6000fd5b505050506040513d60208110156138f357600080fd5b8101908080519060200190929190505050600b819055505b61391b8184600a54600954612848565b15151561392757600080fd5b613931858461315b565b600560009054906101000a900473ffffffffffffffffffffffffffffffffffffffff1673ffffffffffffffffffffffffffffffffffffffff166108fc829081150290604051600060405180830381858888f19350505050151561399357600080fd5b7f0396f60aaad038749091d273dc13aaabc63db6e2271c7bad442d5cf25cc4335085828587604051808573ffffffffffffffffffffffffffffffffffffffff1673ffffffffffffffffffffffffffffffffffffffff168152602001848152602001838152602001826fffffffffffffffffffffffffffffffff166fffffffffffffffffffffffffffffffff16815260200194505050505060405180910390a18291505093925050505600a165627a7a7230582055e749d0337878c00d51a3c062a39aae0dc5ff5d9e365494750629e456c827ed0029",
  "source": "/**\r\n * This smart contract code is Copyright 2017 TokenMarket Ltd. For more information see https://tokenmarket.net\r\n *\r\n * Licensed under the Apache License, version 2.0: https://github.com/TokenMarketNet/ico/blob/master/LICENSE.txt\r\n */\r\n\r\npragma solidity ^0.4.8;\r\n\r\nimport \"./Crowdsale.sol\";\r\nimport \"./MintableToken.sol\";\r\n\r\n\r\n/**\r\n * Uncapped ICO crowdsale contract.\r\n *\r\n *\r\n * Intended usage\r\n *\r\n * - A short time window\r\n * - Flat price\r\n * - No cap\r\n *\r\n */\r\ncontract UncappedCrowdsale is Crowdsale {\r\n\r\n  function UncappedCrowdsale(address _token, PricingStrategy _pricingStrategy, address _multisigWallet, uint _start, uint _end, uint _minimumFundingGoal) Crowdsale(_token, _pricingStrategy, _multisigWallet, _start, _end, _minimumFundingGoal) {\r\n\r\n  }\r\n\r\n  /**\r\n   * Called from invest() to confirm if the curret investment does not break our cap rule.\r\n   */\r\n  function isBreakingCap(uint weiAmount, uint tokenAmount, uint weiRaisedTotal, uint tokensSoldTotal) constant returns (bool limitBroken) {\r\n    return false;\r\n  }\r\n\r\n  function isCrowdsaleFull() public constant returns (bool) {\r\n    // Uncle Scrooge\r\n    return false;\r\n  }\r\n\r\n  function assignTokens(address receiver, uint tokenAmount) internal {\r\n    MintableToken mintableToken = MintableToken(token);\r\n    mintableToken.mint(receiver, tokenAmount);\r\n  }\r\n}\r\n",
  "sourcePath": "D:\\trees\\tokenmint\\contracts\\tokenmarketnet-contracts\\contracts\\UncappedCrowdsale.sol",
  "compiler": {
    "name": "solc",
    "version": "0.4.24+commit.e67f0147.Emscripten.clang"
  },
  "schemaVersion": "2.0.1",
  "updatedAt": "2018-12-10T14:03:30.280Z"
}