{
  "contractName": "WhitelistCrowdsaleImpl",
  "abi": [
    {
      "constant": false,
      "inputs": [
        {
          "name": "account",
          "type": "address"
        }
      ],
      "name": "addWhitelisted",
      "outputs": [],
      "payable": false,
      "stateMutability": "nonpayable",
      "type": "function"
    },
    {
      "constant": false,
      "inputs": [
        {
          "name": "account",
          "type": "address"
        }
      ],
      "name": "removeWhitelisted",
      "outputs": [],
      "payable": false,
      "stateMutability": "nonpayable",
      "type": "function"
    },
    {
      "constant": true,
      "inputs": [],
      "name": "rate",
      "outputs": [
        {
          "name": "",
          "type": "uint256"
        }
      ],
      "payable": false,
      "stateMutability": "view",
      "type": "function"
    },
    {
      "constant": true,
      "inputs": [
        {
          "name": "account",
          "type": "address"
        }
      ],
      "name": "isWhitelisted",
      "outputs": [
        {
          "name": "",
          "type": "bool"
        }
      ],
      "payable": false,
      "stateMutability": "view",
      "type": "function"
    },
    {
      "constant": true,
      "inputs": [],
      "name": "weiRaised",
      "outputs": [
        {
          "name": "",
          "type": "uint256"
        }
      ],
      "payable": false,
      "stateMutability": "view",
      "type": "function"
    },
    {
      "constant": true,
      "inputs": [],
      "name": "wallet",
      "outputs": [
        {
          "name": "",
          "type": "address"
        }
      ],
      "payable": false,
      "stateMutability": "view",
      "type": "function"
    },
    {
      "constant": true,
      "inputs": [
        {
          "name": "account",
          "type": "address"
        }
      ],
      "name": "isWhitelister",
      "outputs": [
        {
          "name": "",
          "type": "bool"
        }
      ],
      "payable": false,
      "stateMutability": "view",
      "type": "function"
    },
    {
      "constant": false,
      "inputs": [],
      "name": "renounceWhitelister",
      "outputs": [],
      "payable": false,
      "stateMutability": "nonpayable",
      "type": "function"
    },
    {
      "constant": false,
      "inputs": [],
      "name": "renounceWhitelisted",
      "outputs": [],
      "payable": false,
      "stateMutability": "nonpayable",
      "type": "function"
    },
    {
      "constant": false,
      "inputs": [
        {
          "name": "account",
          "type": "address"
        }
      ],
      "name": "addWhitelister",
      "outputs": [],
      "payable": false,
      "stateMutability": "nonpayable",
      "type": "function"
    },
    {
      "constant": false,
      "inputs": [
        {
          "name": "beneficiary",
          "type": "address"
        }
      ],
      "name": "buyTokens",
      "outputs": [],
      "payable": true,
      "stateMutability": "payable",
      "type": "function"
    },
    {
      "constant": true,
      "inputs": [],
      "name": "token",
      "outputs": [
        {
          "name": "",
          "type": "address"
        }
      ],
      "payable": false,
      "stateMutability": "view",
      "type": "function"
    },
    {
      "inputs": [
        {
          "name": "_rate",
          "type": "uint256"
        },
        {
          "name": "_wallet",
          "type": "address"
        },
        {
          "name": "_token",
          "type": "address"
        }
      ],
      "payable": false,
      "stateMutability": "nonpayable",
      "type": "constructor"
    },
    {
      "payable": true,
      "stateMutability": "payable",
      "type": "fallback"
    },
    {
      "anonymous": false,
      "inputs": [
        {
          "indexed": true,
          "name": "purchaser",
          "type": "address"
        },
        {
          "indexed": true,
          "name": "beneficiary",
          "type": "address"
        },
        {
          "indexed": false,
          "name": "value",
          "type": "uint256"
        },
        {
          "indexed": false,
          "name": "amount",
          "type": "uint256"
        }
      ],
      "name": "TokensPurchased",
      "type": "event"
    },
    {
      "anonymous": false,
      "inputs": [
        {
          "indexed": true,
          "name": "account",
          "type": "address"
        }
      ],
      "name": "WhitelistedAdded",
      "type": "event"
    },
    {
      "anonymous": false,
      "inputs": [
        {
          "indexed": true,
          "name": "account",
          "type": "address"
        }
      ],
      "name": "WhitelistedRemoved",
      "type": "event"
    },
    {
      "anonymous": false,
      "inputs": [
        {
          "indexed": true,
          "name": "account",
          "type": "address"
        }
      ],
      "name": "WhitelisterAdded",
      "type": "event"
    },
    {
      "anonymous": false,
      "inputs": [
        {
          "indexed": true,
          "name": "account",
          "type": "address"
        }
      ],
      "name": "WhitelisterRemoved",
      "type": "event"
    }
  ],
  "bytecode": "0x608060405234801561001057600080fd5b50604051606080610f3f83398101806040528101908080519060200190929190805190602001909291908051906020019092919050505082828261006233610185640100000000026401000000009004565b600160028190555060008311151561007957600080fd5b600073ffffffffffffffffffffffffffffffffffffffff168273ffffffffffffffffffffffffffffffffffffffff16141515156100b557600080fd5b600073ffffffffffffffffffffffffffffffffffffffff168173ffffffffffffffffffffffffffffffffffffffff16141515156100f157600080fd5b8260058190555081600460006101000a81548173ffffffffffffffffffffffffffffffffffffffff021916908373ffffffffffffffffffffffffffffffffffffffff16021790555080600360006101000a81548173ffffffffffffffffffffffffffffffffffffffff021916908373ffffffffffffffffffffffffffffffffffffffff16021790555050505050505061033f565b6101a68160006101ec64010000000002610978179091906401000000009004565b8073ffffffffffffffffffffffffffffffffffffffff167f25f05eb2b87548a4d5f3b374af0482149441d4fe9264ff9be277dc1d37a3bf1a60405160405180910390a250565b600073ffffffffffffffffffffffffffffffffffffffff168173ffffffffffffffffffffffffffffffffffffffff161415151561022857600080fd5b61024182826102ab640100000000026401000000009004565b15151561024d57600080fd5b60018260000160008373ffffffffffffffffffffffffffffffffffffffff1673ffffffffffffffffffffffffffffffffffffffff16815260200190815260200160002060006101000a81548160ff0219169083151502179055505050565b60008073ffffffffffffffffffffffffffffffffffffffff168273ffffffffffffffffffffffffffffffffffffffff16141515156102e857600080fd5b8260000160008373ffffffffffffffffffffffffffffffffffffffff1673ffffffffffffffffffffffffffffffffffffffff16815260200190815260200160002060009054906101000a900460ff16905092915050565b610bf18061034e6000396000f3006080604052600436106100ba576000357c0100000000000000000000000000000000000000000000000000000000900463ffffffff16806310154bad146100c5578063291d9549146101085780632c4e722e1461014b5780633af32abf146101765780634042b66f146101d1578063521eb273146101fc5780637d0c269f146102535780639ad3a7ba146102ae578063d6cd9473146102c5578063eaf9144a146102dc578063ec8ac4d81461031f578063fc0c546a14610355575b6100c3336103ac565b005b3480156100d157600080fd5b50610106600480360381019080803573ffffffffffffffffffffffffffffffffffffffff1690602001909291905050506104a3565b005b34801561011457600080fd5b50610149600480360381019080803573ffffffffffffffffffffffffffffffffffffffff1690602001909291905050506104c3565b005b34801561015757600080fd5b506101606104e3565b6040518082815260200191505060405180910390f35b34801561018257600080fd5b506101b7600480360381019080803573ffffffffffffffffffffffffffffffffffffffff1690602001909291905050506104ed565b604051808215151515815260200191505060405180910390f35b3480156101dd57600080fd5b506101e661050a565b6040518082815260200191505060405180910390f35b34801561020857600080fd5b50610211610514565b604051808273ffffffffffffffffffffffffffffffffffffffff1673ffffffffffffffffffffffffffffffffffffffff16815260200191505060405180910390f35b34801561025f57600080fd5b50610294600480360381019080803573ffffffffffffffffffffffffffffffffffffffff16906020019092919050505061053e565b604051808215151515815260200191505060405180910390f35b3480156102ba57600080fd5b506102c361055b565b005b3480156102d157600080fd5b506102da610566565b005b3480156102e857600080fd5b5061031d600480360381019080803573ffffffffffffffffffffffffffffffffffffffff169060200190929190505050610571565b005b610353600480360381019080803573ffffffffffffffffffffffffffffffffffffffff1690602001909291905050506103ac565b005b34801561036157600080fd5b5061036a610591565b604051808273ffffffffffffffffffffffffffffffffffffffff1673ffffffffffffffffffffffffffffffffffffffff16815260200191505060405180910390f35b6000806000600160026000828254019250508190555060025490503492506103d484846105bb565b6103dd836105dd565b91506103f4836006546105fb90919063ffffffff16565b600681905550610404848361061c565b8373ffffffffffffffffffffffffffffffffffffffff163373ffffffffffffffffffffffffffffffffffffffff167f6faf93231a456e552dbc9961f58d9713ee4f2e69d15f1975b050ef0911053a7b8585604051808381526020018281526020019250505060405180910390a361047b848461062a565b61048361062e565b61048d8484610699565b6002548114151561049d57600080fd5b50505050565b6104ac3361053e565b15156104b757600080fd5b6104c08161069d565b50565b6104cc3361053e565b15156104d757600080fd5b6104e0816106f7565b50565b6000600554905090565b600061050382600161075190919063ffffffff16565b9050919050565b6000600654905090565b6000600460009054906101000a900473ffffffffffffffffffffffffffffffffffffffff16905090565b600061055482600061075190919063ffffffff16565b9050919050565b610564336107e5565b565b61056f336106f7565b565b61057a3361053e565b151561058557600080fd5b61058e8161083f565b50565b6000600360009054906101000a900473ffffffffffffffffffffffffffffffffffffffff16905090565b6105c4826104ed565b15156105cf57600080fd5b6105d98282610899565b5050565b60006105f4600554836108e990919063ffffffff16565b9050919050565b600080828401905083811015151561061257600080fd5b8091505092915050565b6106268282610927565b5050565b5050565b600460009054906101000a900473ffffffffffffffffffffffffffffffffffffffff1673ffffffffffffffffffffffffffffffffffffffff166108fc349081150290604051600060405180830381858888f19350505050158015610696573d6000803e3d6000fd5b50565b5050565b6106b181600161097890919063ffffffff16565b8073ffffffffffffffffffffffffffffffffffffffff167fee1504a83b6d4a361f4c1dc78ab59bfa30d6a3b6612c403e86bb01ef2984295f60405160405180910390a250565b61070b816001610a2890919063ffffffff16565b8073ffffffffffffffffffffffffffffffffffffffff167f270d9b30cf5b0793bbfd54c9d5b94aeb49462b8148399000265144a8722da6b660405160405180910390a250565b60008073ffffffffffffffffffffffffffffffffffffffff168273ffffffffffffffffffffffffffffffffffffffff161415151561078e57600080fd5b8260000160008373ffffffffffffffffffffffffffffffffffffffff1673ffffffffffffffffffffffffffffffffffffffff16815260200190815260200160002060009054906101000a900460ff16905092915050565b6107f9816000610a2890919063ffffffff16565b8073ffffffffffffffffffffffffffffffffffffffff167f8514ebf39bc709d98437cc704235ba0864bfdae7563b87a6583d2920cf2e835460405160405180910390a250565b61085381600061097890919063ffffffff16565b8073ffffffffffffffffffffffffffffffffffffffff167f25f05eb2b87548a4d5f3b374af0482149441d4fe9264ff9be277dc1d37a3bf1a60405160405180910390a250565b600073ffffffffffffffffffffffffffffffffffffffff168273ffffffffffffffffffffffffffffffffffffffff16141515156108d557600080fd5b600081141515156108e557600080fd5b5050565b60008060008414156108fe5760009150610920565b828402905082848281151561090f57fe5b0414151561091c57600080fd5b8091505b5092915050565b6109748282600360009054906101000a900473ffffffffffffffffffffffffffffffffffffffff1673ffffffffffffffffffffffffffffffffffffffff16610ad79092919063ffffffff16565b5050565b600073ffffffffffffffffffffffffffffffffffffffff168173ffffffffffffffffffffffffffffffffffffffff16141515156109b457600080fd5b6109be8282610751565b1515156109ca57600080fd5b60018260000160008373ffffffffffffffffffffffffffffffffffffffff1673ffffffffffffffffffffffffffffffffffffffff16815260200190815260200160002060006101000a81548160ff0219169083151502179055505050565b600073ffffffffffffffffffffffffffffffffffffffff168173ffffffffffffffffffffffffffffffffffffffff1614151515610a6457600080fd5b610a6e8282610751565b1515610a7957600080fd5b60008260000160008373ffffffffffffffffffffffffffffffffffffffff1673ffffffffffffffffffffffffffffffffffffffff16815260200190815260200160002060006101000a81548160ff0219169083151502179055505050565b8273ffffffffffffffffffffffffffffffffffffffff1663a9059cbb83836040518363ffffffff167c0100000000000000000000000000000000000000000000000000000000028152600401808373ffffffffffffffffffffffffffffffffffffffff1673ffffffffffffffffffffffffffffffffffffffff16815260200182815260200192505050602060405180830381600087803b158015610b7a57600080fd5b505af1158015610b8e573d6000803e3d6000fd5b505050506040513d6020811015610ba457600080fd5b81019080805190602001909291905050501515610bc057600080fd5b5050505600a165627a7a723058205422dd404c157ee7289e6c3240aff1aa217c70f7fe797613fa40cfbfeb99a5960029",
  "source": "pragma solidity ^0.4.24;\r\n\r\nimport \"../token/ERC20/IERC20.sol\";\r\nimport \"../crowdsale/validation/WhitelistCrowdsale.sol\";\r\nimport \"../crowdsale/Crowdsale.sol\";\r\n\r\n\r\ncontract WhitelistCrowdsaleImpl is Crowdsale, WhitelistCrowdsale {\r\n    constructor (uint256 _rate, address _wallet, IERC20 _token) Crowdsale(_rate, _wallet, _token) public {}\r\n}\r\n",
  "sourcePath": "D:\\dev\\tokenmint\\contracts\\open-zeppelin-contracts\\mocks\\WhitelistCrowdsaleImpl.sol",
  "compiler": {
    "name": "solc",
    "version": "0.4.24+commit.e67f0147.Emscripten.clang"
  },
  "schemaVersion": "2.0.1",
  "updatedAt": "2019-01-09T16:58:53.789Z"
}