{
  "contractName": "Whitelist",
  "abi": [
    {
      "constant": true,
      "inputs": [],
      "name": "owner",
      "outputs": [
        {
          "name": "",
          "type": "address"
        }
      ],
      "payable": false,
      "stateMutability": "view",
      "type": "function"
    },
    {
      "constant": true,
      "inputs": [
        {
          "name": "",
          "type": "address"
        }
      ],
      "name": "whitelist",
      "outputs": [
        {
          "name": "",
          "type": "bool"
        }
      ],
      "payable": false,
      "stateMutability": "view",
      "type": "function"
    },
    {
      "constant": false,
      "inputs": [
        {
          "name": "newOwner",
          "type": "address"
        }
      ],
      "name": "transferOwnership",
      "outputs": [],
      "payable": false,
      "stateMutability": "nonpayable",
      "type": "function"
    },
    {
      "anonymous": false,
      "inputs": [
        {
          "indexed": false,
          "name": "addr",
          "type": "address"
        }
      ],
      "name": "WhitelistedAddressAdded",
      "type": "event"
    },
    {
      "anonymous": false,
      "inputs": [
        {
          "indexed": false,
          "name": "addr",
          "type": "address"
        }
      ],
      "name": "WhitelistedAddressRemoved",
      "type": "event"
    },
    {
      "anonymous": false,
      "inputs": [
        {
          "indexed": true,
          "name": "previousOwner",
          "type": "address"
        },
        {
          "indexed": true,
          "name": "newOwner",
          "type": "address"
        }
      ],
      "name": "OwnershipTransferred",
      "type": "event"
    },
    {
      "constant": false,
      "inputs": [
        {
          "name": "addr",
          "type": "address"
        }
      ],
      "name": "addAddressToWhitelist",
      "outputs": [
        {
          "name": "success",
          "type": "bool"
        }
      ],
      "payable": false,
      "stateMutability": "nonpayable",
      "type": "function"
    },
    {
      "constant": false,
      "inputs": [
        {
          "name": "addrs",
          "type": "address[]"
        }
      ],
      "name": "addAddressesToWhitelist",
      "outputs": [
        {
          "name": "success",
          "type": "bool"
        }
      ],
      "payable": false,
      "stateMutability": "nonpayable",
      "type": "function"
    },
    {
      "constant": false,
      "inputs": [
        {
          "name": "addr",
          "type": "address"
        }
      ],
      "name": "removeAddressFromWhitelist",
      "outputs": [
        {
          "name": "success",
          "type": "bool"
        }
      ],
      "payable": false,
      "stateMutability": "nonpayable",
      "type": "function"
    },
    {
      "constant": false,
      "inputs": [
        {
          "name": "addrs",
          "type": "address[]"
        }
      ],
      "name": "removeAddressesFromWhitelist",
      "outputs": [
        {
          "name": "success",
          "type": "bool"
        }
      ],
      "payable": false,
      "stateMutability": "nonpayable",
      "type": "function"
    }
  ],
  "bytecode": "0x6080604052336000806101000a81548173ffffffffffffffffffffffffffffffffffffffff021916908373ffffffffffffffffffffffffffffffffffffffff16021790555061092f806100536000396000f300608060405260043610610083576000357c0100000000000000000000000000000000000000000000000000000000900463ffffffff16806324953eaa14610088578063286dd3f5146101065780637b9417c8146101615780638da5cb5b146101bc5780639b19251a14610213578063e2ec6ec31461026e578063f2fde38b146102ec575b600080fd5b34801561009457600080fd5b506100ec6004803603810190808035906020019082018035906020019080806020026020016040519081016040528093929190818152602001838360200280828437820191505050505050919291929050505061032f565b604051808215151515815260200191505060405180910390f35b34801561011257600080fd5b50610147600480360381019080803573ffffffffffffffffffffffffffffffffffffffff1690602001909291905050506103d8565b604051808215151515815260200191505060405180910390f35b34801561016d57600080fd5b506101a2600480360381019080803573ffffffffffffffffffffffffffffffffffffffff16906020019092919050505061054c565b604051808215151515815260200191505060405180910390f35b3480156101c857600080fd5b506101d16106c0565b604051808273ffffffffffffffffffffffffffffffffffffffff1673ffffffffffffffffffffffffffffffffffffffff16815260200191505060405180910390f35b34801561021f57600080fd5b50610254600480360381019080803573ffffffffffffffffffffffffffffffffffffffff1690602001909291905050506106e5565b604051808215151515815260200191505060405180910390f35b34801561027a57600080fd5b506102d260048036038101908080359060200190820180359060200190808060200260200160405190810160405280939291908181526020018383602002808284378201915050505050509192919290505050610705565b604051808215151515815260200191505060405180910390f35b3480156102f857600080fd5b5061032d600480360381019080803573ffffffffffffffffffffffffffffffffffffffff1690602001909291905050506107ae565b005b6000806000809054906101000a900473ffffffffffffffffffffffffffffffffffffffff1673ffffffffffffffffffffffffffffffffffffffff163373ffffffffffffffffffffffffffffffffffffffff1614151561038d57600080fd5b600090505b82518110156103d2576103bb83828151811015156103ac57fe5b906020019060200201516103d8565b156103c557600191505b8080600101915050610392565b50919050565b60008060009054906101000a900473ffffffffffffffffffffffffffffffffffffffff1673ffffffffffffffffffffffffffffffffffffffff163373ffffffffffffffffffffffffffffffffffffffff1614151561043557600080fd5b600160008373ffffffffffffffffffffffffffffffffffffffff1673ffffffffffffffffffffffffffffffffffffffff16815260200190815260200160002060009054906101000a900460ff1615610547576000600160008473ffffffffffffffffffffffffffffffffffffffff1673ffffffffffffffffffffffffffffffffffffffff16815260200190815260200160002060006101000a81548160ff0219169083151502179055507ff1abf01a1043b7c244d128e8595cf0c1d10743b022b03a02dffd8ca3bf729f5a82604051808273ffffffffffffffffffffffffffffffffffffffff1673ffffffffffffffffffffffffffffffffffffffff16815260200191505060405180910390a1600190505b919050565b60008060009054906101000a900473ffffffffffffffffffffffffffffffffffffffff1673ffffffffffffffffffffffffffffffffffffffff163373ffffffffffffffffffffffffffffffffffffffff161415156105a957600080fd5b600160008373ffffffffffffffffffffffffffffffffffffffff1673ffffffffffffffffffffffffffffffffffffffff16815260200190815260200160002060009054906101000a900460ff1615156106bb5760018060008473ffffffffffffffffffffffffffffffffffffffff1673ffffffffffffffffffffffffffffffffffffffff16815260200190815260200160002060006101000a81548160ff0219169083151502179055507fd1bba68c128cc3f427e5831b3c6f99f480b6efa6b9e80c757768f6124158cc3f82604051808273ffffffffffffffffffffffffffffffffffffffff1673ffffffffffffffffffffffffffffffffffffffff16815260200191505060405180910390a1600190505b919050565b6000809054906101000a900473ffffffffffffffffffffffffffffffffffffffff1681565b60016020528060005260406000206000915054906101000a900460ff1681565b6000806000809054906101000a900473ffffffffffffffffffffffffffffffffffffffff1673ffffffffffffffffffffffffffffffffffffffff163373ffffffffffffffffffffffffffffffffffffffff1614151561076357600080fd5b600090505b82518110156107a857610791838281518110151561078257fe5b9060200190602002015161054c565b1561079b57600191505b8080600101915050610768565b50919050565b6000809054906101000a900473ffffffffffffffffffffffffffffffffffffffff1673ffffffffffffffffffffffffffffffffffffffff163373ffffffffffffffffffffffffffffffffffffffff1614151561080957600080fd5b600073ffffffffffffffffffffffffffffffffffffffff168173ffffffffffffffffffffffffffffffffffffffff161415151561084557600080fd5b8073ffffffffffffffffffffffffffffffffffffffff166000809054906101000a900473ffffffffffffffffffffffffffffffffffffffff1673ffffffffffffffffffffffffffffffffffffffff167f8be0079c531659141344cd1fd0a4f28419497f9722a3daafe3b4186f6b6457e060405160405180910390a3806000806101000a81548173ffffffffffffffffffffffffffffffffffffffff021916908373ffffffffffffffffffffffffffffffffffffffff160217905550505600a165627a7a723058203690287c35d462f308f879a8e35ce3ba990157ce64c1f28a96d39aab86fa85f50029",
  "source": "pragma solidity ^0.4.18;\r\n\r\n\r\nimport \"./Ownable.sol\";\r\n\r\n\r\n/**\r\n * @title Whitelist\r\n * @dev The Whitelist contract has a whitelist of addresses, and provides basic authorization control functions.\r\n * @dev This simplifies the implementation of \"user permissions\".\r\n */\r\ncontract Whitelist is Ownable {\r\n  mapping(address => bool) public whitelist;\r\n  \r\n  event WhitelistedAddressAdded(address addr);\r\n  event WhitelistedAddressRemoved(address addr);\r\n\r\n  /**\r\n   * @dev Throws if called by any account that's not whitelisted.\r\n   */\r\n  modifier onlyWhitelisted() {\r\n    require(whitelist[msg.sender]);\r\n    _;\r\n  }\r\n\r\n  /**\r\n   * @dev add an address to the whitelist\r\n   * @param addr address\r\n   * @return true if the address was added to the whitelist, false if the address was already in the whitelist \r\n   */\r\n  function addAddressToWhitelist(address addr) onlyOwner public returns(bool success) {\r\n    if (!whitelist[addr]) {\r\n      whitelist[addr] = true;\r\n      WhitelistedAddressAdded(addr);\r\n      success = true; \r\n    }\r\n  }\r\n\r\n  /**\r\n   * @dev add addresses to the whitelist\r\n   * @param addrs addresses\r\n   * @return true if at least one address was added to the whitelist, \r\n   * false if all addresses were already in the whitelist  \r\n   */\r\n  function addAddressesToWhitelist(address[] addrs) onlyOwner public returns(bool success) {\r\n    for (uint256 i = 0; i < addrs.length; i++) {\r\n      if (addAddressToWhitelist(addrs[i])) {\r\n        success = true;\r\n      }\r\n    }\r\n  }\r\n\r\n  /**\r\n   * @dev remove an address from the whitelist\r\n   * @param addr address\r\n   * @return true if the address was removed from the whitelist, \r\n   * false if the address wasn't in the whitelist in the first place \r\n   */\r\n  function removeAddressFromWhitelist(address addr) onlyOwner public returns(bool success) {\r\n    if (whitelist[addr]) {\r\n      whitelist[addr] = false;\r\n      WhitelistedAddressRemoved(addr);\r\n      success = true;\r\n    }\r\n  }\r\n\r\n  /**\r\n   * @dev remove addresses from the whitelist\r\n   * @param addrs addresses\r\n   * @return true if at least one address was removed from the whitelist, \r\n   * false if all addresses weren't in the whitelist in the first place\r\n   */\r\n  function removeAddressesFromWhitelist(address[] addrs) onlyOwner public returns(bool success) {\r\n    for (uint256 i = 0; i < addrs.length; i++) {\r\n      if (removeAddressFromWhitelist(addrs[i])) {\r\n        success = true;\r\n      }\r\n    }\r\n  }\r\n\r\n}\r\n",
  "sourcePath": "D:\\trees\\tokenmint\\contracts\\tokenmarketnet-contracts\\contracts\\zeppelin\\contracts\\ownership\\Whitelist.sol",
  "compiler": {
    "name": "solc",
    "version": "0.4.24+commit.e67f0147.Emscripten.clang"
  },
  "schemaVersion": "2.0.1",
  "updatedAt": "2018-12-10T14:03:30.326Z"
}